:100000000C9459000C9478000C9478000C947800AF
:100010000C9478000C9478000C9478000C94780080
:100020000C9478000C9478000C9478000C94780070
:100030000C9478000C9478000C9478000C94780060
:100040000C94B5030C9478000C9478000C94780010
:100050000C9478000C9478000C9478000C94780040
:100060000C9478000C9478000C9478000C94780030
:100070000C9478000C9478000C9478000C94780020
:100080000C9478000C9478000C947800E70AEE0A3F
:10009000F50AFD0A040B0B0B140B1D0B260B2F0B83
:1000A000390B420B4A0B520B5B0B630B6B0B730B45
:1000B0007B0B11241FBECFEFD0E1DEBFCDBF12E01E
:1000C000A0E0B1E0E2E8F3E200E00BBF02C007907D
:1000D0000D92AC30B107D9F712E0ACE0B2E001C04C
:1000E0001D92A039B107E1F70E9472030C94BF1171
:1000F0000C940000AF92BF92CF92DF92EF92FF92EA
:100100000F931F93CF93DF9320E030E041E050E066
:10011000E2E6F0E0A0E1B1E00F2EF1E1AF2EF1E078
:10012000BF2EF02D02E111E00F2EF3E1EF2EF1E0F2
:10013000FF2EF02DB901C90104966A0102C0CC0C52
:10014000DD1C8A95E2F7C6018095808383E08A955D
:10015000F1F7000080B18F708F3029F19C919817D2
:10016000A9F0E5019881981759F0E801988198174E
:1001700051F0E70198819817B1F4E3E0F0E008C08E
:10018000E1E0F0E005C0E2E0F0E002C0E0E0F0E035
:10019000EE0FFF1FEE0FFF1F6E0F7F1FFB01E050E2
:1001A000FF4F808106C02F5F3F4F2430310511F68D
:1001B00080E0DF91CF911F910F91FF90EF90DF9042
:1001C000CF90BF90AF90089580EF809361008FE053
:1001D0008093620008958FEC97E00197F1F700C0DB
:1001E00000000895282F22952F708F70662311F438
:1001F000D89801C0D89AD99A9BB3220F220F937C2A
:10020000922B9BBBD998D99A9BB3880F880F937C6C
:10021000892B8BBBD9980E94EB0008950F931F93F5
:10022000CF93DF938C01FC018081882309F1853213
:10023000A9F4E8012196F80181818053883020F4E7
:1002400061E00E94F2000EC085E261E00E94F200CF
:10025000F801818161E00E94F20004C061E00E9427
:10026000F200E8018E010F5F1F4F89818823F9F6A4
:10027000DF91CF911F910F910895EF92FF920F930D
:100280001F93CF93DF9300D000D00F92CDB7DEB78E
:100290007B01FE01319625E0DF011D922A95E9F7E9
:1002A000009761F0FE0136962AE030E0B9010E9425
:1002B000930D8293862F972F0097C1F7BFEFEB1610
:1002C000BFEFFB0669F42981222379F4FE013296FF
:1002D00000E010E00F5F1F4F21912223D9F307C0E8
:1002E00005E010E00E191F0902C000E010E099239C
:1002F00024F48DE261E00E94F20005301105BCF4A7
:10030000E1E0F0E0EC0FFD1F0E0F1F1F0F2EF6E0D7
:10031000EF2EFF24F02DEC0EFD1ED8018D918D01E6
:10032000805D61E00E94F2000E151F05B1F70F908D
:100330000F900F900F900F90DF91CF911F910F9121
:10034000FF90EF900895843178F4623031F063309B
:1003500031F0613029F4806403C08C5E01C08C5A96
:10036000806860E00E94F20008950F931F93CF937E
:10037000DF93C82F8BE49DE10197F1F700C00000E7
:100380008AB38C638ABBD19AD09A8BB3837C8BBBA4
:10039000D998D898D99ADB9AD9980E94EB008C2FDB
:1003A0008C6060E00E94F20088E260E00E94F2004F
:1003B00080E460E00E94F200C4E1D1E004E511E0D5
:1003C000899161E00E94F200C017D107C9F780E06F
:1003D00060E00E94A301DF91CF911F910F910895DA
:1003E0000E947A00682F70E080E090E008950E94FB
:1003F000E40008950E940E0108950F93CF93DF93B8
:10040000EC01842F602F0E94A301CE010E940E01F7
:10041000DF91CF910F9108954F925F926F927F92EB
:10042000AF92BF92CF92DF92EF92FF922B013C01ED
:10043000822F6E2D760165010E94A301C201B601D3
:100440000E943D01FF90EF90DF90CF90BF90AF9062
:100450007F906F905F904F90089581E060E00E94E0
:10046000F20082E060E00E94F200089580E00E94C5
:10047000B50108950F931F93CF93DF930F92CDB7DC
:10048000DEB71982CE0101960E9455068823E9F055
:1004900080E061E00E94A301898190E061E070E06A
:1004A0000E943D018981882399F4E0E1F2E0CF01C7
:1004B00009961192E817F907E1F700E112E080E0F0
:1004C000B8010E946706C80105C084E591E002C03A
:1004D00084E591E00F90DF91CF911F910F910895E6
:1004E000CF93DF939C01CBE1D2E080E090E0A22F9C
:1004F000B32FFD0101900020E9F73197EA1BFB0BB8
:100500008E179F0730F4F901E80FF91F40814883E7
:1005100001C01882019621968930910541F785E541
:1005200091E00E94C5048BE192E00E948D06982F15
:10053000EFECF7E03197F1F700C0000081E0913077
:1005400009F080E0DF91CF910895EBE1F2E0CF0177
:10055000099621E02193E817F907E1F78AE591E090
:100560000E94C5048BE192E00E948D06982FEFEC6B
:10057000F7E03197F1F700C0000081E0913009F019
:1005800080E008950F931F93CF93DF930F92CDB721
:10059000DEB71982CE0101960E9455068823F1F03C
:1005A00089818530E9F4E0E1F2E08F01075F1F4FB8
:1005B0001192E017F107E1F785E060E172E00E9437
:1005C000670680911002813069F4E1E1F2E08191E7
:1005D000813051F4E017F107D1F707C080E005C082
:1005E00080E003C080E001C080E00F90DF91CF91F8
:1005F0001F910F910895AF92EF92822FEBE1F2E0FD
:10060000AF01475F5F4F1192E417F507E1F7605DB7
:1006100060931B023AE0632F0E94870D905D9093D8
:100620001D020E94870D905D90931C028E2D0E94EA
:10063000870D905D909320020E94870D905D9093AE
:100640001F020E94870D905D90931E028A2D0E94CA
:10065000870D905D909322020E94870D905D90938C
:10066000210285E591E00E94C5048BE192E00E94A1
:100670008D06982FEFECF7E03197F1F700C00000FE
:1006800081E0913009F080E0EF90AF900895EBE1C8
:10069000F2E0CF0109961192E817F907E1F7605DE2
:1006A00060931B02205D20931C0285E591E00E946F
:1006B000C5048BE192E00E948D06982FEFECF7E0E5
:1006C0003197F1F700C0000081E0913009F080E03F
:1006D00008950E946B0C08950E94B70C08950E9423
:1006E000E30608958FE084BB85BB82E090E00E9422
:1006F000BA0D8093190290931A020E945F0C8091A8
:10070000190290911A020E94A207809119029091F9
:100710001A020E94A90781E680931B0282E6809359
:100720001C0283E680931D0284E680931E0285E608
:1007300080931F0286E68093200287E68093210241
:1007400088E68093220289E680932302E0E1F2E0CA
:10075000CF0109961192E817F907E1F78091190284
:1007600090911A020E945608F9CF1F920F920FB66D
:100770000F920BB60F9211242F933F934F935F93D9
:100780006F937F938F939F93AF93BF93EF93FF9359
:1007900083E882BF8091190290911A020E94ED0CA9
:1007A000FF91EF91BF91AF919F918F917F916F9149
:1007B0005F914F913F912F910F900BBE0F900FBE05
:1007C0000F901F901895AE988F710E945A0C8FEF62
:1007D0000E945A0CAE9A0895FF920F931F93CF93E5
:1007E000DF93062FF72E142FAE988F710E945A0CAC
:1007F000112351F0C02FDF2D00E08FEF0E945A0C23
:1008000089930F5F0117C9F7AE9ADF91CF911F91BE
:100810000F91FF900895CF93C62FAE988F7180628D
:100820000E945A0C8C2F0E945A0CAE9ACF910895B8
:10083000FF920F931F93CF93DF93062FF72E142F62
:10084000AE988F7180620E945A0C112349F0C02F1C
:10085000DF2D00E089910E945A0C0F5F0117D1F73C
:10086000AE9ADF91CF911F910F91FF90089520E0F4
:1008700030E00496DB01A20FB31FFC01E21BF30B77
:1008800040814C932F5F3F4F2530310599F70895F4
:10089000CF93DF9300D000D00F92CDB7DEB788237F
:1008A000B1F4A9EDB1E0FB0185E001900D9281501A
:1008B000E1F7CB01BE016F5F7F4F0E9437048AE0F2
:1008C000BE016F5F7F4F45E00E94180456C0813023
:1008D000B1F4AEEDB1E0FB0185E001900D928150E5
:1008E000E1F7CB01BE016F5F7F4F0E9437048BE0C1
:1008F000BE016F5F7F4F45E00E9418043EC082300A
:1009000071F4A3EEB1E0FB0185E001900D928150FE
:10091000E1F78CE0FB0164810E940B042EC0833060
:1009200071F4A8EEB1E0FB0185E001900D928150D9
:10093000E1F78DE0FB0164810E940B041EC084304E
:1009400071F4ADEEB1E0FB0185E001900D928150B4
:10095000E1F78EE0FB0164810E940B040EC085303C
:1009600061F4A2EFB1E0FB0101900D928150E1F73B
:100970008FE0FB0164810E940B040F900F900F9099
:100980000F900F90DF91CF910895CF93DF9300D018
:1009900000D00F92CDB7DEB7A7EFB1E0E82FF92F67
:1009A00025E001900D922150E1F7BE016F5F7F4F6E
:1009B0000E9437048AE0BE016F5F7F4F45E00E94CE
:1009C000180480E1BE016F5F7F4F45E00E9418046C
:1009D0000F900F900F900F900F90DF91CF9108958F
:1009E000AE9882EE0E945A0CAE9A0895AE9881EEAF
:1009F0000E945A0CAE9A089580E069ED71E00E9461
:100A0000480480E00E94E303682F616080E00E9458
:100A10000B0480E00E94E303682F626080E00E9484
:100A20000B0487E060E70E940B040E94F0040E9420
:100A3000F604AF9A82E38A95F1F70895AF9880E0C3
:100A40000E94E303682F6E7F80E00E940B0480E029
:100A50000E94E303682F626080E00E940B0487E03D
:100A600060E70E940B040E94F60482E38A95F1F786
:100A70000895AE988FEF0E945A0CAE9A0895EF92A7
:100A8000FF920F931F93CF93DF93CDB7DEB7C4567A
:100A9000D0400FB6F894DEBF0FBECDBF7C018FE50E
:100AA00091E0F70109950E94390500D000D000D0EF
:100AB000EDB7FEB731968E010F5F1F4FADB7BEB7D2
:100AC00012961C930E93119726E631E0338322830E
:100AD000848315820E94E90E8DB79EB706960FB6E5
:100AE000F8949EBF0FBE8DBFC801F701099580E045
:100AF0000E94E30300D000D000D0EDB7FEB73196DE
:100B0000ADB7BEB712961C930E93119725E731E04F
:100B100033832283848315820E94E90E8DB79EB7AA
:100B200006960FB6F8949EBF0FBE8DBFC801F701A1
:100B3000099585E00E94E30300D000D000D0EDB716
:100B4000FEB73196ADB7BEB712961C930E931197B0
:100B500024E831E033832283848315820E94E90EE6
:100B60008DB79EB706960FB6F8949EBF0FBE8DBF89
:100B7000C801F701099586E00E94E30300D000D088
:100B800000D0EDB7FEB73196ADB7BEB712961C9345
:100B90000E93119722E931E03383228384831582F7
:100BA0000E94E90E8DB79EB706960FB6F8949EBFC9
:100BB0000FBE8DBFC801F701099581E00E94E303D4
:100BC00000D000D000D0EDB7FEB73196ADB7BEB7BC
:100BD00012961C930E93119723EA31E033832283FC
:100BE000848315820E94E90E8DB79EB706960FB6D4
:100BF000F8949EBF0FBE8DBFC801F701099582E032
:100C00000E94E30300D000D000D0EDB7FEB73196CC
:100C1000ADB7BEB712961C930E93119721EB31E03E
:100C200033832283848315820E94E90E8DB79EB799
:100C300006960FB6F8949EBF0FBE8DBFC801F70190
:100C4000099588E00E94E30300D000D000D0EDB702
:100C5000FEB73196ADB7BEB712961C930E9311979F
:100C600023EC31E033832283848315820E94E90ED2
:100C70008DB79EB706960FB6F8949EBF0FBE8DBF78
:100C8000C801F701099586ED91E0F7010995CC5966
:100C9000DF4F0FB6F894DEBF0FBECDBFDF91CF910F
:100CA0001F910F91FF90EF900895CF93DF93EC0188
:100CB0000E943905982F907486FF05C0209719F07F
:100CC000869587708883892FDF91CF9108950F9340
:100CD0001F93CF93DF93062F172FAE9881E60E94C4
:100CE0005A0CC02FD12F10E08FEF0E945A0C89931D
:100CF0001F5F1930C9F7AE9A87E060E40E940B04C9
:100D00000E94390585FF04C087E060E20E940B0461
:100D1000DF91CF911F910F9108950F931F93CF9360
:100D2000DF93082F192F0E941E05AE9880EA0E94BB
:100D30005A0CC02FD12F19E089910E945A0C1150E2
:100D4000D9F7AE9AAF9A85E08A95F1F7AF9883E02C
:100D50008A95F1F700000E9439058073C1F30E9463
:100D60003905C82F85E06CE40E940B0480E00E94E6
:100D7000E303682F6D7F80E00E940B040E94FC0457
:100D800081E0C5FF80E0DF91CF911F910F91089521
:100D900086E00E94E303682F666086E00E940B04F1
:100DA000089586E00E94E303682F677D86E00E9435
:100DB0000B04089580E00E94E303682F6C6080E0DC
:100DC0000E940B040895A69AA79A0E944F0CAF9810
:100DD000AE9A81EE94E00197F1F700C000000E9406
:100DE000C8060E94D1060E94DA0684E067E40E94E9
:100DF0000B048CE160E00E940B0485E06CE40E942F
:100E00000B0481E169E00E940B0482E169E00E9429
:100E10000B0483E169E00E940B0484E169E00E9415
:100E20000B0485E169E00E940B0486E169E00E9401
:100E30000B0482E060E00E940B0482E00E94E30366
:100E4000682F616082E00E940B0482E00E94E3034D
:100E5000682F626082E00E940B0482E00E94E3033C
:100E6000682F646082E00E940B0482E00E94E3032A
:100E7000682F686082E00E940B0482E00E94E30316
:100E8000682F606182E00E940B0482E00E94E3030D
:100E9000682F606282E00E940B0481E00E94E303FD
:100EA000682F616081E00E940B0481E00E94E303EF
:100EB000682F626081E00E940B0481E00E94E303DE
:100EC000682F646081E00E940B0481E00E94E303CC
:100ED000682F686081E00E940B0481E00E94E303B8
:100EE000682F606181E00E940B0481E00E94E303AF
:100EF000682F606281E00E940B0480E069ED71E080
:100F00000E94480481E06EED71E00E94480482E096
:100F100063EE71E00E94480483E068EE71E00E9495
:100F2000480484E06DEE71E00E94480485E062EFC1
:100F300071E00E94480487EF91E00E94C5040E947E
:100F4000FC040895FC0183E1808381831382128273
:100F500008951F93CF93DF93EC0111E01DA70E942A
:100F600036020E946F030E94F70118831B821A82C7
:100F7000DF91CF911F910895FC018081833049F06A
:100F8000843061F0813071F483E1808313821282B6
:100F900009C083E180831382128204C083E18083CD
:100FA0001382128281818B3009F44AC08C3080F424
:100FB000873089F1883030F48530F9F0863009F0D7
:100FC00074C022C0883071F18A3009F06EC031C01F
:100FD0008F3009F44AC0803130F48C30C1F18E304A
:100FE00009F063C03BC0813109F452C0813108F47B
:100FF00043C0823109F059C052C083E1818381E04E
:1010000090E093838283089583E1818381E090E07F
:1010100093838283089583E1818381E090E09383C9
:101020008283089583E1818381E090E093838283CA
:10103000089583E1818381E090E093838283089522
:1010400083E1818381E090E093838283089583E14B
:10105000818381E090E093838283089583E181839B
:1010600081E090E093838283089583E1818381E02E
:1010700090E093838283089583E1818381E090E00F
:1010800093838283CF01805C9F4F0E946C030895FD
:1010900083E1818381E090E093838283089583E1FB
:1010A000818381E090E09383828308952F923F9221
:1010B0004F925F926F927F928F929F92AF92BF9268
:1010C000CF92DF92EF92FF920F931F93CF93DF9314
:1010D00000D000D0CDB7DEB79C838B83FC01138298
:1010E000128280E090E0E05CFF4FFA83E98301E048
:1010F00010E0FF24F3940F2EF1E1DF2EF02D0F2EE0
:10110000F2E1EF2EF02D0F2EFBE0CF2EF02D332449
:10111000689432F80F2EF3E02F2EF02D0F2EF6E00C
:101120008F2EF0E09F2EF0E0AF2EF0E0BF2EF02DDE
:101130000F2EF5E04F2EF0E05F2EF0E06F2EF0E086
:101140007F2EF02DEB81FC818E0F9F1FFC01808193
:10115000883009F4EFC0893090F4843009F477C006
:10116000853030F4813021F1833009F0DBC13FC09C
:10117000863009F4A4C0873008F0CDC095C08E3009
:1011800009F443C18F3050F48B3009F4FDC08C302A
:1011900009F40CC18A3009F0C5C1DBC0803109F403
:1011A0009CC1803108F466C1813109F0BBC1B5C171
:1011B0002B813C8183E1F9018083138212820E949A
:1011C000F001DC01CB01EB81FC8184839583A68354
:1011D000B783148683E0808316AA17AA10AE11AED7
:1011E00085E0818381E090E093838283C4C1EB81B9
:1011F000FC8184819581A681B7810097A105B10505
:10120000B9F023E120831382128280879187A2871D
:10121000B3870E94F001DC01CB01EB81FC81848368
:101220009583A683B783F486308213821282ABC182
:101230000E94F001DC01CB01EB81FC81848395836A
:10124000A683B78314862082138212829CC1EB810D
:10125000FC8184819581A681B7810097A105B105A4
:10126000A1F423E1208313821282F5860E94F0010B
:10127000DC01CB01EB81FC8184839583A683B7835A
:1012800014862082138212827EC10E94F001DC014A
:10129000CB01EB81FC8184839583A683B783F4869D
:1012A0003082138212826FC1EB81FC81138302832F
:1012B000108611861286138686E0818333C1EB8106
:1012C000FC8180859185A285B3858D309105A1052E
:1012D000B10561F42585222349F01383028346AAD0
:1012E00057AA60AE71AE87E081831CC18E30910534
:1012F000A105B10509F016C1EB81FC818585882324
:1013000009F410C11383028386AA97AAA0AEB1AED6
:1013100028E0218307C1EB81FC811383028312AE95
:1013200013AE14AE15AE10861186128613868CE0AD
:101330008183F8C0EB81FC811383028312AE13AE6C
:1013400014AE15AE10861186128613868CE081834A
:10135000E9C0EB81FC8186A997A9A0ADB1AD00974A
:10136000A105B10539F485E0818381E090E09383A4
:10137000828301C1EB81FC811383028316AA17AA21
:1013800010AE11AEC182CEC0EB81FC8186A997A9B7
:10139000A0ADB1AD0097A105B10509F0C3C085E0CE
:1013A000818381E090E093838283E5C0EB81FC81BF
:1013B00086A997A9A0ADB1AD0097A105B10539F4F3
:1013C00085E0818381E090E093838283D4C0EB81C8
:1013D000FC814085518562857385DB01CA010197D7
:1013E000A109B1098A309105A105B10508F09AC09B
:1013F0008585882309F496C01383028342AF53AFD7
:1014000064AF75AF2AE021838DC08B819C81FC0184
:101410008789882381F083E1818301E010E01383D1
:1014200002830E94C202EB81FC81878B8FE0818363
:1014300013830283A0C083E1EB81FC81818301E0FF
:1014400010E013830283CF01805C9F4F40ED57E093
:1014500060E070E020E00E9469030E942D028CEFA2
:1014600091E00E94FA0180E1EB81FC81818313838A
:10147000028381C0EB81FC818789882319F583E190
:10148000818301E010E013830283808D918DA28D12
:10149000B38D0196A11DB11D808F918FA28FB38F47
:1014A00066A977A980AD91AD22AD33AD44AD55AD00
:1014B0000E944703EB81FC81878B8EE0818313833D
:1014C000028359C0EB81FC8113830283F78A108E5B
:1014D000118E128E138ED18225C0E981FA8180810E
:1014E000882301F12B813C8183E1F901818301E0B3
:1014F00010E013830283C901805C9F4F0E946C033C
:1015000081E0EB81FC81878B108E118E128E138E01
:1015100081E18183138302832EC0EB81FC811383DD
:101520000283E182EB81FC81828193810196938326
:1015300082838230910508F405CEEB81FC8115860B
:10154000128A10A216AE17AE0F900F900F900F9048
:10155000DF91CF911F910F91FF90EF90DF90CF908F
:10156000BF90AF909F908F907F906F905F904F90C3
:101570003F902F900895EB81FC81828193810196A9
:1015800093838283DACFEB81FC8182819381019600
:1015900093838283D7CD805C9F4F681779073CF097
:1015A00001966817790718F481E0FB01808308959C
:1015B000DC01E62FF0E0E331F10508F0A4C0EA5BBE
:1015C000FF4FEE0FFF1F0590F491E02D099481E08D
:1015D0009C91933108F498C080E0089581E09C913B
:1015E000913009F491C080E008959C91925081E07F
:1015F000913108F489C080E0089581E09C91933096
:1016000009F482C080E0089581E09C91943009F44F
:101610007BC080E0089581E011969C9111979530F0
:1016200009F472C080E0089581E011969C911197B1
:10163000963009F469C080E0089581E011969C918C
:101640001197973009F460C080E0089581E0119609
:101650009C911197983009F457C080E00895119635
:101660009C911197995081E0943008F44DC080E02E
:10167000089581E011969C9111979A3009F444C025
:1016800080E0089581E011969C9111979B30E1F1E3
:1016900080E0089581E011969C9111979C30A1F112
:1016A00080E0089511969C9111979D5081E09630AD
:1016B00058F180E0089581E011969C9111979E3039
:1016C00019F180E0089581E011969C9111979F3067
:1016D000D9F080E0089581E011969C9111979031A6
:1016E00099F080E0089581E011969C9111979131D5
:1016F00059F080E0089581E011969C911197923104
:1017000019F080E0089580E0089521E0FC0125872C
:101710000895FC0164817581868197810895FC019B
:1017200044835583668377830895FC0160857185C2
:10173000828593850895FC0140875187628773876E
:101740000895FC0184850895FC016487089521E0D3
:10175000FC01228B0895FC01868597850895FC0184
:10176000778766870895FC01808991890895FC0137
:10177000718B608B089521E0FC0120A30895FC018A
:10178000838994890895FC01748B638B0895FC010F
:10179000858996890895FC01768B658B0895FC01F7
:1017A00087890895FC01678B0895FC01608D718D18
:1017B000828D938D0895FC01408F518F628F738FBE
:1017C0000895FC01648D758D868D978D0895FC01BB
:1017D000448F558F668F778F0895FC0161A172A1A8
:1017E00083A194A10895FC0141A352A363A374A310
:1017F0000895FC0165A176A187A190A50895FC013B
:1018000045A356A367A370A70895FC0161A572A51F
:1018100083A594A50895FC0141A752A763A774A7C7
:10182000089521E0FC0126AF089521E0FC0127AFD7
:101830000895FC0185A50895FC0165A70895FC01A4
:1018400066A577A580A991A90895FC0146A757A789
:1018500060AB71AB0895FC0162A973A984A995A935
:101860000895FC0142AB53AB64AB75AB0895FC012A
:1018700066A977A980AD91AD0895FC0146AB57AB41
:1018800060AF71AF0895FC0162AD73AD84AD95ADED
:101890000895FC0142AF53AF64AF75AF089587B3AD
:1018A000807F87BB87B3876087BB81E58DB981E087
:1018B0008EB908958FB9779BFECF8FB1089583E0DD
:1018C00083BF83E882BF81E087BF10920D02109230
:1018D0000C0278940895CF92DF92EF92FF92CF930B
:1018E000DF93EC016A017B0140910C0250910D02E3
:1018F00014161506E4F4E4E2F2E0DF01169620E0A7
:1019000030E070E061E0808191818C179D0731F4B7
:1019100013821282D582C4826C93762F2F5F3F4F41
:10192000379617962417350774F37723C9F4FA010D
:10193000EE0FFF1FEE0FFF1FEE0FFF1FE41BF50B57
:10194000EC5DFD4FD183C08313821282D582C482A5
:1019500081E086834F5F5F4F50930D0240930C02EE
:10196000DF91CF91FF90EF90DF90CF900895DC0151
:1019700060910C0270910D02161617066CF580919D
:101980002402909125028A179B07E9F40AC0295F77
:101990003F4FF9013797808191818A179B07B9F4EE
:1019A00002C040E050E0FA01EE0FFF1FEE0FFF1FF4
:1019B000EE0FFF1FE41BF50BEC5DFD4F138212824F
:1019C00016821C9208952BE232E040E050E04F5F17
:1019D0005F4F46175707D9F60895CF92DF92EF92DF
:1019E000FF920F931F93CF93DF936C0180910C02B2
:1019F00090910D021816190694F5CAE2D2E08E01F4
:101A000006501040EE24FF2488818823D9F0D801A5
:101A100012968D919C911397019613969C938E9399
:101A2000129714962D913C9115978217930751F4B4
:101A300013961C921E92129718826D917C91C6018A
:101A40000E94CB0A0894E11CF11C2796095F1F4FE6
:101A500080910C0290910D02E816F906ACF2DF912C
:101A6000CF911F910F91FF90EF90DF90CF9008954D
:101A700084E292E00E94500E10920D0210920C022D
:101A80000895909398008093990088E980939A0034
:101A900086E080939D0078940895EBE9F0E09081D2
:101AA00095FFFDCF80939C000895CF93DF93EC01C9
:101AB0008881882331F021960E944D0D89918823D9
:101AC000D9F780E00E944D0DDF91CF9108956623F4
:101AD00071F080910E0290910F02FC01E659FD4FCA
:101AE0006083019690930F0280930E0208956AE638
:101AF00072E0E0910E02F0910F02E60FF71F1082E4
:101B00000E94C30B10920F0210920E020895991BAF
:101B100079E004C0991F961708F0961B881F7A95E4
:101B2000C9F78095089597FB092E07260AD077FDFF
:101B300004D00CD006D000201AF4709561957F4F28
:101B40000895F6F7909581959F4F0895AA1BBB1BAA
:101B500051E107C0AA1FBB1FA617B70710F0A61BAD
:101B6000B70B881F991F5A95A9F780959095BC01CE
:101B7000CD010895CF93DF93AC018230910510F42D
:101B800042E050E0E0918E02F0918F0220E030E0E0
:101B9000A0E0B0E024C08081918184179507D0F047
:101BA0008417950771F482819381109729F0139619
:101BB0009C938E9312972CC090938F0280938E02E9
:101BC00027C02115310519F08217930718F49C01DD
:101BD000BD01EF0192818381DF01E92FF82F30975A
:101BE000D1F621153105F9F0C901841B950B84301C
:101BF000910580F48A819B816115710521F0FB01BB
:101C00009383828304C090938F0280938E02FE019F
:101C1000329642C0FE01E80FF91F4193519302979B
:101C20009983888339C080918C0290918D020097AE
:101C300041F4809108029091090290938D02809363
:101C40008C0220910602309107022115310541F4E2
:101C50002DB73EB780910A0290910B02281B390BD9
:101C6000E0918C02F0918D02E217F30798F42E1B9D
:101C70003F0B2417350770F0CA0102962817390761
:101C800048F08E0F9F1F90938D0280938C0241939A
:101C9000519302C0E0E0F0E0CF01DF91CF910895D1
:101CA0000F931F93CF93DF939C01009709F48CC08F
:101CB000DC01129713961C921E92129760918E026D
:101CC00070918F026115710589F48D919C91119726
:101CD000820F931F20918C0230918D0228173907B3
:101CE00069F5B0938D02A0938C026EC0FB0140E0B9
:101CF00050E001C0FC01EA17FB0730F482819381B8
:101D0000AF010097B9F71FC0E9012297FB83EA836F
:101D100008811981C901800F911F8E179F0759F4FF
:101D200080819181800F911F02969983888382819F
:101D300093819B838A834115510529F4B0938F02C7
:101D4000A0938E0241C0FA01B383A283C191D191C5
:101D5000EC0FFD1FAE17BF0781F4F901929182913C
:101D60008C0F9D1F0296DA0111969C938E938281AF
:101D7000938113969C938E931297E0E0F0E002C05B
:101D8000FB01BC01DB0112968D919C91139700978A
:101D9000B9F7CB0102962D913C911197820F931FB9
:101DA00020918C0230918D022817390769F4309701
:101DB00029F410928F0210928E0202C013821282B6
:101DC00070938D0260938C02DF91CF911F910F91E0
:101DD00008950F931F93CF93DF93CDB7DEB72E9760
:101DE0000FB6F894DEBF0FBECDBF0D891E8986E009
:101DF0008C831A8309838FEF9FE79E838D83AE01C7
:101E0000475E5F4FCE0101966F89788D0E94180F53
:101E1000EF81F885E00FF11F10822E960FB6F8942F
:101E2000DEBF0FBECDBFDF91CF911F910F910895FF
:101E30002F923F924F925F926F927F928F929F92DA
:101E4000AF92BF92CF92DF92EF92FF920F931F93C8
:101E5000CF93DF93CDB7DEB72D970FB6F894DEBFE3
:101E60000FBECDBF3C017D876C875A01FC011782F4
:101E70001682838181FFC8C12E010894411C511C28
:101E8000F3019381EC85FD8593FD859193FF81910D
:101E9000FD87EC87882309F4B3C1853241F493FDB3
:101EA000859193FF8191FD87EC87853229F490E03D
:101EB000B3010E943511E4CFFF24EE2410E010326C
:101EC000B0F48B3269F08C3228F4803251F08332D6
:101ED00071F40BC08D3239F0803349F411602CC09D
:101EE0001260146029C0186027C0106125C017FD5A
:101EF0002EC0282F20532A3098F416FF08C08F2DAB
:101F0000880FF82EFF0CFF0CF80EF20E15C08E2D68
:101F1000880FE82EEE0CEE0CE80EE20E10620CC0FC
:101F20008E3221F416FD6CC1106406C08C3611F49B
:101F3000106802C0883659F4EC85FD8593FD8591C3
:101F400093FF8191FD87EC87882309F0B8CF982F04
:101F50009554933018F09052933038F424E030E0E8
:101F6000A20EB31E3FE339830FC0833631F08337AF
:101F700081F0833509F05AC022C0F5018081898340
:101F800022E030E0A20EB31E21E0C22ED12C42018D
:101F900014C092E0292E312C2A0C3B1CF5018080C4
:101FA000918016FF03C06F2D70E002C06FEF7FEFCE
:101FB000C4010E942A116C0151011F7715C082E0F3
:101FC000282E312C2A0C3B1CF5018080918016FFB5
:101FD00003C06F2D70E002C06FEF7FEFC4010E945D
:101FE0001F116C011068510113FD1CC006C080E276
:101FF00090E0B3010E943511EA948E2D90E0C8164E
:10200000D906A8F30FC0F40117FD859117FF819140
:102010004F0190E0B3010E943511E110EA94089459
:10202000C108D108C114D10471F7E7C0843611F09A
:10203000893651F5F50117FF07C080819181A28192
:10204000B38124E030E008C080819181AA2797FD08
:10205000A095BA2F22E030E0A20EB31E012F0F761A
:10206000B7FF08C0B095A095909581959F4FAF4F51
:10207000BF4F0068BC01CD01A2012AE030E00E9400
:102080006111D82ED4183FC0853721F41F7E2AE075
:1020900030E020C0197F8F36A9F0803720F48835D2
:1020A00009F0AEC00BC0803721F0883709F0A8C016
:1020B00001C0106114FF09C0146007C014FF08C0FC
:1020C000166006C028E030E005C020E130E002C024
:1020D00020E132E0F50117FF07C060817181828144
:1020E000938144E050E006C06081718180E090E01F
:1020F00042E050E0A40EB51EA2010E946111D82E4C
:10210000D418012F0F7706FF09C00E7FDF1430F4BB
:1021100004FF06C002FD04C00F7E02C01D2D01C0D9
:102120001F2D802F90E004FF0CC0FE01ED0DF11D6E
:102130002081203311F4097E09C002FF06C01E5F12
:1021400005C086789070009709F01F5F802E992453
:1021500003FD12C000FF0DC0FD2C1E1550F4FE0C37
:10216000F11A1E2D06C080E290E0B3010E943511E5
:102170001F5F1E15C0F304C01E1510F4E11A01C044
:10218000EE2484FE0FC080E390E0B3010E9435117D
:1021900082FE1FC081FE03C088E590E010C088E782
:1021A00090E00DC0C40186789070009791F081FC9A
:1021B00002C080E201C08BE207FD8DE290E0B30136
:1021C0000E94351106C080E390E0B3010E943511F2
:1021D000FA94DF14C0F3DA94F201ED0DF11D808161
:1021E00090E0B3010E943511DD20A9F706C080E21E
:1021F00090E0B3010E943511EA94EE20C1F740CE81
:10220000F3018681978102C08FEF9FEF2D960FB665
:10221000F894DEBF0FBECDBFDF91CF911F910F911C
:10222000FF90EF90DF90CF90BF90AF909F908F90F6
:102230007F906F905F904F903F902F900895FC019A
:102240000590615070400110D8F7809590958E0FE1
:102250009F1F0895FC016150704001900110D8F754
:10226000809590958E0F9F1F08950F931F93CF9386
:10227000DF938C01EB018B8181FF1BC082FF0DC0BE
:102280002E813F818C819D812817390764F4E88174
:10229000F9810193F983E88306C0E885F985802FE9
:1022A0000995009731F48E819F8101969F838E83DB
:1022B00002C00FEF1FEFC801DF91CF911F910F9167
:1022C0000895FA01AA27283051F1203181F1E894CC
:1022D0006F936E7F6E5F7F4F8F4F9F4FAF4FB1E019
:1022E0003ED0B4E03CD0670F781F891F9A1FA11D14
:1022F000680F791F8A1F911DA11D6A0F711D811D15
:10230000911DA11D20D009F468943F912AE0269FD9
:1023100011243019305D3193DEF6CF010895462F38
:102320004770405D4193B3E00FD0C9F7F6CF462F19
:102330004F70405D4A3318F0495D31FD4052419382
:1023400002D0A9F7EACFB4E0A6959795879577953F
:102350006795BA95C9F700976105710508959B01C6
:10236000AC010A2E06945795479537952795BA954F
:10237000C9F7620F731F841F951FA01D0895F8945D
:02238000FFCF8D
:10238200100F0E0D0C0906030A0805020B070401C3
:102392000E0D0B070C12120C000000000C120408A8
:1023A2001E0000000A15110A040000000305090BB3
:1023B2000B1818001F0E0E04040404040101050585
:1023C200151515000E11111F1F1F1F000000000020
:1023D2000000000000E8E8F0F0E2C1C2C2C2C66933
:1023E2006E666F0D0A005354415455533A202530FE
:1023F20032580D0A00434F4E4649473A20253032A3
:10240200580D0A0052465F43483A20253032580D93
:102412000A0052465F53455455503A2025303258EF
:102422000D0A00454E5F41413A20253032580D0ACF
:1024320000454E5F5258414444523A2025303258AA
:102442000D0A004F4253455256455F54583A2025D3
:102452003032580D0A000D0A00E8E8F0F0E2C1C27D
:10246200C2C2C2C1C2C2C2C3C1C2C2C2C4C1C2C24A
:10247200C2C5C1C2C2C2C6E8E8F0F0E253656E64EA
:0C248200206661696C00000090022000E0
:00000001FF
