:100000000C9446000C9465000C9465000C946500FB
:100010000C9465000C9465000C9465000C946500CC
:100020000C9465000C9465000C9465000C946500BC
:100030000C9465000C9465000C9465000C946500AC
:100040000C94A2030C9465000C9465000C9465005C
:100050000C9465000C9465000C9465000C9465008C
:100060000C9465000C9465000C9465000C9465007C
:100070000C9465000C9465000C9465000C9465006C
:100080000C9465000C9465000C94650011241FBE4F
:10009000CFEFD0E1DEBFCDBF12E0A0E0B1E0E8EEEF
:1000A000F4E200E00BBF02C007900D92AC30B10744
:1000B000D9F712E0ACE0B2E001C01D92A039B1075F
:1000C000E1F70E945F030C9472120C940000AF924F
:1000D000BF92CF92DF92EF92FF920F931F93CF9335
:1000E000DF9320E030E041E050E0E2E6F0E0A0E124
:1000F000B1E00F2EF1E1AF2EF1E0BF2EF02D02E1C5
:1001000011E00F2EF3E1EF2EF1E0FF2EF02DB901FB
:10011000C90104966A0102C0CC0CDD1C8A95E2F785
:10012000C6018095808383E08A95F1F7000080B155
:100130008F708F3029F19C919817A9F0E501988173
:10014000981759F0E8019881981751F0E7019881C4
:100150009817B1F4E3E0F0E008C0E1E0F0E005C09A
:10016000E2E0F0E002C0E0E0F0E0EE0FFF1FEE0F93
:10017000FF1F6E0F7F1FFB01E050FF4F808106C005
:100180002F5F3F4F2430310511F680E0DF91CF9192
:100190001F910F91FF90EF90DF90CF90BF90AF90A5
:1001A000089580EF809361008FE08093620008954E
:1001B0008FEC97E00197F1F700C000000895282F19
:1001C00022952F708F70662311F4D89801C0D89AA9
:1001D000D99A9BB3220F220F937C922B9BBBD99869
:1001E000D99A9BB3880F880F937C892B8BBBD998A6
:1001F0000E94D80008950F931F93CF93DF938C0133
:10020000FC018081882309F18532A9F4E801219657
:10021000F80181818053883020F461E00E94DF0082
:100220000EC085E261E00E94DF00F801818161E09B
:100230000E94DF0004C061E00E94DF00E8018E013F
:100240000F5F1F4F89818823F9F6DF91CF911F91AE
:100250000F910895EF92FF920F931F93CF93DF9327
:1002600000D000D00F92CDB7DEB77B01FE013196F2
:1002700025E0DF011D922A95E9F7009761F0FE0164
:1002800036962AE030E0B9010E94460E8293862F0E
:10029000972F0097C1F7BFEFEB16BFEFFB0669F48E
:1002A0002981222379F4FE01329600E010E00F5FED
:1002B0001F4F21912223D9F307C005E010E00E194A
:1002C0001F0902C000E010E0992324F48DE261E0F0
:1002D0000E94DF0005301105BCF4E1E0F0E0EC0F16
:1002E000FD1F0E0F1F1F0F2EF6E0EF2EFF24F02D27
:1002F000EC0EFD1ED8018D918D01805D61E00E94A4
:10030000DF000E151F05B1F70F900F900F900F90A3
:100310000F90DF91CF911F910F91FF90EF90089573
:10032000843178F4623031F0633031F0613029F497
:10033000806403C08C5E01C08C5A806860E00E94BB
:10034000DF0008950F931F93CF93DF93C82F8BE4A3
:100350009DE10197F1F700C000008AB38C638ABB6E
:10036000D19AD09A8BB3837C8BBBD998D898D99AE1
:10037000DB9AD9980E94D8008C2F8C6060E00E9494
:10038000DF0088E260E00E94DF0080E460E00E941D
:10039000DF00C4E1D1E004E511E0899161E00E9451
:1003A000DF00C017D107C9F780E060E00E9490012C
:1003B000DF91CF911F910F9108950E946700682FE0
:1003C00070E080E090E008950E94D10008950E94BE
:1003D000FB0008950F93CF93DF93EC01842F602FE0
:1003E0000E949001CE010E94FB00DF91CF910F91FE
:1003F00008954F925F926F927F92AF92BF92CF9289
:10040000DF92EF92FF922B013C01822F6E2D76013D
:1004100065010E949001C201B6010E942A01FF906D
:10042000EF90DF90CF90BF90AF907F906F905F90F4
:100430004F90089581E060E00E94DF0082E060E07C
:100440000E94DF00089580E00E94A20108950F93AA
:100450001F93CF93DF930F92CDB7DEB71982CE01F2
:1004600001960E9442068823E9F080E061E00E9444
:100470009001898190E061E070E00E942A01898109
:10048000882399F4E0E1F2E0CF0109961192E81790
:10049000F907E1F700E112E080E0B8010E9454069C
:1004A000C80105C084E591E002C084E591E00F90A9
:1004B000DF91CF911F910F910895CF93DF939C010E
:1004C000CBE1D2E080E090E0A22FB32FFD010190BC
:1004D0000020E9F73197EA1BFB0B8E179F0730F4DA
:1004E000F901E80FF91F4081488301C01882019685
:1004F00021968930910541F785E591E00E94B2048B
:100500008BE192E00E947A06982FEFECF7E03197AA
:10051000F1F700C0000081E0913009F080E0DF9148
:10052000CF910895EBE1F2E0CF01099621E021930C
:10053000E817F907E1F78AE591E00E94B2048BE140
:1005400092E00E947A06982FEFECF7E03197F1F7EE
:1005500000C0000081E0913009F080E008950F9321
:100560001F93CF93DF930F92CDB7DEB71982CE01E1
:1005700001960E9442068823F1F089818530E9F4D2
:10058000E0E1F2E08F01075F1F4F1192E017F107E2
:10059000E1F785E060E172E00E945406809110026C
:1005A000813069F4E1E1F2E08191813051F4E017AA
:1005B000F107D1F707C080E005C080E003C080E00C
:1005C00001C080E00F90DF91CF911F910F910895AE
:1005D000AF92EF92822FEBE1F2E0AF01475F5F4F06
:1005E0001192E417F507E1F7605D60931B023AE0B2
:1005F000632F0E943A0E905D90931D020E943A0E66
:10060000905D90931C028E2D0E943A0E905D909307
:1006100020020E943A0E905D90931F020E943A0EB3
:10062000905D90931E028A2D0E943A0E905D9093E9
:1006300022020E943A0E905D9093210285E591E09E
:100640000E94B2048BE192E00E947A06982FEFECB0
:10065000F7E03197F1F700C0000081E0913009F038
:1006600080E0EF90AF900895EBE1F2E0CF010996C2
:100670001192E817F907E1F7605D60931B02205DB6
:1006800020931C0285E591E00E94B2048BE192E088
:100690000E947A06982FEFECF7E03197F1F700C04F
:1006A000000081E0913009F080E008950E941E0D65
:1006B00008950E946A0D08950E94D00608958FE063
:1006C00084BB85BB82E090E00E946D0E809319028E
:1006D00090931A020E94120D8091190290911A02B1
:1006E0000E948F078091190290911A020E9496072A
:1006F00081E680931B0282E680931C0283E680934E
:100700001D0284E680931E0285E680931F0286E622
:100710008093200287E68093210288E6809322025C
:1007200089E680932302E0E1F2E0CF01099611927D
:10073000E817F907E1F78091190290911A020E94D7
:100740002F08F9CF1F920F920FB60F920BB60F9290
:1007500011242F933F934F935F936F937F938F93C6
:100760009F93AF93BF93EF93FF9383E882BF8091F2
:10077000190290911A020E94A00DFF91EF91BF9172
:10078000AF919F918F917F916F915F914F913F9129
:100790002F910F900BBE0F900FBE0F901F901895CA
:1007A000AE988F710E940D0D8FEF0E940D0DAE9AC5
:1007B0000895FF920F931F93CF93DF93062FF72E89
:1007C000142FAE988F710E940D0D112351F0C02F80
:1007D000DF2D00E08FEF0E940D0D89930F5F011751
:1007E000C9F7AE9ADF91CF911F910F91FF900895B5
:1007F000CF93C62FAE988F7180620E940D0D8C2F03
:100800000E940D0DAE9ACF910895FF920F931F9302
:10081000CF93DF93062FF72E142FAE988F7180623F
:100820000E940D0D112349F0C02FDF2D00E08991AA
:100830000E940D0D0F5F0117D1F7AE9ADF91CF9196
:100840001F910F91FF90089520E030E00496DB01A6
:10085000A20FB31FFC01E21BF30B40814C932F5FEF
:100860003F4F2530310599F70895CF93DF9300D09E
:1008700000D00F92CDB7DEB78823B1F4A9EDB1E077
:10088000FB0185E001900D928150E1F7CB01BE01A3
:100890006F5F7F4F0E9424048AE0BE016F5F7F4F2D
:1008A00045E00E94050456C08130B1F4AEEDB1E0E0
:1008B000FB0185E001900D928150E1F7CB01BE0173
:1008C0006F5F7F4F0E9424048BE0BE016F5F7F4FFC
:1008D00045E00E9405043EC0823071F4A3EEB1E011
:1008E000FB0185E001900D928150E1F78CE0FB0166
:1008F00064810E94F8032EC0833071F4A8EEB1E049
:10090000FB0185E001900D928150E1F78DE0FB0144
:1009100064810E94F8031EC0843071F4ADEEB1E032
:10092000FB0185E001900D928150E1F78EE0FB0123
:1009300064810E94F8030EC0853061F4A2EFB1E03B
:10094000FB0101900D928150E1F78FE0FB01648182
:100950000E94F8030F900F900F900F900F90DF916F
:10096000CF910895CF93DF9300D000D00F92CDB7F1
:10097000DEB7A7EFB1E0E82FF92F25E001900D9247
:100980002150E1F7BE016F5F7F4F0E9424048AE08F
:10099000BE016F5F7F4F45E00E94050480E1BE010C
:1009A0006F5F7F4F45E00E9405040F900F900F90FE
:1009B0000F900F90DF91CF910895AE9882EE0E9434
:1009C0000D0DAE9A0895AE9881EE0E940D0DAE9A6F
:1009D000089580E069ED71E00E94350480E00E9496
:1009E000D003682F616080E00E94F80380E00E94DD
:1009F000D003682F626080E00E94F80387E060E720
:100A00000E94F8030E94DD040E94E304AF9A82E38F
:100A10008A95F1F70895AF9880E00E94D003682F7F
:100A20006E7F80E00E94F80380E00E94D003682F70
:100A3000626080E00E94F80387E060E70E94F803AC
:100A40000E94E30482E38A95F1F70895AE988FEF50
:100A50000E940D0DAE9A0895EF92FF920F931F938F
:100A6000CF93DF93CDB7DEB7C456D0400FB6F8941E
:100A7000DEBF0FBECDBF7C018FE591E0F701099588
:100A80000E94260500D000D000D0EDB7FEB7319609
:100A90008E010F5F1F4FADB7BEB712961C930E931A
:100AA000119726E631E033832283848315820E94E6
:100AB0009C0F8DB79EB706960FB6F8949EBF0FBEDB
:100AC0008DBFC801F701099580E00E94D00300D0D6
:100AD00000D000D0EDB7FEB73196ADB7BEB71296D5
:100AE0001C930E93119725E731E03383228384838F
:100AF00015820E949C0F8DB79EB706960FB6F8948C
:100B00009EBF0FBE8DBFC801F701099585E00E9409
:100B1000D00300D000D000D0EDB7FEB73196ADB70E
:100B2000BEB712961C930E93119724E831E03383DD
:100B30002283848315820E949C0F8DB79EB70696F0
:100B40000FB6F8949EBF0FBE8DBFC801F70109957F
:100B500086E00E94D00300D000D000D0EDB7FEB7F1
:100B60003196ADB7BEB712961C930E93119722E93A
:100B700031E033832283848315820E949C0F8DB7DA
:100B80009EB706960FB6F8949EBF0FBE8DBFC801E4
:100B9000F701099581E00E94D00300D000D000D079
:100BA000EDB7FEB73196ADB7BEB712961C930E9354
:100BB000119723EA31E033832283848315820E94D4
:100BC0009C0F8DB79EB706960FB6F8949EBF0FBECA
:100BD0008DBFC801F701099582E00E94D00300D0C3
:100BE00000D000D0EDB7FEB73196ADB7BEB71296C4
:100BF0001C930E93119721EB31E03383228384837E
:100C000015820E949C0F8DB79EB706960FB6F8947A
:100C10009EBF0FBE8DBFC801F701099588E00E94F5
:100C2000D00300D000D000D0EDB7FEB73196ADB7FD
:100C3000BEB712961C930E93119723EC31E03383C9
:100C40002283848315820E949C0F8DB79EB70696DF
:100C50000FB6F8949EBF0FBE8DBFC801F70109956E
:100C600086ED91E0F7010995CC59DF4F0FB6F89466
:100C7000DEBF0FBECDBFDF91CF911F910F91FF90CF
:100C8000EF900895CF93DF93EC010E942605982FF3
:100C9000907486FF05C0209719F086958770888329
:100CA000892FDF91CF9108950F931F93CF93DF93F7
:100CB000062F172FAE9881E60E940D0DC02FD12F61
:100CC00010E08FEF0E940D0D89931F5F1930C9F757
:100CD000AE9A87E060E40E94F8030E94260585FF33
:100CE00004C087E060E20E94F803DF91CF911F917A
:100CF0000F9108950F931F93CF93DF93082F192F10
:100D00000E940B05AE9880EA0E940D0DC02FD12FD6
:100D100019E089910E940D0D1150D9F7AE9AAF9A42
:100D200085E08A95F1F7AF9883E08A95F1F70000A6
:100D30000E9426058073C1F30E942605C82F85E016
:100D40006CE40E94F80380E00E94D003682F6D7F5E
:100D500080E00E94F8030E94E90481E0C5FF80E082
:100D6000DF91CF911F910F91089586E00E94D003EB
:100D7000682F666086E00E94F803089586E00E946E
:100D8000D003682F677D86E00E94F803089580E015
:100D90000E94D003682F6C6080E00E94F8030895E1
:100DA000A69AA79A0E94020DAF98AE9A81EE94E09F
:100DB0000197F1F700C000000E94B5060E94BE0630
:100DC0000E94C70684E067E40E94F8038CE160E0BB
:100DD0000E94F80385E06CE40E94F80381E169E079
:100DE0000E94F80382E169E00E94F80383E169E070
:100DF0000E94F80384E169E00E94F80385E169E05C
:100E00000E94F80386E169E00E94F80382E060E056
:100E10000E94F80382E00E94D003682F616082E0A4
:100E20000E94F80382E00E94D003682F626082E093
:100E30000E94F80382E00E94D003682F646082E081
:100E40000E94F80382E00E94D003682F686082E06D
:100E50000E94F80382E00E94D003682F606182E064
:100E60000E94F80382E00E94D003682F606282E053
:100E70000E94F80381E00E94D003682F616081E046
:100E80000E94F80381E00E94D003682F626081E035
:100E90000E94F80381E00E94D003682F646081E023
:100EA0000E94F80381E00E94D003682F686081E00F
:100EB0000E94F80381E00E94D003682F606181E006
:100EC0000E94F80381E00E94D003682F606281E0F5
:100ED0000E94F80380E069ED71E00E94350481E032
:100EE0006EED71E00E94350482E063EE71E00E94D5
:100EF000350483E068EE71E00E94350484E06DEE15
:100F000071E00E94350485E062EF71E00E943504D3
:100F100087EF91E00E94B2040E94E9040895FC0169
:100F200080E1808381831382128208951F93CF937F
:100F3000DF93EC0111E01AAB0E9423020E945C03D4
:100F40000E94E40118831B821A82DF91CF911F91C6
:100F50000895FC018081833049F0843061F0813054
:100F600071F480E180831382128209C080E1808362
:100F70001382128204C080E18083138212828181F5
:100F80008A30F1F18B3070F4863029F1873020F40B
:100F9000853009F063C018C0873021F1883009F02E
:100FA0005DC027C08D3009F445C08E3030F48B30E1
:100FB00071F18C3009F052C031C08E3009F441C05B
:100FC0008F3009F04BC044C080E1818381E090E024
:100FD00093838283089580E1818381E090E093830D
:100FE0008283089580E1818381E090E0938382830E
:100FF000089580E1818381E090E093838283089566
:1010000080E1818381E090E093838283089580E191
:10101000818381E090E093838283089580E18183DE
:1010200081E090E093838283CF018B5B9F4F0E948E
:101030005903089580E1818381E090E09383828366
:10104000089580E1818381E090E093838283089515
:1010500080E1818381E090E09383828308952F92E1
:101060003F924F925F926F927F928F929F92AF9238
:10107000BF92CF92DF92EF92FF920F931F93CF9385
:10108000DF93EC011B821A8280E090E00F2EF5E4E2
:101090008F2E9924F02D8C0E9D1EEE24FF24E394B8
:1010A0000F2EFEE02F2EF02DBB24B394AA246894BB
:1010B000A2F80F2EF3E03F2EF02D0F2EF6E04F2E6C
:1010C000F0E05F2EF0E06F2EF0E07F2EF02D0F2E7F
:1010D000FFE3CF2EDD24F02DCC0EDD1E8C0F9D1FE7
:1010E000DC018C91883009F4D8C0893090F48430C8
:1010F00009F469C0853030F4813009F1833009F09A
:10110000C7C237C0863009F48EC0873008F0B7C038
:1011100081C08C3009F4CCC18D3038F48A3009F4A8
:10112000CBC08B3009F0B4C24BC18E3009F425C25C
:101130008E3008F4FDC18F3009F0AAC240C280E1B0
:1011400088831B821A820E94DD01DC01CB018C8323
:101150009D83AE83BF831C8683E088831BAE1CAE59
:101160001DAE1EAE85E0898381E090E09B838A837B
:10117000B5C28C819D81AE81BF810097A105B1056B
:10118000A9F0E0E1E8831B821A8288879987AA8701
:10119000BB870E94DD01DC01CB018C839D83AE8384
:1011A000BF83BC86A8821B821A829EC20E94DD0178
:1011B000DC01CB018C839D83AE83BF831C86388288
:1011C0001B821A8291C28C819D81AE81BF81009762
:1011D000A105B10591F4F0E1F8831B821A82BD8666
:1011E0000E94DD01DC01CB018C839D83AE83BF8334
:1011F0001C8638821B821A8277C20E94DD01DC01C4
:10120000CB018C839D83AE83BF83BC86A8821B8267
:101210001A826AC2FB82EA82188619861A861B869F
:1012200086E0898335C288859985AA85BB858D30FE
:101230009105A105B10581F42D85222369F0FB827A
:10124000EA8285E090E0A0E0B0E08BAF9CAFADAF6C
:10125000BEAF97E099831CC28E309105A105B10500
:1012600009F016C28D85882309F412C2FB82EA8236
:101270004BAE5CAE6DAE7EAEA8E0A98309C2FB8228
:10128000EA82F60110821182128213821886198670
:101290001A861B868FE08983FBC1FB82EA82D60116
:1012A0001D921D921D921C921397188619861A86FC
:1012B0001B868FE08983ECC14BAD5CAD6DAD7EAD1F
:1012C0004115510561057105C9F489818C3059F4C6
:1012D00080E1898381E090E09B838A83CE018B5BF0
:1012E0009F4F0E9459031BAE1CAE1DAE1EAE85E083
:1012F000898381E090E09B838A83F0C12F89222338
:10130000C9F080E1898301E010E01B830A838D8DA1
:101310009E8DAF8DB8A10196A11DB11D8D8F9E8FA1
:10132000AF8FB8A30E94AF02888F8BE089831B83A5
:101330000A83D4C1898D9A8DAB8DBC8D8031910586
:10134000A105B105DCF080E1898301E010E01B8399
:101350000A83CE018B5B9F4F40ED57E060E070E069
:1013600020E00E9456030E941A028CEF91E00E9436
:10137000E7018CE089831B830A83B0C1222309F033
:1013800087C10196A11DB11D898F9A8FAB8FBC8F2C
:101390001D8E1E8E1F8E18A2FE01FF9600811181E8
:1013A00022813381CB01BA01A90198010E94340343
:1013B0008F8B8AE0898381E090E09B838A838EC152
:1013C0004BAD5CAD6DAD7EAD41155105610571054F
:1013D000C9F489818C3059F480E1898381E090E0FF
:1013E0009B838A83CE018B5B9F4F0E9459031BAE68
:1013F0001CAE1DAE1EAE85E0898381E090E09B832C
:101400008A836CC18D8D9E8DAF8DB8A18031910581
:10141000A105B1055CF1888D882359F580E18983A8
:10142000EE24FF24E394FB82EA82898D9A8DAB8DB2
:10143000BC8D0196A11DB11D898F9A8FAB8FBC8F7A
:101440001D8E1E8E1F8E18A2FE01FF960081118137
:1014500022813381CB01BA01A90198010E94340392
:101460008F8B8AE08983FB82EA8238C1288D222310
:1014700071F0FB82EA82BF8A198E1A8E1B8E1C8E37
:101480001BAE1CAE1DAE1EAEBDE0B98301C1019600
:10149000A11DB11D8D8F9E8FAF8FB8A30E94AF028B
:1014A000888F8BE0898381E090E09B838A8316C1DB
:1014B0008BAD9CADADADBEAD0097A105B105C9F436
:1014C00089818C3059F480E1898381E090E09B83AD
:1014D0008A83CE018B5B9F4F0E9459031BAE1CAECB
:1014E0001DAE1EAE85E0898381E090E09B838A83F8
:1014F000F5C0F4018081882309F4CAC080E18983A2
:1015000001E010E01B830A83CE018B5B9F4F0E949A
:10151000590381E08F8B198E1A8E1B8E1C8E1BAE89
:101520001CAE1DAE1EAE8DE089831B830A83D6C020
:101530008BAD9CADADADBEAD0097A105B105C9F4B5
:1015400089818C3059F480E1898381E090E09B832C
:101550008A83CE018B5B9F4F0E9459031BAE1CAE4A
:101560001DAE1EAE85E0898381E090E09B838A8377
:10157000B5C0FB82EA8229828BC08BAD9CADADAD3C
:10158000BEAD0097A105B10509F082C089818C30FC
:1015900059F480E1898381E090E09B838A83CE01C6
:1015A0008B5B9F4F0E9459031BAE1CAE1DAE1EAE3F
:1015B00085E0898381E090E09B838A838FC00885E2
:1015C00019852A853B85D901C8010197A109B1096F
:1015D00089309105A105B10558F58D85882341F124
:1015E00080E18983EE24FF24E394FB82EA82FE01FA
:1015F000FF9600831183228333831F8A81E090E06A
:10160000A0E0B0E0898F9A8FAB8FBC8F1D8E1E8EAD
:101610001F8E18A26BAD7CAD8DAD9EADA90198015A
:101620000E9434038F8B8AE08983FB82EA8256C052
:101630000A3011052105310559F58D85882341F1C1
:1016400080E1898301E010E01B830A83FE01FF969D
:1016500010821182128213821F8A81E090E0A0E042
:10166000B0E0898F9A8FAB8FBC8F1D8E1E8E1F8E20
:1016700018A26BAD7CAD8DAD9EAD20E030E0A90130
:101680000E9434038F8B8AE089831B830A8326C0E0
:101690008A819B8101969B838A838230910508F41D
:1016A0001DCD1D861A8A1DA2FE01ED5BFF4F108223
:1016B000CC5BDF4F1882DF91CF911F910F91FF908C
:1016C000EF90DF90CF90BF90AF909F908F907F90E2
:1016D0006F905F904F903F902F9008958A819B81EB
:1016E00001969B838A83DDCF8A819B8101969B83B0
:1016F0008A83F4CC8B5B9F4F681779073CF0019687
:101700006817790718F481E0FB0180830895FC01D4
:10171000673009F45CC0683080F46330E9F164300C
:1017200028F4613051F1623078F520C0653009F459
:1017300041C0663008F045C036C06B3009F460C067
:101740006C3038F4693009F44EC06A3008F052C089
:1017500044C06D3009F460C06D3008F457C06E307D
:1017600009F460C06F3009F069C062C081E0908107
:10177000903108F464C080E0089581E09081913058
:1017800009F45DC080E008959081925081E09E3020
:1017900008F455C080E0089581E09081933009F409
:1017A0004EC080E0089581E09081943009F447C0F4
:1017B00080E0089581E09181953009F440C080E097
:1017C000089581E091819630D1F180E0089581E023
:1017D00091819730A1F180E0089581E09181983066
:1017E00071F180E008959181995081E0963038F14F
:1017F00080E0089581E091819A3009F180E00895B8
:1018000081E091819B30D9F080E0089581E0918161
:101810009C30A9F080E0089581E091819D3079F0BD
:1018200080E0089581E091819E3049F080E0089544
:1018300081E091819F3019F080E0089580E0089563
:1018400021E0FC0125870895FC0164817581868172
:1018500097810895FC0144835583668377830895B7
:10186000FC0160857185828593850895FC01408720
:101870005187628773870895FC0184850895FC0170
:101880006487089521E0FC01228B0895FC01868580
:1018900097850895FC01778766870895FC01808904
:1018A00091890895FC01718B608B089521E0FC0102
:1018B00025A30895FC01838994890895FC01748B04
:1018C000638B0895FC01858996890895FC01768BC8
:1018D000658B0895FC0187890895FC01678B089545
:1018E000FC01808D0895FC01608F0895FC01618DDD
:1018F000728D838D948D0895FC01418F528F638F7B
:10190000748F0895FC01658D768D878D90A1089563
:10191000FC01458F568F678F70A30895FC0161A16C
:1019200072A183A194A10895FC0141A352A363A3D2
:1019300074A30895FC0166A177A180A591A50895DF
:10194000FC0146A357A360A771A70895FC0162A5F7
:1019500073A584A595A50895FC0142A753A764A784
:1019600075A70895FC0166A577A580A991A908959A
:10197000FC0146A757A760AB71AB0895FC01ED5B76
:10198000FF4F81E080830895FC01EC5BFF4F81E015
:1019900080830895FC0182A90895FC0162AB08953B
:1019A000FC0163A974A985A996A90895FC0143AB1C
:1019B00054AB65AB76AB0895FC0167A970AD81AD02
:1019C00092AD0895FC0147AB50AF61AF72AF08957F
:1019D000FC0163AD74AD85AD96AD0895FC0143AFD8
:1019E00054AF65AF76AF0895FC01FF9660817181B9
:1019F000828193810895FC01FF9640835183628325
:101A00007383089587B3807F87BB87B3876087BB65
:101A100081E58DB981E08EB908958FB9779BFECFAE
:101A20008FB1089583E083BF83E882BF81E087BFE1
:101A300010920D0210920C0278940895CF92DF92CA
:101A4000EF92FF92CF93DF93EC016A017B0140910B
:101A50000C0250910D0214161506E4F4E4E2F2E0D3
:101A6000DF01169620E030E070E061E08081918136
:101A70008C179D0731F413821282D582C4826C9335
:101A8000762F2F5F3F4F379617962417350774F33D
:101A90007723C9F4FA01EE0FFF1FEE0FFF1FEE0FC1
:101AA000FF1FE41BF50BEC5DFD4FD183C083138258
:101AB0001282D582C48281E086834F5F5F4F50934C
:101AC0000D0240930C02DF91CF91FF90EF90DF90D9
:101AD000CF900895DC0160910C0270910D021616F2
:101AE00017066CF580912402909125028A179B07B6
:101AF000E9F40AC0295F3F4FF9013797808191814E
:101B00008A179B07B9F402C040E050E0FA01EE0FDB
:101B1000FF1FEE0FFF1FEE0FFF1FE41BF50BEC5D29
:101B2000FD4F1382128216821C9208952BE232E03E
:101B300040E050E04F5F5F4F46175707D9F60895D2
:101B4000CF92DF92EF92FF920F931F93CF93DF9389
:101B50006C0180910C0290910D021816190694F5F3
:101B6000CAE2D2E08E0106501040EE24FF248881A4
:101B70008823D9F0D80112968D919C9113970196E4
:101B800013969C938E93129714962D913C911597D2
:101B90008217930751F413961C921E921297188283
:101BA0006D917C91C6010E947A0B0894E11CF11C96
:101BB0002796095F1F4F80910C0290910D02E81645
:101BC000F906ACF2DF91CF911F910F91FF90EF904A
:101BD000DF90CF90089584E292E00E94030F10926C
:101BE0000D0210920C020895909398008093990032
:101BF00088E980939A0086E080939D007894089508
:101C0000EBE9F0E0908195FFFDCF80939C00089573
:101C1000CF93DF93EC018881882331F021960E94D5
:101C2000000E89918823D9F780E00E94000EDF9191
:101C3000CF910895662371F080910E0290910F026A
:101C4000FC01E659FD4F6083019690930F0280934B
:101C50000E0208956AE672E0E0910E02F0910F0222
:101C6000E60FF71F10820E945E0C10920F02109276
:101C70000E020895991B79E004C0991F961708F089
:101C8000961B881F7A95C9F78095089597FB092EB2
:101C900007260AD077FD04D00CD006D000201AF415
:101CA000709561957F4F0895F6F7909581959F4FB8
:101CB0000895AA1BBB1B51E107C0AA1FBB1FA61793
:101CC000B70710F0A61BB70B881F991F5A95A9F7E5
:101CD00080959095BC01CD010895CF93DF93AC0121
:101CE0008230910510F442E050E0E0918E02F091D4
:101CF0008F0220E030E0A0E0B0E024C0808191813C
:101D000084179507D0F08417950771F48281938129
:101D1000109729F013969C938E9312972CC0909352
:101D20008F0280938E0227C02115310519F082178A
:101D3000930718F49C01BD01EF0192818381DF01BB
:101D4000E92FF82F3097D1F621153105F9F0C901A7
:101D5000841B950B8430910580F48A819B816115E9
:101D6000710521F0FB019383828304C090938F025D
:101D700080938E02FE01329642C0FE01E80FF91FE9
:101D80004193519302979983888339C080918C0243
:101D900090918D02009741F4809108029091090280
:101DA00090938D0280938C0220910602309107025D
:101DB0002115310541F42DB73EB780910A0290916B
:101DC0000B02281B390BE0918C02F0918D02E21777
:101DD000F30798F42E1B3F0B2417350770F0CA0148
:101DE00002962817390748F08E0F9F1F90938D0297
:101DF00080938C024193519302C0E0E0F0E0CF0168
:101E0000DF91CF9108950F931F93CF93DF939C01A0
:101E1000009709F48CC0DC01129713961C921E9255
:101E2000129760918E0270918F026115710589F48D
:101E30008D919C911197820F931F20918C0230916C
:101E40008D022817390769F5B0938D02A0938C0293
:101E50006EC0FB0140E050E001C0FC01EA17FB0747
:101E600030F482819381AF010097B9F71FC0E90177
:101E70002297FB83EA8308811981C901800F911F92
:101E80008E179F0759F480819181800F911F0296D0
:101E900099838883828193819B838A83411551052D
:101EA00029F4B0938F02A0938E0241C0FA01B3834C
:101EB000A283C191D191EC0FFD1FAE17BF0781F432
:101EC000F901929182918C0F9D1F0296DA01119671
:101ED0009C938E938281938113969C938E931297F9
:101EE000E0E0F0E002C0FB01BC01DB0112968D9145
:101EF0009C9113970097B9F7CB0102962D913C91D5
:101F00001197820F931F20918C0230918D02281718
:101F1000390769F4309729F410928F0210928E02DB
:101F200002C01382128270938D0260938C02DF9143
:101F3000CF911F910F9108950F931F93CF93DF932C
:101F4000CDB7DEB72E970FB6F894DEBF0FBECDBF6C
:101F50000D891E8986E08C831A8309838FEF9FE7A2
:101F60009E838D83AE01475E5F4FCE0101966F89E0
:101F7000788D0E94CB0FEF81F885E00FF11F108262
:101F80002E960FB6F894DEBF0FBECDBFDF91CF9176
:101F90001F910F9108952F923F924F925F926F92EF
:101FA0007F928F929F92AF92BF92CF92DF92EF92E9
:101FB000FF920F931F93CF93DF93CDB7DEB72D978B
:101FC0000FB6F894DEBF0FBECDBF3C017D876C8796
:101FD0005A01FC0117821682838181FFC8C12E013C
:101FE0000894411C511CF3019381EC85FD8593FD00
:101FF000859193FF8191FD87EC87882309F4B3C114
:10200000853241F493FD859193FF8191FD87EC87A3
:10201000853229F490E0B3010E94E811E4CFFF2457
:10202000EE2410E01032B0F48B3269F08C3228F4D8
:10203000803251F0833271F40BC08D3239F080332D
:1020400049F411602CC01260146029C0186027C0C8
:10205000106125C017FD2EC0282F20532A3098F478
:1020600016FF08C08F2D880FF82EFF0CFF0CF80EFE
:10207000F20E15C08E2D880FE82EEE0CEE0CE80E39
:10208000E20E10620CC08E3221F416FD6CC1106499
:1020900006C08C3611F4106802C0883659F4EC85FD
:1020A000FD8593FD859193FF8191FD87EC878823C2
:1020B00009F0B8CF982F9554933018F09052933080
:1020C00038F424E030E0A20EB31E3FE339830FC0A2
:1020D000833631F0833781F0833509F05AC022C04E
:1020E000F5018081898322E030E0A20EB31E21E059
:1020F000C22ED12C420114C092E0292E312C2A0C80
:102100003B1CF5018080918016FF03C06F2D70E0AD
:1021100002C06FEF7FEFC4010E94DD116C0151011D
:102120001F7715C082E0282E312C2A0C3B1CF501AC
:102130008080918016FF03C06F2D70E002C06FEFAA
:102140007FEFC4010E94D2116C011068510113FD90
:102150001CC006C080E290E0B3010E94E811EA943E
:102160008E2D90E0C816D906A8F30FC0F40117FD14
:10217000859117FF81914F0190E0B3010E94E81112
:10218000E110EA940894C108D108C114D10471F790
:10219000E7C0843611F0893651F5F50117FF07C005
:1021A00080819181A281B38124E030E008C08081E8
:1021B0009181AA2797FDA095BA2F22E030E0A20EC8
:1021C000B31E012F0F76B7FF08C0B095A09590956C
:1021D00081959F4FAF4FBF4F0068BC01CD01A20159
:1021E0002AE030E00E941412D82ED4183FC0853760
:1021F00021F41F7E2AE030E020C0197F8F36A9F03D
:10220000803720F4883509F0AEC00BC0803721F04C
:10221000883709F0A8C001C0106114FF09C014601C
:1022200007C014FF08C0166006C028E030E005C0F3
:1022300020E130E002C020E132E0F50117FF07C0E5
:10224000608171818281938144E050E006C06081A9
:10225000718180E090E042E050E0A40EB51EA20142
:102260000E941412D82ED418012F0F7706FF09C030
:102270000E7FDF1430F404FF06C002FD04C00F7EA1
:1022800002C01D2D01C01F2D802F90E004FF0CC047
:10229000FE01ED0DF11D2081203311F4097E09C0EE
:1022A00002FF06C01E5F05C086789070009709F097
:1022B0001F5F802E992403FD12C000FF0DC0FD2C6E
:1022C0001E1550F4FE0CF11A1E2D06C080E290E09F
:1022D000B3010E94E8111F5F1E15C0F304C01E1554
:1022E00010F4E11A01C0EE2484FE0FC080E390E0F8
:1022F000B3010E94E81182FE1FC081FE03C088E581
:1023000090E010C088E790E00DC0C401867890701E
:10231000009791F081FC02C080E201C08BE207FDD2
:102320008DE290E0B3010E94E81106C080E390E0E6
:10233000B3010E94E811FA94DF14C0F3DA94F201B9
:10234000ED0DF11D808190E0B3010E94E811DD20C8
:10235000A9F706C080E290E0B3010E94E811EA9478
:10236000EE20C1F740CEF3018681978102C08FEF46
:102370009FEF2D960FB6F894DEBF0FBECDBFDF9155
:10238000CF911F910F91FF90EF90DF90CF90BF9072
:10239000AF909F908F907F906F905F904F903F9005
:1023A0002F900895FC010590615070400110D8F7FE
:1023B000809590958E0F9F1F0895FC01615070408D
:1023C00001900110D8F7809590958E0F9F1F08956A
:1023D0000F931F93CF93DF938C01EB018B8181FFD0
:1023E0001BC082FF0DC02E813F818C819D812817EB
:1023F000390764F4E881F9810193F983E88306C021
:10240000E885F985802F0995009731F48E819F81A9
:1024100001969F838E8302C00FEF1FEFC801DF91EB
:10242000CF911F910F910895FA01AA27283051F1F9
:10243000203181F1E8946F936E7F6E5F7F4F8F4FF5
:102440009F4FAF4FB1E03ED0B4E03CD0670F781F54
:10245000891F9A1FA11D680F791F8A1F911DA11D39
:102460006A0F711D811D911DA11D20D009F4689472
:102470003F912AE0269F11243019305D3193DEF61A
:10248000CF010895462F4770405D4193B3E00FD0D0
:10249000C9F7F6CF462F4F70405D4A3318F0495DBB
:1024A00031FD4052419302D0A9F7EACFB4E0A6959E
:1024B0009795879577956795BA95C9F700976105C0
:1024C000710508959B01AC010A2E06945795479516
:1024D00037952795BA95C9F7620F731F841F951F0B
:0824E000A01D0895F894FFCF40
:1024E800100F0E0D0C0906030A0805020B0704015C
:1024F8000E0D0B070C12120C000000000C12040841
:102508001E0000000A15110A040000000305090B4B
:102518000B1818001F0E0E0404040404010105051D
:10252800151515000E11111F1F1F1F0000000000B8
:102538000000000000E8E8F0F0E2C1C2C2C2C669CB
:102548006E666F0D0A005354415455533A20253096
:1025580032580D0A00434F4E4649473A202530323B
:10256800580D0A0052465F43483A20253032580D2C
:102578000A0052465F53455455503A202530325888
:102588000D0A00454E5F41413A20253032580D0A68
:1025980000454E5F5258414444523A202530325843
:1025A8000D0A004F4253455256455F54583A20256C
:1025B8003032580D0A000D0A00E8E8F0F0E2C1C216
:1025C800C2C2C2C1C2C2C2C3C1C2C2C2C4C1C2C2E3
:1025D800C2C5C1C2C2C2C6E8E8F0F0E253656E6483
:0C25E800206661696C0000009002200079
:00000001FF
