:100000000C94B5000C94D4000C94D4000C94D4003F
:100010000C94D4000C94D4000C94D4000C94D40010
:100020000C94D4000C94D4000C94D4000C94D40000
:100030000C94D4000C94D4000C94D4000C94D400F0
:100040000C94EF030C94D4000C94D4000C94D400C2
:100050000C94D4000C94D4000C94D4000C94D400D0
:100060000C94D4000C94D4000C94D4000C94D400C0
:100070000C94D4000C94D4000C94D4000C94D400B0
:100080000C94D4000C94D4000C94D40038080E09BD
:100090003F0846084D0854085B0862080E096908C5
:1000A000700877087E0885080E098C0893089A085E
:1000B000A108AC08B308BA08C1080E09C808CF08DF
:1000C000DA08E1080E09E808EF08F608FD08080953
:1000D0005B0955199209C109EE095519F809870AF2
:1000E000160B850C540DE30D4A0F1910A8102E1194
:1000F000DA12FF1255194D13C01345149E14101532
:100100006E159315B0155519CD1526168E161817A0
:1001100055196917D4174618971801199F19A61968
:10012000AD19B519BC19C319CC19D619DF19E819BD
:10013000F119FA19031A0C1A151A1E1A271A301A6D
:10014000391A421A4C1A551A5E1A671A701A791A15
:10015000821A8B1A941A9E1AA71AB01AB81AC01AC1
:10016000C91AD11AD91AE11AE91A11241FBECFEF00
:10017000D0E1DEBFCDBF12E0A0E0B1E0EEEDF1E4F2
:1001800000E00BBF02C007900D92AA38B107D9F763
:1001900012E0AAE8B2E001C01D92A83FB107E1F762
:1001A0000E94CF030C94ED200C940000AF92BF92FC
:1001B000CF92DF92EF92FF920F931F93CF93DF9333
:1001C00020E030E041E050E0E2E6F0E0A0E1B1E024
:1001D0000F2EF1E1AF2EF1E0BF2EF02D02E111E084
:1001E0000F2EF3E1EF2EF1E0FF2EF02DB901C90142
:1001F00004966A0102C0CC0CDD1C8A95E2F7C601A8
:100200008095808383E08A95F1F7000080B18F703C
:100210008F3029F19C919817A9F0E50198819817E2
:1002200059F0E8019881981751F0E70198819817E3
:10023000B1F4E3E0F0E008C0E1E0F0E005C0E2E0A6
:10024000F0E002C0E0E0F0E0EE0FFF1FEE0FFF1F56
:100250006E0F7F1FFB01E050FF4F808106C02F5FB4
:100260003F4F2430310511F680E0DF91CF911F918F
:100270000F91FF90EF90DF90CF90BF90AF900895D7
:1002800080EF809361008FE08093620008958FEC8F
:1002900097E00197F1F700C000000895282F2295FC
:1002A0002F708F70662311F4D89801C0D89AD99A0C
:1002B0009BB3220F220F937C922B9BBBD998D99A88
:1002C0009BB3880F880F937C892B8BBBD9980E9496
:1002D000470108950F931F93CF93DF938C01FC0187
:1002E0008081882309F18532A9F4E8012196F8017B
:1002F00081818053883020F461E00E944E010EC05D
:1003000085E261E00E944E01F801818161E00E9476
:100310004E0104C061E00E944E01E8018E010F5FB2
:100320001F4F89818823F9F6DF91CF911F910F919B
:100330000895EF92FF920F931F93CF93DF9300D016
:1003400000D00F92CDB7DEB77B01FE01319625E0DC
:10035000DF011D922A95E9F7009761F0FE013696BC
:100360002AE030E0B9010E94C11C8293862F972FAA
:100370000097C1F7BFEFEB16BFEFFB0669F42981C9
:10038000222379F4FE01329600E010E00F5F1F4F48
:1003900021912223D9F307C005E010E00E191F09AF
:1003A00002C000E010E0992324F48DE261E00E9495
:1003B0004E0105301105BCF4E1E0F0E0EC0FFD1F4B
:1003C0000E0F1F1F0F2EF6E0EF2EFF24F02DEC0E68
:1003D000FD1ED8018D918D01805D61E00E944E016E
:1003E0000E151F05B1F70F900F900F900F900F9003
:1003F000DF91CF911F910F91FF90EF90089584317D
:1004000078F4623031F0633031F0613029F4806487
:1004100003C08C5E01C08C5A806860E00E944E016F
:1004200008950F931F93CF93DF93C82F8BE49DE123
:100430000197F1F700C000008AB38C638ABBD19AA0
:10044000D09A8BB3837C8BBBD998D898D99ADB9AF6
:10045000D9980E9447018C2F8C6060E00E944E0169
:1004600088E260E00E944E0180E460E00E944E015C
:10047000C4E1D1E004E511E0899161E00E944E0100
:10048000C017D107C9F780E060E00E94FF01DF914B
:10049000CF911F910F9108950E94D600682F70E0B0
:1004A00080E090E008950E94400108950E946A0152
:1004B00008950F93CF93DF93EC01842F602F0E9458
:1004C000FF01CE010E946A01DF91CF910F91089543
:1004D0004F925F926F927F92AF92BF92CF92DF92D4
:1004E000EF92FF922B013C01822F6E2D7601650168
:1004F0000E94FF01C201B6010E949901FF90EF9096
:10050000DF90CF90BF90AF907F906F905F904F90B3
:10051000089581E060E00E944E0182E060E00E9468
:100520004E01089580E00E94110208950F931F93D9
:10053000CF93DF930F92CDB7DEB71982CE0101962C
:100540000E948F06882399F08981882399F4ECE82A
:10055000F2E0CF0140961192E817F907E1F70CE8B5
:1005600012E080E0B8010E94A106C80105C084E540
:1005700091E002C084E591E00F90DF91CF911F914F
:100580000F910895CF93DF939C01CEE9D2E080E0F4
:1005900090E0A22FB32FFD0101900020E9F73197E1
:1005A000EA1BFB0B8E179F0730F4F901E80FF91FC8
:1005B0004081488301C018820196219680319105BF
:1005C00041F785E591E00E94FF048EE992E00E94E8
:1005D000C706982FEFECF7E03197F1F700C0000065
:1005E00081E0913009F080E0DF91CF910895EEE94C
:1005F000F2E0CF01409621E02193E817F907E1F7F7
:100600008AE591E00E94FF048EE992E00E94C7060D
:10061000982FEFECF7E03197F1F700C0000081E090
:10062000913009F080E008950F931F93CF93DF93EB
:100630000F92CDB7DEB71982CE0101960E948F06C8
:100640008823F1F089818530E9F4ECE8F2E08F014C
:10065000005F1F4F1192E017F107E1F785E06CE8AA
:1006600072E00E94A10680918C02813069F4EDE86D
:10067000F2E08191813051F4E017F107D1F707C022
:1006800080E005C080E003C080E001C080E00F9002
:10069000DF91CF911F910F910895AF92EF92822F2A
:1006A000EEE9F2E0AF01405F5F4F1192E417F5070A
:1006B000E1F7605D60939E023AE0632F0E94B51CF3
:1006C000905D9093A0020E94B51C905D90939F0254
:1006D0008E2D0E94B51C905D9093A3020E94B51CC4
:1006E000905D9093A2020E94B51C905D9093A10230
:1006F0008A2D0E94B51C905D9093A5020E94B51CA6
:10070000905D9093A40285E591E00E94FF048EE93C
:1007100092E00E94C706982FEFECF7E03197F1F7CF
:1007200000C0000081E0913009F080E0EF90AF90D0
:100730000895822FEEE9F2E0AF01405F5F4F119222
:10074000E417F507E1F7605D60939E023AE0632FDE
:100750000E94B51C905D9093A0020E94B51C905D14
:1007600090939F0285E591E00E94FF048EE992E05C
:100770000E94C706982FEFECF7E03197F1F700C021
:10078000000081E0913009F080E008950E94C11BD3
:1007900008950E940D1C08950E941D0708958FE082
:1007A00084BB85BB82E090E00E94E81C80939C02A1
:1007B00090939D020E94B51B80919C0290919D0296
:1007C0000E94DC0780919C0290919D020E94E307A9
:1007D00080919C0290919D020E941109F9CF1F9275
:1007E0000F920FB60F920BB60F9211242F933F93D7
:1007F0004F935F936F937F938F939F93AF93BF9329
:10080000EF93FF9383E882BF80919C0290919D02B9
:100810000E94421CFF91EF91BF91AF919F918F91E8
:100820007F916F915F914F913F912F910F900BBEF0
:100830000F900FBE0F901F901895AE988F710E9469
:10084000B01B8FEF0E94B01BAE9A0895FF920F93DA
:100850001F93CF93DF93062FF72E142FAE988F712F
:100860000E94B01B112351F0C02FDF2D00E08FEF4D
:100870000E94B01B89930F5F0117C9F7AE9ADF91F1
:10088000CF911F910F91FF900895CF93C62FAE98EF
:100890008F7180620E94B01B8C2F0E94B01BAE9A99
:1008A000CF910895FF920F931F93CF93DF93062F5D
:1008B000F72E142FAE988F7180620E94B01B112307
:1008C00049F0C02FDF2D00E089910E94B01B0F5F1F
:1008D0000117D1F7AE9ADF91CF911F910F91FF9041
:1008E000089520E030E00496DB01A20FB31FFC0165
:1008F000E21BF30B40814C932F5F3F4F25303105B6
:1009000099F70895CF93DF9300D000D00F92CDB721
:10091000DEB78823B1F4A9EDB1E0FB0185E00190D9
:100920000D928150E1F7CB01BE016F5F7F4F0E94B6
:1009300071048AE0BE016F5F7F4F45E00E94520460
:1009400056C08130B1F4AEEDB1E0FB0185E001901D
:100950000D928150E1F7CB01BE016F5F7F4F0E9486
:1009600071048BE0BE016F5F7F4F45E00E9452042F
:100970003EC0823071F4A3EEB1E0FB0185E001904E
:100980000D928150E1F78CE0FB0164810E944504E7
:100990002EC0833071F4A8EEB1E0FB0185E0019038
:1009A0000D928150E1F78DE0FB0164810E944504C6
:1009B0001EC0843071F4ADEEB1E0FB0185E0019022
:1009C0000D928150E1F78EE0FB0164810E944504A5
:1009D0000EC0853061F4A2EFB1E0FB0101900D92F1
:1009E0008150E1F78FE0FB0164810E9445040F9084
:1009F0000F900F900F900F90DF91CF910895CF93AC
:100A0000DF9300D000D00F92CDB7DEB7A7EFB1E0F3
:100A1000E82FF92F25E001900D922150E1F7BE015A
:100A20006F5F7F4F0E9471048AE0BE016F5F7F4F4E
:100A300045E00E94520480E1BE016F5F7F4F45E0B8
:100A40000E9452040F900F900F900F900F90DF9123
:100A5000CF910895AE9882EE0E94B01BAE9A089591
:100A6000AE9881EE0E94B01BAE9A089580E069EDC9
:100A700071E00E94820480E00E941D04682F616082
:100A800080E00E94450480E00E941D04682F62609F
:100A900080E00E94450487E060E70E9445040E94D0
:100AA0002A050E943005AF9A82E38A95F1F70895EE
:100AB000AF9880E00E941D04682F6E7F80E00E9446
:100AC000450480E00E941D04682F626080E00E945F
:100AD000450487E060E70E9445040E94300582E3F8
:100AE0008A95F1F70895AE988FEF0E94B01BAE9AE9
:100AF0000895EF92FF920F931F93CF93DF93CDB79B
:100B0000DEB7C456D0400FB6F894DEBF0FBECDBFDF
:100B10007C018FE591E0F70109950E94730500D0F3
:100B200000D000D0EDB7FEB731968E010F5F1F4F9A
:100B3000ADB7BEB712961C930E93119726E631E01F
:100B400033832283848315820E94171E8DB79EB73C
:100B500006960FB6F8949EBF0FBE8DBFC801F70171
:100B6000099580E00E941D0400D000D000D0EDB7B0
:100B7000FEB73196ADB7BEB712961C930E93119780
:100B800025E731E033832283848315820E94171E78
:100B90008DB79EB706960FB6F8949EBF0FBE8DBF59
:100BA000C801F701099585E00E941D0400D000D01E
:100BB00000D0EDB7FEB73196ADB7BEB712961C9315
:100BC0000E93119724E831E03383228384831582C6
:100BD0000E94171E8DB79EB706960FB6F8949EBF5B
:100BE0000FBE8DBFC801F701099586E00E941D0464
:100BF00000D000D000D0EDB7FEB73196ADB7BEB78C
:100C000012961C930E93119722E931E033832283CD
:100C1000848315820E94171E8DB79EB706960FB665
:100C2000F8949EBF0FBE8DBFC801F701099581E002
:100C30000E941D0400D000D000D0EDB7FEB7319661
:100C4000ADB7BEB712961C930E93119723EA31E00D
:100C500033832283848315820E94171E8DB79EB72B
:100C600006960FB6F8949EBF0FBE8DBFC801F70160
:100C7000099582E00E941D0400D000D000D0EDB79D
:100C8000FEB73196ADB7BEB712961C930E9311976F
:100C900021EB31E033832283848315820E94171E67
:100CA0008DB79EB706960FB6F8949EBF0FBE8DBF48
:100CB000C801F701099588E00E941D0400D000D00A
:100CC00000D0EDB7FEB73196ADB7BEB712961C9304
:100CD0000E93119723EC31E03383228384831582B2
:100CE0000E94171E8DB79EB706960FB6F8949EBF4A
:100CF0000FBE8DBFC801F701099586ED91E0F701A0
:100D00000995CC59DF4F0FB6F894DEBF0FBECDBFAB
:100D1000DF91CF911F910F91FF90EF900895CF93A6
:100D2000DF93EC010E947305982F907486FF05C035
:100D3000209719F0869587708883892FDF91CF914E
:100D400008950F931F93CF93DF93062F172FAE981D
:100D500081E60E94B01BC02FD12F10E08FEF0E94C0
:100D6000B01B89931F5F1031C9F7AE9A87E060E42A
:100D70000E9445040E94730585FF04C087E060E27D
:100D80000E944504DF91CF911F910F9108950F9319
:100D90001F93CF93DF93082F192F0E945805AE9809
:100DA00080EA0E94B01BC02FD12F10E189910E94D0
:100DB000B01B1150D9F7AE9AAF9A85E08A95F1F73A
:100DC000AF9883E08A95F1F700000E947305807365
:100DD000C1F30E947305C82F85E06CE40E944504AE
:100DE00080E00E941D04682F6D7F80E00E94450412
:100DF0000E94360581E0C5FF80E0DF91CF911F9111
:100E00000F91089586E00E941D04682F666086E0B9
:100E10000E944504089586E00E941D04682F677DA6
:100E200086E00E944504089580E00E941D04682F1A
:100E30006C6080E00E9445040895A69AA79A0E94DB
:100E4000A51BAF98AE9A81EE94E00197F1F700C030
:100E500000000E9402070E940B070E94140784E012
:100E600067E40E9445048CE160E00E94450485E04F
:100E70006CE40E94450481E160E10E94450482E146
:100E800060E10E94450483E160E10E94450484E141
:100E900060E10E94450485E160E10E94450486E12D
:100EA00060E10E94450482E060E00E94450482E027
:100EB0000E941D04682F616082E00E94450482E068
:100EC0000E941D04682F626082E00E94450482E057
:100ED0000E941D04682F646082E00E94450482E045
:100EE0000E941D04682F686082E00E94450482E031
:100EF0000E941D04682F606182E00E94450482E028
:100F00000E941D04682F606282E00E94450481E017
:100F10000E941D04682F616081E00E94450481E009
:100F20000E941D04682F626081E00E94450481E0F8
:100F30000E941D04682F646081E00E94450481E0E6
:100F40000E941D04682F686081E00E94450481E0D2
:100F50000E941D04682F606181E00E94450481E0C9
:100F60000E941D04682F606281E00E94450480E0B9
:100F700069ED71E00E94820481E06EED71E00E94F3
:100F8000820482E063EE71E00E94820483E068EEF6
:100F900071E00E94820484E06DEE71E00E948204A0
:100FA00085E062EF71E00E94820487EF91E00E9489
:100FB000FF040E9436050895FC0187E28083818347
:100FC0001382128208951F93CF93DF93EC0111E0F7
:100FD0001DA7C89648EB5BE060E070E020E00E944F
:100FE000C60381E090E0A0E0B0E08AAB9BABACAB85
:100FF000BDAB0E9492020E9453020E94CC030E9449
:1010000089028CEF91E00E94560218831B821A829B
:10101000DF91CF911F910895CF93DF93EC018881E9
:10102000833069F0843081F0813091F487E28883E5
:101030001B821A82CE01C8960E94C90309C087E2AA
:1010400088831B821A8204C087E288831B821A82EB
:10105000898190E005978232910508F0DFC08A5BB4
:101060009F4FFC01EE0FFF1F0590F491E02D0994B6
:1010700087E2898381E090E09B838A83CFC087E207
:10108000898381E090E09B838A83C8C087E289835B
:1010900081E090E09B838A83C1C087E2898381E0FD
:1010A00090E09B838A83BAC087E2898381E090E0E5
:1010B0009B838A83B3C087E2898381E090E09B832E
:1010C0008A83ACC087E2898381E090E09B838A8336
:1010D000A5C087E2898381E090E09B838A839EC0DC
:1010E00087E2898381E090E09B838A8397C087E2CF
:1010F000898381E090E09B838A8390C087E2898323
:1011000081E090E09B838A8389C087E2898381E0C4
:1011100090E09B838A8382C087E2898381E090E0AC
:101120009B838A837BC087E2898381E090E09B83F5
:101130008A8374C087E2898381E090E09B838A83FD
:101140006DC087E2898381E090E09B838A83CE0132
:10115000C9960E94C90362C087E2898381E090E05A
:101160009B838A835BC087E2898381E090E09B83D5
:101170008A8354C087E2898381E090E09B838A83DD
:101180004DC087E2898381E090E09B838A8346C0DB
:1011900087E2898381E090E09B838A833FC087E276
:1011A000898381E090E09B838A83CE01CA960E9466
:1011B000C90334C087E2898381E090E09B838A83FE
:1011C0002DC087E2898381E090E09B838A8326C0DB
:1011D00087E2898381E090E09B838A831FC087E256
:1011E000898381E090E09B838A8318C087E28983AA
:1011F00081E090E09B838A8311C087E2898381E04C
:1012000090E09B838A83CE01CB960E94C90306C0DF
:1012100087E2898381E090E09B838A83DF91CF918D
:1012200008952F923F924F925F926F927F928F928A
:101230009F92AF92BF92CF92DF92EF92FF920F9365
:101240001F93CF93DF93EC011B821A8280E090E022
:1012500001E010E00F2EF4E23F2EF02D0F2EFFE103
:101260002F2EF02DCC24DD2476016894C2F80F2EA9
:10127000F3E08F2EF0E09F2EF0E0AF2EF0E0BF2ED7
:10128000F02D442455243201689441F88C0F9D1FA1
:10129000DC01EC918E2F90E0FC013197E632F105F4
:1012A00010F00C945519E859FF4FEE0FFF1F0590F1
:1012B000F491E02D099488AD882311F40C9455190C
:1012C00087E288831B821A82CE01C8960E94C903D6
:1012D0000E944C02DC01CB018C839D83AE83BF83D3
:1012E0001C8683E088831B821A820E94890288E020
:1012F00092E00E94560287E192E040E050E0BA019D
:1013000001E010E020E030E00E9459021EA61FA676
:1013100018AA19AA85E0898381E090E09B838A83DB
:101320000C9477198C819D81AE81BF810097A105B6
:10133000B105C1F027E228831B821A82888799872A
:10134000AA87BB870E944C02DC01CB018C839D8362
:10135000AE83BF8381E08C8784E088831B821A82FE
:101360000C947D190E944C02DC01CB018C839D837F
:10137000AE83BF831C8683E088831B821A820C9411
:101380007D198C819D81AE81BF810097A105B1053A
:10139000A9F487E288831B821A8281E08D870E94EC
:1013A0004C02DC01CB018C839D83AE83BF831C8602
:1013B00083E088831B821A820C947D190E944C0260
:1013C000DC01CB018C839D83AE83BF8381E08C875E
:1013D00084E088831B821A820C947D191B830A8304
:1013E000188619861A861B8682E189830C94551902
:1013F0008EA59FA5A8A9B9A90097A105B10509F0D7
:101400007CC089818B30D1F18C3070F4883009F147
:10141000893020F4873009F053C014C0893001F1BD
:101420008A3009F04DC023C08E30B1F18F3020F4E6
:101430008C3009F045C029C08F30A9F1803109F006
:101440003FC038C087E2898381E090E09B838A8334
:1014500037C087E2898381E090E09B838A8330C034
:1014600087E2898381E090E09B838A8329C087E2B9
:10147000898381E090E09B838A8322C087E289830D
:1014800081E090E09B838A831BC087E2898381E0AF
:1014900090E09B838A8314C087E2898381E090E097
:1014A0009B838A830DC087E2898381E090E09B83E0
:1014B0008A8306C087E2898381E090E09B838A83E8
:1014C0000E94890288E092E00E94560287E192E041
:1014D00040E050E0BA0101E010E020E030E00E947E
:1014E00059021EA61FA618AA19AA85E0898381E0C1
:1014F00090E09B838A830C9477191B830A83188658
:1015000019861A861B8689E089830C9455198EA545
:101510009FA5A8A9B9A90097A105B10509F07CC0AC
:1015200089818B30D1F18C3070F4883009F18930A9
:1015300020F4873009F053C014C0893001F18A309B
:1015400009F04DC023C08E30B1F18F3020F48C30C3
:1015500009F045C029C08F30A9F1803109F03FC0A2
:1015600038C087E2898381E090E09B838A8337C01B
:1015700087E2898381E090E09B838A8330C087E2A1
:10158000898381E090E09B838A8329C087E28983F5
:1015900081E090E09B838A8322C087E2898381E097
:1015A00090E09B838A831BC087E2898381E090E07F
:1015B0009B838A8314C087E2898381E090E09B83C8
:1015C0008A830DC087E2898381E090E09B838A83D0
:1015D00006C087E2898381E090E09B838A830E9432
:1015E000890288E092E00E94560287E192E040E0A2
:1015F00050E0BA0101E010E020E030E00E94590222
:101600001EA61FA618AA19AA85E0898381E090E08A
:101610009B838A830C9477191B830A831886198607
:101620001A861B8689E089830C9455198EA59FA57F
:10163000A8A9B9A90097A105B10509F07CC08981C5
:101640008B30D1F18C3070F4883009F1893020F47E
:10165000873009F053C014C0893001F18A3009F095
:101660004DC023C08E30B1F18F3020F48C3009F0A2
:1016700045C029C08F30A9F1803109F03FC038C082
:1016800087E2898381E090E09B838A8337C087E289
:10169000898381E090E09B838A8330C087E28983DD
:1016A00081E090E09B838A8329C087E2898381E07F
:1016B00090E09B838A8322C087E2898381E090E067
:1016C0009B838A831BC087E2898381E090E09B83B0
:1016D0008A8314C087E2898381E090E09B838A83B8
:1016E0000DC087E2898381E090E09B838A8306C0F6
:1016F00087E2898381E090E09B838A830E9489024C
:1017000088E092E00E94560287E192E040E050E0DB
:10171000BA0101E010E020E030E00E9459021EA66C
:101720001FA618AA19AA85E0898381E090E09B830F
:101730008A830C94771989A59AA5ABA5BCA583309B
:101740009105A105B1050CF06AC0488559856A85E7
:101750007B854A305105610571050CF04EC01416A9
:101760001506160617060CF048C02D85222309F42D
:1017700044C06A017B0127E2298388249924839449
:101780009B828A829C01AD01220F331F441F551F8B
:10179000C701B601EE24FF248701E394AA24BB24E9
:1017A0006501A3940E94680289A59AA5ABA5BCA572
:1017B0000196A11DB11D89A79AA7ABA7BCA769A1D6
:1017C0007AA18BA19CA12AE030E040E050E00E9489
:1017D000961CAB01BC0188859985AA85BB85840FC1
:1017E000951FA61FB71F89A39AA3ABA3BCA388E02C
:1017F00089839B828A820C9477194A30510561054E
:10180000710569F48D85882351F01B830A8318863E
:1018100019861A861B868AE089830C945519888557
:101820009985AA85BB858B309105A105B10549F540
:101830002D85222331F187E28983EE24FF24E3946E
:10184000FB82EA820E94890285E292E00E945602AF
:1018500080E392E040E050E0BA0101E010E020E0D7
:1018600030E00E94590219A61AA61BA61CA619A2AE
:101870001AA21BA21CA287E08983FB82EA820C9435
:1018800077198C309105A105B10549F52D852223E5
:1018900031F187E28983EE24FF24E394FB82EA821C
:1018A0000E94890286E392E00E9456028EE392E053
:1018B00040E050E0BA0101E010E020E030E00E949A
:1018C000590219A61AA61BA61CA61DA21EA21FA27B
:1018D00018A68BE08983FB82EA820C947719803109
:1018E0009105A105B10511F00C9455198D8588233A
:1018F00011F40C9455191B830A831EA61FA618AA5F
:1019000019AA8FE089830C9455198EA59FA5A8A9C3
:10191000B9A90097A105B10509F07CC089818B3078
:10192000D1F18C3070F4883009F1893020F487309F
:1019300009F053C014C0893001F18A3009F04DC05C
:1019400023C08E30B1F18F3020F48C3009F045C0C7
:1019500029C08F30A9F1803109F03FC038C087E23B
:10196000898381E090E09B838A8337C087E2898303
:1019700081E090E09B838A8330C087E2898381E0A5
:1019800090E09B838A8329C087E2898381E090E08D
:101990009B838A8322C087E2898381E090E09B83D6
:1019A0008A831BC087E2898381E090E09B838A83DE
:1019B00014C087E2898381E090E09B838A830DC015
:1019C00087E2898381E090E09B838A8306C087E277
:1019D000898381E090E09B838A830E94890288E06A
:1019E00092E00E94560287E192E040E050E0BA01A6
:1019F00001E010E020E030E00E9459021EA61FA680
:101A000018AA19AA85E0898381E090E09B838A83E4
:101A10000C94771987E289838824992483949B8284
:101A20008A82E884F9840A851B8589A59AA5ABA5D5
:101A3000BCA59C01AD01220F331F441F551FC801D7
:101A4000B701EE24FF248701E394AA24BB24650197
:101A5000A3940E94680289A59AA5ABA5BCA501968E
:101A6000A11DB11D89A79AA7ABA7BCA769A17AA19F
:101A70008BA19CA12AE030E040E050E00E94961C3F
:101A8000AB01BC0188859985AA85BB85840F951F0C
:101A9000A61FB71F89A39AA3ABA3BCA388E0898321
:101AA0009B828A820C9477198EA59FA5A8A9B9A9B3
:101AB0000097A105B10509F07CC089818B30D1F177
:101AC0008C3070F4883009F1893020F4873009F0C7
:101AD00053C014C0893001F18A3009F04DC023C0D1
:101AE0008E30B1F18F3020F48C3009F045C029C020
:101AF0008F30A9F1803109F03FC038C087E2898377
:101B000081E090E09B838A8337C087E2898381E00C
:101B100090E09B838A8330C087E2898381E090E0F4
:101B20009B838A8329C087E2898381E090E09B833D
:101B30008A8322C087E2898381E090E09B838A8345
:101B40001BC087E2898381E090E09B838A8314C075
:101B500087E2898381E090E09B838A830DC087E2DE
:101B6000898381E090E09B838A8306C087E2898332
:101B700081E090E09B838A830E94890288E092E062
:101B80000E94560287E192E040E050E0BA0101E095
:101B900010E020E030E00E9459021EA61FA618AAFD
:101BA00019AA85E0898381E090E09B838A830C9465
:101BB00077191B830A83188619861A861B868CE080
:101BC00089830C9455198EA59FA5A8A9B9A900973A
:101BD000A105B10509F07CC089818B30D1F18C3031
:101BE00070F4883009F1893020F4873009F053C04F
:101BF00014C0893001F18A3009F04DC023C08E3005
:101C0000B1F18F3020F48C3009F045C029C08F30FD
:101C1000A9F1803109F03FC038C087E2898381E0B3
:101C200090E09B838A8337C087E2898381E090E0DC
:101C30009B838A8330C087E2898381E090E09B8325
:101C40008A8329C087E2898381E090E09B838A832D
:101C500022C087E2898381E090E09B838A831BC056
:101C600087E2898381E090E09B838A8314C087E2C6
:101C7000898381E090E09B838A830DC087E289831A
:101C800081E090E09B838A8306C087E2898381E0BC
:101C900090E09B838A830E94890288E092E00E9400
:101CA000560287E192E040E050E0BA0101E010E026
:101CB00020E030E00E9459021EA61FA618AA19AA09
:101CC00085E0898381E090E09B838A830C94771977
:101CD00089A59AA5ABA5BCA582309105A105B10542
:101CE0000CF06AC0488559856A857B854A30510564
:101CF0006105710569F42D85222351F01B830A8348
:101D0000188619861A861B868DE089830C945519CE
:101D10004A305105610571050CF04EC014161506C8
:101D2000160617060CF048C02D85222309F444C07E
:101D30006A017B0127E229838824992483949B826A
:101D40008A829C01AD01220F331F441F551FC7011A
:101D5000B601EE24FF248701E394AA24BB24650185
:101D6000A3940E94680289A59AA5ABA5BCA501967B
:101D7000A11DB11D89A79AA7ABA7BCA76DA17EA184
:101D80008FA198A52AE030E040E050E00E94961C28
:101D9000AB01BC0188859985AA85BB85840F951FF9
:101DA000A61FB71F8DA39EA3AFA3B8A78EE08983FC
:101DB0009B828A820C94771988859985AA85BB8530
:101DC0008B309105A105B10549F52D85222331F10F
:101DD00087E28983EE24FF24E394FB82EA820E9457
:101DE000890286E392E00E9456028EE392E040E090
:101DF00050E0BA0101E010E020E030E00E9459021A
:101E000019A61AA61BA61CA61DA21EA21FA218A6D2
:101E10008BE08983FB82EA820C94771980319105EB
:101E2000A105B10569F42D85222351F01B830A8396
:101E30001EA61FA618AA19AA8FE089830C9455190B
:101E40008C309105A105B10511F00C9455198D85C3
:101E5000882311F40C94551987E28983EE24FF241A
:101E6000E394FB82EA820E94890282E492E00E946B
:101E7000560281E592E040E050E0BA0101E010E056
:101E800020E030E00E94590280E18983FB82EA82EF
:101E90000C9477198EA59FA5A8A9B9A90097A105AB
:101EA000B10509F07CC089818B30D1F18C3070F4A0
:101EB000883009F1893020F4873009F053C014C00C
:101EC000893001F18A3009F04DC023C08E30B1F164
:101ED0008F3020F48C3009F045C029C08F30A9F133
:101EE000803109F03FC038C087E2898381E090E00B
:101EF0009B838A8337C087E2898381E090E09B835C
:101F00008A8330C087E2898381E090E09B838A8363
:101F100029C087E2898381E090E09B838A8322C085
:101F200087E2898381E090E09B838A831BC087E2FC
:101F3000898381E090E09B838A8314C087E2898350
:101F400081E090E09B838A830DC087E2898381E0F2
:101F500090E09B838A8306C087E2898381E090E0DA
:101F60009B838A830E94890288E092E00E94560245
:101F700087E192E040E050E0BA0101E010E020E0AB
:101F800030E00E9459021EA61FA618AA19AA85E0D1
:101F9000898381E090E09B838A830C94771987E2A0
:101FA00089838824992483949B828A82E884F98493
:101FB0000A851B8589A59AA5ABA5BCA59C01AD0189
:101FC000220F331F441F551FC801B701EE24FF2401
:101FD0008701E394AA24BB246501A3940E946802AC
:101FE00089A59AA5ABA5BCA50196A11DB11D89A780
:101FF0009AA7ABA7BCA76DA17EA18FA198A52AE047
:1020000030E040E050E00E94961CAB01BC018885A6
:102010009985AA85BB85840F951FA61FB71F8DA321
:102020009EA3AFA3B8A78EE089839B828A820C947B
:1020300077198EA59FA5A8A9B9A90097A105B105F3
:1020400009F07CC089818B30D1F18C3070F48830FC
:1020500009F1893020F4873009F053C014C0893069
:1020600001F18A3009F04DC023C08E30B1F18F30BC
:1020700020F48C3009F045C029C08F30A9F180319F
:1020800009F03FC038C087E2898381E090E09B83FC
:102090008A8337C087E2898381E090E09B838A83CB
:1020A00030C087E2898381E090E09B838A8329C0E6
:1020B00087E2898381E090E09B838A8322C087E264
:1020C000898381E090E09B838A831BC087E28983B8
:1020D00081E090E09B838A8314C087E2898381E05A
:1020E00090E09B838A830DC087E2898381E090E042
:1020F0009B838A8306C087E2898381E090E09B838B
:102100008A830E94890288E092E00E94560287E159
:1021100092E040E050E0BA0101E010E020E030E061
:102120000E9459021EA61FA618AA19AA85E0898333
:1021300081E090E09B838A830C9477191B830A8348
:10214000188619861A861B868CE089830C9455198B
:102150008EA59FA5A8A9B9A90097A105B10511F061
:102160000C94551989818B30D1F18C3070F4883002
:1021700009F1893020F4873009F053C014C0893048
:1021800001F18A3009F04DC023C08E30B1F18F309B
:1021900020F48C3009F045C029C08F30A9F180317E
:1021A00009F03FC038C087E2898381E090E09B83DB
:1021B0008A8337C087E2898381E090E09B838A83AA
:1021C00030C087E2898381E090E09B838A8329C0C5
:1021D00087E2898381E090E09B838A8322C087E243
:1021E000898381E090E09B838A831BC087E2898397
:1021F00081E090E09B838A8314C087E2898381E039
:1022000090E09B838A830DC087E2898381E090E020
:102210009B838A8306C087E2898381E090E09B8369
:102220008A830E94890288E092E00E94560287E138
:1022300092E040E050E0BA0101E010E020E030E040
:102240000E9459021EA61FA618AA19AA85E0898312
:1022500081E090E09B838A830C9477198EA59FA5DB
:10226000A8A9B9A90097A105B10509F07BC089818A
:102270008B30D1F18C3070F4883009F1893020F442
:10228000873009F053C014C0893001F18A3009F059
:102290004DC023C08E30B1F18F3020F48C3009F066
:1022A00045C029C08F30A9F1803109F03FC038C046
:1022B00087E2898381E090E09B838A8337C087E24D
:1022C000898381E090E09B838A8330C087E28983A1
:1022D00081E090E09B838A8329C087E2898381E043
:1022E00090E09B838A8322C087E2898381E090E02B
:1022F0009B838A831BC087E2898381E090E09B8374
:102300008A8314C087E2898381E090E09B838A837B
:102310000DC087E2898381E090E09B838A8306C0B9
:1023200087E2898381E090E09B838A830E9489020F
:1023300088E092E00E94560287E192E040E050E09F
:10234000BA0101E010E020E030E00E9459021EA630
:102350001FA618AA19AA85E0898381E090E09B83D3
:102360008A83C5C788859985AA85BB858B309105E9
:10237000A105B10509F090C02D85222309F48CC078
:1023800089818B30D1F18C3070F4883009F189303B
:1023900020F4873009F053C014C0893001F18A302D
:1023A00009F04DC023C08E30B1F18F3020F48C3055
:1023B00009F045C029C08F30A9F1803109F03FC034
:1023C00038C087E2898381E090E09B838A8337C0AD
:1023D00087E2898381E090E09B838A8330C087E233
:1023E000898381E090E09B838A8329C087E2898387
:1023F00081E090E09B838A8322C087E2898381E029
:1024000090E09B838A831BC087E2898381E090E010
:102410009B838A8314C087E2898381E090E09B8359
:102420008A830DC087E2898381E090E09B838A8361
:1024300006C087E2898381E090E09B838A831F8ABC
:1024400089E090E0A0E0B0E08EA79FA7A8ABB9AB71
:1024500081E090E0A0E0B0E0888F998FAA8FBB8FD9
:102460002AA93BA94CA95DA9E9A0FAA00BA11CA12E
:102470008DA09EA0AFA0B8A469E070E080E090E0DD
:10248000650154010E944D038F8B84E1898381E0B3
:1024900090E09B838A832BC78C309105A105B10501
:1024A00009F003C78D85882309F4FFC689818B3025
:1024B000D1F18C3070F4883009F1893020F4873004
:1024C00009F053C014C0893001F18A3009F04DC0C1
:1024D00023C08E30B1F18F3020F48C3009F045C02C
:1024E00029C08F30A9F1803109F03FC038C087E2A0
:1024F000898381E090E09B838A8337C087E2898368
:1025000081E090E09B838A8330C087E2898381E009
:1025100090E09B838A8329C087E2898381E090E0F1
:102520009B838A8322C087E2898381E090E09B833A
:102530008A831BC087E2898381E090E09B838A8342
:1025400014C087E2898381E090E09B838A830DC079
:1025500087E2898381E090E09B838A8306C087E2DB
:10256000898381E090E09B838A831F8A81E090E0E9
:10257000A0E0B0E0888F998FAA8FBB8F6EA57FA552
:1025800088A999A92AA93BA94CA95DA9E9A0FAA003
:102590000BA11CA18DA09EA0AFA0B8A46501540101
:1025A0000E944D038F8B84E1898381E090E09B83BF
:1025B0008A839DC687E28983EE24FF24E394FB820D
:1025C000EA820E94890285E292E00E94560280E33C
:1025D00092E040E050E0BA0101E010E020E030E09D
:1025E0000E94590219A61AA61BA61CA619A21AA275
:1025F0001BA21CA287E08983FB82EA8278C68885B9
:102600009985AA85BB858D309105A105B10581F419
:102610002D85222369F01B830A8381E090E0A0E0EE
:10262000B0E08EA79FA7A8ABB9AB91E199833DC657
:102630008E309105A105B10561F42D85222349F065
:102640001B830A834EA65FA668AA79AAA9E1A9837B
:102650002CC68F309105A105B10561F42D8522238B
:1026600049F01B830A838EA69FA6A8AAB9AABAE13D
:10267000B9831BC680319105A105B10509F015C6C6
:102680008D85882309F411C61B830A83CEA6DFA695
:10269000E8AAF9AA8BE1898308C68F89882309F4FF
:1026A00055C089818631D1F0873128F4843141F0D9
:1026B000853161F50CC08731C1F0883139F520C012
:1026C00087E2898381E090E09B838A831FC087E251
:1026D000898381E090E09B838A8318C087E28983A5
:1026E00081E090E09B838A8311C087E2898381E047
:1026F00090E09B838A83CE01C9960E94C90306C0DD
:1027000087E2898381E090E09B838A830E9489022B
:1027100085E292E00E94560280E392E040E050E0C1
:10272000BA0101E010E020E030E00E94590219A651
:102730001AA61BA61CA619A21AA21BA21CA287E0FD
:10274000898381E090E09B838A83D1C587E2898376
:1027500001E010E01B830A83CE01C99640ED57E0EB
:1027600060E070E020E00E94C6030E9489028DE5CF
:1027700092E00E94560287E189831B830A83B7C5D2
:102780008F89882309F455C089818631D1F087313A
:1027900028F4843141F0853161F50CC08731C1F0F6
:1027A000883139F520C087E2898381E090E09B83FE
:1027B0008A831FC087E2898381E090E09B838A83BC
:1027C00018C087E2898381E090E09B838A8311C0EF
:1027D00087E2898381E090E09B838A83CE01C9965A
:1027E0000E94C90306C087E2898381E090E09B8351
:1027F0008A830E94890285E292E00E94560280E369
:1028000092E040E050E0BA0101E010E020E030E06A
:102810000E94590219A61AA61BA61CA619A21AA242
:102820001BA21CA287E0898381E090E09B838A83BE
:102830005EC587E289834424552443945B824A829F
:10284000888D998DAA8DBB8D0196A11DB11D888F94
:10285000998FAA8FBB8F6EA57FA588A999A92AA950
:102860003BA94CA95DA9E9A0FAA00BA11CA18DA0D0
:102870009EA0AFA0B8A4650154010E944D038F8BA8
:1028800084E189835B824A8232C58F89882309F477
:102890000CC589818631D1F0873128F4843141F02B
:1028A000853161F50CC08731C1F0883139F520C020
:1028B00087E2898381E090E09B838A831FC087E25F
:1028C000898381E090E09B838A8318C087E28983B3
:1028D00081E090E09B838A8311C087E2898381E055
:1028E00090E09B838A83CE01C9960E94C90306C0EB
:1028F00087E2898381E090E09B838A830E9489023A
:1029000085E292E00E94560280E392E040E050E0CF
:10291000BA0101E010E020E030E00E94590219A65F
:102920001AA61BA61CA619A21AA21BA21CA287E00B
:10293000898381E090E09B838A83D9C48F8988232F
:1029400009F455C089818631D1F0873128F484316A
:1029500041F0853161F50CC08731C1F0883139F51E
:1029600020C087E2898381E090E09B838A831FC037
:1029700087E2898381E090E09B838A8318C087E2A5
:10298000898381E090E09B838A8311C087E28983F9
:1029900081E090E09B838A83CE01C9960E94C9039F
:1029A00006C087E2898381E090E09B838A830E944E
:1029B000890285E292E00E94560280E392E040E0C4
:1029C00050E0BA0101E010E020E030E00E9459023E
:1029D00019A61AA61BA61CA619A21AA21BA21CA203
:1029E00087E0898381E090E09B838A8380C489ADFE
:1029F000882309F45AC487E2898301E010E01B832D
:102A00000A83CE01C9960E94C90381E08F8B188E7C
:102A1000198E1A8E1B8E88E189831B830A8367C4F3
:102A20008F89882309F455C089818631D1F0873197
:102A300028F4843141F0853161F50CC08731C1F053
:102A4000883139F520C087E2898381E090E09B835B
:102A50008A831FC087E2898381E090E09B838A8319
:102A600018C087E2898381E090E09B838A8311C04C
:102A700087E2898381E090E09B838A83CE01C996B7
:102A80000E94C90306C087E2898381E090E09B83AE
:102A90008A830E94890285E292E00E94560280E3C6
:102AA00092E040E050E0BA0101E010E020E030E0C8
:102AB0000E94590219A61AA61BA61CA619A21AA2A0
:102AC0001BA21CA287E0898381E090E09B838A831C
:102AD0000EC41B830A8396E19983E7C387E2898347
:102AE000EE24FF24E394FB82EA820E94890285E2BD
:102AF00092E00E94560280E392E040E050E0BA018A
:102B000001E010E020E030E00E94590219A61AA668
:102B10001BA61CA619A21AA21BA21CA287E08983CD
:102B2000FB82EA82E4C387E28983EE24FF24E394F4
:102B3000FB82EA820E94890287E692E00E945602A6
:102B400080E792E040E050E0BA0101E010E020E0D0
:102B500030E00E9459028DE18983FB82EA82C7C37B
:102B600087E28983EE24FF24E394FB82EA820E94B9
:102B7000890287E692E00E94560280E792E040E0F8
:102B800050E0BA0101E010E020E030E00E9459027C
:102B90008DE18983FB82EA82AAC38EA59FA5A8A99D
:102BA000B9A90097A105B10509F048C089818E3106
:102BB00089F08F3118F48D3129F505C08F31A9F0D6
:102BC000803201F519C087E2898381E090E09B8320
:102BD0008A8318C087E2898381E090E09B838A839F
:102BE000CE01CA960E94C9030DC087E2898381E0A5
:102BF00090E09B838A8306C087E2898381E090E02E
:102C00009B838A830E94890288E092E00E94560298
:102C100087E192E040E050E0BA0101E010E020E0FE
:102C200030E00E9459021EA61FA618AA19AA85E024
:102C3000898381E090E09B838A8359C31B830A8345
:102C4000188619861A861B8629822FC38EA59FA5F2
:102C5000A8A9B9A90097A105B10509F048C08981C3
:102C60008E3189F08F3118F48D3129F505C08F31FF
:102C7000A9F0803201F519C087E2898381E090E0F4
:102C80009B838A8318C087E2898381E090E09B83DD
:102C90008A83CE01CA960E94C9030DC087E2898348
:102CA00081E090E09B838A8306C087E2898381E08C
:102CB00090E09B838A830E94890288E092E00E94D0
:102CC000560287E192E040E050E0BA0101E010E0F6
:102CD00020E030E00E9459021EA61FA618AA19AAD9
:102CE00085E0898381E090E09B838A8300C38AAD7D
:102CF000882309F4DAC287E2898301E010E01B83AC
:102D00000A83CE01CA960E94C903188619861A86BC
:102D10001B868FE189831B830A83E9C28EA59FA549
:102D2000A8A9B9A90097A105B10509F048C08981F2
:102D30008E3189F08F3118F48D3129F505C08F312E
:102D4000A9F0803201F519C087E2898381E090E023
:102D50009B838A8318C087E2898381E090E09B830C
:102D60008A83CE01CA960E94C9030DC087E2898377
:102D700081E090E09B838A8306C087E2898381E0BB
:102D800090E09B838A830E94890288E092E00E94FF
:102D9000560287E192E040E050E0BA0101E010E025
:102DA00020E030E00E9459021EA61FA618AA19AA08
:102DB00085E0898381E090E09B838A8398C288853F
:102DC0009985AA85BB858C309105A105B105E9F4EB
:102DD0008D85882321F187E2898301E010E01B8340
:102DE0000A83CE01CA9648EB5BE060E070E020E029
:102DF0000E94C6030E9489028CE792E00E9456025C
:102E00008EE189831B830A8372C28B309105A105F1
:102E1000B10509F04AC28D85882309F446C21B8397
:102E20000A831EA61FA618AA19AAA0E2A9833DC25A
:102E30008EA59FA5A8A9B9A90097A105B10509F07C
:102E400034C289818E3189F08F3118F48D3129F5A2
:102E500005C08F31A9F0803201F519C087E289835E
:102E600081E090E09B838A8318C087E2898381E0B8
:102E700090E09B838A83CE01CA960E94C9030DC04D
:102E800087E2898381E090E09B838A8306C087E2A2
:102E9000898381E090E09B838A830E94890288E095
:102EA00092E00E94560287E192E040E050E0BA01D1
:102EB00001E010E020E030E00E9459021EA61FA6AB
:102EC00018AA19AA85E0898381E090E09B838A8310
:102ED0000EC28F89882309F44DC089818432D1F0D4
:102EE000853228F4823241F0833261F50CC085329C
:102EF000C1F0863239F520C087E2898381E090E015
:102F00009B838A831FC087E2898381E090E09B8353
:102F10008A8318C087E2898381E090E09B838A835B
:102F200011C087E2898381E090E09B838A83CE0190
:102F3000CB960E94C90306C087E2898381E090E0B6
:102F40009B838A830E94890287E692E00E94560250
:102F500080E792E040E050E0BA0101E010E020E0BC
:102F600030E00E9459028DE1898381E090E09B83EB
:102F70008A83BDC187E2898301E010E01B830A8355
:102F8000CE01CB9640ED57E060E070E020E00E947B
:102F9000C6030E9489028DE592E00E94560285E2F6
:102FA00089831B830A83A3C18F89882309F44DC0B9
:102FB00089818432D1F0853228F4823241F0833223
:102FC00061F50CC08532C1F0863239F520C087E248
:102FD000898381E090E09B838A831FC087E2898395
:102FE00081E090E09B838A8318C087E2898381E037
:102FF00090E09B838A8311C087E2898381E090E01F
:103000009B838A83CE01CB960E94C90306C087E2C8
:10301000898381E090E09B838A830E94890287E60E
:1030200092E00E94560280E792E040E050E0BA0150
:1030300001E010E020E030E00E9459028DE1898338
:1030400081E090E09B838A8352C187E2898301E01B
:1030500010E01B830A83888D998DAA8DBB8D019604
:10306000A11DB11D888F998FAA8FBB8F6EA57FA5DB
:1030700088A999A92AA93BA94CA95DA90E949903ED
:103080008F8B82E289831B830A8331C18F898823D6
:1030900009F40BC189818432D1F0853228F482325F
:1030A00041F0833261F50CC08532C1F0863239F5CA
:1030B00020C087E2898381E090E09B838A831FC0E0
:1030C00087E2898381E090E09B838A8318C087E24E
:1030D000898381E090E09B838A8311C087E28983A2
:1030E00081E090E09B838A83CE01CB960E94C90346
:1030F00006C087E2898381E090E09B838A830E94F7
:10310000890287E692E00E94560280E792E040E062
:1031100050E0BA0101E010E020E030E00E945902E6
:103120008DE1898381E090E09B838A83E0C08F8971
:10313000882309F44DC089818432D1F0853228F486
:10314000823241F0833261F50CC08532C1F08632A3
:1031500039F520C087E2898381E090E09B838A83F0
:103160001FC087E2898381E090E09B838A8318C037
:1031700087E2898381E090E09B838A8311C087E2A4
:10318000898381E090E09B838A83CE01CB960E9465
:10319000C90306C087E2898381E090E09B838A832C
:1031A0000E94890287E692E00E94560280E792E040
:1031B00040E050E0BA0101E010E020E030E00E9481
:1031C00059028DE1898381E090E09B838A838FC0DF
:1031D0008BAD882309F469C087E2898301E010E0A0
:1031E0001B830A83CE01CB960E94C90381E08F8B9B
:1031F000188E198E1A8E1B8E86E289831B830A8392
:1032000076C08F89882309F44DC089818432D1F03A
:10321000853228F4823241F0833261F50CC0853268
:10322000C1F0863239F520C087E2898381E090E0E1
:103230009B838A831FC087E2898381E090E09B8320
:103240008A8318C087E2898381E090E09B838A8328
:1032500011C087E2898381E090E09B838A83CE015D
:10326000CB960E94C90306C087E2898381E090E083
:103270009B838A830E94890287E692E00E9456021D
:1032800080E792E040E050E0BA0101E010E020E089
:1032900030E00E9459028DE1898381E090E09B83B8
:1032A0008A8325C01B830A8339828A819B81019688
:1032B0009B838A838230910510F40C9446091D8605
:1032C0001A8A18A21EAA1FAADF91CF911F910F91EF
:1032D000FF90EF90DF90CF90BF90AF909F908F9036
:1032E0007F906F905F904F903F902F9008958A81CC
:1032F0009B8101969B838A83E2CF8A819B81019681
:103300009B838A830C944609C896681779073CF01A
:1033100004966817790718F481E0FB01808308950B
:10332000DC01E62FF0E0E732F10508F05AC1E25780
:10333000FF4FEE0FFF1F0590F491E02D099481E0FF
:103340009C91973208F44EC180E0089581E09C91F1
:10335000913009F447C180E008959C91925081E03A
:10336000953208F43FC180E0089581E09C9193304C
:1033700009F438C180E0089581E09C91943009F40B
:1033800031C180E0089581E011969C9111979530AC
:1033900009F428C180E0089511969C9111979650E8
:1033A00081E09B3008F41EC180E0089581E0119611
:1033B0009C911197973009F415C180E0089581E040
:1033C00011969C911197983009F40CC180E00895F2
:1033D00081E011969C911197993009F403C180E026
:1033E000089581E011969C9111979A3009F4FAC0E2
:1033F00080E0089581E011969C9111979B3009F42B
:10340000F1C080E0089581E011969C9111979C3065
:1034100009F4E8C080E0089581E011969C9111972D
:103420009D3009F4DFC080E0089581E011969C9101
:1034300011979E3009F4D6C080E0089581E011967E
:103440009C9111979F3009F4CDC080E0089581E0F0
:1034500011969C911197903109F4C4C080E00895B1
:1034600081E011969C911197913109F4BBC080E0E5
:10347000089581E011969C911197923109F4B2C0A0
:1034800080E0089511969C911197935181E09630B8
:1034900008F4A8C080E0089581E011969C911197EE
:1034A000943109F49FC080E0089581E011969C91C9
:1034B0001197953109F496C080E0089581E0119646
:1034C0009C911197963109F48DC080E0089581E0B8
:1034D00011969C911197973109F484C080E008956A
:1034E00081E011969C911197983109F47BC080E09E
:1034F000089581E011969C911197993109F472C059
:1035000080E0089581E011969C9111979A3109F419
:1035100069C080E0089581E011969C9111979B31DC
:1035200009F460C080E0089511969C9111979C5118
:1035300081E0953008F456C080E0089581E011964E
:103540009C9111979D3109F44DC080E0089581E070
:1035500011969C9111979E3109F444C080E0089522
:1035600081E011969C9111979F31E1F180E00895DF
:1035700081E011969C9111979032A1F180E008951D
:1035800011969C911197915281E0963058F180E00C
:10359000089581E011969C911197923219F180E083
:1035A000089581E011969C9111979332D9F080E0B3
:1035B000089581E011969C911197943299F080E0E2
:1035C000089581E011969C911197953259F080E011
:1035D000089581E011969C911197963219F080E040
:1035E000089580E0089521E0FC0125870895FC01FD
:1035F00064817581868197810895FC014483558398
:10360000668377830895FC01608571858285938543
:103610000895FC0140875187628773870895FC01F4
:1036200084850895FC016487089521E0FC01228BC4
:103630000895FC01868597850895FC017787668744
:103640000895FC01808991890895FC01718B608B3C
:10365000089521E0FC0120A30895FC018389948949
:103660000895FC01748B638B0895FC01858996890C
:103670000895FC01768B658B0895FC018789089578
:10368000FC01678B0895FC01608D718D828D938D97
:103690000895FC01408F518F628F738F0895FC0154
:1036A000648D758D868D978D0895FC01448F558F9F
:1036B000668F778F0895FC0161A172A183A194A107
:1036C0000895FC0141A352A363A374A30895FC01D0
:1036D00065A176A187A190A50895FC0145A356A3F5
:1036E00067A370A70895FC0161A572A583A594A5A1
:1036F0000895FC0141A752A763A774A7089521E08C
:10370000FC0126AB089521E0FC0127AB0895FC01E4
:1037100085A50895FC0165A70895FC0166A577A518
:1037200080A991A90895FC0146A757A760AB71AB8A
:103730000895FC0162A973A984A995A90895FC01C3
:1037400042AB53AB64AB75AB089587B3807F87BB47
:1037500087B3876087BB81E58DB981E08EB9089515
:103760008FB9779BFECF8FB1089583E083BF83E845
:1037700082BF81E087BF10928B0210928A027894F8
:103780000895CF92DF92EF92FF92CF93DF93EC01F7
:103790006A017B0140918A0250918B021416150632
:1037A000E4F4EEEAF2E0DF01169620E030E070E0AB
:1037B00061E0808191818C179D0731F41382128220
:1037C000D582C4826C93762F2F5F3F4F3796179622
:1037D0002417350774F37723C9F4FA01EE0FFF1F9E
:1037E000EE0FFF1FEE0FFF1FE41BF50BE255FD4F21
:1037F000D183C08313821282D582C48281E0868302
:103800004F5F5F4F50938B0240938A02DF91CF91BD
:10381000FF90EF90DF90CF900895DC0160918A02D5
:1038200070918B021616170664F58091AE02909186
:10383000AF028A179B07E1F40AC0295F3F4FF901E5
:103840003797808191818A179B07B1F402C040E0CD
:1038500050E0FA01EE0FFF1FEE0FFF1FEE0FFF1FEC
:10386000E41BF50BE255FD4F138212821682089578
:1038700025EB32E040E050E04F5F5F4F46175707BF
:10388000E1F60895CF92DF92EF92FF920F931F938C
:10389000CF93DF936C0180918A0290918B0218166E
:1038A000190694F5C4EBD2E08E0106501040EE24C8
:1038B000FF2488818823D9F0D80112968D919C919C
:1038C0001397019613969C938E93129714962D91AD
:1038D0003C9115978217930751F413961C921E92F0
:1038E000129718826D917C91C6010E9484190894E8
:1038F000E11CF11C2796095F1F4F80918A0290916D
:103900008B02E816F906ACF2DF91CF911F910F916F
:10391000FF90EF90DF90CF9008958EEA92E00E94A2
:103920007E1D10928B0210928A020895629FD00130
:10393000739FF001829FE00DF11D649FE00DF11D6A
:10394000929FF00D839FF00D749FF00D659FF00D19
:103950009927729FB00DE11DF91F639FB00DE11D06
:10396000F91FBD01CF0111240895991B79E004C00E
:10397000991F961708F0961B881F7A95C9F78095AE
:10398000089597FB092E07260AD077FD04D00CD0A6
:1039900006D000201AF4709561957F4F0895F6F7D0
:1039A000909581959F4F0895AA1BBB1B51E107C0BD
:1039B000AA1FBB1FA617B70710F0A61BB70B881FBF
:1039C000991F5A95A9F780959095BC01CD0108954E
:1039D000CF93DF93AC018230910510F442E050E0C8
:1039E000E091F602F091F70220E030E0A0E0B0E0D4
:1039F00024C08081918184179507D0F084179507A2
:103A000071F482819381109729F013969C938E9381
:103A100012972CC09093F7028093F60227C02115CD
:103A2000310519F08217930718F49C01BD01EF01CD
:103A300092818381DF01E92FF82F3097D1F621158C
:103A40003105F9F0C901841B950B8430910580F490
:103A50008A819B816115710521F0FB01938382832B
:103A600004C09093F7028093F602FE01329642C0A2
:103A7000FE01E80FF91F41935193029799838883C0
:103A800039C08091F4029091F502009741F4809141
:103A90008602909187029093F5028093F402209120
:103AA0008402309185022115310541F42DB73EB7CE
:103AB0008091880290918902281B390BE091F402D1
:103AC000F091F502E217F30798F42E1B3F0B241731
:103AD000350770F0CA0102962817390748F08E0F93
:103AE0009F1F9093F5028093F4024193519302C07B
:103AF000E0E0F0E0CF01DF91CF9108950F931F93A5
:103B0000CF93DF939C01009709F48CC0DC011297DE
:103B100013961C921E9212976091F6027091F70212
:103B20006115710589F48D919C911197820F931FF6
:103B30002091F4023091F5022817390769F5B09306
:103B4000F502A093F4026EC0FB0140E050E001C01A
:103B5000FC01EA17FB0730F482819381AF010097E3
:103B6000B9F71FC0E9012297FB83EA830881198115
:103B7000C901800F911F8E179F0759F48081918191
:103B8000800F911F029699838883828193819B8302
:103B90008A834115510529F4B093F702A093F602E8
:103BA00041C0FA01B383A283C191D191EC0FFD1FF3
:103BB000AE17BF0781F4F901929182918C0F9D1F7E
:103BC0000296DA0111969C938E93828193811396CB
:103BD0009C938E931297E0E0F0E002C0FB01BC01E1
:103BE000DB0112968D919C9113970097B9F7CB0149
:103BF00002962D913C911197820F931F2091F40210
:103C00003091F5022817390769F4309729F410929A
:103C1000F7021092F60202C0138212827093F5022C
:103C20006093F402DF91CF911F910F9108950F934C
:103C30001F93CF93DF93CDB7DEB72E970FB6F894CF
:103C4000DEBF0FBECDBF0D891E8986E08C831A832F
:103C500009838FEF9FE79E838D83AE01475E5F4FA1
:103C6000CE0101966F89788D0E94461EEF81F885FE
:103C7000E00FF11F10822E960FB6F894DEBF0FBE34
:103C8000CDBFDF91CF911F910F9108952F923F9259
:103C90004F925F926F927F928F929F92AF92BF925C
:103CA000CF92DF92EF92FF920F931F93CF93DF9308
:103CB000CDB7DEB72D970FB6F894DEBF0FBECDBFE0
:103CC0003C017D876C875A01FC0117821682838133
:103CD00081FFC8C12E010894411C511CF30193813E
:103CE000EC85FD8593FD859193FF8191FD87EC87A0
:103CF000882309F4B3C1853241F493FD859193FF84
:103D00008191FD87EC87853229F490E0B3010E9410
:103D10006320E4CFFF24EE2410E01032B0F48B32A5
:103D200069F08C3228F4803251F0833271F40BC088
:103D30008D3239F0803349F411602CC01260146068
:103D400029C0186027C0106125C017FD2EC0282F7C
:103D500020532A3098F416FF08C08F2D880FF82EB4
:103D6000FF0CFF0CF80EF20E15C08E2D880FE82EFA
:103D7000EE0CEE0CE80EE20E10620CC08E3221F456
:103D800016FD6CC1106406C08C3611F4106802C0B8
:103D9000883659F4EC85FD8593FD859193FF8191DB
:103DA000FD87EC87882309F0B8CF982F955493307E
:103DB00018F09052933038F424E030E0A20EB31E95
:103DC0003FE339830FC0833631F0833781F0833589
:103DD00009F05AC022C0F5018081898322E030E0D9
:103DE000A20EB31E21E0C22ED12C420114C092E0DB
:103DF000292E312C2A0C3B1CF5018080918016FF66
:103E000003C06F2D70E002C06FEF7FEFC4010E940E
:103E100058206C0151011F7715C082E0282E312CEB
:103E20002A0C3B1CF5018080918016FF03C06F2D8A
:103E300070E002C06FEF7FEFC4010E944D206C0163
:103E40001068510113FD1CC006C080E290E0B30170
:103E50000E946320EA948E2D90E0C816D906A8F33C
:103E60000FC0F40117FD859117FF81914F0190E07C
:103E7000B3010E946320E110EA940894C108D108BC
:103E8000C114D10471F7E7C0843611F0893651F5B9
:103E9000F50117FF07C080819181A281B38124E0E1
:103EA00030E008C080819181AA2797FDA095BA2FA4
:103EB00022E030E0A20EB31E012F0F76B7FF08C03C
:103EC000B095A095909581959F4FAF4FBF4F0068DB
:103ED000BC01CD01A2012AE030E00E948F20D82E43
:103EE000D4183FC0853721F41F7E2AE030E020C07F
:103EF000197F8F36A9F0803720F4883509F0AEC0DD
:103F00000BC0803721F0883709F0A8C001C01061CC
:103F100014FF09C0146007C014FF08C0166006C073
:103F200028E030E005C020E130E002C020E132E0CE
:103F3000F50117FF07C0608171818281938144E0A0
:103F400050E006C06081718180E090E042E050E086
:103F5000A40EB51EA2010E948F20D82ED418012FC6
:103F60000F7706FF09C00E7FDF1430F404FF06C090
:103F700002FD04C00F7E02C01D2D01C01F2D802F29
:103F800090E004FF0CC0FE01ED0DF11D20812033F7
:103F900011F4097E09C002FF06C01E5F05C08678C5
:103FA0009070009709F01F5F802E992403FD12C0C6
:103FB00000FF0DC0FD2C1E1550F4FE0CF11A1E2D35
:103FC00006C080E290E0B3010E9463201F5F1E15CF
:103FD000C0F304C01E1510F4E11A01C0EE2484FEE3
:103FE0000FC080E390E0B3010E94632082FE1FC0F7
:103FF00081FE03C088E590E010C088E790E00DC026
:10400000C40186789070009791F081FC02C080E234
:1040100001C08BE207FD8DE290E0B3010E946320B6
:1040200006C080E390E0B3010E946320FA94DF149D
:10403000C0F3DA94F201ED0DF11D808190E0B3013F
:104040000E946320DD20A9F706C080E290E0B30162
:104050000E946320EA94EE20C1F740CEF3018681EE
:10406000978102C08FEF9FEF2D960FB6F894DEBFB9
:104070000FBECDBFDF91CF911F910F91FF90EF90B9
:10408000DF90CF90BF90AF909F908F907F906F9078
:104090005F904F903F902F900895FC0105906150E4
:1040A00070400110D8F7809590958E0F9F1F08954E
:1040B000FC016150704001900110D8F780959095F7
:1040C0008E0F9F1F08950F931F93CF93DF938C0143
:1040D000EB018B8181FF1BC082FF0DC02E813F81D0
:1040E0008C819D812817390764F4E881F981019357
:1040F000F983E88306C0E885F985802F0995009744
:1041000031F48E819F8101969F838E8302C00FEFD1
:104110001FEFC801DF91CF911F910F910895FA0110
:10412000AA27283051F1203181F1E8946F936E7FF6
:104130006E5F7F4F8F4F9F4FAF4FB1E03ED0B4E0E7
:104140003CD0670F781F891F9A1FA11D680F791F28
:104150008A1F911DA11D6A0F711D811D911DA11D39
:1041600020D009F468943F912AE0269F1124301949
:10417000305D3193DEF6CF010895462F4770405DE4
:104180004193B3E00FD0C9F7F6CF462F4F70405D93
:104190004A3318F0495D31FD4052419302D0A9F7EE
:1041A000EACFB4E0A6959795879577956795BA95E8
:1041B000C9F700976105710508959B01AC010A2EAE
:1041C00006945795479537952795BA95C9F7620F85
:0E41D000731F841F951FA01D0895F894FFCF44
:1041DE00100F0E0D0C0906030A0805020B07040149
:1041EE000E0D0B070C12120C000000000C1204082E
:1041FE001E0000000A15110A040000000305090B39
:10420E000B1818001F0E0E0404040404010105050A
:10421E00151515000E11111F1F1F1F0000000000A5
:10422E000000000000E8E8F0F0E2C1C2C2C2C669B8
:10423E006E666F0D0A005354415455533A20253083
:10424E0032580D0A00434F4E4649473A2025303228
:10425E00580D0A0052465F43483A20253032580D19
:10426E000A0052465F53455455503A202530325875
:10427E000D0A00454E5F41413A20253032580D0A55
:10428E0000454E5F5258414444523A202530325830
:10429E000D0A004F4253455256455F54583A202559
:1042AE003032580D0A000D0A00E8E8F0F0E2C1C203
:1042BE00C2C2C2C1C2C2C2C3C1C2C2C2C4C1C2C2D0
:1042CE00C2C5C1C2C2C2C6E8E8F0F0E25761697465
:1042DE0074696E672E2E2E00412D4F72646572200A
:1042EE0020422D44656C00432D48656C702020449F
:1042FE002D506179004469736820436F64653A00FC
:10430E005F205F205F00416D6F756E743A005F2015
:10431E005F004B656570204F72646572696E673F12
:10432E00002A2E4E6F2020232E5965730053656E82
:10433E0064206661696C0050726F636565643F004E
:10434E002A2D4E6F2020232D5965730053656E6400
:0A435E00696E67000000F8022000FD
:00000001FF
