:100000000C94BE000C94DD000C94DD000C94DD001B
:100010000C94DD000C94DD000C94DD000C94DD00EC
:100020000C94DD000C94DD000C94DD000C94DD00DC
:100030000C94DD000C94DD000C94DD000C94DD00CC
:100040000C94F8030C94DD000C94DD000C94DD009E
:100050000C94DD000C94DD000C94DD000C94DD00AC
:100060000C94DD000C94DD000C94DD000C94DD009C
:100070000C94DD000C94DD000C94DD000C94DD008C
:100080000C94DD000C94DD000C94DD004308310974
:100090004A08510858085F0866086D083109740855
:1000A0007B0882088908900897089E08A5083109EE
:1000B000AC08B308BA08C108CD08D408DB08E208C8
:1000C0003109E908F008FC08030931090A09110996
:1000D00018091F092B098809E01EC109EF091A0A2E
:1000E000E01E240AD20A800B220D100EBE0E5810FC
:1000F0004611F41199124713D1143B16E8160E1746
:10010000E01E64170818B81812198719E6190B1A97
:100110002C1AE01E4D1AA81A131BF71BE01E491CCF
:10012000011DAD1D081E821E2D1F341F3B1F431FC6
:100130004A1F511F5A1F641F6D1F761F7F1F881F84
:10014000911F9A1FA31FAC1FB51FBE1FC71FD01F33
:10015000D91FE21FEB1FF51FFE1F072010201920DB
:1001600022202B2034203D20472050205920612080
:10017000692072207A2082208A20922011241FBEBA
:10018000CFEFD0E1DEBFCDBF12E0A0E0B1E0E2E70B
:10019000FDE400E00BBF02C007900D92A23BB10747
:1001A000D9F713E0A2EBB2E001C01D92A231B10772
:1001B000E1F70E94D8030C94B7260C940000AF928C
:1001C000BF92CF92DF92EF92FF920F931F93CF9344
:1001D000DF9320E030E041E050E0E2E6F0E0A0E133
:1001E000B1E00F2EF1E1AF2EF1E0BF2EF02D02E1D4
:1001F00011E00F2EF3E1EF2EF1E0FF2EF02DB9010B
:10020000C90104966A0102C0CC0CDD1C8A95E2F794
:10021000C6018095808383E08A95F1F7000080B164
:100220008F708F3029F19C919817A9F0E501988182
:10023000981759F0E8019881981751F0E7019881D3
:100240009817B1F4E3E0F0E008C0E1E0F0E005C0A9
:10025000E2E0F0E002C0E0E0F0E0EE0FFF1FEE0FA2
:10026000FF1F6E0F7F1FFB01E050FF4F808106C014
:100270002F5F3F4F2430310511F680E0DF91CF91A1
:100280001F910F91FF90EF90DF90CF90BF90AF90B4
:10029000089580EF809361008FE08093620008955D
:1002A0008FEC97E00197F1F700C000000895282F28
:1002B00022952F708F70662311F4D89801C0D89AB8
:1002C000D99A9BB3220F220F937C922B9BBBD99878
:1002D000D99A9BB3880F880F937C892B8BBBD998B5
:1002E0000E94500108950F931F93CF93DF938C01C9
:1002F000FC018081882309F18532A9F4E801219667
:10030000F80181818053883020F461E00E94570118
:100310000EC085E261E00E945701F801818161E031
:100320000E94570104C061E00E945701E8018E015C
:100330000F5F1F4F89818823F9F6DF91CF911F91BD
:100340000F910895EF92FF920F931F93CF93DF9336
:1003500000D000D00F92CDB7DEB77B01FE01319601
:1003600025E0DF011D922A95E9F7009761F0FE0173
:1003700036962AE030E0B9010E948B228293862FC4
:10038000972F0097C1F7BFEFEB16BFEFFB0669F49D
:100390002981222379F4FE01329600E010E00F5FFC
:1003A0001F4F21912223D9F307C005E010E00E1959
:1003B0001F0902C000E010E0992324F48DE261E0FF
:1003C0000E94570105301105BCF4E1E0F0E0EC0FAC
:1003D000FD1F0E0F1F1F0F2EF6E0EF2EFF24F02D36
:1003E000EC0EFD1ED8018D918D01805D61E00E94B3
:1003F00057010E151F05B1F70F900F900F900F903A
:100400000F90DF91CF911F910F91FF90EF90089582
:10041000843178F4623031F0633031F0613029F4A6
:10042000806403C08C5E01C08C5A806860E00E94CA
:10043000570108950F931F93CF93DF93C82F8BE439
:100440009DE10197F1F700C000008AB38C638ABB7D
:10045000D19AD09A8BB3837C8BBBD998D898D99AF0
:10046000DB9AD9980E9450018C2F8C6060E00E942A
:10047000570188E260E00E94570180E460E00E943A
:100480005701C4E1D1E004E511E0899161E00E94E7
:100490005701C017D107C9F780E060E00E94080249
:1004A000DF91CF911F910F9108950E94DF00682F77
:1004B00070E080E090E008950E94490108950E9454
:1004C000730108950F93CF93DF93EC01842F602F76
:1004D0000E940802CE010E947301DF91CF910F911B
:1004E00008954F925F926F927F92AF92BF92CF9298
:1004F000DF92EF92FF922B013C01822F6E2D76014D
:1005000065010E940802C201B6010E94A201FF908B
:10051000EF90DF90CF90BF90AF907F906F905F9003
:100520004F90089581E060E00E94570182E060E012
:100530000E945701089580E00E941A0208950F93C7
:100540001F93CF93DF930F92CDB7DEB71982CE0101
:1005500001960E949806882399F08981882399F44E
:10056000E4EBF2E0CF0109961192E817F907E1F701
:1005700004EB12E080E0B8010E94AA06C80105C0A1
:1005800084E591E002C084E591E00F90DF91CF9186
:100590001F910F910895CF93DF939C01CFEBD2E091
:1005A00080E090E0A22FB32FFD0101900020E9F739
:1005B0003197EA1BFB0B8E179F0730F4F901E80F08
:1005C000F91F4081488301C0188201962196893025
:1005D000910541F785E591E00E9408058FEB92E0D7
:1005E0000E94D006982FEFECF7E03197F1F700C0AA
:1005F000000081E0913009F080E0DF91CF91089513
:10060000EFEBF2E0CF01099621E02193E817F9071B
:10061000E1F78AE591E00E9408058FEB92E00E94E5
:10062000D006982FEFECF7E03197F1F700C000000B
:1006300081E0913009F080E008950F931F93CF93EC
:10064000DF930F92CDB7DEB71982CE0101960E94DB
:1006500098068823F1F089818530E9F4E4EBF2E033
:100660008F01075F1F4F1192E017F107E1F785E057
:1006700064EB72E00E94AA068091B402813069F4B2
:10068000E5EBF2E08191813051F4E017F107D1F709
:1006900007C080E005C080E003C080E001C080E0CA
:1006A0000F90DF91CF911F910F910895AF92EF922C
:1006B000822FEFEBF2E0AF01475F5F4F1192E4173B
:1006C000F507E1F7605D6093BF023AE0632F0E9497
:1006D0007F22905D9093C1020E947F22905D909353
:1006E000C0028E2D0E947F22905D9093C4020E94D2
:1006F0007F22905D9093C3020E947F22905D909331
:10070000C2028A2D0E947F22905D9093C6020E94B1
:100710007F22905D9093C50285E591E00E940805D7
:100720008FEB92E00E94D006982FEFECF7E0319724
:10073000F1F700C0000081E0913009F080E0EF9017
:10074000AF900895822FEFEBF2E0AF01475F5F4F6C
:100750001192E417F507E1F7605D6093BF023AE09C
:10076000632F0E947F22905D9093C1020E947F229E
:10077000905D9093C00285E591E00E9408058FEBA3
:1007800092E00E94D006982FEFECF7E03197F1F756
:1007900000C0000081E0913009F080E008950E94DF
:1007A0008A2108950E94D62108950E94260708955F
:1007B0008FE084BB85BB82E090E00E94B2228093F0
:1007C000BD029093BE020E947E218091BD02909155
:1007D000BE020E94E5078091BD029091BE020E9478
:1007E000EC078091BD029091BE020E943409F9CFBE
:1007F0001F920F920FB60F920BB60F9211242F93E8
:100800003F934F935F936F937F938F939F93AF9398
:10081000BF93EF93FF9383E882BF8091BD029091D5
:10082000BE020E940C22FF91EF91BF91AF919F9168
:100830008F917F916F915F914F913F912F910F9089
:100840000BBE0F900FBE0F901F901895AE988F7132
:100850000E9479218FEF0E947921AE9A0895FF922C
:100860000F931F93CF93DF93062FF72E142FAE987D
:100870008F710E947921112351F0C02FDF2D00E0EC
:100880008FEF0E94792189930F5F0117C9F7AE9A04
:10089000DF91CF911F910F91FF900895CF93C62FB5
:1008A000AE988F7180620E9479218C2F0E947921ED
:1008B000AE9ACF910895FF920F931F93CF93DF933A
:1008C000062FF72E142FAE988F7180620E94792127
:1008D000112349F0C02FDF2D00E089910E9479217A
:1008E0000F5F0117D1F7AE9ADF91CF911F910F9152
:1008F000FF90089520E030E00496DB01A20FB31FC3
:10090000FC01E21BF30B40814C932F5F3F4F2530DE
:10091000310599F70895CF93DF9300D000D00F925F
:10092000CDB7DEB78823B1F4A9EDB1E0FB0185E0D6
:1009300001900D928150E1F7CB01BE016F5F7F4FB7
:100940000E947A048AE0BE016F5F7F4F45E00E94FB
:100950005B0456C08130B1F4AEEDB1E0FB0185E03F
:1009600001900D928150E1F7CB01BE016F5F7F4F87
:100970000E947A048BE0BE016F5F7F4F45E00E94CA
:100980005B043EC0823071F4A3EEB1E0FB0185E070
:1009900001900D928150E1F78CE0FB0164810E948F
:1009A0004E042EC0833071F4A8EEB1E0FB0185E067
:1009B00001900D928150E1F78DE0FB0164810E946E
:1009C0004E041EC0843071F4ADEEB1E0FB0185E051
:1009D00001900D928150E1F78EE0FB0164810E944D
:1009E0004E040EC0853061F4A2EFB1E0FB0101902E
:1009F0000D928150E1F78FE0FB0164810E944E046B
:100A00000F900F900F900F900F90DF91CF9108955E
:100A1000CF93DF9300D000D00F92CDB7DEB7A7EF12
:100A2000B1E0E82FF92F25E001900D922150E1F778
:100A3000BE016F5F7F4F0E947A048AE0BE016F5F44
:100A40007F4F45E00E945B0480E1BE016F5F7F4FF6
:100A500045E00E945B040F900F900F900F900F9055
:100A6000DF91CF910895AE9882EE0E947921AE9ADF
:100A70000895AE9881EE0E947921AE9A089580E0A3
:100A800069ED71E00E948B0480E00E942604682FCB
:100A9000616080E00E944E0480E00E942604682F7E
:100AA000626080E00E944E0487E060E70E944E048E
:100AB0000E9433050E943905AF9A82E38A95F1F7C7
:100AC0000895AF9880E00E942604682F6E7F80E032
:100AD0000E944E0480E00E942604682F626080E03D
:100AE0000E944E0487E060E70E944E040E94390590
:100AF00082E38A95F1F70895AE988FEF0E947921ED
:100B0000AE9A0895EF92FF920F931F93CF93DF93C6
:100B1000CDB7DEB7C456D0400FB6F894DEBF0FBED7
:100B2000CDBF7C018FE591E0F70109950E947C051E
:100B300000D000D000D0EDB7FEB731968E010F5F28
:100B40001F4FADB7BEB712961C930E93119726E6B2
:100B500031E033832283848315820E94E1238DB7A1
:100B60009EB706960FB6F8949EBF0FBE8DBFC80104
:100B7000F701099580E00E94260400D000D000D043
:100B8000EDB7FEB73196ADB7BEB712961C930E9374
:100B9000119725E731E033832283848315820E94F5
:100BA000E1238DB79EB706960FB6F8949EBF0FBE91
:100BB0008DBFC801F701099585E00E94260400D089
:100BC00000D000D0EDB7FEB73196ADB7BEB71296E4
:100BD0001C930E93119724E831E03383228384839E
:100BE00015820E94E1238DB79EB706960FB6F89442
:100BF0009EBF0FBE8DBFC801F701099586E00E9418
:100C0000260400D000D000D0EDB7FEB73196ADB7C6
:100C1000BEB712961C930E93119722E931E03383ED
:100C20002283848315820E94E1238DB79EB70696A6
:100C30000FB6F8949EBF0FBE8DBFC801F70109958E
:100C400081E00E94260400D000D000D0EDB7FEB7AE
:100C50003196ADB7BEB712961C930E93119723EA47
:100C600031E033832283848315820E94E1238DB790
:100C70009EB706960FB6F8949EBF0FBE8DBFC801F3
:100C8000F701099582E00E94260400D000D000D030
:100C9000EDB7FEB73196ADB7BEB712961C930E9363
:100CA000119721EB31E033832283848315820E94E4
:100CB000E1238DB79EB706960FB6F8949EBF0FBE80
:100CC0008DBFC801F701099588E00E94260400D075
:100CD00000D000D0EDB7FEB73196ADB7BEB71296D3
:100CE0001C930E93119723EC31E03383228384838A
:100CF00015820E94E1238DB79EB706960FB6F89431
:100D00009EBF0FBE8DBFC801F701099586ED91E02A
:100D1000F7010995CC59DF4F0FB6F894DEBF0FBE2F
:100D2000CDBFDF91CF911F910F91FF90EF9008956C
:100D3000CF93DF93EC010E947C05982F907486FF7F
:100D400005C0209719F0869587708883892FDF91D9
:100D5000CF9108950F931F93CF93DF93062F172FF3
:100D6000AE9881E60E947921C02FD12F10E08FEF3D
:100D70000E94792189931F5F1930C9F7AE9A87E0E5
:100D800060E40E944E040E947C0585FF04C087E059
:100D900060E20E944E04DF91CF911F910F91089560
:100DA0000F931F93CF93DF93082F192F0E94610594
:100DB000AE9880EA0E947921C02FD12F19E0899145
:100DC0000E9479211150D9F7AE9AAF9A85E08A95A1
:100DD000F1F7AF9883E08A95F1F700000E947C0557
:100DE0008073C1F30E947C05C82F85E06CE40E94EB
:100DF0004E0480E00E942604682F6D7F80E00E94F0
:100E00004E040E943F0581E0C5FF80E0DF91CF9155
:100E10001F910F91089586E00E942604682F666056
:100E200086E00E944E04089586E00E942604682F02
:100E3000677D86E00E944E04089580E00E942604AB
:100E4000682F6C6080E00E944E040895A69AA79ACD
:100E50000E946E21AF98AE9A81EE94E00197F1F76F
:100E600000C000000E940B070E9414070E941D078B
:100E700084E067E40E944E048CE160E00E944E042E
:100E800085E06CE40E944E0481E169E00E944E041A
:100E900082E169E00E944E0483E169E00E944E0411
:100EA00084E169E00E944E0485E169E00E944E04FD
:100EB00086E169E00E944E0482E060E00E944E04F8
:100EC00082E00E942604682F616082E00E944E0446
:100ED00082E00E942604682F626082E00E944E0435
:100EE00082E00E942604682F646082E00E944E0423
:100EF00082E00E942604682F686082E00E944E040F
:100F000082E00E942604682F606182E00E944E0405
:100F100082E00E942604682F606282E00E944E04F4
:100F200081E00E942604682F616081E00E944E04E7
:100F300081E00E942604682F626081E00E944E04D6
:100F400081E00E942604682F646081E00E944E04C4
:100F500081E00E942604682F686081E00E944E04B0
:100F600081E00E942604682F606181E00E944E04A7
:100F700081E00E942604682F606281E00E944E0496
:100F800080E069ED71E00E948B0481E06EED71E01C
:100F90000E948B0482E063EE71E00E948B0483E088
:100FA00068EE71E00E948B0484E06DEE71E00E94B7
:100FB0008B0485E062EF71E00E948B0487EF91E083
:100FC0000E9408050E943F050895FC018AE2808383
:100FD00081831382128208951F93CF93DF93EC01D4
:100FE00011E01AAB8F5B9F4F48EB5BE060E070E075
:100FF00020E00E94CF0381E090E0A0E0B0E08FAB62
:1010000098AFA9AFBAAF0E949B020E945C020E94F7
:10101000D5030E9492028CEF91E00E945F02188338
:101020001B821A82DF91CF911F910895CF93DF9396
:10103000EC018881833071F0843089F0813099F43B
:101040008AE288831B821A82CE018F5B9F4F0E94A7
:10105000D20309C08AE288831B821A8204C08AE212
:1010600088831B821A82898190E0059785329105D9
:1010700008F0F7C08A5B9F4FFC01EE0FFF1F059041
:10108000F491E02D09948AE2898381E090E09B83CA
:101090008A83E7C08AE2898381E090E09B838A8328
:1010A000E0C08AE2898381E090E09B838A83D9C093
:1010B0008AE2898381E090E09B838A83D2C08AE2BE
:1010C000898381E090E09B838A83CBC08AE2898315
:1010D00081E090E09B838A83C4C08AE2898381E0B7
:1010E00090E09B838A83BDC08AE2898381E090E09F
:1010F0009B838A83B6C08AE2898381E090E09B83E8
:101100008A83AFC08AE2898381E090E09B838A83EF
:10111000A8C08AE2898381E090E09B838A83A1C092
:101120008AE2898381E090E09B838A839AC08AE285
:10113000898381E090E09B838A8393C08AE28983DC
:1011400081E090E09B838A838CC08AE2898381E07E
:1011500090E09B838A8385C08AE2898381E090E066
:101160009B838A837EC08AE2898381E090E09B83AF
:101170008A8377C08AE2898381E090E09B838A83B7
:1011800070C08AE2898381E090E09B838A83CE01EC
:101190008E5B9F4F0E94D20364C08AE2898381E004
:1011A00090E09B838A835DC08AE2898381E090E03E
:1011B0009B838A8356C08AE2898381E090E09B8387
:1011C0008A834FC08AE2898381E090E09B838A838F
:1011D00048C08AE2898381E090E09B838A8341C092
:1011E0008AE2898381E090E09B838A83CE018D5BD4
:1011F0009F4F0E94D20335C08AE2898381E090E04C
:101200009B838A832EC08AE2898381E090E09B835E
:101210008A8327C08AE2898381E090E09B838A8366
:1012200020C08AE2898381E090E09B838A8319C091
:101230008AE2898381E090E09B838A8312C08AE2FC
:10124000898381E090E09B838A83CE018C5B9F4FF2
:101250000E94D20306C08AE2898381E090E09B83EA
:101260008A83DF91CF9108952F923F924F925F92A0
:101270006F927F928F929F92AF92BF92CF92DF92A6
:10128000EF92FF920F931F93CF93DF93EC011B829A
:101290001A82E0E0F0E001E010E00F2EF7E2FF2E0E
:1012A000F02D0F2EF4E46F2E7724F02D680E791EAA
:1012B000EE24E3940F2EF3E44F2E5524F02D480E28
:1012C000591E0F2EF2E42F2E3324F02D280E391E36
:1012D000882499245401689482F80F2EF1E4CF2ECB
:1012E000DD24F02DC80ED91EEC0FFD1FE0818E2FDE
:1012F00090E0FC013197E932F10510F00C94E01E0A
:10130000E559FF4FEE0FFF1F0590F491E02D099472
:10131000F6018081882311F40C94E01E8AE2888310
:101320001B821A82CE018F5B9F4F0E94D2030E94C4
:101330005502DC01CB018C839D83AE83BF831C8669
:1013400083E088831B821A820E94920288E092E0E6
:101350000E945F0288E192E040E050E0BA0101E0C3
:1013600010E020E030E00E9462021BAA1CAA1DAA25
:101370001EAA85E0898381E090E09B838A830C9498
:101380000B1F8C819D81AE81BF810097A105B105A6
:10139000B9F02AE228831B821A8288879987AA8754
:1013A000BB870E945502DC01CB018C839D83AE83F9
:1013B000BF83EC8684E088831B821A820C94041F0E
:1013C0000E945502DC01CB018C839D83AE83BF83D9
:1013D0001C8683E088831B821A820C94041F8C81F4
:1013E0009D81AE81BF810097A105B105A1F48AE27C
:1013F00088831B821A82ED860E945502DC01CB0194
:101400008C839D83AE83BF831C8683E088831B828D
:101410001A820C94041F0E945502DC01CB018C83BC
:101420009D83AE83BF83EC8684E088831B821A820F
:101430000C94041F1B830A83188619861A861B8640
:1014400085E189830C94E01E8BA99CA9ADA9BEA956
:101450000097A105B10509F09BC089818C3009F482
:101460004AC08D3080F4893089F18A3030F4873079
:10147000F9F0883009F06FC022C08A3071F18B30EA
:1014800009F069C031C0803109F44AC0813130F4BB
:101490008E30C1F18F3009F05EC03BC0823109F45B
:1014A0004DC0823108F443C0833109F054C04DC0AF
:1014B0008AE2898381E090E09B838A834CC08AE240
:1014C000898381E090E09B838A8345C08AE2898397
:1014D00081E090E09B838A833EC08AE2898381E039
:1014E00090E09B838A8337C08AE2898381E090E021
:1014F0009B838A8330C08AE2898381E090E09B836A
:101500008A8329C08AE2898381E090E09B838A8371
:1015100022C08AE2898381E090E09B838A831BC09A
:101520008AE2898381E090E09B838A8314C08AE207
:10153000898381E090E09B838A830DC08AE289835E
:1015400081E090E09B838A8306C08AE2898381E000
:1015500090E09B838A830E94920288E092E00E943E
:101560005F0288E192E040E050E0BA0101E010E063
:1015700020E030E00E9462021BAA1CAA1DAA1EAA3B
:1015800085E0898381E090E09B838A830C940B1F24
:101590001B830A83188619861A861B8689E089832D
:1015A0000C94E01E8BA99CA9ADA9BEA90097A1052A
:1015B000B10509F09BC089818C3009F44AC08D3097
:1015C00080F4893089F18A3030F48730F9F088303E
:1015D00009F06FC022C08A3071F18B3009F069C008
:1015E00031C0803109F44AC0813130F48E30C1F10C
:1015F0008F3009F05EC03BC0823109F44DC08231AA
:1016000008F443C0833109F054C04DC08AE2898395
:1016100081E090E09B838A834CC08AE2898381E0E9
:1016200090E09B838A8345C08AE2898381E090E0D1
:101630009B838A833EC08AE2898381E090E09B831A
:101640008A8337C08AE2898381E090E09B838A8322
:1016500030C08AE2898381E090E09B838A8329C03D
:101660008AE2898381E090E09B838A8322C08AE2B8
:10167000898381E090E09B838A831BC08AE289830F
:1016800081E090E09B838A8314C08AE2898381E0B1
:1016900090E09B838A830DC08AE2898381E090E099
:1016A0009B838A8306C08AE2898381E090E09B83E2
:1016B0008A830E94920288E092E00E945F0288E1A1
:1016C00092E040E050E0BA0101E010E020E030E0BC
:1016D0000E9462021BAA1CAA1DAA1EAA85E0898379
:1016E00081E090E09B838A830C940B1F1B830A8309
:1016F000188619861A861B8689E089830C94E01E59
:101700008BA99CA9ADA9BEA90097A105B10509F0B7
:101710009BC089818C3009F44AC08D3080F48930B7
:1017200089F18A3030F48730F9F0883009F06FC0E1
:1017300022C08A3071F18B3009F069C031C080312C
:1017400009F44AC0813130F48E30C1F18F3009F094
:101750005EC03BC0823109F44DC0823108F443C001
:10176000833109F054C04DC08AE2898381E090E062
:101770009B838A834CC08AE2898381E090E09B83CB
:101780008A8345C08AE2898381E090E09B838A83D3
:101790003EC08AE2898381E090E09B838A8337C0E0
:1017A0008AE2898381E090E09B838A8330C08AE269
:1017B000898381E090E09B838A8329C08AE28983C0
:1017C00081E090E09B838A8322C08AE2898381E062
:1017D00090E09B838A831BC08AE2898381E090E04A
:1017E0009B838A8314C08AE2898381E090E09B8393
:1017F0008A830DC08AE2898381E090E09B838A839B
:1018000006C08AE2898381E090E09B838A830E94FC
:10181000920288E092E00E945F0288E192E040E05C
:1018200050E0BA0101E010E020E030E00E946202E6
:101830001BAA1CAA1DAA1EAA85E0898381E090E04C
:101840009B838A830C940B1F8EA59FA5A8A9B9A979
:1018500083309105A105B1050CF06AC04885598512
:101860006A857B854A305105610571050CF04EC0D3
:1018700014161506160617060CF048C02D852223EF
:1018800009F444C06A017B012AE22983882499244F
:1018900083949B828A829C01AD01220F331F441FD7
:1018A000551FC701B601EE24FF248701E394AA2443
:1018B000BB246501A3940E9471028EA59FA5A8A9CF
:1018C000B9A90196A11DB11D8EA79FA7A8ABB9AB61
:1018D0006EA17FA188A599A52AE030E040E050E004
:1018E0000E946022AB01BC0188859985AA85BB85D1
:1018F000840F951FA61FB71F8EA39FA3A8A7B9A7E4
:1019000088E089839B828A820C940B1F4A305105A0
:101910006105710569F48D85882351F01B830A8365
:10192000188619861A861B868AE089830C94E01E25
:10193000488559856A857B854B3051056105710560
:1019400049F58D85882331F18AE28983EE24FF24CD
:10195000E394FB82EA820E94920289E292E00E9472
:101960005F0284E392E040E050E0BA0101E010E061
:1019700020E030E00E9462021EA61FA618AA19AA43
:101980001EA21FA218A619A687E08983FB82EA82FD
:101990000C940B1F4C3051056105710549F58D857F
:1019A000882331F18AE28983EE24FF24E394FB82C9
:1019B000EA820E94920285E492E00E945F028DE436
:1019C00092E040E050E0BA0101E010E020E030E0B9
:1019D0000E9462021EA61FA618AA19AA1AA61BA672
:1019E0001CA61DA68BE08983FB82EA820C940B1F48
:1019F000403151056105710511F00C94E01E8D8593
:101A0000882311F40C94E01E8AE28983EE24FF24DB
:101A1000E394FB82EA820E9492028EE592E00E94A9
:101A20005F028FE692E040E050E0BA0101E010E092
:101A300020E030E00E94620283E18983FB82EA8237
:101A40000C940B1F8BA99CA9ADA9BEA90097A10559
:101A5000B10509F09BC089818C3009F44AC08D30F2
:101A600080F4893089F18A3030F48730F9F0883099
:101A700009F06FC022C08A3071F18B3009F069C063
:101A800031C0803109F44AC0813130F48E30C1F167
:101A90008F3009F05EC03BC0823109F44DC0823105
:101AA00008F443C0833109F054C04DC08AE28983F1
:101AB00081E090E09B838A834CC08AE2898381E045
:101AC00090E09B838A8345C08AE2898381E090E02D
:101AD0009B838A833EC08AE2898381E090E09B8376
:101AE0008A8337C08AE2898381E090E09B838A837E
:101AF00030C08AE2898381E090E09B838A8329C099
:101B00008AE2898381E090E09B838A8322C08AE213
:101B1000898381E090E09B838A831BC08AE289836A
:101B200081E090E09B838A8314C08AE2898381E00C
:101B300090E09B838A830DC08AE2898381E090E0F4
:101B40009B838A8306C08AE2898381E090E09B833D
:101B50008A830E94920288E092E00E945F0288E1FC
:101B600092E040E050E0BA0101E010E020E030E017
:101B70000E9462021BAA1CAA1DAA1EAA85E08983D4
:101B800081E090E09B838A830C940B1F8AE2898317
:101B90008824992483949B828A82E884F9840A8524
:101BA0001B858EA59FA5A8A9B9A99C01AD01220FEF
:101BB000331F441F551FC801B701EE24FF248701BE
:101BC000E394AA24BB246501A3940E9471028EA50C
:101BD0009FA5A8A9B9A90196A11DB11D8EA79FA770
:101BE000A8ABB9AB6EA17FA188A599A52AE030E08A
:101BF00040E050E00E946022AB01BC0188859985DD
:101C0000AA85BB85840F951FA61FB71F8EA39FA310
:101C1000A8A7B9A788E089839B828A820C940B1FAE
:101C20008BA99CA9ADA9BEA90097A105B10509F092
:101C30009BC089818C3009F44AC08D3080F4893092
:101C400089F18A3030F48730F9F0883009F06FC0BC
:101C500022C08A3071F18B3009F069C031C0803107
:101C600009F44AC0813130F48E30C1F18F3009F06F
:101C70005EC03BC0823109F44DC0823108F443C0DC
:101C8000833109F054C04DC08AE2898381E090E03D
:101C90009B838A834CC08AE2898381E090E09B83A6
:101CA0008A8345C08AE2898381E090E09B838A83AE
:101CB0003EC08AE2898381E090E09B838A8337C0BB
:101CC0008AE2898381E090E09B838A8330C08AE244
:101CD000898381E090E09B838A8329C08AE289839B
:101CE00081E090E09B838A8322C08AE2898381E03D
:101CF00090E09B838A831BC08AE2898381E090E025
:101D00009B838A8314C08AE2898381E090E09B836D
:101D10008A830DC08AE2898381E090E09B838A8375
:101D200006C08AE2898381E090E09B838A830E94D7
:101D3000920288E092E00E945F0288E192E040E037
:101D400050E0BA0101E010E020E030E00E946202C1
:101D50001BAA1CAA1DAA1EAA85E0898381E090E027
:101D60009B838A830C940B1F1B830A831886198616
:101D70001A861B868CE089830C94E01E8BA99CA993
:101D8000ADA9BEA90097A105B10509F09BC0898145
:101D90008C3009F44AC08D3080F4893089F18A3062
:101DA00030F48730F9F0883009F06FC022C08A30F3
:101DB00071F18B3009F069C031C0803109F44AC03B
:101DC000813130F48E30C1F18F3009F05EC03BC0FC
:101DD000823109F44DC0823108F443C0833109F0E7
:101DE00054C04DC08AE2898381E090E09B838A835E
:101DF0004CC08AE2898381E090E09B838A8345C05E
:101E00008AE2898381E090E09B838A833EC08AE2F4
:101E1000898381E090E09B838A8337C08AE289834B
:101E200081E090E09B838A8330C08AE2898381E0ED
:101E300090E09B838A8329C08AE2898381E090E0D5
:101E40009B838A8322C08AE2898381E090E09B831E
:101E50008A831BC08AE2898381E090E09B838A8326
:101E600014C08AE2898381E090E09B838A830DC05D
:101E70008AE2898381E090E09B838A8306C08AE2BC
:101E8000898381E090E09B838A830E94920288E0AC
:101E900092E00E945F0288E192E040E050E0BA01E7
:101EA00001E010E020E030E00E9462021BAA1CAAC0
:101EB0001DAA1EAA85E0898381E090E09B838A8326
:101EC0000C940B1F8EA59FA5A8A9B9A982309105D6
:101ED000A105B1050CF06AC0488559856A857B85E6
:101EE0004A3051056105710569F42D85222351F0B1
:101EF0001B830A83188619861A861B868DE08983C0
:101F00000C94E01E4A305105610571050CF04EC07D
:101F100014161506160617060CF048C02D85222348
:101F200009F444C06A017B012AE2298388249924A8
:101F300083949B828A829C01AD01220F331F441F30
:101F4000551FC701B601EE24FF248701E394AA249C
:101F5000BB246501A3940E9471028EA59FA5A8A928
:101F6000B9A90196A11DB11D8EA79FA7A8ABB9ABBA
:101F70006AA57BA58CA59DA52AE030E040E050E055
:101F80000E946022AB01BC0188859985AA85BB852A
:101F9000840F951FA61FB71F8AA79BA7ACA7BDA735
:101FA0008EE089839B828A820C940B1F4885598519
:101FB0006A857B854B3051056105710549F58D8535
:101FC000882331F18AE28983EE24FF24E394FB82A3
:101FD000EA820E94920285E492E00E945F028DE410
:101FE00092E040E050E0BA0101E010E020E030E093
:101FF0000E9462021EA61FA618AA19AA1AA61BA64C
:102000001CA61DA68BE08983FB82EA820C940B1F21
:102010004C3051056105710509F58D858823F1F076
:102020008AE28983EE24FF24E394FB82EA820E9401
:10203000920280E892E00E945F028FE692E040E028
:1020400050E0BA0101E010E020E030E00E946202BE
:1020500080E18983FB82EA820C940B1F4031510599
:102060006105710511F00C94E01E8D85882311F433
:102070000C94E01E8AE28983EE24FF24E394FB8221
:10208000EA820E9492028EE592E00E945F028FE651
:1020900092E040E050E0BA0101E010E020E030E0E2
:1020A0000E94620283E18983FB82EA820C940B1F07
:1020B0008BA99CA9ADA9BEA90097A105B10509F0FE
:1020C0009BC089818C3009F44AC08D3080F48930FE
:1020D00089F18A3030F48730F9F0883009F06FC028
:1020E00022C08A3071F18B3009F069C031C0803173
:1020F00009F44AC0813130F48E30C1F18F3009F0DB
:102100005EC03BC0823109F44DC0823108F443C047
:10211000833109F054C04DC08AE2898381E090E0A8
:102120009B838A834CC08AE2898381E090E09B8311
:102130008A8345C08AE2898381E090E09B838A8319
:102140003EC08AE2898381E090E09B838A8337C026
:102150008AE2898381E090E09B838A8330C08AE2AF
:10216000898381E090E09B838A8329C08AE2898306
:1021700081E090E09B838A8322C08AE2898381E0A8
:1021800090E09B838A831BC08AE2898381E090E090
:102190009B838A8314C08AE2898381E090E09B83D9
:1021A0008A830DC08AE2898381E090E09B838A83E1
:1021B00006C08AE2898381E090E09B838A830E9443
:1021C000920288E092E00E945F0288E192E040E0A3
:1021D00050E0BA0101E010E020E030E00E9462022D
:1021E0001BAA1CAA1DAA1EAA85E0898381E090E093
:1021F0009B838A830C940B1F8AE289838824992409
:1022000083949B828A82E884F9840A851B858EA543
:102210009FA5A8A9B9A99C01AD01220F331F441F96
:10222000551FC801B701EE24FF248701E394AA24B7
:10223000BB246501A3940E9471028EA59FA5A8A945
:10224000B9A90196A11DB11D8EA79FA7A8ABB9ABD7
:102250006AA57BA58CA59DA52AE030E040E050E072
:102260000E946022AB01BC0188859985AA85BB8547
:10227000840F951FA61FB71F8AA79BA7ACA7BDA752
:102280008EE089839B828A820C940B1F8BA99CA968
:10229000ADA9BEA90097A105B10509F09BC0898130
:1022A0008C3009F44AC08D3080F4893089F18A304D
:1022B00030F48730F9F0883009F06FC022C08A30DE
:1022C00071F18B3009F069C031C0803109F44AC026
:1022D000813130F48E30C1F18F3009F05EC03BC0E7
:1022E000823109F44DC0823108F443C0833109F0D2
:1022F00054C04DC08AE2898381E090E09B838A8349
:102300004CC08AE2898381E090E09B838A8345C048
:102310008AE2898381E090E09B838A833EC08AE2DF
:10232000898381E090E09B838A8337C08AE2898336
:1023300081E090E09B838A8330C08AE2898381E0D8
:1023400090E09B838A8329C08AE2898381E090E0C0
:102350009B838A8322C08AE2898381E090E09B8309
:102360008A831BC08AE2898381E090E09B838A8311
:1023700014C08AE2898381E090E09B838A830DC048
:102380008AE2898381E090E09B838A8306C08AE2A7
:10239000898381E090E09B838A830E94920288E097
:1023A00092E00E945F0288E192E040E050E0BA01D2
:1023B00001E010E020E030E00E9462021BAA1CAAAB
:1023C0001DAA1EAA85E0898381E090E09B838A8311
:1023D0000C940B1F1B830A83188619861A861B868A
:1023E0008CE089830C94E01E8BA99CA9ADA9BEA9A1
:1023F0000097A105B10511F00C94E01E89818C3085
:1024000009F44AC08D3080F4893089F18A3030F483
:102410008730F9F0883009F06FC022C08A3071F13E
:102420008B3009F069C031C0803109F44AC0813174
:1024300030F48E30C1F18F3009F05EC03BC0823184
:1024400009F44DC0823108F443C0833109F054C00F
:102450004DC08AE2898381E090E09B838A834CC0EF
:102460008AE2898381E090E09B838A8345C08AE287
:10247000898381E090E09B838A833EC08AE28983DE
:1024800081E090E09B838A8337C08AE2898381E080
:1024900090E09B838A8330C08AE2898381E090E068
:1024A0009B838A8329C08AE2898381E090E09B83B1
:1024B0008A8322C08AE2898381E090E09B838A83B9
:1024C0001BC08AE2898381E090E09B838A8314C0E9
:1024D0008AE2898381E090E09B838A830DC08AE24F
:1024E000898381E090E09B838A8306C08AE28983A6
:1024F00081E090E09B838A830E94920288E092E0D0
:102500000E945F0288E192E040E050E0BA0101E001
:1025100010E020E030E00E9462021BAA1CAA1DAA63
:102520001EAA85E0898381E090E09B838A830C94D6
:102530000B1F8BA99CA9ADA9BEA90097A105B10548
:1025400009F09BC089818C3009F44AC08D3080F439
:10255000893089F18A3030F48730F9F0883009F019
:102560006FC022C08A3071F18B3009F069C031C070
:10257000803109F44AC0813130F48E30C1F18F309E
:1025800009F05EC03BC0823109F44DC0823108F4CD
:1025900043C0833109F054C04DC08AE2898381E091
:1025A00090E09B838A834CC08AE2898381E090E03B
:1025B0009B838A8345C08AE2898381E090E09B8384
:1025C0008A833EC08AE2898381E090E09B838A838C
:1025D00037C08AE2898381E090E09B838A8330C0A0
:1025E0008AE2898381E090E09B838A8329C08AE222
:1025F000898381E090E09B838A8322C08AE2898379
:1026000081E090E09B838A831BC08AE2898381E01A
:1026100090E09B838A8314C08AE2898381E090E002
:102620009B838A830DC08AE2898381E090E09B834B
:102630008A8306C08AE2898381E090E09B838A8353
:102640000E94920288E092E00E945F0288E192E09C
:1026500040E050E0BA0101E010E020E030E00E94EC
:1026600062021BAA1CAA1DAA1EAA85E0898381E01A
:1026700090E09B838A830C940B1F1B830A8318862C
:1026800019861A861B8681E189830C94E01E8BA92A
:102690009CA9ADA9BEA90097A105B10509F09BC0F1
:1026A00089818C3009F44AC08D3080F4893089F1F9
:1026B0008A3030F48730F9F0883009F06FC022C0DA
:1026C0008A3071F18B3009F069C031C0803109F472
:1026D0004AC0813130F48E30C1F18F3009F05EC0D4
:1026E0003BC0823109F44DC0823108F443C08331CC
:1026F00009F054C04DC08AE2898381E090E09B8359
:102700008A834CC08AE2898381E090E09B838A833C
:1027100045C08AE2898381E090E09B838A833EC042
:102720008AE2898381E090E09B838A8337C08AE2D2
:10273000898381E090E09B838A8330C08AE2898329
:1027400081E090E09B838A8329C08AE2898381E0CB
:1027500090E09B838A8322C08AE2898381E090E0B3
:102760009B838A831BC08AE2898381E090E09B83FC
:102770008A8314C08AE2898381E090E09B838A8304
:102780000DC08AE2898381E090E09B838A8306C042
:102790008AE2898381E090E09B838A830E9492028F
:1027A00088E092E00E945F0288E192E040E050E021
:1027B000BA0101E010E020E030E00E9462021BAAB2
:1027C0001CAA1DAA1EAA85E0898381E090E09B8354
:1027D0008A830C940B1F88859985AA85BB858C30CC
:1027E0009105A105B10509F0AAC02D85222309F4A0
:1027F000A6C089818C3009F44AC08D3080F48930BC
:1028000089F18A3030F48730F9F0883009F06FC0F0
:1028100022C08A3071F18B3009F069C031C080313B
:1028200009F44AC0813130F48E30C1F18F3009F0A3
:102830005EC03BC0823109F44DC0823108F443C010
:10284000833109F054C04DC08AE2898381E090E071
:102850009B838A834CC08AE2898381E090E09B83DA
:102860008A8345C08AE2898381E090E09B838A83E2
:102870003EC08AE2898381E090E09B838A8337C0EF
:102880008AE2898381E090E09B838A8330C08AE278
:10289000898381E090E09B838A8329C08AE28983CF
:1028A00081E090E09B838A8322C08AE2898381E071
:1028B00090E09B838A831BC08AE2898381E090E059
:1028C0009B838A8314C08AE2898381E090E09B83A2
:1028D0008A830DC08AE2898381E090E09B838A83AA
:1028E00006C08AE2898381E090E09B838A83898D98
:1028F0009A8DAB8DBC8D0196A11DB11D898F9A8FCC
:10290000AB8FBC8F6BA97CA98DA99EA92FA938ADCF
:1029100049AD5AADEEA0FFA008A519A58AA49BA4B5
:10292000ACA4BDA4650154010E9456038F8B87E1BE
:10293000898381E090E09B838A830C940B1F8B300A
:102940009105A105B10511F00C94E01E8D85882339
:1029500011F40C94E01E8AE28983EE24FF24E394B0
:10296000FB82EA820E94920289E292E00E945F0268
:1029700084E392E040E050E0BA0101E010E020E0A2
:1029800030E00E9462021EA61FA618AA19AA1EA263
:102990001FA218A619A687E08983FB82EA820C94FD
:1029A0000B1F8BA99CA9ADA9BEA90097A105B105D4
:1029B00009F09BC089818C3009F44AC08D3080F4C5
:1029C000893089F18A3030F48730F9F0883009F0A5
:1029D0006FC022C08A3071F18B3009F069C031C0FC
:1029E000803109F44AC0813130F48E30C1F18F302A
:1029F00009F05EC03BC0823109F44DC0823108F459
:102A000043C0833109F054C04DC08AE2898381E01C
:102A100090E09B838A834CC08AE2898381E090E0C6
:102A20009B838A8345C08AE2898381E090E09B830F
:102A30008A833EC08AE2898381E090E09B838A8317
:102A400037C08AE2898381E090E09B838A8330C02B
:102A50008AE2898381E090E09B838A8329C08AE2AD
:102A6000898381E090E09B838A8322C08AE2898304
:102A700081E090E09B838A831BC08AE2898381E0A6
:102A800090E09B838A8314C08AE2898381E090E08E
:102A90009B838A830DC08AE2898381E090E09B83D7
:102AA0008A8306C08AE2898381E090E09B838A83DF
:102AB0000E94920288E092E00E945F0288E192E028
:102AC00040E050E0BA0101E010E020E030E00E9478
:102AD00062021BAA1CAA1DAA1EAA85E0898381E0A6
:102AE00090E09B838A830C940B1F88859985AA8527
:102AF000BB858C309105A105B10509F0A6C02D85D7
:102B0000222309F4A2C089818C3009F44AC08D3097
:102B100080F4893089F18A3030F48730F9F08830D8
:102B200009F06FC022C08A3071F18B3009F069C0A2
:102B300031C0803109F44AC0813130F48E30C1F1A6
:102B40008F3009F05EC03BC0823109F44DC0823144
:102B500008F443C0833109F054C04DC08AE2898330
:102B600081E090E09B838A834CC08AE2898381E084
:102B700090E09B838A8345C08AE2898381E090E06C
:102B80009B838A833EC08AE2898381E090E09B83B5
:102B90008A8337C08AE2898381E090E09B838A83BD
:102BA00030C08AE2898381E090E09B838A8329C0D8
:102BB0008AE2898381E090E09B838A8322C08AE253
:102BC000898381E090E09B838A831BC08AE28983AA
:102BD00081E090E09B838A8314C08AE2898381E04C
:102BE00090E09B838A830DC08AE2898381E090E034
:102BF0009B838A8306C08AE2898381E090E09B837D
:102C00008A8389E090E0A0E0B0E08BAB9CABADABF9
:102C1000BEAB1F8A81E090E0A0E0B0E0898F9A8F80
:102C2000AB8FBC8F2FA938AD49AD5AAD69E070E0CC
:102C300080E090E00E94A2038F8B85E2898381E08F
:102C400090E09B838A830C940B1F8B309105A10528
:102C5000B10511F00C94E01E8D85882311F40C94BD
:102C6000E01E1B830A831BAA1CAA1DAA1EAA8FE0B2
:102C700089830C94E01E8BA99CA9ADA9BEA90097DD
:102C8000A105B10509F09BC089818C3009F44AC0C7
:102C90008D3080F4893089F18A3030F48730F9F052
:102CA000883009F06FC022C08A3071F18B3009F092
:102CB00069C031C0803109F44AC0813130F48E30AE
:102CC000C1F18F3009F05EC03BC0823109F44DC0C4
:102CD000823108F443C0833109F054C04DC08AE208
:102CE000898381E090E09B838A834CC08AE2898358
:102CF00081E090E09B838A8345C08AE2898381E0FA
:102D000090E09B838A833EC08AE2898381E090E0E1
:102D10009B838A8337C08AE2898381E090E09B832A
:102D20008A8330C08AE2898381E090E09B838A8332
:102D300029C08AE2898381E090E09B838A8322C054
:102D40008AE2898381E090E09B838A831BC08AE2C8
:102D5000898381E090E09B838A8314C08AE289831F
:102D600081E090E09B838A830DC08AE2898381E0C1
:102D700090E09B838A8306C08AE2898381E090E0A9
:102D80009B838A830E94920288E092E00E945F0205
:102D900088E192E040E050E0BA0101E010E020E07C
:102DA00030E00E9462021BAA1CAA1DAA1EAA85E08E
:102DB000898381E090E09B838A830C940B1F1B83A3
:102DC0000A83188619861A861B8682E18983F8C7CA
:102DD0008AE28983EE24FF24E394FB82EA820E9444
:102DE000920289E292E00E945F0284E392E040E076
:102DF00050E0BA0101E010E020E030E00E94620201
:102E00001EA61FA618AA19AA1EA21FA218A619A6B6
:102E100087E08983FB82EA820C940B1F8885998561
:102E2000AA85BB858D309105A105B10581F42D855D
:102E3000222369F01B830A8381E090E0A0E0B0E0E8
:102E40008BAB9CABADABBEAB84E18983B9C78E3095
:102E50009105A105B10581F42D85222369F01B831D
:102E60000A8382E090E0A0E0B0E08BAB9CABADAB1E
:102E7000BEAB8CE18983A4C78F309105A105B10554
:102E800081F42D85222369F01B830A8383E090E07F
:102E9000A0E0B0E08BAB9CABADABBEAB8DE189836A
:102EA0008FC780319105A105B10509F089C78D85CE
:102EB000882309F485C71B830A838BAA9CAAADAA21
:102EC000BEAA8EE189837CC72F89222309F456C0CC
:102ED00089818931D1F08A3128F4873141F08831F4
:102EE00069F50CC08A31C1F08B3141F521C08AE20D
:102EF000898381E090E09B838A8320C08AE2898372
:102F000081E090E09B838A8319C08AE2898381E013
:102F100090E09B838A8312C08AE2898381E090E0FB
:102F20009B838A83CE018E5B9F4F0E94D20306C093
:102F30008AE2898381E090E09B838A830E949202E7
:102F400089E292E00E945F0284E392E040E050E078
:102F5000BA0101E010E020E030E00E9462021EA60B
:102F60001FA618AA19AA1EA21FA218A619A687E0B2
:102F7000898381E090E09B838A834DC7898D9A8DF8
:102F8000AB8DBC8D80319105A105B105DCF08AE2E5
:102F9000898301E010E01B830A83CE018E5B9F4F83
:102FA00040ED57E060E070E020E00E94CF030E9417
:102FB00092028CE892E00E945F028AE189831B837F
:102FC0000A8329C7222309F0FBC60196A11DB11D62
:102FD000898F9A8FAB8FBC8F6BA97CA98DA99EA975
:102FE0002FA938AD49AD5AADEEA0FFA008A519A58F
:102FF0008AA49BA4ACA4BDA4650154010E945603FD
:103000008F8B87E1898381E090E09B838A8303C76C
:103010008F89882309F456C089818931D1F08A319A
:1030200028F4873141F0883169F50CC08A31C1F04C
:103030008B3141F521C08AE2898381E090E09B8356
:103040008A8320C08AE2898381E090E09B838A831F
:1030500019C08AE2898381E090E09B838A8312C051
:103060008AE2898381E090E09B838A83CE018E5B34
:103070009F4F0E94D20306C08AE2898381E090E0DC
:103080009B838A830E94920289E292E00E945F02FF
:1030900084E392E040E050E0BA0101E010E020E07B
:1030A00030E00E9462021EA61FA618AA19AA1EA23C
:1030B0001FA218A619A687E0898381E090E09B8370
:1030C0008A83A9C68D8D9E8DAF8DB8A18031910563
:1030D000A105B1057CF1888D882379F58AE2898381
:1030E0006624772463947B826A82898D9A8DAB8D66
:1030F000BC8D0196A11DB11D898F9A8FAB8FBC8F9E
:103100006BA97CA98DA99EA92FA938AD49AD5AAD4F
:10311000EEA0FFA008A519A58AA49BA4ACA4BDA4F9
:10312000650154010E9456038F8B87E189837B825E
:103130006A8271C6288D222351F01B830A83EF8A8D
:10314000198E1A8E1B8E1C8EFBE1F98339C60196EF
:10315000A11DB11D8D8F9E8FAF8FB8A30E941D033F
:10316000888F88E1898381E090E09B838A8353C6BE
:103170008F89882309F424C689818931D1F08A3165
:1031800028F4873141F0883169F50CC08A31C1F0EB
:103190008B3141F521C08AE2898381E090E09B83F5
:1031A0008A8320C08AE2898381E090E09B838A83BE
:1031B00019C08AE2898381E090E09B838A8312C0F0
:1031C0008AE2898381E090E09B838A83CE018E5BD3
:1031D0009F4F0E94D20306C08AE2898381E090E07B
:1031E0009B838A830E94920289E292E00E945F029E
:1031F00084E392E040E050E0BA0101E010E020E01A
:1032000030E00E9462021EA61FA618AA19AA1EA2DA
:103210001FA218A619A687E0898381E090E09B830E
:103220008A83F9C58F89882309F456C08981893139
:10323000D1F08A3128F4873141F0883169F50CC02A
:103240008A31C1F08B3141F521C08AE2898381E066
:1032500090E09B838A8320C08AE2898381E090E0AA
:103260009B838A8319C08AE2898381E090E09B83F3
:103270008A8312C08AE2898381E090E09B838A83FB
:10328000CE018E5B9F4F0E94D20306C08AE28983E3
:1032900081E090E09B838A830E94920289E292E01F
:1032A0000E945F0284E392E040E050E0BA0101E056
:1032B00010E020E030E00E9462021EA61FA618AABD
:1032C00019AA1EA21FA218A619A687E0898381E069
:1032D00090E09B838A839FC5F1018081882309F454
:1032E0006FC58AE2898301E010E01B830A83CE0167
:1032F0008E5B9F4F0E94D20381E08F8B198E1A8EB6
:103300001B8E1C8E8BE189831B830A8384C58F8966
:10331000882309F456C089818931D1F08A3128F493
:10332000873141F0883169F50CC08A31C1F08B31A9
:1033300041F521C08AE2898381E090E09B838A8302
:1033400020C08AE2898381E090E09B838A8319C050
:103350008AE2898381E090E09B838A8312C08AE2BB
:10336000898381E090E09B838A83CE018E5B9F4FAF
:103370000E94D20306C08AE2898381E090E09B83A9
:103380008A830E94920289E292E00E945F0284E3B3
:1033900092E040E050E0BA0101E010E020E030E0CF
:1033A0000E9462021EA61FA618AA19AA1EA21FA288
:1033B00018A619A687E0898381E090E09B838A8321
:1033C0002AC51B830A83F9E1F983FAC48AE2898357
:1033D000EE24FF24E394FB82EA820E94920289E2B7
:1033E00092E00E945F0284E392E040E050E0BA0184
:1033F00001E010E020E030E00E9462021EA61FA65D
:1034000018AA19AA1EA21FA218A619A687E08983C6
:10341000FB82EA8200C58AE28983EE24FF24E394DA
:10342000FB82EA820E94920287E992E00E945F0298
:103430008FE692E040E050E0BA0101E010E020E0C9
:1034400030E00E9462021BAE1CAE1DAE1EAE80E2DA
:103450008983FB82EA82DFC48AE28983EE24FF2427
:10346000E394FB82EA820E94920287E992E00E9442
:103470005F028FE692E040E050E0BA0101E010E028
:1034800020E030E00E9462021BAE1CAE1DAE1EAEFC
:1034900080E28983FB82EA82BEC48BA99CA9ADA984
:1034A000BEA90097A105B10509F049C08981813203
:1034B00089F0823218F4803231F505C08232B1F0E1
:1034C000833209F51AC08AE2898381E090E09B8308
:1034D0008A8319C08AE2898381E090E09B838A8392
:1034E000CE018D5B9F4F0E94D2030DC08AE289837B
:1034F00081E090E09B838A8306C08AE2898381E031
:1035000090E09B838A830E94920288E092E00E946E
:103510005F0288E192E040E050E0BA0101E010E093
:1035200020E030E00E9462021BAA1CAA1DAA1EAA6B
:1035300085E0898381E090E09B838A836CC41B8350
:103540000A83188619861A861B8682E2898338C404
:103550008BA99CA9ADA9BEA90097A105B10509F049
:1035600049C08981813289F0823218F4803231F584
:1035700005C08232B1F0833209F51AC08AE289832C
:1035800081E090E09B838A8319C08AE2898381E08D
:1035900090E09B838A83CE018D5B9F4F0E94D20374
:1035A0000DC08AE2898381E090E09B838A8306C014
:1035B0008AE2898381E090E09B838A830E94920261
:1035C00088E092E00E945F0288E192E040E050E0F3
:1035D000BA0101E010E020E030E00E9462021BAA84
:1035E0001CAA1DAA1EAA85E0898381E090E09B8326
:1035F0008A8311C4F2018081882309F4E1C38AE23D
:10360000898301E010E01B830A83CE018D5B9F4F0D
:103610000E94D203188619861A861B8682E2898345
:103620001B830A83F8C38BA99CA9ADA9BEA90097E7
:10363000A105B10509F049C08981813289F0823242
:1036400018F4803231F505C08232B1F0833209F5C9
:103650001AC08AE2898381E090E09B838A8319C043
:103660008AE2898381E090E09B838A83CE018D5B2F
:103670009F4F0E94D2030DC08AE2898381E090E0CF
:103680009B838A8306C08AE2898381E090E09B83E2
:103690008A830E94920288E092E00E945F0288E1A1
:1036A00092E040E050E0BA0101E010E020E030E0BC
:1036B0000E9462021BAA1CAA1DAA1EAA85E0898379
:1036C00081E090E09B838A83A6C3488559856A85FB
:1036D0007B85423051056105710531F58D85882363
:1036E00019F18AE2898301E010E01B830A83CE018D
:1036F0008D5B9F4F48EB5BE060E070E020E00E9454
:10370000CF030E94920280EA92E00E945F0281E071
:1037100090E0A0E0B0E08BAF9CAFADAFBEAF81E278
:1037200089831B830A8377C34B305105610571057B
:1037300061F48D85882349F01B830A831BAA1CAA88
:103740001DAA1EAAF3E2F9833BC34C305105610563
:10375000710509F035C38D85882309F431C389814A
:10376000813289F0823218F4803231F505C082321C
:10377000B1F0833209F51AC08AE2898381E090E0D2
:103780009B838A8319C08AE2898381E090E09B83CE
:103790008A83CE018D5B9F4F0E94D2030DC08AE2C7
:1037A000898381E090E09B838A8306C08AE28983D3
:1037B00081E090E09B838A831F8A81E090E0A0E013
:1037C000B0E0898F9A8FAB8FBC8F6BA97CA98DA934
:1037D0009EA92FA938AD49AD5AAD0E94A2038F8B87
:1037E00085E2898381E090E09B838A8314C38BA95F
:1037F0009CA9ADA9BEA90097A105B10509F0E0C239
:103800008981813289F0823218F4803231F505C025
:103810008232B1F0833209F51AC08AE2898381E0ED
:1038200090E09B838A8319C08AE2898381E090E0DB
:103830009B838A83CE018D5B9F4F0E94D2030DC074
:103840008AE2898381E090E09B838A8306C08AE2D2
:10385000898381E090E09B838A830E94920288E0C2
:1038600092E00E945F0288E192E040E050E0BA01FD
:1038700001E010E020E030E00E9462021BAA1CAAD6
:103880001DAA1EAA85E0898381E090E09B838A833C
:10389000C2C24BA95CA96DA97EA94115510561055C
:1038A000710509F052C089818732D1F0883228F43D
:1038B000853241F0863269F50CC08832C1F0893218
:1038C00041F521C08AE2898381E090E09B838A836D
:1038D00020C08AE2898381E090E09B838A8319C0BB
:1038E0008AE2898381E090E09B838A8312C08AE226
:1038F000898381E090E09B838A83CE018C5B9F4F1C
:103900000E94D20306C08AE2898381E090E09B8313
:103910008A830E94920288E092E00E945F0288E11E
:1039200092E040E050E0BA0101E010E020E030E039
:103930000E9462021BAA1CAA1DAA1EAA85E08983F6
:1039400081E090E09B838A8366C22F892223C9F09D
:103950008AE2898301E010E01B830A838D8D9E8DAE
:10396000AF8DB8A10196A11DB11D8D8F9E8FAF8F18
:10397000B8A30E941D03888F86E289831B830A8374
:103980004AC2898D9A8DAB8DBC8D80319105A10580
:10399000B105DCF08AE2898301E010E01B830A8331
:1039A000CE018C5B9F4F40ED57E060E070E020E07F
:1039B0000E94CF030E9492028CE892E00E945F0274
:1039C00088E289831B830A8326C2222309F0F8C177
:1039D0000196A11DB11D898F9A8FAB8FBC8F0FA946
:1039E00018AD29AD3AADCB01BA01A90198010E94E9
:1039F000A2038F8B85E2898381E090E09B838A8399
:103A00000AC24BA95CA96DA97EA9411551056105A2
:103A1000710509F052C089818732D1F0883228F4CB
:103A2000853241F0863269F50CC08832C1F08932A6
:103A300041F521C08AE2898381E090E09B838A83FB
:103A400020C08AE2898381E090E09B838A8319C049
:103A50008AE2898381E090E09B838A8312C08AE2B4
:103A6000898381E090E09B838A83CE018C5B9F4FAA
:103A70000E94D20306C08AE2898381E090E09B83A2
:103A80008A830E94920288E092E00E945F0288E1AD
:103A900092E040E050E0BA0101E010E020E030E0C8
:103AA0000E9462021BAA1CAA1DAA1EAA85E0898385
:103AB00081E090E09B838A83AEC18D8D9E8DAF8D1A
:103AC000B8A180319105A105B1052CF1888D88231D
:103AD00029F58AE28983EE24FF24E394FB82EA82BB
:103AE000898D9A8DAB8DBC8D0196A11DB11D898FDD
:103AF0009A8FAB8FBC8F0FA918AD29AD3AADCB0112
:103B0000BA01A90198010E94A2038F8B85E28983E3
:103B1000FB82EA8280C1288D222371F01B830A83F5
:103B2000EF8A198E1A8E1B8E1C8E1BAA1CAA1DAA28
:103B30001EAA89E2898344C10196A11DB11D8D8F02
:103B40009E8FAF8FB8A30E941D03888F86E2898362
:103B500081E090E09B838A835EC18BA99CA9ADA97B
:103B6000BEA90097A105B10509F02AC18981873254
:103B7000D1F0883228F4853241F0863269F50CC0E4
:103B80008832C1F0893241F521C08AE2898381E01F
:103B900090E09B838A8320C08AE2898381E090E061
:103BA0009B838A8319C08AE2898381E090E09B83AA
:103BB0008A8312C08AE2898381E090E09B838A83B2
:103BC000CE018C5B9F4F0E94D20306C08AE289839C
:103BD00081E090E09B838A830E94920288E092E0D9
:103BE0000E945F0288E192E040E050E0BA0101E00B
:103BF00010E020E030E00E9462021BAA1CAA1DAA6D
:103C00001EAA85E0898381E090E09B838A8303C1BB
:103C10008BA99CA9ADA9BEA90097A105B10509F082
:103C200052C089818732D1F0883228F4853241F040
:103C3000863269F50CC08832C1F0893241F521C065
:103C40008AE2898381E090E09B838A8320C08AE2B4
:103C5000898381E090E09B838A8319C08AE289830B
:103C600081E090E09B838A8312C08AE2898381E0AD
:103C700090E09B838A83CE018C5B9F4F0E94D2038E
:103C800006C08AE2898381E090E09B838A830E9458
:103C9000920288E092E00E945F0288E192E040E0B8
:103CA00050E0BA0101E010E020E030E00E94620242
:103CB0001BAA1CAA1DAA1EAA85E0898381E090E0A8
:103CC0009B838A83A8C0F3018081882309F478C08C
:103CD0008AE2898301E010E01B830A83CE018C5BBA
:103CE0009F4F0E94D20381E08F8B198E1A8E1B8EFC
:103CF0001C8E1BAA1CAA1DAA1EAA89E289831B83EB
:103D00000A8389C08BA99CA9ADA9BEA90097A1056A
:103D1000B10509F052C089818732D1F0883228F488
:103D2000853241F0863269F50CC08832C1F08932A3
:103D300041F521C08AE2898381E090E09B838A83F8
:103D400020C08AE2898381E090E09B838A8319C046
:103D50008AE2898381E090E09B838A8312C08AE2B1
:103D6000898381E090E09B838A83CE018C5B9F4FA7
:103D70000E94D20306C08AE2898381E090E09B839F
:103D80008A830E94920288E092E00E945F0288E1AA
:103D900092E040E050E0BA0101E010E020E030E0C5
:103DA0000E9462021BAA1CAA1DAA1EAA85E0898382
:103DB00081E090E09B838A832EC01B830A83F98273
:103DC000EA81FB813196FB83EA83E230F10510F44E
:103DD0000C9474091D861A8A1DA21FAEC05CDF4FA9
:103DE0001882DF91CF911F910F91FF90EF90DF909C
:103DF000CF90BF90AF909F908F907F906F905F908B
:103E00004F903F902F900895EA81FB813196FB837C
:103E1000EA830C9474098A819B8101969B838A832F
:103E2000D9CF8F5B9F4F681779073CF004966817CE
:103E3000790718F481E0FB0180830895DC01E62F07
:103E4000F0E0EA32F10508F075C1EC56FF4FEE0FD5
:103E5000FF1F0590F491E02D099481E09C919A3226
:103E600008F469C180E0089581E09C91913009F4E3
:103E700062C180E008959C91925081E0983208F4EC
:103E80005AC180E0089581E09C91933009F453C1B8
:103E900080E0089581E09C91943009F44CC180E069
:103EA000089581E011969C911197953009F443C1D2
:103EB00080E0089511969C911197965081E09E3074
:103EC00008F439C180E0089581E011969C91119722
:103ED000973009F430C180E0089581E011969C91FB
:103EE0001197983009F427C180E0089581E0119678
:103EF0009C911197993009F41EC180E0089581E0EA
:103F000011969C9111979A3009F415C180E008959B
:103F100081E011969C9111979B3009F40CC180E0CF
:103F2000089581E011969C9111979C3009F403C18A
:103F300080E0089581E011969C9111979D3009F4DD
:103F4000FAC080E0089581E011969C9111979E300F
:103F500009F4F1C080E0089581E011969C911197D9
:103F60009F3009F4E8C080E0089581E011969C91AB
:103F70001197903109F4DFC080E0089581E0119637
:103F80009C911197913109F4D6C080E0089581E0A9
:103F900011969C911197923109F4CDC080E008955B
:103FA00081E011969C911197933109F4C4C080E08F
:103FB000089581E011969C911197943109F4BBC04A
:103FC00080E0089581E011969C911197953109F454
:103FD000B2C080E0089511969C911197965181E0AE
:103FE000963008F4A8C080E0089581E011969C9175
:103FF0001197973109F49FC080E0089581E01196F0
:104000009C911197983109F496C080E0089581E061
:1040100011969C911197993109F48DC080E0089513
:1040200081E011969C9111979A3109F484C080E047
:10403000089581E011969C9111979B3109F47BC002
:1040400080E0089581E011969C9111979C3109F4CC
:1040500072C080E0089581E011969C9111979D3186
:1040600009F469C080E0089581E011969C91119750
:104070009E3109F460C080E0089511969C911197DB
:104080009F5181E0953008F456C080E0089581E0AA
:1040900011969C911197903209F44DC080E00895DB
:1040A00081E011969C911197913209F444C080E00F
:1040B000089581E011969C9111979232E1F180E090
:1040C000089581E011969C9111979332A1F180E0BF
:1040D000089511969C911197945281E0963058F171
:1040E00080E0089581E011969C911197953219F125
:1040F00080E0089581E011969C9111979632D9F055
:1041000080E0089581E011969C911197973299F083
:1041100080E0089581E011969C911197983259F0B2
:1041200080E0089581E011969C911197993219F0E1
:1041300080E0089580E0089521E0FC01258708953E
:10414000FC0164817581868197810895FC01448317
:104150005583668377830895FC0160857185828528
:1041600093850895FC01408751876287738708957E
:10417000FC0184850895FC016487089521E0FC0119
:10418000228B0895FC01868597850895FC01778729
:1041900066870895FC01808991890895FC01718BDF
:1041A000608B089521E0FC0125A30895FC0183891B
:1041B00094890895FC01748B638B0895FC018589B3
:1041C00096890895FC01768B658B0895FC0187899B
:1041D0000895FC01678B0895FC01808D0895FC0112
:1041E000608F0895FC01618D728D838D948D08958B
:1041F000FC01418F528F638F748F0895FC01658D90
:10420000768D878D90A10895FC01458F568F678F1D
:1042100070A30895FC0161A172A183A194A10895E6
:10422000FC0141A352A363A374A30895FC0166A1FA
:1042300077A180A591A50895FC0146A357A360A787
:1042400071A70895FC0162A573A584A595A508959D
:10425000FC0142A753A764A775A70895FC0166A5B2
:1042600077A580A991A90895FC0146A757A760AB3F
:1042700071AB089521E0FC0127AF0895FC01E05CDB
:10428000FF4F81E080830895FC0182A90895FC011D
:1042900062AB0895FC0163A974A985A996A9089544
:1042A000FC0143AB54AB65AB76AB0895FC0167A949
:1042B00070AD81AD92AD0895FC0147AB50AF61AFD9
:1042C00072AF0895FC0163AD74AD85AD96AD0895F0
:1042D000FC0143AF54AF65AF76AF089587B3807FDD
:1042E00087BB87B3876087BB81E58DB981E08EB9D5
:1042F00008958FB9779BFECF8FB1089583E083BF78
:1043000083E882BF81E087BF1092B3021092B202AD
:1043100078940895CF92DF92EF92FF92CF93DF933C
:10432000EC016A017B014091B2025091B302141674
:104330001506E4F4E8ECF2E0DF01169620E030E048
:1043400070E061E0808191818C179D0731F41382C8
:104350001282D582C4826C93762F2F5F3F4F37969F
:1043600017962417350774F37723C9F4FA01EE0F73
:10437000FF1FEE0FFF1FEE0FFF1FE41BF50BE853AF
:10438000FD4FD183C08313821282D582C48281E023
:1043900086834F5F5F4F5093B3024093B202DF9129
:1043A000CF91FF90EF90DF90CF900895DC01609166
:1043B000B2027091B302161617066CF58091C8020E
:1043C0009091C9028A179B07E9F40AC0295F3F4F01
:1043D000F9013797808191818A179B07B9F402C050
:1043E00040E050E0FA01EE0FFF1FEE0FFF1FEE0F4F
:1043F000FF1FE41BF50BE853FD4F13821282168258
:104400001C9208952FEC32E040E050E04F5F5F4F88
:1044100046175707D9F60895CF92DF92EF92FF9291
:104420000F931F93CF93DF936C018091B202909111
:10443000B3021816190694F5CEECD2E08E010650A0
:104440001040EE24FF2488818823D9F0D8011296E9
:104450008D919C911397019613969C938E9312972E
:1044600014962D913C9115978217930751F413964A
:104470001C921E92129718826D917C91C6010E9427
:10448000111F0894E11CF11C2796095F1F4F8091B2
:10449000B2029091B302E816F906ACF2DF91CF9127
:1044A0001F910F91FF90EF90DF90CF90089588ECCF
:1044B00092E00E9448231092B3021092B202089533
:1044C000629FD001739FF001829FE00DF11D649FF8
:1044D000E00DF11D929FF00D839FF00D749FF00D84
:1044E000659FF00D9927729FB00DE11DF91F639F25
:1044F000B00DE11DF91FBD01CF0111240895991BD5
:1045000079E004C0991F961708F0961B881F7A95CA
:10451000C9F78095089597FB092E07260AD077FDE5
:1045200004D00CD006D000201AF4709561957F4F0E
:104530000895F6F7909581959F4F0895AA1BBB1B90
:1045400051E107C0AA1FBB1FA617B70710F0A61B93
:10455000B70B881F991F5A95A9F780959095BC01B4
:10456000CD010895CF93DF93AC018230910510F413
:1045700042E050E0E0911003F091110320E030E0C0
:10458000A0E0B0E024C08081918184179507D0F02D
:104590008417950771F482819381109729F01396FF
:1045A0009C938E9312972CC09093110380931003C9
:1045B00027C02115310519F08217930718F49C01C3
:1045C000BD01EF0192818381DF01E92FF82F309740
:1045D000D1F621153105F9F0C901841B950B843002
:1045E000910580F48A819B816115710521F0FB01A1
:1045F0009383828304C09093110380931003FE0180
:10460000329642C0FE01E80FF91F41935193029781
:104610009983888339C080910E0390910F0300978E
:1046200041F48091AD029091AE0290930F0380937C
:104630000E032091AB023091AC022115310541F4FB
:104640002DB73EB78091AF029091B002281B390B75
:10465000E0910E03F0910F03E217F30798F42E1B7D
:104660003F0B2417350770F0CA0102962817390747
:1046700048F08E0F9F1F90930F0380930E0341937A
:10468000519302C0E0E0F0E0CF01DF91CF910895B7
:104690000F931F93CF93DF939C01009709F48CC075
:1046A000DC01129713961C921E92129760911003D0
:1046B000709111036115710589F48D919C91119789
:1046C000820F931F20910E0330910F032817390793
:1046D00069F5B0930F03A0930E036EC0FB0140E099
:1046E00050E001C0FC01EA17FB0730F4828193819E
:1046F000AF010097B9F71FC0E9012297FB83EA8356
:1047000008811981C901800F911F8E179F0759F4E5
:1047100080819181800F911F029699838883828185
:1047200093819B838A834115510529F4B09311032A
:10473000A093100341C0FA01B383A283C191D19128
:10474000EC0FFD1FAE17BF0781F4F9019291829122
:104750008C0F9D1F0296DA0111969C938E93828195
:10476000938113969C938E931297E0E0F0E002C041
:10477000FB01BC01DB0112968D919C911397009770
:10478000B9F7CB0102962D913C911197820F931F9F
:1047900020910E0330910F032817390769F43097E1
:1047A00029F4109211031092100302C01382128296
:1047B00070930F0360930E03DF91CF911F910F91C0
:1047C00008950F931F93CF93DF93CDB7DEB72E9746
:1047D0000FB6F894DEBF0FBECDBF0D891E8986E0EF
:1047E0008C831A8309838FEF9FE79E838D83AE01AD
:1047F000475E5F4FCE0101966F89788D0E9410242D
:10480000EF81F885E00FF11F10822E960FB6F89415
:10481000DEBF0FBECDBFDF91CF911F910F910895E5
:104820002F923F924F925F926F927F928F929F92C0
:10483000AF92BF92CF92DF92EF92FF920F931F93AE
:10484000CF93DF93CDB7DEB72D970FB6F894DEBFC9
:104850000FBECDBF3C017D876C875A01FC011782DA
:104860001682838181FFC8C12E010894411C511C0E
:10487000F3019381EC85FD8593FD859193FF8191F3
:10488000FD87EC87882309F4B3C1853241F493FD99
:10489000859193FF8191FD87EC87853229F490E023
:1048A000B3010E942D26E4CFFF24EE2410E0103245
:1048B000B0F48B3269F08C3228F4803251F08332BC
:1048C00071F40BC08D3239F0803349F411602CC083
:1048D0001260146029C0186027C0106125C017FD40
:1048E0002EC0282F20532A3098F416FF08C08F2D91
:1048F000880FF82EFF0CFF0CF80EF20E15C08E2D4F
:10490000880FE82EEE0CEE0CE80EE20E10620CC0E2
:104910008E3221F416FD6CC1106406C08C3611F481
:10492000106802C0883659F4EC85FD8593FD8591A9
:1049300093FF8191FD87EC87882309F0B8CF982FEA
:104940009554933018F09052933038F424E030E0CE
:10495000A20EB31E3FE339830FC0833631F0833795
:1049600081F0833509F05AC022C0F5018081898326
:1049700022E030E0A20EB31E21E0C22ED12C420173
:1049800014C092E0292E312C2A0C3B1CF5018080AA
:10499000918016FF03C06F2D70E002C06FEF7FEFB4
:1049A000C4010E9422266C0151011F7715C082E0CC
:1049B000282E312C2A0C3B1CF5018080918016FF9B
:1049C00003C06F2D70E002C06FEF7FEFC4010E9443
:1049D00017266C011068510113FD1CC006C080E24F
:1049E00090E0B3010E942D26EA948E2D90E0C81627
:1049F000D906A8F30FC0F40117FD859117FF819127
:104A00004F0190E0B3010E942D26E110EA94089432
:104A1000C108D108C114D10471F7E7C0843611F080
:104A2000893651F5F50117FF07C080819181A28178
:104A3000B38124E030E008C080819181AA2797FDEE
:104A4000A095BA2F22E030E0A20EB31E012F0F7600
:104A5000B7FF08C0B095A095909581959F4FAF4F37
:104A6000BF4F0068BC01CD01A2012AE030E00E94E6
:104A70005926D82ED4183FC0853721F41F7E2AE04E
:104A800030E020C0197F8F36A9F0803720F48835B8
:104A900009F0AEC00BC0803721F0883709F0A8C0FC
:104AA00001C0106114FF09C0146007C014FF08C0E2
:104AB000166006C028E030E005C020E130E002C00A
:104AC00020E132E0F50117FF07C06081718182812A
:104AD000938144E050E006C06081718180E090E005
:104AE00042E050E0A40EB51EA2010E945926D82E25
:104AF000D418012F0F7706FF09C00E7FDF1430F4A2
:104B000004FF06C002FD04C00F7E02C01D2D01C0BF
:104B10001F2D802F90E004FF0CC0FE01ED0DF11D54
:104B20002081203311F4097E09C002FF06C01E5FF8
:104B300005C086789070009709F01F5F802E992439
:104B400003FD12C000FF0DC0FD2C1E1550F4FE0C1D
:104B5000F11A1E2D06C080E290E0B3010E942D26BE
:104B60001F5F1E15C0F304C01E1510F4E11A01C02A
:104B7000EE2484FE0FC080E390E0B3010E942D2656
:104B800082FE1FC081FE03C088E590E010C088E768
:104B900090E00DC0C40186789070009791F081FC80
:104BA00002C080E201C08BE207FD8DE290E0B3011C
:104BB0000E942D2606C080E390E0B3010E942D26BE
:104BC000FA94DF14C0F3DA94F201ED0DF11D808147
:104BD00090E0B3010E942D26DD20A9F706C080E2F7
:104BE00090E0B3010E942D26EA94EE20C1F740CE5A
:104BF000F3018681978102C08FEF9FEF2D960FB64C
:104C0000F894DEBF0FBECDBFDF91CF911F910F9102
:104C1000FF90EF90DF90CF90BF90AF909F908F90DC
:104C20007F906F905F904F903F902F900895FC0180
:104C30000590615070400110D8F7809590958E0FC7
:104C40009F1F0895FC016150704001900110D8F73A
:104C5000809590958E0F9F1F08950F931F93CF936C
:104C6000DF938C01EB018B8181FF1BC082FF0DC0A4
:104C70002E813F818C819D812817390764F4E8815A
:104C8000F9810193F983E88306C0E885F985802FCF
:104C90000995009731F48E819F8101969F838E83C1
:104CA00002C00FEF1FEFC801DF91CF911F910F914D
:104CB0000895FA01AA27283051F1203181F1E894B2
:104CC0006F936E7F6E5F7F4F8F4F9F4FAF4FB1E0FF
:104CD0003ED0B4E03CD0670F781F891F9A1FA11DFA
:104CE000680F791F8A1F911DA11D6A0F711D811DFB
:104CF000911DA11D20D009F468943F912AE0269FC0
:104D000011243019305D3193DEF6CF010895462F1E
:104D10004770405D4193B3E00FD0C9F7F6CF462FFF
:104D20004F70405D4A3318F0495D31FD4052419368
:104D300002D0A9F7EACFB4E0A69597958795779525
:104D40006795BA95C9F700976105710508959B01AC
:104D5000AC010A2E06945795479537952795BA9535
:104D6000C9F7620F731F841F951FA01D0895F89443
:024D7000FFCF73
:104D7200100F0E0D0C0906030A0805020B070401A9
:104D82000E0D0B070C12120C000000000C1204088E
:104D92001E0000000A15110A040000000305090B99
:104DA2000B1818001F0E0E0404040404010105056B
:104DB200151515000E11111F1F1F1F000000000006
:104DC2000000000000E8E8F0F0E2C1C2C2C2C66919
:104DD2006E666F0D0A005354415455533A202530E4
:104DE20032580D0A00434F4E4649473A2025303289
:104DF200580D0A0052465F43483A20253032580D7A
:104E02000A0052465F53455455503A2025303258D5
:104E12000D0A00454E5F41413A20253032580D0AB5
:104E220000454E5F5258414444523A202530325890
:104E32000D0A004F4253455256455F54583A2025B9
:104E42003032580D0A000D0A00E8E8F0F0E2C1C263
:104E5200C2C2C2C1C2C2C2C3C1C2C2C2C4C1C2C230
:104E6200C2C5C1C2C2C2C6E8E8F0F0E257616974C5
:104E720074696E672E2E2E00412E4F726465722069
:104E82002020422E44656C00432E48656C70202021
:104E92002020442E42696C6C004469736820436F81
:104EA20064653A005F205F205F2020202020232EAF
:104EB2004E65787400416D6F756E743A005F205FC5
:104EC20020202020202020232E4E65787400466961
:104ED2006E697368204F72646572696E673F002A5B
:104EE2002E4E6F20202020202020232E5965730073
:104EF2004F7264657220746869733F0053656E6413
:104F0200206661696C210050726F636565643F00C1
:104F120053656E64696E672E2E2E00000012032008
:024F220000008D
:00000001FF
