:100000000C94B2000C94D1000C94D1000C94D1004B
:100010000C94D1000C94D1000C94D1000C94D1001C
:100020000C94D1000C94D1000C94D1000C94D1000C
:100030000C94D1000C94D1000C94D1000C94D100FC
:100040000C94D9030C94D1000C94D1000C94D100E1
:100050000C94D1000C94D1000C94D1000C94D100DC
:100060000C94D1000C94D1000C94D1000C94D100CC
:100070000C94D1000C94D1000C94D1000C94D100BC
:100080000C94D1000C94D1000C94D1002208F108FA
:100090002908300837083E0845084C08F10853087D
:1000A0005A0861086808F1086F0876087D08840816
:1000B0008F0896089D08A408F108AB08B208BD088F
:1000C000C408F108CB08D208D908E008EB083D09BC
:1000D00039177409A309D0093917DA09570AD40A5C
:1000E000030CC00C3D0DEC0EA80F23109510BA1098
:1000F000391708117B1100125912CB1229134E1314
:100100006F1339179013E9135114E814391739157F
:10011000A8151E167316E11683178A1791179917DB
:10012000A017A717B017BA17C317CC17D517DE1724
:10013000E717F017F91702180B1814181D182718CD
:100140003018391842184B1854185D1866186F1873
:10015000791882188B1893189B18A418AC18B41827
:10016000BC18C41811241FBECFEFD0E1DEBFCDBF35
:1001700012E0A0E0B1E0EEEAFDE300E00BBF02C058
:1001800007900D92AA37B107D9F712E0AAE7B2E0BB
:1001900001C01D92AA3DB107E1F70E94B9030C947A
:1001A000D51E0C940000AF92BF92CF92DF92EF92D7
:1001B000FF920F931F93CF93DF9320E030E041E055
:1001C00050E0E2E6F0E0A0E1B1E00F2EF1E1AF2E69
:1001D000F1E0BF2EF02D02E111E00F2EF3E1EF2E42
:1001E000F1E0FF2EF02DB901C90104966A0102C0A9
:1001F000CC0CDD1C8A95E2F7C6018095808383E0F4
:100200008A95F1F7000080B18F708F3029F19C91B1
:100210009817A9F0E5019881981759F0E80198819D
:10022000981751F0E70198819817B1F4E3E0F0E0F6
:1002300008C0E1E0F0E005C0E2E0F0E002C0E0E08C
:10024000F0E0EE0FFF1FEE0FFF1F6E0F7F1FFB0191
:10025000E050FF4F808106C02F5F3F4F24303105B3
:1002600011F680E0DF91CF911F910F91FF90EF90F9
:10027000DF90CF90BF90AF90089580EF80936100A2
:100280008FE08093620008958FEC97E00197F1F77B
:1002900000C000000895282F22952F708F706623CC
:1002A00011F4D89801C0D89AD99A9BB3220F220F83
:1002B000937C922B9BBBD998D99A9BB3880F880FBC
:1002C000937C892B8BBBD9980E94440108950F938E
:1002D0001F93CF93DF938C01FC018081882309F168
:1002E0008532A9F4E8012196F80181818053883094
:1002F00020F461E00E944B010EC085E261E00E94A3
:100300004B01F801818161E00E944B0104C061E072
:100310000E944B01E8018E010F5F1F4F89818823E6
:10032000F9F6DF91CF911F910F910895EF92FF920F
:100330000F931F93CF93DF9300D000D00F92CDB7D0
:10034000DEB77B01FE01319625E0DF011D922A9583
:10035000E9F7009761F0FE0136962AE030E0B90136
:100360000E94A91A8293862F972F0097C1F7BFEF9B
:10037000EB16BFEFFB0669F42981222379F4FE0115
:10038000329600E010E00F5F1F4F21912223D9F336
:1003900007C005E010E00E191F0902C000E010E0E0
:1003A000992324F48DE261E00E944B010530110590
:1003B000BCF4E1E0F0E0EC0FFD1F0E0F1F1F0F2E4D
:1003C000F6E0EF2EFF24F02DEC0EFD1ED8018D91EE
:1003D0008D01805D61E00E944B010E151F05B1F794
:1003E0000F900F900F900F900F90DF91CF911F9172
:1003F0000F91FF90EF900895843178F4623031F0DE
:10040000633031F0613029F4806403C08C5E01C038
:100410008C5A806860E00E944B0108950F931F93EF
:10042000CF93DF93C82F8BE49DE10197F1F700C0D4
:1004300000008AB38C638ABBD19AD09A8BB3837C39
:100440008BBBD998D898D99ADB9AD9980E94440145
:100450008C2F8C6060E00E944B0188E260E00E947B
:100460004B0180E460E00E944B01C4E1D1E004E56F
:1004700011E0899161E00E944B01C017D107C9F7D3
:1004800080E060E00E94FC01DF91CF911F910F910D
:1004900008950E94D300682F70E080E090E00895F6
:1004A0000E943D0108950E94670108950F93CF9324
:1004B000DF93EC01842F602F0E94FC01CE010E948B
:1004C0006701DF91CF910F9108954F925F926F92E4
:1004D0007F92AF92BF92CF92DF92EF92FF922B0169
:1004E0003C01822F6E2D760165010E94FC01C20144
:1004F000B6010E949601FF90EF90DF90CF90BF90E1
:10050000AF907F906F905F904F90089581E060E092
:100510000E944B0182E060E00E944B01089580E060
:100520000E940E0208950F931F93CF93DF930F92B3
:10053000CDB7DEB71982CE0101960E9479068823D5
:1005400099F08981882399F4ECE7F2E0CF010996CC
:100550001192E817F907E1F70CE712E080E0B80123
:100560000E948B06C80105C084E591E002C084E5C5
:1005700091E00F90DF91CF911F910F910895CF934C
:10058000DF939C01C7E8D2E080E090E0A22FB32F78
:10059000FD0101900020E9F73197EA1BFB0B8E1754
:1005A0009F0730F4F901E80FF91F4081488301C02B
:1005B0001882019621968930910541F785E591E0F1
:1005C0000E94E90487E892E00E94B106982FEFECC0
:1005D000F7E03197F1F700C0000081E0913009F0B9
:1005E00080E0DF91CF910895E7E8F2E0CF0109962E
:1005F00021E02193E817F907E1F78AE591E00E94ED
:10060000E90487E892E00E94B106982FEFECF7E04A
:100610003197F1F700C0000081E0913009F080E0EF
:1006200008950F931F93CF93DF930F92CDB7DEB74B
:100630001982CE0101960E9479068823F1F0898102
:100640008530E9F4ECE7F2E08F01075F1F4F11926C
:10065000E017F107E1F785E06CE772E00E948B0696
:1006600080917C02813069F4EDE7F2E08191813084
:1006700051F4E017F107D1F707C080E005C080E032
:1006800003C080E001C080E00F90DF91CF911F9107
:100690000F910895AF92EF92822FE7E8F2E0AF0159
:1006A000475F5F4F1192E417F507E1F7605D6093D4
:1006B00087023AE0632F0E949D1A905D9093890211
:1006C0000E949D1A905D909388028E2D0E949D1A23
:1006D000905D90938C020E949D1A905D90938B0286
:1006E0000E949D1A905D90938A028A2D0E949D1A05
:1006F000905D90938E020E949D1A905D90938D0262
:1007000085E591E00E94E90487E892E00E94B10645
:10071000982FEFECF7E03197F1F700C0000081E08F
:10072000913009F080E0EF90AF900895822FE7E8D4
:10073000F2E0AF01475F5F4F1192E417F507E1F771
:10074000605D609387023AE0632F0E949D1A905D7E
:10075000909389020E949D1A905D9093880208955B
:100760000E94A81908950E94F41908950E9407078D
:1007700008958FE084BB85BB82E090E00E94D01A90
:1007800080938502909386020E949C198091850235
:10079000909186020E94C607809185029091860200
:1007A0000E94CD0780918502909186020E94F408F4
:1007B000F9CF1F920F920FB60F920BB60F92112422
:1007C0002F933F934F935F936F937F938F939F9359
:1007D000AF93BF93EF93FF9383E882BF809185022D
:1007E000909186020E942A1AFF91EF91BF91AF91DA
:1007F0009F918F917F916F915F914F913F912F9139
:100800000F900BBE0F900FBE0F901F901895AE98D3
:100810008F710E9497198FEF0E949719AE9A0895D1
:10082000FF920F931F93CF93DF93062FF72E142F72
:10083000AE988F710E949719112351F0C02FDF2DB0
:1008400000E08FEF0E94971989930F5F0117C9F796
:10085000AE9ADF91CF911F910F91FF900895CF93A2
:10086000C62FAE988F7180620E9497198C2F0E94BC
:100870009719AE9ACF910895FF920F931F93CF933C
:10088000DF93062FF72E142FAE988F7180620E948F
:100890009719112349F0C02FDF2D00E089910E94A4
:1008A00097190F5F0117D1F7AE9ADF91CF911F9182
:1008B0000F91FF90089520E030E00496DB01A20F35
:1008C000B31FFC01E21BF30B40814C932F5F3F4FA2
:1008D0002530310599F70895CF93DF9300D000D0EC
:1008E0000F92CDB7DEB78823B1F4A9EDB1E0FB01DB
:1008F00085E001900D928150E1F7CB01BE016F5F61
:100900007F4F0E945B048AE0BE016F5F7F4F45E02E
:100910000E943C0456C08130B1F4AEEDB1E0FB0161
:1009200085E001900D928150E1F7CB01BE016F5F30
:100930007F4F0E945B048BE0BE016F5F7F4F45E0FD
:100940000E943C043EC0823071F4A3EEB1E0FB0192
:1009500085E001900D928150E1F78CE0FB0164810C
:100960000E942F042EC0833071F4A8EEB1E0FB0189
:1009700085E001900D928150E1F78DE0FB016481EB
:100980000E942F041EC0843071F4ADEEB1E0FB0173
:1009900085E001900D928150E1F78EE0FB016481CA
:1009A0000E942F040EC0853061F4A2EFB1E0FB017C
:1009B00001900D928150E1F78FE0FB0164810E946C
:1009C0002F040F900F900F900F900F90DF91CF9109
:1009D0000895CF93DF9300D000D00F92CDB7DEB74C
:1009E000A7EFB1E0E82FF92F25E001900D922150FB
:1009F000E1F7BE016F5F7F4F0E945B048AE0BE019A
:100A00006F5F7F4F45E00E943C0480E1BE016F5F55
:100A10007F4F45E00E943C040F900F900F900F9085
:100A20000F90DF91CF910895AE9882EE0E949719B2
:100A3000AE9A0895AE9881EE0E949719AE9A0895E5
:100A400080E069ED71E00E946C0480E00E94070480
:100A5000682F616080E00E942F0480E00E940704FC
:100A6000682F626080E00E942F0487E060E70E94A8
:100A70002F040E9414050E941A05AF9A82E38A95FA
:100A8000F1F70895AF9880E00E940704682F6E7F09
:100A900080E00E942F0480E00E940704682F6260BB
:100AA00080E00E942F0487E060E70E942F040E94EC
:100AB0001A0582E38A95F1F70895AE988FEF0E94A8
:100AC0009719AE9A0895EF92FF920F931F93CF93C9
:100AD000DF93CDB7DEB7C456D0400FB6F894DEBF73
:100AE0000FBECDBF7C018FE591E0F70109950E9413
:100AF0005D0500D000D000D0EDB7FEB731968E0175
:100B00000F5F1F4FADB7BEB712961C930E93119790
:100B100026E631E033832283848315820E94FF1B03
:100B20008DB79EB706960FB6F8949EBF0FBE8DBFC9
:100B3000C801F701099580E00E94070400D000D0A9
:100B400000D0EDB7FEB73196ADB7BEB712961C9385
:100B50000E93119725E731E0338322838483158236
:100B60000E94FF1B8DB79EB706960FB6F8949EBFE6
:100B70000FBE8DBFC801F701099585E00E940704EB
:100B800000D000D000D0EDB7FEB73196ADB7BEB7FC
:100B900012961C930E93119724E831E0338322833D
:100BA000848315820E94FF1B8DB79EB706960FB6F1
:100BB000F8949EBF0FBE8DBFC801F701099586E06E
:100BC0000E94070400D000D000D0EDB7FEB73196E8
:100BD000ADB7BEB712961C930E93119722E931E080
:100BE00033832283848315820E94FF1B8DB79EB7B7
:100BF00006960FB6F8949EBF0FBE8DBFC801F701D1
:100C0000099581E00E94070400D000D000D0EDB724
:100C1000FEB73196ADB7BEB712961C930E931197DF
:100C200023EA31E033832283848315820E94FF1BF1
:100C30008DB79EB706960FB6F8949EBF0FBE8DBFB8
:100C4000C801F701099582E00E94070400D000D096
:100C500000D0EDB7FEB73196ADB7BEB712961C9374
:100C60000E93119721EB31E0338322838483158225
:100C70000E94FF1B8DB79EB706960FB6F8949EBFD5
:100C80000FBE8DBFC801F701099588E00E940704D7
:100C900000D000D000D0EDB7FEB73196ADB7BEB7EB
:100CA00012961C930E93119723EC31E03383228329
:100CB000848315820E94FF1B8DB79EB706960FB6E0
:100CC000F8949EBF0FBE8DBFC801F701099586ED50
:100CD00091E0F7010995CC59DF4F0FB6F894DEBFCC
:100CE0000FBECDBFDF91CF911F910F91FF90EF907D
:100CF0000895CF93DF93EC010E945D05982F9074C7
:100D000086FF05C0209719F0869587708883892F04
:100D1000DF91CF9108950F931F93CF93DF93062F09
:100D2000172FAE9881E60E949719C02FD12F10E09F
:100D30008FEF0E94971989931F5F1930C9F7AE9AF8
:100D400087E060E40E942F040E945D0585FF04C0D7
:100D500087E060E20E942F04DF91CF911F910F91F5
:100D600008950F931F93CF93DF93082F192F0E949D
:100D70004205AE9880EA0E949719C02FD12F19E042
:100D800089910E9497191150D9F7AE9AAF9A85E0D0
:100D90008A95F1F7AF9883E08A95F1F700000E94F9
:100DA0005D058073C1F30E945D05C82F85E06CE48A
:100DB0000E942F0480E00E940704682F6D7F80E06E
:100DC0000E942F040E94200581E0C5FF80E0DF9192
:100DD000CF911F910F91089586E00E940704682F1C
:100DE000666086E00E942F04089586E00E94070452
:100DF000682F677D86E00E942F04089580E00E949E
:100E00000704682F6C6080E00E942F040895A69A62
:100E1000A79A0E948C19AF98AE9A81EE94E0019740
:100E2000F1F700C000000E94EC060E94F5060E9447
:100E3000FE0684E067E40E942F048CE160E00E94DB
:100E40002F0485E06CE40E942F0481E169E00E9498
:100E50002F0482E169E00E942F0483E169E00E948F
:100E60002F0484E169E00E942F0485E169E00E947B
:100E70002F0486E169E00E942F0482E060E00E9476
:100E80002F0482E00E940704682F616082E00E94C4
:100E90002F0482E00E940704682F626082E00E94B3
:100EA0002F0482E00E940704682F646082E00E94A1
:100EB0002F0482E00E940704682F686082E00E948D
:100EC0002F0482E00E940704682F606182E00E9484
:100ED0002F0482E00E940704682F606282E00E9473
:100EE0002F0481E00E940704682F616081E00E9466
:100EF0002F0481E00E940704682F626081E00E9455
:100F00002F0481E00E940704682F646081E00E9442
:100F10002F0481E00E940704682F686081E00E942E
:100F20002F0481E00E940704682F606181E00E9425
:100F30002F0481E00E940704682F606281E00E9414
:100F40002F0480E069ED71E00E946C0481E06EED99
:100F500071E00E946C0482E063EE71E00E946C0418
:100F600083E068EE71E00E946C0484E06DEE71E055
:100F70000E946C0485E062EF71E00E946C0487EFD0
:100F800091E00E94E9040E9420050895FC0186E298
:100F9000808381831382128208951F93CF93DF93FE
:100FA000EC0111E01DA7CC9648EB5BE060E070E03F
:100FB00020E00E94B00381E090E0A0E0B0E08AABC6
:100FC0009BABACABBDAB0E948F020E9450020E9453
:100FD000B6030E9486028CEF91E00E9453021883B0
:100FE0001B821A82DF91CF911F910895CF93DF93D7
:100FF000EC018881833069F0843081F0813091F494
:1010000086E288831B821A82CE01CC960E94B303AB
:1010100009C086E288831B821A8204C086E2888324
:101020001B821A82898190E005978132910508F030
:10103000D8C08A5B9F4FFC01EE0FFF1F0590F49113
:10104000E02D099486E2898381E090E09B838A8386
:10105000C8C086E2898381E090E09B838A83C1C017
:1010600086E2898381E090E09B838A83BAC086E22E
:10107000898381E090E09B838A83B3C086E2898381
:1010800081E090E09B838A83ACC086E2898381E023
:1010900090E09B838A83A5C086E2898381E090E00B
:1010A0009B838A839EC086E2898381E090E09B8354
:1010B0008A8397C086E2898381E090E09B838A835C
:1010C00090C086E2898381E090E09B838A8389C017
:1010D00086E2898381E090E09B838A8382C086E2F6
:1010E000898381E090E09B838A837BC086E2898349
:1010F00081E090E09B838A8374C086E2898381E0EB
:1011000090E09B838A836DC086E2898381E090E0D2
:101110009B838A83CE01CD960E94B30362C086E290
:10112000898381E090E09B838A835BC086E2898328
:1011300081E090E09B838A8354C086E2898381E0CA
:1011400090E09B838A834DC086E2898381E090E0B2
:101150009B838A8346C086E2898381E090E09B83FB
:101160008A833FC086E2898381E090E09B838A8303
:10117000CE01CE960E94B30334C086E2898381E01B
:1011800090E09B838A832DC086E2898381E090E092
:101190009B838A8326C086E2898381E090E09B83DB
:1011A0008A831FC086E2898381E090E09B838A83E3
:1011B00018C086E2898381E090E09B838A8311C016
:1011C00086E2898381E090E09B838A83CE01CF967B
:1011D0000E94B30306C086E2898381E090E09B838E
:1011E0008A83DF91CF9108952F923F924F925F9221
:1011F0006F927F928F929F92AF92BF92CF92DF9227
:10120000EF92FF920F931F93CF93DF93EC011B821A
:101210001A8280E090E001E010E00F2EF3E23F2E12
:10122000F02D0F2EFEE12F2EF02DCC24DD247601A3
:101230006894C2F80F2EF3E04F2EF0E05F2EF0E03E
:101240006F2EF0E07F2EF02D882499245401839492
:101250008C0F9D1FDC01EC918E2F90E0FC013197EB
:10126000E532F10510F00C943917E959FF4FEE0FF4
:10127000FF1F0590F491E02D09948CAD882311F4A3
:101280000C94391786E288831B821A82CE01CC9691
:101290000E94B3030E944902DC01CB018C839D8331
:1012A000AE83BF831C8683E088831B821A820E94E0
:1012B000860288E092E00E94530286E192E040E0DC
:1012C00050E0BA0101E010E020E030E00E94560258
:1012D0001EA61FA618AA19AA85E0898381E090E0BE
:1012E0009B838A830C9462178C819D81AE81BF8120
:1012F0000097A105B105C1F026E228831B821A825E
:1013000088879987AA87BB870E944902DC01CB01A5
:101310008C839D83AE83BF8381E08C8784E0888348
:101320001B821A820C945B170E944902DC01CB01DC
:101330008C839D83AE83BF831C8683E088831B825E
:101340001A820C945B178C819D81AE81BF810097BE
:10135000A105B105A9F486E288831B821A8281E087
:101360008D870E944902DC01CB018C839D83AE8373
:10137000BF831C8683E088831B821A820C945B17D0
:101380000E944902DC01CB018C839D83AE83BF8325
:1013900081E08C8784E088831B821A820C945B171F
:1013A0001B830A83188619861A861B8681E1898326
:1013B0000C9439178EA59FA5A8A9B9A90097A105D6
:1013C000B10509F06AC089818A3041F18B3040F45F
:1013D0008830B1F08930D8F4873009F041C009C0B5
:1013E0008C3051F18C3008F18E3069F18F30C1F5BD
:1013F00031C086E2898381E090E09B838A8330C09C
:1014000086E2898381E090E09B838A8329C086E21B
:10141000898381E090E09B838A8322C086E289836E
:1014200081E090E09B838A831BC086E2898381E010
:1014300090E09B838A8314C086E2898381E090E0F8
:101440009B838A830DC086E2898381E090E09B8341
:101450008A8306C086E2898381E090E09B838A8349
:101460000E94860288E092E00E94530286E192E0A8
:1014700040E050E0BA0101E010E020E030E00E94DE
:1014800056021EA61FA618AA19AA85E0898381E024
:1014900090E09B838A830C9462171B830A831886CF
:1014A00019861A861B8689E089830C9439178EA5C4
:1014B0009FA5A8A9B9A90097A105B10509F06AC01F
:1014C00089818A3041F18B3040F48830B1F0893025
:1014D000D8F4873009F041C009C08C3051F18C300C
:1014E00008F18E3069F18F30C1F531C086E2898311
:1014F00081E090E09B838A8330C086E2898381E02B
:1015000090E09B838A8329C086E2898381E090E012
:101510009B838A8322C086E2898381E090E09B835B
:101520008A831BC086E2898381E090E09B838A8363
:1015300014C086E2898381E090E09B838A830DC09A
:1015400086E2898381E090E09B838A8306C086E2FD
:10155000898381E090E09B838A830E94860288E0F1
:1015600092E00E94530286E192E040E050E0BA012E
:1015700001E010E020E030E00E9456021EA61FA607
:1015800018AA19AA85E0898381E090E09B838A8369
:101590000C9462171B830A83188619861A861B8689
:1015A00089E089830C9439178EA59FA5A8A9B9A9AC
:1015B0000097A105B10509F06AC089818A3041F11F
:1015C0008B3040F48830B1F08930D8F4873009F09E
:1015D00041C009C08C3051F18C3008F18E3069F176
:1015E0008F30C1F531C086E2898381E090E09B8332
:1015F0008A8330C086E2898381E090E09B838A837E
:1016000029C086E2898381E090E09B838A8322C09F
:1016100086E2898381E090E09B838A831BC086E217
:10162000898381E090E09B838A8314C086E289836A
:1016300081E090E09B838A830DC086E2898381E00C
:1016400090E09B838A8306C086E2898381E090E0F4
:101650009B838A830E94860288E092E00E94530264
:1016600086E192E040E050E0BA0101E010E020E0C5
:1016700030E00E9456021EA61FA618AA19AA85E0ED
:10168000898381E090E09B838A830C94621789A50B
:101690009AA5ABA5BCA583309105A105B1050CF0B9
:1016A0006AC0488559856A857B854A305105610540
:1016B00071050CF04EC014161506160617060CF030
:1016C00048C02D85222309F444C06A017B0126E22B
:1016D00029838824992483949B828A829C01AD016A
:1016E000220F331F441F551FC701B601EE24FF24EC
:1016F0008701E394AA24BB246501A3940E94650298
:1017000089A59AA5ABA5BCA50196A11DB11D89A768
:101710009AA7ABA7BCA769A17AA18BA19CA12AE03B
:1017200030E040E050E00E947E1AAB01BC018885A9
:101730009985AA85BB85840F951FA61FB71F89A30E
:101740009AA3ABA3BCA388E089839B828A820C9472
:1017500062174A3051056105710569F48D8588234A
:1017600051F01B830A83188619861A861B868AE025
:1017700089830C94391788859985AA85BB858C3017
:101780009105A105B10549F52D85222331F186E2A8
:101790008983EE24FF24E394FB82EA820E9486027E
:1017A00082E292E00E94530282E392E040E050E045
:1017B000BA0101E010E020E030E00E94560219A6D4
:1017C0001AA61BA61CA619A21AA21BA21CA287E07D
:1017D0008983FB82EA820C94621780319105A1050E
:1017E000B10511F00C9439178D85882311F40C94F0
:1017F00039171B830A831EA61FA618AA19AA8FE0F1
:1018000089830C9439178EA59FA5A8A9B9A900971B
:10181000A105B10509F06AC089818A3041F18B3098
:1018200040F48830B1F08930D8F4873009F041C0F5
:1018300009C08C3051F18C3008F18E3069F18F3055
:10184000C1F531C086E2898381E090E09B838A8381
:1018500030C086E2898381E090E09B838A8329C03F
:1018600086E2898381E090E09B838A8322C086E2BE
:10187000898381E090E09B838A831BC086E2898311
:1018800081E090E09B838A8314C086E2898381E0B3
:1018900090E09B838A830DC086E2898381E090E09B
:1018A0009B838A8306C086E2898381E090E09B83E4
:1018B0008A830E94860288E092E00E94530286E1B9
:1018C00092E040E050E0BA0101E010E020E030E0BA
:1018D0000E9456021EA61FA618AA19AA85E089838F
:1018E00081E090E09B838A830C94621786E289836F
:1018F0008824992483949B828A82C884D984EA8428
:10190000FB8489A59AA5ABA5BCA59C01AD01220FBE
:10191000331F441F551FC701B601EE24FF24870162
:10192000E394AA24BB246501A3940E94650289A5BF
:101930009AA5ABA5BCA50196A11DB11D89A79AA723
:10194000ABA7BCA769A17AA18BA19CA12AE030E03A
:1019500040E050E00E947E1AAB01BC018885998569
:10196000AA85BB85840F951FA61FB71F89A39AA3BD
:10197000ABA3BCA388E089839B828A820C94621704
:101980008EA59FA5A8A9B9A90097A105B10509F041
:101990006AC089818A3041F18B3040F48830B1F0DF
:1019A0008930D8F4873009F041C009C08C3051F13A
:1019B0008C3008F18E3069F18F30C1F531C086E28C
:1019C000898381E090E09B838A8330C086E28983AB
:1019D00081E090E09B838A8329C086E2898381E04D
:1019E00090E09B838A8322C086E2898381E090E035
:1019F0009B838A831BC086E2898381E090E09B837E
:101A00008A8314C086E2898381E090E09B838A8385
:101A10000DC086E2898381E090E09B838A8306C0C3
:101A200086E2898381E090E09B838A830E9486021C
:101A300088E092E00E94530286E192E040E050E0AC
:101A4000BA0101E010E020E030E00E9456021EA63C
:101A50001FA618AA19AA85E0898381E090E09B83DC
:101A60008A830C9462171B830A83188619861A8648
:101A70001B868CE089830C9439178EA59FA5A8A995
:101A8000B9A90097A105B10509F06AC089818A301A
:101A900041F18B3040F48830B1F08930D8F4873090
:101AA00009F041C009C08C3051F18C3008F18E3002
:101AB00069F18F30C1F531C086E2898381E090E021
:101AC0009B838A8330C086E2898381E090E09B8398
:101AD0008A8329C086E2898381E090E09B838A83A0
:101AE00022C086E2898381E090E09B838A831BC0C9
:101AF00086E2898381E090E09B838A8314C086E23A
:101B0000898381E090E09B838A830DC086E289838C
:101B100081E090E09B838A8306C086E2898381E02E
:101B200090E09B838A830E94860288E092E00E9474
:101B3000530286E192E040E050E0BA0101E010E09B
:101B400020E030E00E9456021EA61FA618AA19AA7D
:101B500085E0898381E090E09B838A830C946217FF
:101B600089A59AA5ABA5BCA582309105A105B105B3
:101B70000CF06AC0488559856A857B854A305105D5
:101B80006105710569F42D85222351F01B830A83B9
:101B9000188619861A861B868DE089830C9439175E
:101BA0004A305105610571050CF04EC0141615063A
:101BB000160617060CF048C02D85222309F444C0F0
:101BC0006A017B0126E229838824992483949B82DD
:101BD0008A829C01AD01220F331F441F551FC7018C
:101BE000B601EE24FF248701E394AA24BB246501F7
:101BF000A3940E94650289A59AA5ABA5BCA50196F0
:101C0000A11DB11D89A79AA7ABA7BCA76DA17EA1F5
:101C10008FA198A52AE030E040E050E00E947E1AB3
:101C2000AB01BC0188859985AA85BB85840F951F6A
:101C3000A61FB71F8DA39EA3AFA3B8A78EE089836D
:101C40009B828A820C94621788859985AA85BB85B8
:101C50008B309105A105B10549F52D85222331F180
:101C600086E28983EE24FF24E394FB82EA820E94C9
:101C7000860288E392E00E94530287E492E040E00B
:101C800050E0BA0101E010E020E030E00E9456028E
:101C900019A61AA61BA61CA61DA21EA21FA218A644
:101CA0008BE08983FB82EA820C9462178C30910569
:101CB000A105B10509F07AC02D85222309F476C06B
:101CC00089818A3041F18B3040F48830B1F089301D
:101CD000D8F4873009F041C009C08C3051F18C3004
:101CE00008F18E3069F18F30C1F531C086E2898309
:101CF00081E090E09B838A8330C086E2898381E023
:101D000090E09B838A8329C086E2898381E090E00A
:101D10009B838A8322C086E2898381E090E09B8353
:101D20008A831BC086E2898381E090E09B838A835B
:101D300014C086E2898381E090E09B838A830DC092
:101D400086E2898381E090E09B838A8306C086E2F5
:101D5000898381E090E09B838A831F8A888D998D97
:101D6000AA8DBB8D0196A11DB11D888F998FAA8F59
:101D7000BB8F6EA57FA588A999A92AA93BA94CA9C3
:101D80005DA9E9A0FAA00BA11CA18DA09EA0AFA007
:101D9000B8A4650154010E944A038F8B83E18983B3
:101DA00081E090E09B838A830C94621780319105D7
:101DB000A105B10511F00C9439178D85882311F414
:101DC0000C9439171B830A831EA61FA618AA19AAEA
:101DD0008FE089830C9439178EA59FA5A8A9B9A96E
:101DE0000097A105B10509F06AC089818A3041F1E7
:101DF0008B3040F48830B1F08930D8F4873009F066
:101E000041C009C08C3051F18C3008F18E3069F13D
:101E10008F30C1F531C086E2898381E090E09B83F9
:101E20008A8330C086E2898381E090E09B838A8345
:101E300029C086E2898381E090E09B838A8322C067
:101E400086E2898381E090E09B838A831BC086E2DF
:101E5000898381E090E09B838A8314C086E2898332
:101E600081E090E09B838A830DC086E2898381E0D4
:101E700090E09B838A8306C086E2898381E090E0BC
:101E80009B838A830E94860288E092E00E9453022C
:101E900086E192E040E050E0BA0101E010E020E08D
:101EA00030E00E9456021EA61FA618AA19AA85E0B5
:101EB000898381E090E09B838A830C94621786E299
:101EC00089838824992483949B828A82C884D984B4
:101ED000EA84FB8489A59AA5ABA5BCA59C01AD01AC
:101EE000220F331F441F551FC701B601EE24FF24E4
:101EF0008701E394AA24BB246501A3940E94650290
:101F000089A59AA5ABA5BCA50196A11DB11D89A760
:101F10009AA7ABA7BCA76DA17EA18FA198A52AE027
:101F200030E040E050E00E947E1AAB01BC018885A1
:101F30009985AA85BB85840F951FA61FB71F8DA302
:101F40009EA3AFA3B8A78EE089839B828A82BAC77B
:101F50008EA59FA5A8A9B9A90097A105B10509F06B
:101F600069C089818A3041F18B3040F48830B1F00A
:101F70008930D8F4873009F041C009C08C3051F164
:101F80008C3008F18E3069F18F30C1F531C086E2B6
:101F9000898381E090E09B838A8330C086E28983D5
:101FA00081E090E09B838A8329C086E2898381E077
:101FB00090E09B838A8322C086E2898381E090E05F
:101FC0009B838A831BC086E2898381E090E09B83A8
:101FD0008A8314C086E2898381E090E09B838A83B0
:101FE0000DC086E2898381E090E09B838A8306C0EE
:101FF00086E2898381E090E09B838A830E94860247
:1020000088E092E00E94530286E192E040E050E0D6
:10201000BA0101E010E020E030E00E9456021EA666
:102020001FA618AA19AA85E0898381E090E09B8306
:102030008A8348C71B830A83188619861A861B86DB
:102040008CE0898316C78EA59FA5A8A9B9A900977A
:10205000A105B10509F00DC789818A3041F18B30A6
:1020600040F48830B1F08930D8F4873009F041C0AD
:1020700009C08C3051F18C3008F18E3069F18F300D
:10208000C1F531C086E2898381E090E09B838A8339
:1020900030C086E2898381E090E09B838A8329C0F7
:1020A00086E2898381E090E09B838A8322C086E276
:1020B000898381E090E09B838A831BC086E28983C9
:1020C00081E090E09B838A8314C086E2898381E06B
:1020D00090E09B838A830DC086E2898381E090E053
:1020E0009B838A8306C086E2898381E090E09B839C
:1020F0008A830E94860288E092E00E94530286E171
:1021000092E040E050E0BA0101E010E020E030E071
:102110000E9456021EA61FA618AA19AA85E0898346
:1021200081E090E09B838A83CDC686E28983EE249A
:10213000FF24E394FB82EA820E94860282E292E01C
:102140000E94530282E392E040E050E0BA0101E0D5
:1021500010E020E030E00E94560219A61AA61BA645
:102160001CA619A21AA21BA21CA287E08983FB82CB
:10217000EA82A8C688859985AA85BB858D30910598
:10218000A105B10561F42D85222349F01B830A8343
:102190008EA69FA6A8AAB9AAB0E1B9836AC68E3056
:1021A0009105A105B10581F42D85222369F01B83DA
:1021B0000A8382E090E0A0E0B0E08EA79FA7A8ABE2
:1021C000B9AB98E1998355C68F309105A105B1054A
:1021D00061F42D85222349F01B830A834EA65FA656
:1021E00068AA79AAA9E1A98344C680319105A1050D
:1021F000B10509F03EC68D85882309F43AC61B83D4
:102200000A83CEA6DFA6E8AAF9AABAE1B98331C645
:102210008F89882309F455C089818531D1F08631B1
:1022200028F4833141F0843161F50CC08631C1F06E
:10223000873139F520C086E2898381E090E09B8375
:102240008A831FC086E2898381E090E09B838A8332
:1022500018C086E2898381E090E09B838A8311C065
:1022600086E2898381E090E09B838A83CE01CD96CC
:102270000E94B30306C086E2898381E090E09B83DD
:102280008A830E94860282E292E00E94530282E3E5
:1022900092E040E050E0BA0101E010E020E030E0E0
:1022A0000E94560219A61AA61BA61CA619A21AA2BB
:1022B0001BA21CA287E0898381E090E09B838A8334
:1022C00001C686E2898301E010E01B830A83CE0108
:1022D000CD9640ED57E060E070E020E00E94B00352
:1022E0000E9486028BE492E00E94530286E1898379
:1022F0001B830A83E7C58F89882309F455C0898128
:102300008531D1F0863128F4833141F0843161F593
:102310000CC08631C1F0873139F520C086E289834F
:1023200081E090E09B838A831FC086E2898381E0FD
:1023300090E09B838A8318C086E2898381E090E0E5
:102340009B838A8311C086E2898381E090E09B832E
:102350008A83CE01CD960E94B30306C086E28983AC
:1023600081E090E09B838A830E94860282E292E071
:102370000E94530282E392E040E050E0BA0101E0A3
:1023800010E020E030E00E94560219A61AA61BA613
:102390001CA619A21AA21BA21CA287E0898381E0B5
:1023A00090E09B838A838EC586E2898344245524EA
:1023B00043945B824A82888D998DAA8DBB8D01964C
:1023C000A11DB11D888F998FAA8FBB8F6EA57FA588
:1023D00088A999A92AA93BA94CA95DA9E9A0FAA0B5
:1023E0000BA11CA18DA09EA0AFA0B8A465015401B3
:1023F0000E944A038F8B83E189835B824A8262C594
:102400008F89882309F435C589818531D1F08631DA
:1024100028F4833141F0843161F50CC08631C1F07C
:10242000873139F520C086E2898381E090E09B8383
:102430008A831FC086E2898381E090E09B838A8340
:1024400018C086E2898381E090E09B838A8311C073
:1024500086E2898381E090E09B838A83CE01CD96DA
:102460000E94B30306C086E2898381E090E09B83EB
:102470008A830E94860282E292E00E94530282E3F3
:1024800092E040E050E0BA0101E010E020E030E0EE
:102490000E94560219A61AA61BA61CA619A21AA2C9
:1024A0001BA21CA287E0898381E090E09B838A8342
:1024B00009C58F89882309F455C089818531D1F0F8
:1024C000863128F4833141F0843161F50CC08631C6
:1024D000C1F0873139F520C086E2898381E090E040
:1024E0009B838A831FC086E2898381E090E09B837F
:1024F0008A8318C086E2898381E090E09B838A8387
:1025000011C086E2898381E090E09B838A83CE01BB
:10251000CD960E94B30306C086E2898381E090E0F5
:102520009B838A830E94860282E292E00E94530289
:1025300082E392E040E050E0BA0101E010E020E0E8
:1025400030E00E94560219A61AA61BA61CA619A2C4
:102550001AA21BA21CA287E0898381E090E09B83E2
:102560008A83B0C48DAD882309F483C486E289834D
:1025700001E010E01B830A83CE01CD960E94B303D5
:1025800081E08F8B188E198E1A8E1B8E87E18983BE
:102590001B830A8397C48F89882309F455C08981D6
:1025A0008531D1F0863128F4833141F0843161F5F1
:1025B0000CC08631C1F0873139F520C086E28983AD
:1025C00081E090E09B838A831FC086E2898381E05B
:1025D00090E09B838A8318C086E2898381E090E043
:1025E0009B838A8311C086E2898381E090E09B838C
:1025F0008A83CE01CD960E94B30306C086E289830A
:1026000081E090E09B838A830E94860282E292E0CE
:102610000E94530282E392E040E050E0BA0101E000
:1026200010E020E030E00E94560219A61AA61BA670
:102630001CA619A21AA21BA21CA287E0898381E012
:1026400090E09B838A833EC41B830A8385E1898350
:1026500010C486E28983EE24FF24E394FB82EA829D
:102660000E94860282E292E00E94530282E392E09C
:1026700040E050E0BA0101E010E020E030E00E94CC
:10268000560219A61AA61BA61CA619A21AA21BA2BC
:102690001CA287E08983FB82EA8214C486E28983D4
:1026A000EE24FF24E394FB82EA820E94860285E501
:1026B00092E00E9453028EE592E040E050E0BA01C1
:1026C00001E010E020E030E00E9456021EAA1FAA9E
:1026D00018AE19AE8CE18983FB82EA82F3C386E2ED
:1026E0008983EE24FF24E394FB82EA820E9486021F
:1026F00085E592E00E9453028EE592E040E050E0D2
:10270000BA0101E010E020E030E00E9456021EAA6B
:102710001FAA18AE19AE8CE18983FB82EA82D2C36C
:102720008EA59FA5A8A9B9A90097A105B10509F093
:1027300048C089818D3189F08E3118F48C3129F5AA
:1027400005C08E31A9F08F3101F519C086E2898369
:1027500081E090E09B838A8318C086E2898381E0D0
:1027600090E09B838A83CE01CE960E94B3030DC076
:1027700086E2898381E090E09B838A8306C086E2BB
:10278000898381E090E09B838A830E94860288E0AF
:1027900092E00E94530286E192E040E050E0BA01EC
:1027A00001E010E020E030E00E9456021EA61FA6C5
:1027B00018AA19AA85E0898381E090E09B838A8327
:1027C00081C31B830A83188619861A861B86298271
:1027D00050C38EA59FA5A8A9B9A90097A105B105C9
:1027E00009F048C089818D3189F08E3118F48C311F
:1027F00029F505C08E31A9F08F3101F519C086E2A7
:10280000898381E090E09B838A8318C086E2898374
:1028100081E090E09B838A83CE01CE960E94B30331
:102820000DC086E2898381E090E09B838A8306C0A5
:1028300086E2898381E090E09B838A830E948602FE
:1028400088E092E00E94530286E192E040E050E08E
:10285000BA0101E010E020E030E00E9456021EA61E
:102860001FA618AA19AA85E0898381E090E09B83BE
:102870008A8328C38EAD882309F4FBC286E289834C
:1028800001E010E01B830A83CE01CE960E94B303C1
:10289000188619861A861B868EE189831B830A8314
:1028A00011C38EA59FA5A8A9B9A90097A105B10537
:1028B00009F048C089818D3189F08E3118F48C314E
:1028C00029F505C08E31A9F08F3101F519C086E2D6
:1028D000898381E090E09B838A8318C086E28983A4
:1028E00081E090E09B838A83CE01CE960E94B30361
:1028F0000DC086E2898381E090E09B838A8306C0D5
:1029000086E2898381E090E09B838A830E9486022D
:1029100088E092E00E94530286E192E040E050E0BD
:10292000BA0101E010E020E030E00E9456021EA64D
:102930001FA618AA19AA85E0898381E090E09B83ED
:102940008A83C0C288859985AA85BB858230910516
:10295000A105B10529F52D85222311F186E2898390
:1029600001E010E01B830A83CE01CE9648EB5BE0CA
:1029700060E070E020E00E94B0030E9486028CE6D6
:1029800092E00E94530281E090E0A0E0B0E08EABC4
:102990009FABA8AFB9AF8DE189831B830A8392C235
:1029A0008C309105A105B10551F08B309105A10541
:1029B000B10509F05EC28D85882309F45AC21B83D4
:1029C0000A831EA61FA618AA19AA9FE1998351C2BD
:1029D0008EA59FA5A8A9B9A90097A105B10509F0E1
:1029E00048C289818D3189F08E3118F48C3129F5F6
:1029F00005C08E31A9F08F3101F519C086E28983B7
:102A000081E090E09B838A8318C086E2898381E01D
:102A100090E09B838A83CE01CE960E94B3030DC0C3
:102A200086E2898381E090E09B838A8306C086E208
:102A3000898381E090E09B838A830E94860288E0FC
:102A400092E00E94530286E192E040E050E0BA0139
:102A500001E010E020E030E00E9456021EA61FA612
:102A600018AA19AA85E0898381E090E09B838A8374
:102A700029C28F89882309F451C089818332D1F01A
:102A8000843228F4813241F0823261F50CC0843204
:102A9000C1F0853239F520C086E2898381E090E07B
:102AA0009B838A831FC086E2898381E090E09B83B9
:102AB0008A8318C086E2898381E090E09B838A83C1
:102AC00011C086E2898381E090E09B838A83CE01F6
:102AD000CF960E94B30306C086E2898381E090E02E
:102AE0009B838A830E94860285E592E00E945302BE
:102AF0008EE592E040E050E0BA0101E010E020E015
:102B000030E00E9456021EAA1FAA18AE19AE8CE130
:102B1000898381E090E09B838A83D4C186E28983A4
:102B200001E010E01B830A83CE01CF9640ED57E011
:102B300060E070E020E00E94B0030E9486028BE417
:102B400092E00E94530284E289831B830A83BAC104
:102B50008F89882309F451C089818332D1F084326E
:102B600028F4813241F0823261F50CC08432C1F028
:102B7000853239F520C086E2898381E090E09B832D
:102B80008A831FC086E2898381E090E09B838A83E9
:102B900018C086E2898381E090E09B838A8311C01C
:102BA00086E2898381E090E09B838A83CE01CF9681
:102BB0000E94B30306C086E2898381E090E09B8394
:102BC0008A830E94860285E592E00E9453028EE588
:102BD00092E040E050E0BA0101E010E020E030E097
:102BE0000E9456021EAA1FAA18AE19AE8CE1898354
:102BF00081E090E09B838A8365C186E2898301E05E
:102C000010E01B830A83888D998DAA8DBB8D019658
:102C1000A11DB11D888F998FAA8FBB8F6EA57FA52F
:102C200088A999A92AA93BA94CA95DA90E94960344
:102C30008F8B81E289831B830A8344C18F89882318
:102C400009F417C189818332D1F0843228F48132AA
:102C500041F0823261F50CC08432C1F0853239F521
:102C600020C086E2898381E090E09B838A831FC035
:102C700086E2898381E090E09B838A8318C086E2A4
:102C8000898381E090E09B838A8311C086E28983F7
:102C900081E090E09B838A83CE01CF960E94B303AC
:102CA00006C086E2898381E090E09B838A830E944C
:102CB000860285E592E00E9453028EE592E040E0B4
:102CC00050E0BA0101E010E020E030E00E9456023E
:102CD0001EAA1FAA18AE19AE8CE1898381E090E08C
:102CE0009B838A83EFC08F89882309F451C089812F
:102CF0008332D1F0843228F4813241F0823261F59E
:102D00000CC08432C1F0853239F520C086E2898357
:102D100081E090E09B838A831FC086E2898381E003
:102D200090E09B838A8318C086E2898381E090E0EB
:102D30009B838A8311C086E2898381E090E09B8334
:102D40008A83CE01CF960E94B30306C086E28983B0
:102D500081E090E09B838A830E94860285E592E071
:102D60000E9453028EE592E040E050E0BA0101E09B
:102D700010E020E030E00E9456021EAA1FAA18AE02
:102D800019AE8CE1898381E090E09B838A839AC0AD
:102D90008FAD882309F46DC086E2898301E010E0DD
:102DA0001B830A83CE01CF960E94B30381E08F8BF1
:102DB000188E198E1A8E1B8E85E289831B830A83D7
:102DC00081C08F89882309F451C089818332D1F071
:102DD000843228F4813241F0823261F50CC08432B1
:102DE000C1F0853239F520C086E2898381E090E028
:102DF0009B838A831FC086E2898381E090E09B8366
:102E00008A8318C086E2898381E090E09B838A836D
:102E100011C086E2898381E090E09B838A83CE01A2
:102E2000CF960E94B30306C086E2898381E090E0DA
:102E30009B838A830E94860285E592E00E9453026A
:102E40008EE592E040E050E0BA0101E010E020E0C1
:102E500030E00E9456021EAA1FAA18AE19AE8CE1DD
:102E6000898381E090E09B838A832CC01B830A8343
:102E700039828A819B8101969B838A838230910566
:102E800010F40C9428091D861A8A18A21AAE1BAEDB
:102E9000DF91CF911F910F91FF90EF90DF90CF9036
:102EA000BF90AF909F908F907F906F905F904F906A
:102EB0003F902F9008958A819B8101969B838A83FE
:102EC0000C9428098A819B8101969B838A83DBCF9E
:102ED000CC96681779073CF004966817790718F4C0
:102EE00081E0FB0180830895DC01E62FF0E0E6320B
:102EF000F10508F051C1E457FF4FEE0FFF1F059099
:102F0000F491E02D099481E09C91963208F445C13A
:102F100080E0089581E09C91913009F43EC180E009
:102F200008959C91925081E0943208F436C180E07B
:102F3000089581E09C91933009F42FC180E00895B9
:102F400081E09C91943009F428C180E0089581E0EB
:102F500011969C911197953009F41FC180E0089556
:102F600011969C911197965081E09A3008F415C102
:102F700080E0089581E011969C911197973009F4B3
:102F80000CC180E0089581E011969C9111979830D2
:102F900009F403C180E0089581E011969C91119796
:102FA000993009F4FAC080E0089581E011969C916F
:102FB00011979A3009F4F1C080E0089581E01196EC
:102FC0009C9111979B3009F4E8C080E0089581E05E
:102FD00011969C9111979C3009F4DFC080E0089510
:102FE00081E011969C9111979D3009F4D6C080E044
:102FF000089581E011969C9111979E3009F4CDC0FF
:1030000080E0089581E011969C9111979F3009F41A
:10301000C4C080E0089581E011969C911197903191
:1030200009F4BBC080E0089581E011969C9111974E
:10303000913109F4B2C080E0089511969C911197E6
:10304000925181E0963008F4A8C080E0089581E0B4
:1030500011969C911197933109F49FC080E00895D7
:1030600081E011969C911197943109F496C080E00B
:10307000089581E011969C911197953109F48DC0C6
:1030800080E0089581E011969C911197963109F4A2
:1030900084C080E0089581E011969C91119797314A
:1030A00009F47BC080E0089581E011969C9111970E
:1030B000983109F472C080E0089581E011969C91E6
:1030C0001197993109F469C080E0089581E0119663
:1030D0009C9111979A3109F460C080E0089511968F
:1030E0009C9111979B5181E0953008F456C080E087
:1030F000089581E011969C9111979C3109F44DC07F
:1031000080E0089581E011969C9111979D3109F41A
:1031100044C080E0089581E011969C9111979E3102
:10312000E1F180E0089581E011969C9111979F3123
:10313000A1F180E0089511969C911197905281E041
:10314000963058F180E0089581E011969C91119796
:10315000913219F180E0089581E011969C911197C8
:103160009232D9F080E0089581E011969C911197F8
:10317000933299F080E0089581E011969C91119727
:10318000943259F080E0089581E011969C91119756
:10319000953219F080E0089580E0089521E0FC0167
:1031A00025870895FC016481758186819781089542
:1031B000FC0144835583668377830895FC01608511
:1031C0007185828593850895FC01408751876287C8
:1031D00073870895FC0184850895FC016487089530
:1031E00021E0FC01228B0895FC01868597850895D6
:1031F000FC01778766870895FC018089918908958D
:10320000FC01718B608B089521E0FC0120A30895DF
:10321000FC01838994890895FC01748B638B089564
:10322000FC01858996890895FC01768B658B08954C
:10323000FC0187890895FC01678B0895FC01608D6E
:10324000718D828D938D0895FC01408F518F628F17
:10325000738F0895FC01648D758D868D978D08950B
:10326000FC01448F558F668F778F0895FC0161A113
:1032700072A183A194A10895FC0141A352A363A369
:1032800074A30895FC0165A176A187A190A5089576
:10329000FC0145A356A367A370A70895FC0161A58F
:1032A00072A583A594A50895FC0141A752A763A721
:1032B00074A7089521E0FC0122AF089521E0FC01EC
:1032C00023AF0895FC0185A50895FC0165A7089525
:1032D000FC0166A577A580A991A90895FC0146A7E0
:1032E00057A760AB71AB0895FC0162A973A984A9CB
:1032F00095A90895FC0142AB53AB64AB75AB08953F
:10330000FC0166A977A980AD91AD0895FC0146AB9B
:1033100057AB60AF71AF089587B3807F87BB87B32A
:10332000876087BB81E58DB981E08EB908958FB93B
:10333000779BFECF8FB1089583E083BF83E882BF80
:1033400081E087BF10927B0210927A0278940895F0
:10335000CF92DF92EF92FF92CF93DF93EC016A015D
:103360007B0140917A0250917B0214161506E4F419
:10337000E0E9F2E0DF01169620E030E070E061E085
:10338000808191818C179D0731F413821282D5823E
:10339000C4826C93762F2F5F3F4F37961796241772
:1033A000350774F37723C9F4FA01EE0FFF1FEE0F10
:1033B000FF1FEE0FFF1FE41BF50BE057FD4FD183FE
:1033C000C08313821282D582C48281E086834F5FDC
:1033D0005F4F50937B0240937A02DF91CF91FF9031
:1033E000EF90DF90CF900895DC0160917A027091A8
:1033F0007B02161617066CF580919002909191024F
:103400008A179B07E9F40AC0295F3F4FF9013797F4
:10341000808191818A179B07B9F402C040E050E097
:10342000FA01EE0FFF1FEE0FFF1FEE0FFF1FE41B51
:10343000F50BE057FD4F1382128216821C920895FD
:1034400027E932E040E050E04F5F5F4F46175707F3
:10345000D9F60895CF92DF92EF92FF920F931F93C8
:10346000CF93DF936C0180917A0290917B021816C2
:10347000190694F5C6E9D2E08E0106501040EE24FC
:10348000FF2488818823D9F0D80112968D919C91D0
:103490001397019613969C938E93129714962D91E1
:1034A0003C9115978217930751F413961C921E9224
:1034B000129718826D917C91C6010E94681708943A
:1034C000E11CF11C2796095F1F4F80917A029091B1
:1034D0007B02E816F906ACF2DF91CF911F910F91B4
:1034E000FF90EF90DF90CF90089580E992E00E94E6
:1034F000661B10927B0210927A020895629FD0019F
:10350000739FF001829FE00DF11D649FE00DF11D9E
:10351000929FF00D839FF00D749FF00D659FF00D4D
:103520009927729FB00DE11DF91F639FB00DE11D3A
:10353000F91FBD01CF0111240895991B79E004C042
:10354000991F961708F0961B881F7A95C9F78095E2
:10355000089597FB092E07260AD077FD04D00CD0DA
:1035600006D000201AF4709561957F4F0895F6F704
:10357000909581959F4F0895AA1BBB1B51E107C0F1
:10358000AA1FBB1FA617B70710F0A61BB70B881FF3
:10359000991F5A95A9F780959095BC01CD01089582
:1035A000CF93DF93AC018230910510F442E050E0FC
:1035B000E091D802F091D90220E030E0A0E0B0E044
:1035C00024C08081918184179507D0F084179507D6
:1035D00071F482819381109729F013969C938E93B6
:1035E00012972CC09093D9028093D80227C021153E
:1035F000310519F08217930718F49C01BD01EF0102
:1036000092818381DF01E92FF82F3097D1F62115C0
:103610003105F9F0C901841B950B8430910580F4C4
:103620008A819B816115710521F0FB01938382835F
:1036300004C09093D9028093D802FE01329642C012
:10364000FE01E80FF91F41935193029799838883F4
:1036500039C08091D6029091D702009741F48091B1
:103660007602909177029093D7028093D6022091B0
:103670007402309175022115310541F42DB73EB722
:103680008091780290917902281B390BE091D60243
:10369000F091D702E217F30798F42E1B3F0B241783
:1036A000350770F0CA0102962817390748F08E0FC7
:1036B0009F1F9093D7028093D6024193519302C0EB
:1036C000E0E0F0E0CF01DF91CF9108950F931F93D9
:1036D000CF93DF939C01009709F48CC0DC01129713
:1036E00013961C921E9212976091D8027091D90283
:1036F0006115710589F48D919C911197820F931F2B
:103700002091D6023091D7022817390769F5B09376
:10371000D702A093D6026EC0FB0140E050E001C08A
:10372000FC01EA17FB0730F482819381AF01009717
:10373000B9F71FC0E9012297FB83EA830881198149
:10374000C901800F911F8E179F0759F480819181C5
:10375000800F911F029699838883828193819B8336
:103760008A834115510529F4B093D902A093D80258
:1037700041C0FA01B383A283C191D191EC0FFD1F27
:10378000AE17BF0781F4F901929182918C0F9D1FB2
:103790000296DA0111969C938E93828193811396FF
:1037A0009C938E931297E0E0F0E002C0FB01BC0115
:1037B000DB0112968D919C9113970097B9F7CB017D
:1037C00002962D913C911197820F931F2091D60262
:1037D0003091D7022817390769F4309729F41092ED
:1037E000D9021092D80202C0138212827093D702BB
:1037F0006093D602DF91CF911F910F9108950F939F
:103800001F93CF93DF93CDB7DEB72E970FB6F89403
:10381000DEBF0FBECDBF0D891E8986E08C831A8363
:1038200009838FEF9FE79E838D83AE01475E5F4FD5
:10383000CE0101966F89788D0E942E1CEF81F8854C
:10384000E00FF11F10822E960FB6F894DEBF0FBE68
:10385000CDBFDF91CF911F910F9108952F923F928D
:103860004F925F926F927F928F929F92AF92BF9290
:10387000CF92DF92EF92FF920F931F93CF93DF933C
:10388000CDB7DEB72D970FB6F894DEBF0FBECDBF14
:103890003C017D876C875A01FC0117821682838167
:1038A00081FFC8C12E010894411C511CF301938172
:1038B000EC85FD8593FD859193FF8191FD87EC87D4
:1038C000882309F4B3C1853241F493FD859193FFB8
:1038D0008191FD87EC87853229F490E0B3010E9445
:1038E0004B1EE4CFFF24EE2410E01032B0F48B32F4
:1038F00069F08C3228F4803251F0833271F40BC0BD
:103900008D3239F0803349F411602CC0126014609C
:1039100029C0186027C0106125C017FD2EC0282FB0
:1039200020532A3098F416FF08C08F2D880FF82EE8
:10393000FF0CFF0CF80EF20E15C08E2D880FE82E2E
:10394000EE0CEE0CE80EE20E10620CC08E3221F48A
:1039500016FD6CC1106406C08C3611F4106802C0EC
:10396000883659F4EC85FD8593FD859193FF81910F
:10397000FD87EC87882309F0B8CF982F95549330B2
:1039800018F09052933038F424E030E0A20EB31EC9
:103990003FE339830FC0833631F0833781F08335BD
:1039A00009F05AC022C0F5018081898322E030E00D
:1039B000A20EB31E21E0C22ED12C420114C092E00F
:1039C000292E312C2A0C3B1CF5018080918016FF9A
:1039D00003C06F2D70E002C06FEF7FEFC4010E9443
:1039E000401E6C0151011F7715C082E0282E312C3A
:1039F0002A0C3B1CF5018080918016FF03C06F2DBF
:103A000070E002C06FEF7FEFC4010E94351E6C01B1
:103A10001068510113FD1CC006C080E290E0B301A4
:103A20000E944B1EEA948E2D90E0C816D906A8F38A
:103A30000FC0F40117FD859117FF81914F0190E0B0
:103A4000B3010E944B1EE110EA940894C108D1080A
:103A5000C114D10471F7E7C0843611F0893651F5ED
:103A6000F50117FF07C080819181A281B38124E015
:103A700030E008C080819181AA2797FDA095BA2FD8
:103A800022E030E0A20EB31E012F0F76B7FF08C070
:103A9000B095A095909581959F4FAF4FBF4F00680F
:103AA000BC01CD01A2012AE030E00E94771ED82E91
:103AB000D4183FC0853721F41F7E2AE030E020C0B3
:103AC000197F8F36A9F0803720F4883509F0AEC011
:103AD0000BC0803721F0883709F0A8C001C0106101
:103AE00014FF09C0146007C014FF08C0166006C0A8
:103AF00028E030E005C020E130E002C020E132E003
:103B0000F50117FF07C0608171818281938144E0D4
:103B100050E006C06081718180E090E042E050E0BA
:103B2000A40EB51EA2010E94771ED82ED418012F14
:103B30000F7706FF09C00E7FDF1430F404FF06C0C4
:103B400002FD04C00F7E02C01D2D01C01F2D802F5D
:103B500090E004FF0CC0FE01ED0DF11D208120332B
:103B600011F4097E09C002FF06C01E5F05C08678F9
:103B70009070009709F01F5F802E992403FD12C0FA
:103B800000FF0DC0FD2C1E1550F4FE0CF11A1E2D69
:103B900006C080E290E0B3010E944B1E1F5F1E151D
:103BA000C0F304C01E1510F4E11A01C0EE2484FE17
:103BB0000FC080E390E0B3010E944B1E82FE1FC045
:103BC00081FE03C088E590E010C088E790E00DC05A
:103BD000C40186789070009791F081FC02C080E269
:103BE00001C08BE207FD8DE290E0B3010E944B1E05
:103BF00006C080E390E0B3010E944B1EFA94DF14EC
:103C0000C0F3DA94F201ED0DF11D808190E0B30173
:103C10000E944B1EDD20A9F706C080E290E0B301B0
:103C20000E944B1EEA94EE20C1F740CEF30186813C
:103C3000978102C08FEF9FEF2D960FB6F894DEBFED
:103C40000FBECDBFDF91CF911F910F91FF90EF90ED
:103C5000DF90CF90BF90AF909F908F907F906F90AC
:103C60005F904F903F902F900895FC010590615018
:103C700070400110D8F7809590958E0F9F1F089582
:103C8000FC016150704001900110D8F7809590952B
:103C90008E0F9F1F08950F931F93CF93DF938C0177
:103CA000EB018B8181FF1BC082FF0DC02E813F8104
:103CB0008C819D812817390764F4E881F98101938B
:103CC000F983E88306C0E885F985802F0995009778
:103CD00031F48E819F8101969F838E8302C00FEF06
:103CE0001FEFC801DF91CF911F910F910895FA0145
:103CF000AA27283051F1203181F1E8946F936E7F2B
:103D00006E5F7F4F8F4F9F4FAF4FB1E03ED0B4E01B
:103D10003CD0670F781F891F9A1FA11D680F791F5C
:103D20008A1F911DA11D6A0F711D811D911DA11D6D
:103D300020D009F468943F912AE0269F112430197D
:103D4000305D3193DEF6CF010895462F4770405D18
:103D50004193B3E00FD0C9F7F6CF462F4F70405DC7
:103D60004A3318F0495D31FD4052419302D0A9F722
:103D7000EACFB4E0A6959795879577956795BA951C
:103D8000C9F700976105710508959B01AC010A2EE2
:103D900006945795479537952795BA95C9F7620FB9
:0E3DA000731F841F951FA01D0895F894FFCF78
:103DAE000708090D0405060E0102030F0B0A0C107D
:103DBE000E0D0B070C12120C000000000C12040862
:103DCE001E0000000A15110A040000000305090B6D
:103DDE000B1818001F0E0E0404040404010105053F
:103DEE00151515000E11111F1F1F1F0000000000DA
:103DFE000000000000E8E8F0F0E2C1C2C2C2C669ED
:103E0E006E666F0D0A005354415455533A202530B7
:103E1E0032580D0A00434F4E4649473A202530325C
:103E2E00580D0A0052465F43483A20253032580D4D
:103E3E000A0052465F53455455503A2025303258A9
:103E4E000D0A00454E5F41413A20253032580D0A89
:103E5E0000454E5F5258414444523A202530325864
:103E6E000D0A004F4253455256455F54583A20258D
:103E7E003032580D0A000D0A00E8E8F0F0E2C1C237
:103E8E00C2C2C2C1C2C2C2C3C1C2C2C2C4C1C2C204
:103E9E00C2C5C1C2C2C2C6E8E8F0F0E25761697499
:103EAE0074696E672E2E2E00412D43414C4C2020FE
:103EBE00422D44454C00432D5041592020442D574E
:103ECE0054004E686170206D61206D6F6E20616EC2
:103EDE003A005F205F205F004E68617020736F2094
:103EEE006C756F6E673A005F205F0053656E6420DD
:103EFE006661696C0050524F434545443F00313175
:103F0E002D4E4F202031322D5945530053454E44EE
:0A3F1E00494E47000000DA022000BF
:00000001FF
