:100000000C94A6000C94C5000C94C5000C94C5007B
:100010000C94C5000C94C5000C94C5000C94C5004C
:100020000C94C5000C94C5000C94C5000C94C5003C
:100030000C94C5000C94C5000C94C5000C94C5002C
:100040000C94DA030C94C5000C94C5000C94C50004
:100050000C94C5000C94C5000C94C5000C94C5000C
:100060000C94C5000C94C5000C94C5000C94C500FC
:100070000C94C5000C94C5000C94C5000C94C500EC
:100080000C94C5000C94C5000C94C5002308CE0840
:100090002A08310838083F0846084D08CE08540899
:1000A0005B0862086908CE08700877087E08850832
:1000B0008C089308CE089A08A108AC08B308CE08AB
:1000C000BA08C108C8081509E9144C097B09A80930
:1000D000E914B2092F0AAC0A090CC60C400DE00E57
:1000E0009B0F15108710AC10E914FA105411B311BE
:1000F000F21117123812E9145912B2121A13AC1372
:10010000E914FD135414AF1433153A15411549156C
:100110005015571560156A1573157C1585158E15C4
:100120009715A015A915B215BB15C415CD15D71572
:10013000E015E915F215FB1504160D1617161F1616
:1001400027162F16371640164816501611241FBEB4
:10015000CFEFD0E1DEBFCDBF12E0A0E0B1E0E4EC34
:10016000F8E300E00BBF02C007900D92A837B1077B
:10017000D9F712E0A8E7B2E001C01D92A83DB1078F
:10018000E1F70E94BA030C94601C0C940000AF923B
:10019000BF92CF92DF92EF92FF920F931F93CF9374
:1001A000DF9320E030E041E050E0E2E6F0E0A0E163
:1001B000B1E00F2EF1E1AF2EF1E0BF2EF02D02E104
:1001C00011E00F2EF3E1EF2EF1E0FF2EF02DB9013B
:1001D000C90104966A0102C0CC0CDD1C8A95E2F7C5
:1001E000C6018095808383E08A95F1F7000080B195
:1001F0008F708F3029F19C919817A9F0E5019881B3
:10020000981759F0E8019881981751F0E701988103
:100210009817B1F4E3E0F0E008C0E1E0F0E005C0D9
:10022000E2E0F0E002C0E0E0F0E0EE0FFF1FEE0FD2
:10023000FF1F6E0F7F1FFB01E050FF4F808106C044
:100240002F5F3F4F2430310511F680E0DF91CF91D1
:100250001F910F91FF90EF90DF90CF90BF90AF90E4
:10026000089580EF809361008FE08093620008958D
:100270008FEC97E00197F1F700C000000895282F58
:1002800022952F708F70662311F4D89801C0D89AE8
:10029000D99A9BB3220F220F937C922B9BBBD998A8
:1002A000D99A9BB3880F880F937C892B8BBBD998E5
:1002B0000E94380108950F931F93CF93DF938C0111
:1002C000FC018081882309F18532A9F4E801219697
:1002D000F80181818053883020F461E00E943F0161
:1002E0000EC085E261E00E943F01F801818161E07A
:1002F0000E943F0104C061E00E943F01E8018E01BD
:100300000F5F1F4F89818823F9F6DF91CF911F91ED
:100310000F910895EF92FF920F931F93CF93DF9366
:1003200000D000D00F92CDB7DEB77B01FE01319631
:1003300025E0DF011D922A95E9F7009761F0FE01A3
:1003400036962AE030E0B9010E9434188293862F55
:10035000972F0097C1F7BFEFEB16BFEFFB0669F4CD
:100360002981222379F4FE01329600E010E00F5F2C
:100370001F4F21912223D9F307C005E010E00E1989
:100380001F0902C000E010E0992324F48DE261E02F
:100390000E943F0105301105BCF4E1E0F0E0EC0FF4
:1003A000FD1F0E0F1F1F0F2EF6E0EF2EFF24F02D66
:1003B000EC0EFD1ED8018D918D01805D61E00E94E3
:1003C0003F010E151F05B1F70F900F900F900F9082
:1003D0000F90DF91CF911F910F91FF90EF900895B3
:1003E000843178F4623031F0633031F0613029F4D7
:1003F000806403C08C5E01C08C5A806860E00E94FB
:100400003F0108950F931F93CF93DF93C82F8BE481
:100410009DE10197F1F700C000008AB38C638ABBAD
:10042000D19AD09A8BB3837C8BBBD998D898D99A20
:10043000DB9AD9980E9438018C2F8C6060E00E9472
:100440003F0188E260E00E943F0180E460E00E949A
:100450003F01C4E1D1E004E511E0899161E00E942F
:100460003F01C017D107C9F780E060E00E94F001AA
:10047000DF91CF911F910F9108950E94C700682FBF
:1004800070E080E090E008950E94310108950E949C
:100490005B0108950F93CF93DF93EC01842F602FBE
:1004A0000E94F001CE010E945B01DF91CF910F917C
:1004B00008954F925F926F927F92AF92BF92CF92C8
:1004C000DF92EF92FF922B013C01822F6E2D76017D
:1004D00065010E94F001C201B6010E948A01FF90ED
:1004E000EF90DF90CF90BF90AF907F906F905F9034
:1004F0004F90089581E060E00E943F0182E060E05B
:100500000E943F01089580E00E94020208950F9327
:100510001F93CF93DF930F92CDB7DEB71982CE0131
:1005200001960E947A06882399F08981882399F49C
:10053000EAE7F2E0CF0109961192E817F907E1F72F
:100540000AE712E080E0B8010E948C06C80105C0ED
:1005500084E591E002C084E591E00F90DF91CF91B6
:100560001F910F910895CF93DF939C01C5E8D2E0CE
:1005700080E090E0A22FB32FFD0101900020E9F769
:100580003197EA1BFB0B8E179F0730F4F901E80F38
:10059000F91F4081488301C0188201962196893055
:1005A000910541F785E591E00E94EA0485E892E033
:1005B0000E94B206982FEFECF7E03197F1F700C0F8
:1005C000000081E0913009F080E0DF91CF91089543
:1005D000E5E8F2E0CF01099621E02193E817F90759
:1005E000E1F78AE591E00E94EA0485E892E00E9442
:1005F000B206982FEFECF7E03197F1F700C000005A
:1006000081E0913009F080E008950F931F93CF931C
:10061000DF930F92CDB7DEB71982CE0101960E940B
:100620007A068823F1F089818530E9F4EAE7F2E07F
:100630008F01075F1F4F1192E017F107E1F785E087
:100640006AE772E00E948C0680917A02813069F438
:10065000EBE7F2E08191813051F4E017F107D1F737
:1006600007C080E005C080E003C080E001C080E0FA
:100670000F90DF91CF911F910F910895AF92EF925C
:10068000822FE5E8F2E0AF01475F5F4F1192E41778
:10069000F507E1F7605D609385023AE0632F0E9401
:1006A0002818905D909387020E942818905D90937F
:1006B00086028E2D0E942818905D90938A020E94D7
:1006C0002818905D909389020E942818905D90935D
:1006D00088028A2D0E942818905D90938C020E94B7
:1006E0002818905D90938B0285E591E00E94EA04C2
:1006F00085E892E00E94B206982FEFECF7E0319780
:10070000F1F700C0000081E0913009F080E0EF9047
:10071000AF900895822FE5E8F2E0AF01475F5F4FA9
:100720001192E417F507E1F7605D609385023AE006
:10073000632F0E942818905D909387020E942818CA
:10074000905D9093860285E591E00E94EA0485E839
:1007500092E00E94B20691E0813009F090E0892F8A
:1007600008950E94341708950E94801708950E94EA
:10077000080708958FE084BB85BB82E090E00E946B
:100780005B1880938302909384020E9428178091C3
:100790008302909184020E94C70780918302909106
:1007A00084020E94CE0780918302909184020E946D
:1007B000D108F9CF1F920F920FB60F920BB60F927E
:1007C00011242F933F934F935F936F937F938F9356
:1007D0009F93AF93BF93EF93FF9383E882BF809182
:1007E0008302909184020E94B517FF91EF91BF910F
:1007F000AF919F918F917F916F915F914F913F91B9
:100800002F910F900BBE0F900FBE0F901F90189559
:10081000AE988F710E9423178FEF0E942317AE9A14
:100820000895FF920F931F93CF93DF93062FF72E18
:10083000142FAE988F710E942317112351F0C02FEF
:10084000DF2D00E08FEF0E94231789930F5F0117C0
:10085000C9F7AE9ADF91CF911F910F91FF90089544
:10086000CF93C62FAE988F7180620E9423178C2F72
:100870000E942317AE9ACF910895FF920F931F9372
:10088000CF93DF93062FF72E142FAE988F718062CF
:100890000E942317112349F0C02FDF2D00E089911A
:1008A0000E9423170F5F0117D1F7AE9ADF91CF9106
:1008B0001F910F91FF90089520E030E00496DB0136
:1008C000A20FB31FFC01E21BF30B40814C932F5F7F
:1008D0003F4F2530310599F70895CF93DF9300D02E
:1008E00000D00F92CDB7DEB78823B1F4A9EDB1E007
:1008F000FB0185E001900D928150E1F7CB01BE0133
:100900006F5F7F4F0E945C048AE0BE016F5F7F4F84
:1009100045E00E943D0456C08130B1F4AEEDB1E037
:10092000FB0185E001900D928150E1F7CB01BE0102
:100930006F5F7F4F0E945C048BE0BE016F5F7F4F53
:1009400045E00E943D043EC0823071F4A3EEB1E068
:10095000FB0185E001900D928150E1F78CE0FB01F5
:1009600064810E9430042EC0833071F4A8EEB1E09F
:10097000FB0185E001900D928150E1F78DE0FB01D4
:1009800064810E9430041EC0843071F4ADEEB1E089
:10099000FB0185E001900D928150E1F78EE0FB01B3
:1009A00064810E9430040EC0853061F4A2EFB1E092
:1009B000FB0101900D928150E1F78FE0FB01648112
:1009C0000E9430040F900F900F900F900F90DF91C6
:1009D000CF910895CF93DF9300D000D00F92CDB781
:1009E000DEB7A7EFB1E0E82FF92F25E001900D92D7
:1009F0002150E1F7BE016F5F7F4F0E945C048AE0E7
:100A0000BE016F5F7F4F45E00E943D0480E1BE0163
:100A10006F5F7F4F45E00E943D040F900F900F9055
:100A20000F900F90DF91CF910895AE9882EE0E94C3
:100A30002317AE9A0895AE9881EE0E942317AE9ABE
:100A4000089580E069ED71E00E946D0480E00E94ED
:100A50000804682F616080E00E94300480E00E94FA
:100A60000804682F626080E00E94300487E060E73D
:100A70000E9430040E9415050E941B05AF9A82E374
:100A80008A95F1F70895AF9880E00E940804682FD6
:100A90006E7F80E00E94300480E00E940804682F8E
:100AA000626080E00E94300487E060E70E943004CA
:100AB0000E941B0582E38A95F1F70895AE988FEFA7
:100AC0000E942317AE9A0895EF92FF920F931F93FF
:100AD000CF93DF93CDB7DEB7C456D0400FB6F894AE
:100AE000DEBF0FBECDBF7C018FE591E0F701099518
:100AF0000E945E0500D000D000D0EDB7FEB7319661
:100B00008E010F5F1F4FADB7BEB712961C930E93A9
:100B1000119726E631E033832283848315820E9475
:100B20008A198DB79EB706960FB6F8949EBF0FBE72
:100B30008DBFC801F701099580E00E94080400D02C
:100B400000D000D0EDB7FEB73196ADB7BEB7129664
:100B50001C930E93119725E731E03383228384831E
:100B600015820E948A198DB79EB706960FB6F89423
:100B70009EBF0FBE8DBFC801F701099585E00E9499
:100B8000080400D000D000D0EDB7FEB73196ADB765
:100B9000BEB712961C930E93119724E831E033836D
:100BA0002283848315820E948A198DB79EB7069688
:100BB0000FB6F8949EBF0FBE8DBFC801F70109950F
:100BC00086E00E94080400D000D000D0EDB7FEB748
:100BD0003196ADB7BEB712961C930E93119722E9CA
:100BE00031E033832283848315820E948A198DB772
:100BF0009EB706960FB6F8949EBF0FBE8DBFC80174
:100C0000F701099581E00E94080400D000D000D0CF
:100C1000EDB7FEB73196ADB7BEB712961C930E93E3
:100C2000119723EA31E033832283848315820E9463
:100C30008A198DB79EB706960FB6F8949EBF0FBE61
:100C40008DBFC801F701099582E00E94080400D019
:100C500000D000D0EDB7FEB73196ADB7BEB7129653
:100C60001C930E93119721EB31E03383228384830D
:100C700015820E948A198DB79EB706960FB6F89412
:100C80009EBF0FBE8DBFC801F701099588E00E9485
:100C9000080400D000D000D0EDB7FEB73196ADB754
:100CA000BEB712961C930E93119723EC31E0338359
:100CB0002283848315820E948A198DB79EB7069677
:100CC0000FB6F8949EBF0FBE8DBFC801F7010995FE
:100CD00086ED91E0F7010995CC59DF4F0FB6F894F6
:100CE000DEBF0FBECDBFDF91CF911F910F91FF905F
:100CF000EF900895CF93DF93EC010E945E05982F4B
:100D0000907486FF05C0209719F0869587708883B8
:100D1000892FDF91CF9108950F931F93CF93DF9386
:100D2000062F172FAE9881E60E942317C02FD12FD0
:100D300010E08FEF0E94231789931F5F1930C9F7C6
:100D4000AE9A87E060E40E9430040E945E0585FF51
:100D500004C087E060E20E943004DF91CF911F91D0
:100D60000F9108950F931F93CF93DF93082F192F9F
:100D70000E944305AE9880EA0E942317C02FD12F0E
:100D800019E089910E9423171150D9F7AE9AAF9AB2
:100D900085E08A95F1F7AF9883E08A95F1F7000036
:100DA0000E945E058073C1F30E945E05C82F85E036
:100DB0006CE40E94300480E00E940804682F6D7F7C
:100DC00080E00E9430040E94210581E0C5FF80E0A0
:100DD000DF91CF911F910F91089586E00E94080442
:100DE000682F666086E00E943004089586E00E94C5
:100DF0000804682F677D86E00E943004089580E033
:100E00000E940804682F6C6080E00E9430040895FE
:100E1000A69AA79A0E941817AF98AE9A81EE94E00E
:100E20000197F1F700C000000E94ED060E94F6064F
:100E30000E94FF0684E067E40E9430048CE160E0D9
:100E40000E94300485E06CE40E94300481E169E096
:100E50000E94300482E169E00E94300483E169E08D
:100E60000E94300484E169E00E94300485E169E079
:100E70000E94300486E169E00E94300482E060E074
:100E80000E94300482E00E940804682F616082E0C2
:100E90000E94300482E00E940804682F626082E0B1
:100EA0000E94300482E00E940804682F646082E09F
:100EB0000E94300482E00E940804682F686082E08B
:100EC0000E94300482E00E940804682F606182E082
:100ED0000E94300482E00E940804682F606282E071
:100EE0000E94300481E00E940804682F616081E064
:100EF0000E94300481E00E940804682F626081E053
:100F00000E94300481E00E940804682F646081E040
:100F10000E94300481E00E940804682F686081E02C
:100F20000E94300481E00E940804682F606181E023
:100F30000E94300481E00E940804682F606281E012
:100F40000E94300480E069ED71E00E946D0481E050
:100F50006EED71E00E946D0482E063EE71E00E942C
:100F60006D0483E068EE71E00E946D0484E06DEE34
:100F700071E00E946D0485E062EF71E00E946D04F3
:100F800087EF91E00E94EA040E9421050895FC0188
:100F900082E2808381831382128208951F93CF930C
:100FA000DF93EC0111E019ABCC9648EB5BE060E01D
:100FB00070E020E00E94B10381E090E0A0E0B0E0AA
:100FC0008EAB9FABA8AFB9AF0E9483020E944402D0
:100FD0000E94B7030E947A028CEF91E00E944702C0
:100FE00018831B821A82DF91CF911F910895CF93AE
:100FF000DF93EC018881833069F0843081F08130A7
:1010000091F482E288831B821A82CE01CC960E94E0
:10101000B40309C082E288831B821A8204C082E280
:1010200088831B821A82898190E005978D31910512
:1010300008F0B4C08A5B9F4FFC01EE0FFF1F0590C4
:10104000F491E02D099482E2898381E090E09B8312
:101050008A83A4C082E2898381E090E09B838A83B3
:101060009DC082E2898381E090E09B838A8396C061
:1010700082E2898381E090E09B838A838FC082E251
:10108000898381E090E09B838A8388C082E28983A0
:1010900081E090E09B838A8381C082E2898381E042
:1010A00090E09B838A837AC082E2898381E090E02A
:1010B0009B838A8373C082E2898381E090E09B8373
:1010C0008A836CC082E2898381E090E09B838A837B
:1010D00065C082E2898381E090E09B838A835EC061
:1010E00082E2898381E090E09B838A8357C082E219
:1010F000898381E090E09B838A8350C082E2898368
:1011000081E090E09B838A8349C082E2898381E009
:1011100090E09B838A8342C082E2898381E090E0F1
:101120009B838A833BC082E2898381E090E09B833A
:101130008A8334C082E2898381E090E09B838A8342
:101140002DC082E2898381E090E09B838A83CE0177
:10115000CD960E94B40322C082E2898381E090E0B0
:101160009B838A831BC082E2898381E090E09B831A
:101170008A8314C082E2898381E090E09B838A8322
:101180000DC082E2898381E090E09B838A8306C060
:1011900082E2898381E090E09B838A83DF91CF9113
:1011A00008952F923F924F925F926F927F928F920B
:1011B0009F92AF92BF92CF92DF92EF92FF920F93E6
:1011C0001F93CF93DF93EC011B821A8280E090E0A3
:1011D00001E010E00F2EFCE12F2EF02DCC24DD24B9
:1011E00076016894C2F8882499245401689481F89F
:1011F00044245524320143940F2EFCE03F2EF02D61
:101200008C0F9D1FDC01EC918E2F90E0FC0131973B
:10121000E132F10510F00C94E914ED59FF4FEE0F97
:10122000FF1F0590F491E02D09948CAD882311F4F3
:101230000C94E91482E288831B821A82CE01CC9638
:101240000E94B4030E943D02DC01CB018C839D838C
:10125000AE83BF831C8683E088831B821A820E9430
:101260007A0288E092E00E94470286E192E040E044
:1012700050E0BA0101E010E020E030E00E944A02B4
:101280001AAA1BAA1CAA1DAA85E0898381E090E006
:101290009B838A830C940B158C819D81AE81BF81C9
:1012A0000097A105B105C1F022E228831B821A82B2
:1012B00088879987AA87BB870E943D02DC01CB0102
:1012C0008C839D83AE83BF8381E08C8784E0888399
:1012D0001B821A820C9411150E943D02DC01CB0185
:1012E0008C839D83AE83BF831C8683E088831B82AF
:1012F0001A820C9411158C819D81AE81BF8100975B
:10130000A105B105A9F482E288831B821A8281E0DB
:101310008D870E943D02DC01CB018C839D83AE83CF
:10132000BF831C8683E088831B821A820C9411156C
:101330000E943D02DC01CB018C839D83AE83BF8381
:1013400081E08C8784E088831B821A820C941115BB
:101350001B830A83188619861A861B8681E1898376
:101360000C94E9148AA99BA9ACA9BDA90097A10571
:10137000B10509F06AC089818A3041F18B3040F4AF
:101380008830B1F08930D8F4873009F041C009C005
:101390008C3051F18C3008F18E3069F18F30C1F50D
:1013A00031C082E2898381E090E09B838A8330C0F0
:1013B00082E2898381E090E09B838A8329C082E274
:1013C000898381E090E09B838A8322C082E28983C3
:1013D00081E090E09B838A831BC082E2898381E065
:1013E00090E09B838A8314C082E2898381E090E04D
:1013F0009B838A830DC082E2898381E090E09B8396
:101400008A8306C082E2898381E090E09B838A839D
:101410000E947A0288E092E00E94470286E192E010
:1014200040E050E0BA0101E010E020E030E00E942E
:101430004A021AAA1BAA1CAA1DAA85E0898381E078
:1014400090E09B838A830C940B151B830A83188678
:1014500019861A861B8689E089830C94E9148AA967
:101460009BA9ACA9BDA90097A105B10509F06AC067
:1014700089818A3041F18B3040F48830B1F0893075
:10148000D8F4873009F041C009C08C3051F18C305C
:1014900008F18E3069F18F30C1F531C082E2898365
:1014A00081E090E09B838A8330C082E2898381E07F
:1014B00090E09B838A8329C082E2898381E090E067
:1014C0009B838A8322C082E2898381E090E09B83B0
:1014D0008A831BC082E2898381E090E09B838A83B8
:1014E00014C082E2898381E090E09B838A830DC0EF
:1014F00082E2898381E090E09B838A8306C082E256
:10150000898381E090E09B838A830E947A0288E04D
:1015100092E00E94470286E192E040E050E0BA018A
:1015200001E010E020E030E00E944A021AAA1BAA63
:101530001CAA1DAA85E0898381E090E09B838A83B1
:101540000C940B151B830A83188619861A861B8632
:1015500089E089830C94E9148AA99BA9ACA9BDA947
:101560000097A105B10509F06AC089818A3041F16F
:101570008B3040F48830B1F08930D8F4873009F0EE
:1015800041C009C08C3051F18C3008F18E3069F1C6
:101590008F30C1F531C082E2898381E090E09B8386
:1015A0008A8330C082E2898381E090E09B838A83D2
:1015B00029C082E2898381E090E09B838A8322C0F4
:1015C00082E2898381E090E09B838A831BC082E270
:1015D000898381E090E09B838A8314C082E28983BF
:1015E00081E090E09B838A830DC082E2898381E061
:1015F00090E09B838A8306C082E2898381E090E049
:101600009B838A830E947A0288E092E00E944702CC
:1016100086E192E040E050E0BA0101E010E020E015
:1016200030E00E944A021AAA1BAA1CAA1DAA85E041
:10163000898381E090E09B838A830C940B1589A5B4
:101640009AA5ABA5BCA583309105A105B1050CF009
:101650006AC0488559856A857B854A305105610590
:1016600071050CF04EC014161506160617060CF080
:1016700048C02D85222309F444C06A017B0122E27F
:1016800029838824992483949B828A829C01AD01BA
:10169000220F331F441F551FC701B601EE24FF243C
:1016A0008701E394AA24BB246501A3940E945902F4
:1016B00089A59AA5ABA5BCA50196A11DB11D89A7B9
:1016C0009AA7ABA7BCA769A17AA18BA19CA12AE08C
:1016D00030E040E050E00E940918AB01BC01888571
:1016E0009985AA85BB85840F951FA61FB71F89A35F
:1016F0009AA3ABA3BCA388E089839B828A820C94C3
:101700000B154A3051056105710569F48D858823F3
:1017100051F01B830A83188619861A861B868AE075
:1017200089830C94E91488859985AA85BB858C30BA
:101730009105A105B10549F52D85222331F182E2FC
:101740008983EE24FF24E394FB82EA820E947A02DA
:1017500082E292E00E94470281E392E040E050E0A2
:10176000BA0101E010E020E030E00E944A0219A630
:101770001AA61BA61CA619A21AA21BA21CA287E0CD
:101780008983FB82EA820C940B158B309105A105AD
:10179000B10549F52D85222331F182E28983EE24BA
:1017A000FF24E394FB82EA820E947A0287E392E0BC
:1017B0000E94470285E492E040E050E0BA0101E077
:1017C00010E020E030E00E944A0219A61AA61BA6EB
:1017D0001CA61DA21EA21FA218A68BE08983FB8255
:1017E000EA820C940B1580319105A105B10511F029
:1017F0000C94E9148D85882311F40C94E9141B834F
:101800000A831AAA1BAA1CAA1DAABFE0B9830C94BA
:10181000E9148AA99BA9ACA9BDA90097A105B105A6
:1018200009F06AC089818A3041F18B3040F48830F8
:10183000B1F08930D8F4873009F041C009C08C304C
:1018400051F18C3008F18E3069F18F30C1F531C023
:1018500082E2898381E090E09B838A8330C082E2C8
:10186000898381E090E09B838A8329C082E2898317
:1018700081E090E09B838A8322C082E2898381E0B9
:1018800090E09B838A831BC082E2898381E090E0A1
:101890009B838A8314C082E2898381E090E09B83EA
:1018A0008A830DC082E2898381E090E09B838A83F2
:1018B00006C082E2898381E090E09B838A830E9454
:1018C0007A0288E092E00E94470286E192E040E0DE
:1018D00050E0BA0101E010E020E030E00E944A024E
:1018E0001AAA1BAA1CAA1DAA85E0898381E090E0A0
:1018F0009B838A830C940B1582E289838824992424
:1019000083949B828A82C884D984EA84FB8489A5D3
:101910009AA5ABA5BCA59C01AD01220F331F441FA6
:10192000551FC701B601EE24FF248701E394AA24C2
:10193000BB246501A3940E94590289A59AA5ABA571
:10194000BCA50196A11DB11D89A79AA7ABA7BCA7ED
:1019500069A17AA18BA19CA12AE030E040E050E08F
:101960000E940918AB01BC0188859985AA85BB85B1
:10197000840F951FA61FB71F89A39AA3ABA3BCA36F
:1019800088E089839B828A820C940B158AA99BA983
:10199000ACA9BDA90097A105B10509F069C089816D
:1019A0008A3041F18B3040F48830B1F08930D8F47E
:1019B000873009F041C009C08C3051F18C3008F1FA
:1019C0008E3069F18F30C1F531C082E2898381E0C8
:1019D00090E09B838A8330C082E2898381E090E03B
:1019E0009B838A8329C082E2898381E090E09B8384
:1019F0008A8322C082E2898381E090E09B838A838C
:101A00001BC082E2898381E090E09B838A8314C0BB
:101A100082E2898381E090E09B838A830DC082E229
:101A2000898381E090E09B838A8306C082E2898378
:101A300081E090E09B838A830E947A0288E092E0B2
:101A40000E94470286E192E040E050E0BA0101E0E6
:101A500010E020E030E00E944A021AAA1BAA1CAA49
:101A60001DAA85E0898381E090E09B838A83D3C7A8
:101A70001B830A83188619861A861B863982A9C792
:101A80008AA99BA9ACA9BDA90097A105B10509F038
:101A900069C089818A3041F18B3040F48830B1F0DF
:101AA0008930D8F4873009F041C009C08C3051F139
:101AB0008C3008F18E3069F18F30C1F531C082E28F
:101AC000898381E090E09B838A8330C082E28983AE
:101AD00081E090E09B838A8329C082E2898381E050
:101AE00090E09B838A8322C082E2898381E090E038
:101AF0009B838A831BC082E2898381E090E09B8381
:101B00008A8314C082E2898381E090E09B838A8388
:101B10000DC082E2898381E090E09B838A8306C0C6
:101B200082E2898381E090E09B838A830E947A022B
:101B300088E092E00E94470286E192E040E050E0B7
:101B4000BA0101E010E020E030E00E944A021AAA47
:101B50001BAA1CAA1DAA85E0898381E090E09B83D3
:101B60008A8359C789A59AA5ABA5BCA582309105E2
:101B7000A105B1050CF068C0488559856A857B854B
:101B80004A3051056105710561F42D85222349F024
:101B90001B830A83188619861A861B868DE0898323
:101BA00018C74A305105610571050CF04DC0141677
:101BB0001506160617060CF047C02D85222309F4DA
:101BC00043C06A017B0122E22983882499248394FB
:101BD0009B828A829C01AD01220F331F441F551F37
:101BE000C701B601EE24FF248701E394AA24BB2495
:101BF0006501A3940E94590289A59AA5ABA5BCA52D
:101C00000196A11DB11D89A79AA7ABA7BCA76DA17D
:101C10007EA18FA198A52AE030E040E050E00E942C
:101C20000918AB01BC0188859985AA85BB85840FFD
:101C3000951FA61FB71F8DA39EA3AFA3B8A78EE0C5
:101C400089839B828A82E7C688859985AA85BB8518
:101C50008C309105A105B10541F52D85222329F18F
:101C600082E28983EE24FF24E394FB82EA820E94CD
:101C70007A0287E392E00E94470285E492E040E026
:101C800050E0BA0101E010E020E030E00E944A029A
:101C900019A61AA61BA61CA61DA21EA21FA218A644
:101CA0008BE08983FB82EA82B6C68B309105A10561
:101CB000B10509F072C02D85222309F46EC0898117
:101CC0008A3041F18B3040F48830B1F08930D8F45B
:101CD000873009F041C009C08C3051F18C3008F1D7
:101CE0008E3069F18F30C1F531C082E2898381E0A5
:101CF00090E09B838A8330C082E2898381E090E018
:101D00009B838A8329C082E2898381E090E09B8360
:101D10008A8322C082E2898381E090E09B838A8368
:101D20001BC082E2898381E090E09B838A8314C098
:101D300082E2898381E090E09B838A830DC082E206
:101D4000898381E090E09B838A8306C082E2898355
:101D500081E090E09B838A831F8A188E198E1A8EE9
:101D60001B8E6AA97BA98CA99DA92EA93FA948AD64
:101D700059ADE9A0FAA00BA11CA18DA09EA0AFA017
:101D8000B8A4650154010E943E038F8B83E18983CF
:101D900081E090E09B838A833EC680319105A10556
:101DA000B10509F016C68D85882309F412C61B8378
:101DB0000A831AAA1BAA1CAA1DAA8FE0898309C636
:101DC0008AA99BA9ACA9BDA90097A105B10509F0F5
:101DD00069C089818A3041F18B3040F48830B1F09C
:101DE0008930D8F4873009F041C009C08C3051F1F6
:101DF0008C3008F18E3069F18F30C1F531C082E24C
:101E0000898381E090E09B838A8330C082E289836A
:101E100081E090E09B838A8329C082E2898381E00C
:101E200090E09B838A8322C082E2898381E090E0F4
:101E30009B838A831BC082E2898381E090E09B833D
:101E40008A8314C082E2898381E090E09B838A8345
:101E50000DC082E2898381E090E09B838A8306C083
:101E600082E2898381E090E09B838A830E947A02E8
:101E700088E092E00E94470286E192E040E050E074
:101E8000BA0101E010E020E030E00E944A021AAA04
:101E90001BAA1CAA1DAA85E0898381E090E09B8390
:101EA0008A83B9C582E289838824992483949B829A
:101EB0008A82C884D984EA84FB8489A59AA5ABA5C3
:101EC000BCA59C01AD01220F331F441F551FC70144
:101ED000B601EE24FF248701E394AA24BB24650104
:101EE000A3940E94590289A59AA5ABA5BCA5019609
:101EF000A11DB11D89A79AA7ABA7BCA76DA17EA103
:101F00008FA198A52AE030E040E050E00E94091837
:101F1000AB01BC0188859985AA85BB85840F951F77
:101F2000A61FB71F8DA39EA3AFA3B8A78EE089837A
:101F30009B828A8270C58AA99BA9ACA9BDA900977A
:101F4000A105B10509F069C089818A3041F18B3062
:101F500040F48830B1F08930D8F4873009F041C0BE
:101F600009C08C3051F18C3008F18E3069F18F301E
:101F7000C1F531C082E2898381E090E09B838A834E
:101F800030C082E2898381E090E09B838A8329C00C
:101F900082E2898381E090E09B838A8322C082E28F
:101FA000898381E090E09B838A831BC082E28983DE
:101FB00081E090E09B838A8314C082E2898381E080
:101FC00090E09B838A830DC082E2898381E090E068
:101FD0009B838A8306C082E2898381E090E09B83B1
:101FE0008A830E947A0288E092E00E94470286E19A
:101FF00092E040E050E0BA0101E010E020E030E083
:102000000E944A021AAA1BAA1CAA1DAA85E089835B
:1020100081E090E09B838A83FEC41B830A83188639
:1020200019861A861B863982D4C48AA99BA9ACA9B1
:10203000BDA90097A105B10509F0CBC489818A30FB
:1020400041F18B3040F48830B1F08930D8F48730DA
:1020500009F041C009C08C3051F18C3008F18E304C
:1020600069F18F30C1F531C082E2898381E090E06F
:102070009B838A8330C082E2898381E090E09B83E6
:102080008A8329C082E2898381E090E09B838A83EE
:1020900022C082E2898381E090E09B838A831BC017
:1020A00082E2898381E090E09B838A8314C082E28C
:1020B000898381E090E09B838A830DC082E28983DB
:1020C00081E090E09B838A8306C082E2898381E07D
:1020D00090E09B838A830E947A0288E092E00E94CB
:1020E000470286E192E040E050E0BA0101E010E0F2
:1020F00020E030E00E944A021AAA1BAA1CAA1DAACC
:1021000085E0898381E090E09B838A8384C482E2B6
:102110008983EE24FF24E394FB82EA820E947A0200
:1021200082E292E00E94470281E392E040E050E0C8
:10213000BA0101E010E020E030E00E944A0219A656
:102140001AA61BA61CA619A21AA21BA21CA287E0F3
:102150008983FB82EA825FC488859985AA85BB85CD
:102160008D309105A105B10561F42D85222349F03B
:102170001B830A834AAA5BAA6CAA7DAA90E1998371
:1021800028C48E309105A105B10561F42D85222367
:1021900049F01B830A838AAA9BAAACAABDAAA6E11E
:1021A000A98317C48F309105A105B10581F42D8550
:1021B000222369F01B830A8383E090E0A0E0B0E073
:1021C0008AAB9BABACABBDAB97E1998302C48031CA
:1021D0009105A105B10509F0FCC38D85882309F49B
:1021E000F8C31B830A83CAAADBAAECAAFDAAA8E14A
:1021F000A983EFC38F898823D9F18981843159F06C
:10220000853181F08331A1F482E2898381E090E01D
:102210009B838A830DC082E2898381E090E09B8367
:102220008A8306C082E2898381E090E09B838A836F
:102230000E947A0282E292E00E94470281E392E0E9
:1022400040E050E0BA0101E010E020E030E00E9400
:102250004A0219A61AA61BA61CA619A21AA21BA2FC
:102260001CA287E0898381E090E09B838A83D3C3AB
:102270006AA97BA98CA99DA92EA93FA948AD59ADF2
:10228000E9A0FAA00BA11CA18DA09EA0AFA0B8A4AC
:10229000650154010E943E038F8B83E1898381E0B5
:1022A00090E09B838A83B7C38F898823D9F1898182
:1022B000843159F0853181F08331A1F482E2898340
:1022C00081E090E09B838A830DC082E2898381E074
:1022D00090E09B838A8306C082E2898381E090E05C
:1022E0009B838A830E947A0282E292E00E944702E4
:1022F00081E392E040E050E0BA0101E010E020E02C
:1023000030E00E944A0219A61AA61BA61CA619A212
:102310001AA21BA21CA287E0898381E090E09B8324
:102320008A8379C382E289834424552443945B825F
:102330004A826AA97BA98CA99DA92EA93FA948AD6B
:1023400059ADE9A0FAA00BA11CA18DA09EA0AFA041
:10235000B8A4650154010E943E038F8B83E18983F9
:102360005B824A8258C38F89882309F432C38981EA
:10237000843159F0853181F08331A1F482E289837F
:1023800081E090E09B838A830DC082E2898381E0B3
:1023900090E09B838A8306C082E2898381E090E09B
:1023A0009B838A830E947A0282E292E00E94470223
:1023B00081E392E040E050E0BA0101E010E020E06B
:1023C00030E00E944A0219A61AA61BA61CA619A252
:1023D0001AA21BA21CA287E0898381E090E09B8364
:1023E0008A8319C382E28983EE24FF24E394FB826B
:1023F000EA820E947A0282E292E00E94470281E32E
:1024000092E040E050E0BA0101E010E020E030E06E
:102410000E944A0219A61AA61BA61CA619A21AA255
:102420001BA21CA287E08983FB82EA82F4C282E2BB
:102430008983EE24FF24E394FB82EA820E947A02DD
:1024400089E492E00E94470282E592E040E050E099
:10245000BA0101E010E020E030E00E944A021DA62F
:102460001EA61FA618AA8AE18983FB82EA82D3C22C
:1024700082E28983EE24FF24E394FB82EA820E94B5
:102480007A0289E492E00E94470282E592E040E00D
:1024900050E0BA0101E010E020E030E00E944A0282
:1024A0001DA61EA61FA618AA8AE18983FB82EA82BE
:1024B000B2C28AA99BA9ACA9BDA90097A105B10583
:1024C00009F048C089818B3189F08C3118F48A3148
:1024D00029F505C08C31A9F08D3101F519C082E2D2
:1024E000898381E090E09B838A8318C082E289839C
:1024F00081E090E09B838A83CE01CD960E94B40355
:102500000DC082E2898381E090E09B838A8306C0CC
:1025100082E2898381E090E09B838A830E947A0231
:1025200088E092E00E94470286E192E040E050E0BD
:10253000BA0101E010E020E030E00E944A021AAA4D
:102540001BAA1CAA1DAA85E0898381E090E09B83D9
:102550008A8361C21B830A83188619861A861B86A2
:10256000298237C28AA99BA9ACA9BDA90097A10558
:10257000B10509F048C089818B3189F08C3118F49C
:102580008A3129F505C08C31A9F08D3101F519C0CA
:1025900082E2898381E090E09B838A8318C082E293
:1025A000898381E090E09B838A83CE01CD960E944F
:1025B000B4030DC082E2898381E090E09B838A832B
:1025C00006C082E2898381E090E09B838A830E9437
:1025D0007A0288E092E00E94470286E192E040E0C1
:1025E00050E0BA0101E010E020E030E00E944A0231
:1025F0001AAA1BAA1CAA1DAA85E0898381E090E083
:102600009B838A8308C28DAD882309F4E2C182E2EC
:10261000898301E010E01B830A83CE01CD960E94DE
:10262000B403188619861A861B868CE189831B835E
:102630000A83F1C18AA99BA9ACA9BDA90097A105EC
:10264000B10509F048C089818B3189F08C3118F4CB
:102650008A3129F505C08C31A9F08D3101F519C0F9
:1026600082E2898381E090E09B838A8318C082E2C2
:10267000898381E090E09B838A83CE01CD960E947E
:10268000B4030DC082E2898381E090E09B838A835A
:1026900006C082E2898381E090E09B838A830E9466
:1026A0007A0288E092E00E94470286E192E040E0F0
:1026B00050E0BA0101E010E020E030E00E944A0260
:1026C0001AAA1BAA1CAA1DAA85E0898381E090E0B2
:1026D0009B838A83A0C188859985AA85BB85823022
:1026E0009105A105B10529F58D85882361F182E267
:1026F000898301E010E01B830A83CE01CD9648EB6D
:102700005BE060E070E020E00E94B1030E947A028A
:102710008EE592E00E94470288859985AA85BB854F
:102720008DA79EA7AFA7B8AB8BE189831B830A83D4
:1027300072C181309105A105B10509F04AC18D85AD
:10274000882309F446C11B830A831AAA1BAA1CAA60
:102750001DAABDE1B9833DC18AA99BA9ACA9BDA9A8
:102760000097A105B10509F034C189818B3189F049
:102770008C3118F48A3129F505C08C31A9F08D31DE
:1027800001F519C082E2898381E090E09B838A830E
:1027900018C082E2898381E090E09B838A83CE0126
:1027A000CD960E94B4030DC082E2898381E090E05F
:1027B0009B838A8306C082E2898381E090E09B83C9
:1027C0008A830E947A0288E092E00E94470286E1B2
:1027D00092E040E050E0BA0101E010E020E030E09B
:1027E0000E944A021AAA1BAA1CAA1DAA85E0898374
:1027F00081E090E09B838A830EC18F898823B9F1A1
:102800008981803259F0813281F08F31A1F482E2E6
:10281000898381E090E09B838A830DC082E2898373
:1028200081E090E09B838A8306C082E2898381E015
:1028300090E09B838A830E947A0289E492E00E945E
:10284000470282E592E040E050E0BA0101E010E08A
:1028500020E030E00E944A021DA61EA61FA618AA6C
:102860008AE1898381E090E09B838A83D4C06AA94E
:102870007BA98CA99DA92EA93FA948AD59AD0E945D
:102880008A038F8B888D998DAA8DBB8D0196A11D92
:10289000B11D888F998FAA8FBB8F8FE1898381E0CB
:1028A00090E09B838A83B7C08F898823B9F189819F
:1028B000803259F0813281F08F31A1F482E2898334
:1028C00081E090E09B838A830DC082E2898381E06E
:1028D00090E09B838A8306C082E2898381E090E056
:1028E0009B838A830E947A0289E492E00E944702D5
:1028F00082E592E040E050E0BA0101E010E020E023
:1029000030E00E944A021DA61EA61FA618AA8AE150
:10291000898381E090E09B838A837DC082E2898302
:1029200001E010E01B830A836AA97BA98CA99DA9F9
:102930002EA93FA948AD59AD0E948A038F8B888D7F
:10294000998DAA8DBB8D0196A11DB11D888F998F80
:10295000AA8FBB8F8FE189831B830A835CC08F8919
:102960008823B9F18981803259F0813281F08F3129
:10297000A1F482E2898381E090E09B838A830DC089
:1029800082E2898381E090E09B838A8306C082E2B1
:10299000898381E090E09B838A830E947A0289E4A4
:1029A00092E00E94470282E592E040E050E0BA01E6
:1029B00001E010E020E030E00E944A021DA61EA6C1
:1029C0001FA618AA8AE1898381E090E09B838A830D
:1029D00022C08A819B8101969B838A8382309105E4
:1029E00010F40C9400091D861A8A18A21AAE1BAEA8
:1029F000DF91CF911F910F91FF90EF90DF90CF90DB
:102A0000BF90AF909F908F907F906F905F904F900E
:102A10003F902F9008958A819B8101969B838A83A2
:102A2000E2CF8A819B8101969B838A830C94000963
:102A3000CC96681779073CF002966817790718F466
:102A400081E0FB0180830895DC01E62FF0E0E232B3
:102A5000F10508F02DC1EC57FF4FEE0FFF1F059059
:102A6000F491E02D099481E09C91923208F421C107
:102A700080E0089581E09C91913009F41AC180E0D2
:102A800008959C91925081E0903208F412C180E048
:102A9000089581E09C91933009F40BC180E0089582
:102AA00081E09C91943009F404C180E0089581E0B4
:102AB00011969C911197953009F4FBC080E0089520
:102AC00011969C911197965081E09A3008F4F1C0CC
:102AD00080E0089581E011969C911197973009F458
:102AE000E8C080E0089581E011969C91119798309C
:102AF00009F4DFC080E0089581E011969C91119760
:102B0000993009F4D6C080E0089581E011969C9137
:102B100011979A3009F4CDC080E0089581E01196B4
:102B20009C9111979B3009F4C4C080E0089581E026
:102B300011969C9111979C3009F4BBC080E00895D8
:102B400081E011969C9111979D3009F4B2C080E00C
:102B5000089581E011969C9111979E3009F4A9C0C7
:102B600080E0089581E011969C9111979F3009F4BF
:102B7000A0C080E0089581E011969C91119790315A
:102B800009F497C080E0089581E011969C91119717
:102B9000913109F48EC080E0089511969C911197AF
:102BA000925181E0943008F484C080E0089581E07F
:102BB00011969C911197933109F47BC080E00895A0
:102BC00081E011969C911197943109F472C080E0D4
:102BD000089581E011969C911197953109F469C08F
:102BE00080E0089581E011969C911197963109F447
:102BF00060C080E0089581E011969C911197973113
:102C000009F457C080E0089581E011969C911197D6
:102C1000983109F44EC080E0089511969C91119767
:102C2000995181E0953008F444C080E0089581E036
:102C300011969C9111979A31E1F180E0089581E01D
:102C400011969C9111979B31A1F180E0089581E04C
:102C500011969C9111979C3161F180E0089581E07B
:102C600011969C9111979D3121F180E00895119664
:102C70009C9111979E5181E09430D8F080E00895A6
:102C800081E011969C9111979F3199F080E0089511
:102C900081E011969C911197903259F080E008954F
:102CA00081E011969C911197913219F080E008957E
:102CB00080E0089521E0FC0125870895FC016481EE
:102CC0007581868197810895FC01448355836683CD
:102CD00077830895FC0160857185828593850895C9
:102CE000FC0140875187628773870895FC018485C2
:102CF0000895FC016487089521E0FC01228B08956A
:102D0000FC01868597850895FC017787668708957D
:102D1000FC01808991890895FC01718B608B089575
:102D200021E0FC0120A30895FC0183899489089582
:102D3000FC01748B638B0895FC0185899689089545
:102D4000FC01768B658B0895FC0187890895FC0151
:102D5000678B0895FC01608D718D828D938D089530
:102D6000FC01408F518F628F738F0895FC01648D39
:102D7000758D868D978D0895FC01448F558F668FD4
:102D8000778F0895FC0161A172A183A194A1089598
:102D9000FC0141A352A363A374A30895FC0165A1A0
:102DA00076A187A190A50895FC0145A356A367A32A
:102DB00070A70895FC0161A572A583A594A5089547
:102DC000FC0141A752A763A774A70895FC0165A55C
:102DD00076A587A590A90895FC0145A756A767A7E2
:102DE00070AB089521E0FC0122AF089521E0FC01C1
:102DF00023AF0895FC0181A90895FC0161AB0895FA
:102E0000FC0162A973A984A995A90895FC0142ABAC
:102E100053AB64AB75AB0895FC0166A977A980AD8F
:102E200091AD0895FC0146AB57AB60AF71AF08950B
:102E300087B3807F87BB87B3876087BB81E58DB908
:102E400081E08EB908958FB9779BFECF8FB1089539
:102E500083E083BF83E882BF81E087BF109279025D
:102E60001092780278940895CF92DF92EF92FF92B9
:102E7000CF93DF93EC016A017B014091780250917E
:102E8000790214161506E4F4EEE8F2E0DF01169676
:102E900020E030E070E061E0808191818C179D0737
:102EA00031F413821282D582C4826C93762F2F5F05
:102EB0003F4F379617962417350774F37723C9F4D5
:102EC000FA01EE0FFF1FEE0FFF1FEE0FFF1FE41BB7
:102ED000F50BE257FD4FD183C08313821282D58256
:102EE000C48281E086834F5F5F4F509379024093A5
:102EF0007802DF91CF91FF90EF90DF90CF9008950F
:102F0000DC0160917802709179021616170664F55B
:102F100080918E0290918F028A179B07E1F40AC07C
:102F2000295F3F4FF9013797808191818A179B076D
:102F3000B1F402C040E050E0FA01EE0FFF1FEE0FC7
:102F4000FF1FEE0FFF1FE41BF50BE257FD4F13822F
:102F500012821682089525E932E040E050E04F5F8A
:102F60005F4F46175707E1F60895CF92DF92EF9231
:102F7000FF920F931F93CF93DF936C0180917802A0
:102F8000909179021816190694F5C4E9D2E08E01E1
:102F900006501040EE24FF2488818823D9F0D80100
:102FA00012968D919C911397019613969C938E93F4
:102FB000129714962D913C9115978217930751F40F
:102FC00013961C921E92129718826D917C91C601E5
:102FD0000E9418150894E11CF11C2796095F1F4FE9
:102FE0008091780290917902E816F906ACF2DF91AF
:102FF000CF911F910F91FF90EF90DF90CF900895A8
:103000008EE892E00E94F1181092790210927802F4
:103010000895629FD001739FF001829FE00DF11D22
:10302000649FE00DF11D929FF00D839FF00D749F42
:10303000F00D659FF00D9927729FB00DE11DF91FEE
:10304000639FB00DE11DF91FBD01CF01112408954B
:10305000991B79E004C0991F961708F0961B881FEA
:103060007A95C9F78095089597FB092E07260AD00F
:1030700077FD04D00CD006D000201AF4709561952D
:103080007F4F0895F6F7909581959F4F0895AA1B5D
:10309000BB1B51E107C0AA1FBB1FA617B70710F043
:1030A000A61BB70B881F991F5A95A9F78095909575
:1030B000BC01CD010895CF93DF93AC01823091051F
:1030C00010F442E050E0E091D602F091D70220E007
:1030D00030E0A0E0B0E024C08081918184179507A2
:1030E000D0F08417950771F482819381109729F0AD
:1030F00013969C938E9312972CC09093D702809333
:10310000D60227C02115310519F08217930718F44C
:103110009C01BD01EF0192818381DF01E92FF82F2E
:103120003097D1F621153105F9F0C901841B950BB3
:103130008430910580F48A819B816115710521F0AD
:10314000FB019383828304C09093D7028093D602BD
:10315000FE01329642C0FE01E80FF91F41935193E0
:1031600002979983888339C08091D4029091D502C7
:10317000009741F480917302909174029093D5026C
:103180008093D40220917102309172022115310591
:1031900041F42DB73EB78091750290917602281BBD
:1031A000390BE091D402F091D502E217F30798F4BD
:1031B0002E1B3F0B2417350770F0CA010296281703
:1031C000390748F08E0F9F1F9093D5028093D40249
:1031D0004193519302C0E0E0F0E0CF01DF91CF9145
:1031E00008950F931F93CF93DF939C01009709F4E9
:1031F0008CC0DC01129713961C921E92129760915C
:10320000D6027091D7026115710589F48D919C9158
:103210001197820F931F2091D4023091D502281765
:10322000390769F5B093D502A093D4026EC0FB01B3
:1032300040E050E001C0FC01EA17FB0730F4828156
:103240009381AF010097B9F71FC0E9012297FB8373
:10325000EA8308811981C901800F911F8E179F078A
:1032600059F480819181800F911F02969983888300
:10327000828193819B838A834115510529F4B09300
:10328000D702A093D60241C0FA01B383A283C191B1
:10329000D191EC0FFD1FAE17BF0781F4F901929198
:1032A00082918C0F9D1F0296DA0111969C938E934A
:1032B0008281938113969C938E931297E0E0F0E0C5
:1032C00002C0FB01BC01DB0112968D919C9113970A
:1032D0000097B9F7CB0102962D913C911197820F7F
:1032E000931F2091D4023091D5022817390769F431
:1032F000309729F41092D7021092D60202C013829E
:1033000012827093D5026093D402DF91CF911F9106
:103310000F9108950F931F93CF93DF93CDB7DEB72F
:103320002E970FB6F894DEBF0FBECDBF0D891E8954
:1033300086E08C831A8309838FEF9FE79E838D83BA
:10334000AE01475E5F4FCE0101966F89788D0E9476
:10335000B919EF81F885E00FF11F10822E960FB694
:10336000F894DEBF0FBECDBFDF91CF911F910F91BB
:1033700008952F923F924F925F926F927F928F9219
:103380009F92AF92BF92CF92DF92EF92FF920F93F4
:103390001F93CF93DF93CDB7DEB72D970FB6F89479
:1033A000DEBF0FBECDBF3C017D876C875A01FC019B
:1033B00017821682838181FFC8C12E010894411CA7
:1033C000511CF3019381EC85FD8593FD859193FF5D
:1033D0008191FD87EC87882309F4B3C1853241F4DC
:1033E00093FD859193FF8191FD87EC87853229F4C8
:1033F00090E0B3010E94D61BE4CFFF24EE2410E03E
:103400001032B0F48B3269F08C3228F4803251F0F3
:10341000833271F40BC08D3239F0803349F411607E
:103420002CC01260146029C0186027C0106125C02C
:1034300017FD2EC0282F20532A3098F416FF08C0FD
:103440008F2D880FF82EFF0CFF0CF80EF20E15C012
:103450008E2D880FE82EEE0CEE0CE80EE20E1062B8
:103460000CC08E3221F416FD6CC1106406C08C367F
:1034700011F4106802C0883659F4EC85FD8593FD7F
:10348000859193FF8191FD87EC87882309F0B8CF60
:10349000982F9554933018F09052933038F424E0DC
:1034A00030E0A20EB31E3FE339830FC0833631F004
:1034B000833781F0833509F05AC022C0F50180813D
:1034C000898322E030E0A20EB31E21E0C22ED12C6F
:1034D000420114C092E0292E312C2A0C3B1CF5012C
:1034E0008080918016FF03C06F2D70E002C06FEFE7
:1034F0007FEFC4010E94CB1B6C0151011F7715C0E7
:1035000082E0282E312C2A0C3B1CF5018080918012
:1035100016FF03C06F2D70E002C06FEF7FEFC40194
:103520000E94C01B6C011068510113FD1CC006C035
:1035300080E290E0B3010E94D61BEA948E2D90E0C9
:10354000C816D906A8F30FC0F40117FD859117FF1F
:1035500081914F0190E0B3010E94D61BE110EA94E3
:103560000894C108D108C114D10471F7E7C08436AA
:1035700011F0893651F5F50117FF07C0808191815F
:10358000A281B38124E030E008C080819181AA2724
:1035900097FDA095BA2F22E030E0A20EB31E012FB6
:1035A0000F76B7FF08C0B095A095909581959F4F75
:1035B000AF4FBF4F0068BC01CD01A2012AE030E04F
:1035C0000E94021CD82ED4183FC0853721F41F7EDC
:1035D0002AE030E020C0197F8F36A9F0803720F430
:1035E000883509F0AEC00BC0803721F0883709F06C
:1035F000A8C001C0106114FF09C0146007C014FF07
:1036000008C0166006C028E030E005C020E130E0C8
:1036100002C020E132E0F50117FF07C0608171812F
:103620008281938144E050E006C06081718180E036
:1036300090E042E050E0A40EB51EA2010E94021CE0
:10364000D82ED418012F0F7706FF09C00E7FDF1484
:1036500030F404FF06C002FD04C00F7E02C01D2D21
:1036600001C01F2D802F90E004FF0CC0FE01ED0D66
:10367000F11D2081203311F4097E09C002FF06C02C
:103680001E5F05C086789070009709F01F5F802E3E
:10369000992403FD12C000FF0DC0FD2C1E1550F42F
:1036A000FE0CF11A1E2D06C080E290E0B3010E94CC
:1036B000D61B1F5F1E15C0F304C01E1510F4E11ABF
:1036C00001C0EE2484FE0FC080E390E0B3010E94AD
:1036D000D61B82FE1FC081FE03C088E590E010C0AB
:1036E00088E790E00DC0C40186789070009791F053
:1036F00081FC02C080E201C08BE207FD8DE290E018
:10370000B3010E94D61B06C080E390E0B3010E9483
:10371000D61BFA94DF14C0F3DA94F201ED0DF11D1B
:10372000808190E0B3010E94D61BDD20A9F706C07E
:1037300080E290E0B3010E94D61BEA94EE20C1F72C
:1037400040CEF3018681978102C08FEF9FEF2D96C7
:103750000FB6F894DEBF0FBECDBFDF91CF911F91A2
:103760000F91FF90EF90DF90CF90BF90AF909F9020
:103770008F907F906F905F904F903F902F90089523
:10378000FC010590615070400110D8F7809590952C
:103790008E0F9F1F0895FC01615070400190011031
:1037A000D8F7809590958E0F9F1F08950F931F93C4
:1037B000CF93DF938C01EB018B8181FF1BC082FFD4
:1037C0000DC02E813F818C819D812817390764F4BB
:1037D000E881F9810193F983E88306C0E885F985DA
:1037E000802F0995009731F48E819F8101969F83E8
:1037F0008E8302C00FEF1FEFC801DF91CF911F91A1
:103800000F910895FA01AA27283051F1203181F152
:10381000E8946F936E7F6E5F7F4F8F4F9F4FAF4FD8
:10382000B1E03ED0B4E03CD0670F781F891F9A1FEB
:10383000A11D680F791F8A1F911DA11D6A0F711D9F
:10384000811D911DA11D20D009F468943F912AE0AB
:10385000269F11243019305D3193DEF6CF01089593
:10386000462F4770405D4193B3E00FD0C9F7F6CFC4
:10387000462F4F70405D4A3318F0495D31FD40528C
:10388000419302D0A9F7EACFB4E0A6959795879522
:1038900077956795BA95C9F7009761057105089501
:1038A0009B01AC010A2E06945795479537952795AD
:1038B000BA95C9F7620F731F841F951FA01D089545
:0438C000F894FFCFAA
:1038C4000708090D0405060E0102030F0B0A0C106C
:1038D4000E0D0B070C12120C000000000C12040851
:1038E4001E0000000A15110A040000000305090B5C
:1038F4000B1818001F0E0E0404040404010105052E
:10390400151515000E11111F1F1F1F0000000000C8
:103914000000000000E8E8F0F0E2C1C2C2C2C669DB
:103924006E666F0D0A005354415455533A202530A6
:1039340032580D0A00434F4E4649473A202530324B
:10394400580D0A0052465F43483A20253032580D3C
:103954000A0052465F53455455503A202530325898
:103964000D0A00454E5F41413A20253032580D0A78
:1039740000454E5F5258414444523A202530325853
:103984000D0A004F4253455256455F54583A20257C
:103994003032580D0A000D0A00E8E8F0F0E2C1C226
:1039A400C2C2C2C1C2C2C2C3C1C2C2C2C4C1C2C2F3
:1039B400C2C5C1C2C2C2C6E8E8F0F0E25761697488
:1039C40074696E672E2E2E00412D43414C4C2020ED
:1039D400422D44454C00432D57542020442D504142
:1039E4005900454E54455220444953482049443ACD
:1039F400005F205F205F00454E54455220414D4FEB
:103A0400554E543A005F205F0050524F43454544A1
:103A14003F00312D4E4F2020322D594553004F7217
:103A2400646572205472616E7366657272696E6742
:083A3400000000D80220000090
:00000001FF
