:100000000C946F000C948E000C948E000C948E0057
:100010000C948E000C948E000C948E000C948E0028
:100020000C948E000C948E000C948E000C948E0018
:100030000C948E000C948E000C948E000C948E0008
:100040000C94E9020C948E000C948E000C948E009B
:100050000C948E000C948E000C948E000C948E00E8
:100060000C948E000C948E000C948E000C948E00D8
:100070000C948E000C948E000C948E000C948E00C8
:100080000C948E000C948E000C948E000508571171
:10009000460853086B089D08CC085711D5086C0911
:1000A000020A760B4E0CE40C520E2A0FC00F8F1072
:1000B0001D114311A111A811AF11B711BE11C51126
:1000C000CE11D711E011EA11F311FC1105120E1235
:1000D00016121E1226122E1236123E12461211242B
:1000E0001FBECFEFD0E1DEBFCDBF12E0A0E0B1E098
:1000F000E0E8F0E300E00BBF02C007900D92A834E7
:10010000B107D9F712E0A8E4B2E001C01D92A63B06
:10011000B107E1F70E94C9020C943E180C9400004C
:10012000AF92BF92CF92DF92EF92FF920F931F9305
:10013000CF93DF9320E030E041E050E0E2E6F0E0F2
:10014000A0E1B1E00F2EF1E1AF2EF1E0BF2EF02DD6
:1001500002E111E00F2EF3E1EF2EF1E0FF2EF02D82
:10016000B901C90104966A0102C0CC0CDD1C8A9554
:10017000E2F7C6018095808383E08A95F1F700005D
:1001800080B18F708F3029F19C919817A9F0E5010B
:100190009881981759F0E8019881981751F0E70174
:1001A00098819817B1F4E3E0F0E008C0E1E0F0E0F6
:1001B00005C0E2E0F0E002C0E0E0F0E0EE0FFF1F7B
:1001C000EE0FFF1F6E0F7F1FFB01E050FF4F80817E
:1001D00006C02F5F3F4F2430310511F680E0DF91DC
:1001E000CF911F910F91FF90EF90DF90CF90BF9034
:1001F000AF90089580EF809361008FE0809362005C
:1002000008958FEC97E00197F1F700C00000089582
:10021000282F22952F708F70662311F4D89801C073
:10022000D89AD99A9BB3220F220F937C922B9BBB17
:10023000D998D99A9BB3880F880F937C892B8BBB55
:10024000D9980E94010108950F931F93CF93DF93D4
:100250008C01FC018081882309F18532A9F4E80131
:100260002196F80181818053883020F461E00E945A
:1002700008010EC085E261E00E940801F801818159
:1002800061E00E94080104C061E00E940801E801E9
:100290008E010F5F1F4F89818823F9F6DF91CF917F
:1002A0001F910F910895EF92FF920F931F93CF9399
:1002B000DF9300D000D00F92CDB7DEB77B01FE01F7
:1002C000319625E0DF011D922A95E9F7009761F04C
:1002D000FE0136962AE030E0B9010E9412148293A2
:1002E000862F972F0097C1F7BFEFEB16BFEFFB06E6
:1002F00069F42981222379F4FE01329600E010E0AE
:100300000F5F1F4F21912223D9F307C005E010E0B2
:100310000E191F0902C000E010E0992324F48DE2B9
:1003200061E00E94080105301105BCF4E1E0F0E055
:10033000EC0FFD1F0E0F1F1F0F2EF6E0EF2EFF24F8
:10034000F02DEC0EFD1ED8018D918D01805D61E0D8
:100350000E9408010E151F05B1F70F900F900F9026
:100360000F900F90DF91CF911F910F91FF90EF9021
:100370000895843178F4623031F0633031F06130C7
:1003800029F4806403C08C5E01C08C5A806860E0F0
:100390000E94080108950F931F93CF93DF93C82FF6
:1003A0008BE49DE10197F1F700C000008AB38C63F4
:1003B0008ABBD19AD09A8BB3837C8BBBD998D898BF
:1003C000D99ADB9AD9980E9401018C2F8C6060E049
:1003D0000E94080188E260E00E94080180E460E079
:1003E0000E940801C4E1D1E004E511E0899161E0D7
:1003F0000E940801C017D107C9F780E060E00E94A1
:10040000B901DF91CF911F910F9108950E94900043
:10041000682F70E080E090E008950E94FA0008954F
:100420000E94240108950F93CF93DF93EC01842F52
:10043000602F0E94B901CE010E942401DF91CF916B
:100440000F9108954F925F926F927F92AF92BF92F9
:10045000CF92DF92EF92FF922B013C01822F6E2D03
:10046000760165010E94B901C201B6010E945301E3
:10047000FF90EF90DF90CF90BF90AF907F906F9004
:100480005F904F90089581E060E00E94080182E053
:1004900060E00E940801089580E00E94CB01089569
:1004A0000F931F93CF93DF930F92CDB7DEB71982CF
:1004B000CE0101960E948905882381F0EAE4F2E0EA
:1004C000CF0140961192E817F907E1F70AE412E02C
:1004D0008981B8010E949B05C80102C084E591E0B2
:1004E0000F90DF91CF911F910F9108950E94C10548
:1004F00091E0813009F090E0892F0895AF92EF925A
:10050000822FECE5F2E0AF01405F5F4F1192E417FC
:10051000F507E1F7605D60935C023AE0632F0E94AB
:100520000614905D90935E020E940614905D909375
:100530005D028E2D0E940614905D909361020E94D0
:100540000614905D909360020E940614905D909353
:100550005F028A2D0E940614905D909363020E94B0
:100560000614905D909362028CE592E00E94C105B2
:1005700091E0813009F090E0892FEF90AF900895DD
:100580000E94121308950E945E1308950E94170698
:1005900008958FE084BB85BB82E090E00E9439140F
:1005A00080935A0290935B020E94061380915A0234
:1005B00090915B020E94D60680915A0290915B0254
:1005C0000E94DE0680915A0290915B020E94BE0753
:1005D000F9CF1F920F920FB60F920BB60F92112404
:1005E0002F933F934F935F936F937F938F939F933B
:1005F000AF93BF93EF93FF9383E882BF80915A023A
:1006000090915B020E949313FF91EF91BF91AF9184
:100610009F918F917F916F915F914F913F912F911A
:100620000F900BBE0F900FBE0F901F901895AE98B5
:100630008F710E9401138FEF0E940113AE9A0895EB
:10064000FF920F931F93CF93DF93062FF72E142F54
:10065000AE988F710E940113112351F0C02FDF2D2E
:1006600000E08FEF0E94011389930F5F0117C9F714
:10067000AE9ADF91CF911F910F91FF900895CF9384
:10068000C62FAE988F7180620E9401138C2F0E943A
:100690000113AE9ACF910895FF920F931F93CF93BA
:1006A000DF93062FF72E142FAE988F7180620E9471
:1006B0000113112349F0C02FDF2D00E089910E9422
:1006C00001130F5F0117D1F7AE9ADF91CF911F9100
:1006D0000F91FF90089520E030E00496DB01A20F17
:1006E000B31FFC01E21BF30B40814C932F5F3F4F84
:1006F0002530310599F70895CF93DF9300D000D0CE
:100700000F92CDB7DEB78823B1F4AFECB1E0FB01B7
:1007100085E001900D928150E1F7CB01BE016F5F42
:100720007F4F0E946B038AE0BE016F5F7F4F45E001
:100730000E944C0356C08130B1F4A4EDB1E0FB013E
:1007400085E001900D928150E1F7CB01BE016F5F12
:100750007F4F0E946B038BE0BE016F5F7F4F45E0D0
:100760000E944C033EC0823071F4A9EDB1E0FB0160
:1007700085E001900D928150E1F78CE0FB016481EE
:100780000E943F032EC0833071F4AEEDB1E0FB0157
:1007900085E001900D928150E1F78DE0FB016481CD
:1007A0000E943F031EC0843071F4A3EEB1E0FB0150
:1007B00085E001900D928150E1F78EE0FB016481AC
:1007C0000E943F030EC0853061F4A8EEB1E0FB014A
:1007D00001900D928150E1F78FE0FB0164810E944E
:1007E0003F030F900F900F900F900F90DF91CF91DC
:1007F0000895CF93DF9300D000D00F92CDB7DEB72E
:10080000ADEEB1E0E82FF92F25E001900D922150D7
:10081000E1F7BE016F5F7F4F0E946B038AE0BE016C
:100820006F5F7F4F45E00E944C0380E1BE016F5F28
:100830007F4F45E00E944C030F900F900F900F9058
:100840000F90DF91CF910895AE9882EE0E94011330
:10085000AE9A0895AE9881EE0E940113AE9A089563
:1008600080E06FEC71E00E947C0380E00E9417033F
:10087000682F616080E00E943F0380E00E941703C0
:10088000682F626080E00E943F0387E060E70E947B
:100890003F030E9424040E942A04AF9A82E38A95AF
:1008A000F1F70895AF9880E00E941703682F6E7FDC
:1008B00080E00E943F0380E00E941703682F62607F
:1008C00080E00E943F0387E060E70E943F030E94B0
:1008D0002A0482E38A95F1F70895AE988FEF0E947B
:1008E0000113AE9A0895EF92FF920F931F93CF9347
:1008F000DF93CDB7DEB7C456D0400FB6F894DEBF55
:100900000FBECDBF7C0185E591E0F70109950E94FE
:100910006D0400D000D000D0EDB7FEB731968E0147
:100920000F5F1F4FADB7BEB712961C930E93119772
:100930002CE531E033832283848315820E9468157D
:100940008DB79EB706960FB6F8949EBF0FBE8DBFAB
:10095000C801F701099580E00E94170300D000D07C
:1009600000D0EDB7FEB73196ADB7BEB712961C9367
:100970000E9311972BE631E0338322838483158213
:100980000E9468158DB79EB706960FB6F8949EBF65
:100990000FBE8DBFC801F701099585E00E941703BE
:1009A00000D000D000D0EDB7FEB73196ADB7BEB7DE
:1009B00012961C930E9311972AE731E0338322831A
:1009C000848315820E9468158DB79EB706960FB670
:1009D000F8949EBF0FBE8DBFC801F701099586E050
:1009E0000E94170300D000D000D0EDB7FEB73196BB
:1009F000ADB7BEB712961C930E93119728E831E05D
:100A000033832283848315820E9468158DB79EB735
:100A100006960FB6F8949EBF0FBE8DBFC801F701B2
:100A2000099581E00E94170300D000D000D0EDB7F7
:100A3000FEB73196ADB7BEB712961C930E931197C1
:100A400029E931E033832283848315820E9468156B
:100A50008DB79EB706960FB6F8949EBF0FBE8DBF9A
:100A6000C801F701099582E00E94170300D000D069
:100A700000D0EDB7FEB73196ADB7BEB712961C9356
:100A80000E93119727EA31E0338322838483158202
:100A90000E9468158DB79EB706960FB6F8949EBF54
:100AA0000FBE8DBFC801F701099588E00E941703AA
:100AB00000D000D000D0EDB7FEB73196ADB7BEB7CD
:100AC00012961C930E93119729EB31E03383228306
:100AD000848315820E9468158DB79EB706960FB65F
:100AE000F8949EBF0FBE8DBFC801F70109958CEC2D
:100AF00091E0F7010995CC59DF4F0FB6F894DEBFAE
:100B00000FBECDBFDF91CF911F910F91FF90EF905E
:100B10000895CF93DF93EC010E946D04982F907499
:100B200086FF05C0209719F0869587708883892FE6
:100B3000DF91CF9108950F931F93CF93DF93062FEB
:100B4000172FAE9881E60E940113C02FD12F10E01D
:100B50008FEF0E94011389931F5F1031C9F7AE9A7E
:100B600087E060E40E943F030E946D0485FF04C09B
:100B700087E060E20E943F03DF91CF911F910F91C8
:100B800008950F931F93CF93DF93082F192F0E947F
:100B90005204AE9880EA0E940113C02FD12F10E1B9
:100BA00089910E9401131150D9F7AE9AAF9A85E04E
:100BB0008A95F1F7AF9883E08A95F1F700000E94DB
:100BC0006D048073C1F30E946D04C82F85E06CE44E
:100BD0000E943F0380E00E941703682F6D7F80E032
:100BE0000E943F030E94300481E0C5FF80E0DF9156
:100BF000CF911F910F91089586E00E941703682FEF
:100C0000666086E00E943F03089586E00E94170315
:100C1000682F677D86E00E943F03089580E00E9470
:100C20001703682F6C6080E00E943F030895A69A26
:100C3000A79A0E94F612AF98AE9A81EE94E00197BF
:100C4000F1F700C000000E94FC050E9405060E940A
:100C50000E0684E067E40E943F038CE160E00E949E
:100C60003F0385E06CE40E943F0381E160E10E9464
:100C70003F0382E160E10E943F0383E160E10E9463
:100C80003F0384E160E10E943F0385E160E10E944F
:100C90003F0386E160E10E943F0382E060E00E9442
:100CA0003F0382E00E941703682F616082E00E9488
:100CB0003F0382E00E941703682F626082E00E9477
:100CC0003F0382E00E941703682F646082E00E9465
:100CD0003F0382E00E941703682F686082E00E9451
:100CE0003F0382E00E941703682F606182E00E9448
:100CF0003F0382E00E941703682F606282E00E9437
:100D00003F0381E00E941703682F616081E00E9429
:100D10003F0381E00E941703682F626081E00E9418
:100D20003F0381E00E941703682F646081E00E9406
:100D30003F0381E00E941703682F686081E00E94F2
:100D40003F0381E00E941703682F606181E00E94E9
:100D50003F0381E00E941703682F606281E00E94D8
:100D60003F0380E06FEC71E00E947C0381E064ED62
:100D700071E00E947C0382E069ED71E00E947C03D7
:100D800083E06EED71E00E947C0384E063EE71E02D
:100D90000E947C0385E068EE71E00E947C038DEE8A
:100DA00091E00E94F9030E9430040895FC0185E15E
:100DB0008083818382831482138208951F93CF934B
:100DC000DF93EC0111E01AA7C59648EB5BE060E009
:100DD00070E020E00E94C00281E090E0A0E0B0E07E
:100DE0008FA798ABA9ABBAAB0E944C020E940D0230
:100DF0000E94C6020E94430282EF91E00E9410020C
:100E000018831C821B82DF91CF911F910895CF938D
:100E1000DF93EC018881833069F0843081F0813088
:100E200091F485E188831C821B82CE01C5960E94C5
:100E3000C30209C085E188831C821B8204C085E14E
:100E400088831C821B828981853019F0863071F479
:100E500007C085E1898381E090E09C838B8306C095
:100E600085E1898381E090E09C838B838A818E3049
:100E700009F451C08F3078F48A3089F18B3030F426
:100E80008730F9F0893009F076C022C08C30A9F1A2
:100E90008D30D0F52BC0813109F452C0823138F445
:100EA0008F3009F43FC0803109F065C042C0833102
:100EB00009F454C0833108F44AC0843109F05BC09E
:100EC00054C085E18A8382E090E09C838B8353C089
:100ED00085E18A8382E090E09C838B834CC085E12E
:100EE0008A8382E090E09C838B8345C085E18A837E
:100EF00082E090E09C838B833EC085E18A8382E020
:100F000090E09C838B8337C085E18A8382E090E008
:100F10009C838B8330C085E18A8382E090E09C8350
:100F20008B8329C085E18A8382E090E09C838B8358
:100F300022C085E18A8382E090E09C838B831BC082
:100F400085E18A8382E090E09C838B8314C085E1F5
:100F50008A8382E090E09C838B830DC085E18A8345
:100F600082E090E09C838B8306C085E18A8382E0E7
:100F700090E09C838B83DF91CF9108952F923F92D5
:100F80004F925F926F927F928F929F92AF92BF9299
:100F9000CF92DF92EF92FF920F931F93CF93DF9345
:100FA000EC011C821B8280E090E002E010E0222431
:100FB0003324210123940F2EFEE08F2EF02D0F2ECF
:100FC000FBE07F2EF02D0F2EF4E19F2EF02DAA24B2
:100FD000A3940F2EF6E06F2EF02D0F2EF5E1BF2E0D
:100FE000F02D8C0F9D1FFC01808190E001978431D2
:100FF000910510F00C9457118A5B9F4FFC01EE0F86
:10100000FF1F0590F491E02D09948DA9882311F418
:101010000C94571185E188831C821B82CE01C596F2
:101020000E94C3020E9450029D8B8C8B84E08883B7
:101030001C821B820E940602DC01CB018D839E83F1
:10104000AF83B8871D8685E0898381E090E09C832B
:101050008B830E9443028EEF91E00E9410028CE08D
:1010600092E040E050E0BA0101E010E020E030E022
:101070000E9413021BA61CA61DA61EA687E08A833B
:1010800082E090E09C838B830C948011B8821C8258
:101090001B820E9450029D8B8C8B84E088831C8273
:1010A0001B820C947911EC89FD898081882349F099
:1010B0001C821B82FF8BEE8BAD8E83E088830C94A9
:1010C00057110E9450029D8B8C8B84E088831C8278
:1010D0001B820C9479118D819E81AF81B885009718
:1010E000A105B105C9F0B98221E030E03C832B8332
:1010F00089879A87AB87BC870E940602DC01CB01F7
:101100008D839E83AF83B887AD86698281E090E04E
:101110009C838B830C9479110E940602DC01CB0125
:101120008D839E83AF83B8871D8685E08983E1E048
:10113000F0E0FC83EB830C9479118D819E81AF816B
:10114000B8850097A105B105B9F4B98221E030E076
:101150003C832B83AE860E940602DC01CB018D838B
:101160009E83AF83B8871D8685E0898381E090E008
:101170009C838B830C9479110E940602DC01CB01C5
:101180008D839E83AF83B887AD866982E1E0F0E00E
:10119000FC83EB830C9479111C830B8319861A86CC
:1011A0001B861C869A820C9457118BA59CA5ADA515
:1011B000BEA50097A105B10509F086C08A818D30D2
:1011C000E9F18E3070F48A3021F18B3020F48930CF
:1011D00009F05DC017C08B3019F18C3009F057C091
:1011E00026C0803109F43FC0813130F48E3069F17E
:1011F0008F3009F04CC030C08131E1F1823109F00B
:1012000046C03FC085E18A8382E090E09C838B8367
:101210003EC085E18A8382E090E09C838B8337C067
:1012200085E18A8382E090E09C838B8330C085E1F6
:101230008A8382E090E09C838B8329C085E18A8346
:1012400082E090E09C838B8322C085E18A8382E0E8
:1012500090E09C838B831BC085E18A8382E090E0D1
:101260009C838B8314C085E18A8382E090E09C8319
:101270008B830DC085E18A8382E090E09C838B8321
:1012800006C085E18A8382E090E09C838B830E9484
:1012900043028EEF91E00E9410028CE092E040E069
:1012A00050E0BA0101E010E020E030E00E941302BB
:1012B0001BA61CA61DA61EA687E08A8382E090E0DE
:1012C0009C838B830C9480111C830B8319861A8654
:1012D0001B861C867A82EBC78BA59CA5ADA5BEA5F7
:1012E0000097A105B10509F085C08A818D30E9F12B
:1012F0008E3070F48A3021F18B3020F4893009F07F
:101300005DC017C08B3019F18C3009F057C026C072
:10131000803109F43FC0813130F48E3069F18F3073
:1013200009F04CC030C08131E1F1823109F046C092
:101330003FC085E18A8382E090E09C838B833EC03E
:1013400085E18A8382E090E09C838B8337C085E1CE
:101350008A8382E090E09C838B8330C085E18A831E
:1013600082E090E09C838B8329C085E18A8382E0C0
:1013700090E09C838B8322C085E18A8382E090E0A9
:101380009C838B831BC085E18A8382E090E09C83F1
:101390008B8314C085E18A8382E090E09C838B83F9
:1013A0000DC085E18A8382E090E09C838B8306C038
:1013B00085E18A8382E090E09C838B830E944302D4
:1013C0008EEF91E00E9410028CE092E040E050E04D
:1013D000BA0101E010E020E030E00E9413021BA6F9
:1013E0001CA61DA61EA687E08A8382E090E09C834F
:1013F0008B8386C71C830B8319861A861B861C86E3
:101400007A8255C78BA59CA5ADA5BEA50097A10561
:10141000B10509F085C08A818D30E9F18E3070F414
:101420008A3021F18B3020F4893009F05DC017C07B
:101430008B3019F18C3009F057C026C0803109F487
:101440003FC0813130F48E3069F18F3009F04CC0EB
:1014500030C08131E1F1823109F046C03FC085E101
:101460008A8382E090E09C838B833EC085E18A83FF
:1014700082E090E09C838B8337C085E18A8382E0A1
:1014800090E09C838B8330C085E18A8382E090E08A
:101490009C838B8329C085E18A8382E090E09C83D2
:1014A0008B8322C085E18A8382E090E09C838B83DA
:1014B0001BC085E18A8382E090E09C838B8314C00B
:1014C00085E18A8382E090E09C838B830DC085E177
:1014D0008A8382E090E09C838B8306C085E18A83C7
:1014E00082E090E09C838B830E9443028EEF91E028
:1014F0000E9410028CE092E040E050E0BA0101E06E
:1015000010E020E030E00E9413021BA61CA61DA6DE
:101510001EA687E08A8382E090E09C838B83F0C6DE
:101520008EA19FA1A8A5B9A583309105A105B105FC
:101530000CF069C0C984DA84EB84FC84FAE0CF162D
:10154000D104E104F1040CF04CC01C141D041E0471
:101550001F040CF046C02E85222309F442C025E169
:101560002A8388249924689481F89C828B829C0128
:10157000AD01220F331F441F551FC701B601EE24D2
:10158000FF248701E394AA24BB246501A3940E944D
:1015900022028EA19FA1A8A5B9A50196A11DB11DEA
:1015A0008EA39FA3A8A7B9A76E8D7F8D88A199A1AF
:1015B0002AE030E040E050E00E94E713AB01BC01BC
:1015C00089859A85AB85BC85840F951FA61FB71F9B
:1015D0008E8F9F8FA8A3B9A38AE08A839C828B8277
:1015E0008FC62AE0C216D104E104F10461F48E85AD
:1015F000882349F01C830B8319861A861B861C8658
:101600003CE03A8354C689859A85AB85BC858C308D
:101610009105A105B10549F52E85222331F185E11A
:101620008A83EE24FF246894E1F8FC82EB820E9416
:10163000430288E192E00E94100288E292E040E0DA
:1016400050E0BA0101E010E020E030E00E94130217
:101650001EA21FA218A619A61E8E1F8E18A219A2BE
:1016600089E08A83FC82EB824BC68B309105A10511
:10167000B10549F52E85222331F185E18A83EE24D7
:10168000FF246894E1F8FC82EB820E9443028EE220
:1016900092E00E9410028DE392E040E050E0BA0137
:1016A00001E010E020E030E00E9413021EA21FA221
:1016B00018A619A61AA21BA21CA21DA28DE08A833D
:1016C000FC82EB821DC680319105A105B10509F0B0
:1016D000EEC58E85882309F4EAC51C830B831BA6FF
:1016E0001CA61DA61EA682E18A83E1C58BA59CA52A
:1016F000ADA5BEA50097A105B10509F085C08A81F9
:101700008D30E9F18E3070F48A3021F18B3020F485
:10171000893009F05DC017C08B3019F18C3009F0A9
:1017200057C026C0803109F43FC0813130F48E307B
:1017300069F18F3009F04CC030C08131E1F1823164
:1017400009F046C03FC085E18A8382E090E09C8337
:101750008B833EC085E18A8382E090E09C838B830B
:1017600037C085E18A8382E090E09C838B8330C020
:1017700085E18A8382E090E09C838B8329C085E1A8
:101780008A8382E090E09C838B8322C085E18A83F8
:1017900082E090E09C838B831BC085E18A8382E09A
:1017A00090E09C838B8314C085E18A8382E090E083
:1017B0009C838B830DC085E18A8382E090E09C83CB
:1017C0008B8306C085E18A8382E090E09C838B83D3
:1017D0000E9443028EEF91E00E9410028CE092E0A2
:1017E00040E050E0BA0101E010E020E030E00E946B
:1017F00013021BA61CA61DA61EA687E08A8382E0F4
:1018000090E09C838B837CC585E18A83882499241E
:10181000689481F89C828B82C984DA84EB84FC848E
:101820008EA19FA1A8A5B9A59C01AD01220F331FD0
:10183000441F551FC701B601EE24FF248701E3941E
:10184000AA24BB246501A3940E9422028EA19FA119
:10185000A8A5B9A50196A11DB11D8EA39FA3A8A7F8
:10186000B9A76E8D7F8D88A199A12AE030E040E074
:1018700050E00E94E713AB01BC0189859A85AB85D6
:10188000BC85840F951FA61FB71F8E8F9F8FA8A39F
:10189000B9A38AE08A839C828B8232C58BA59CA5E2
:1018A000ADA5BEA50097A105B10509F085C08A8147
:1018B0008D30E9F18E3070F48A3021F18B3020F4D4
:1018C000893009F05DC017C08B3019F18C3009F0F8
:1018D00057C026C0803109F43FC0813130F48E30CA
:1018E00069F18F3009F04CC030C08131E1F18231B3
:1018F00009F046C03FC085E18A8382E090E09C8386
:101900008B833EC085E18A8382E090E09C838B8359
:1019100037C085E18A8382E090E09C838B8330C06E
:1019200085E18A8382E090E09C838B8329C085E1F6
:101930008A8382E090E09C838B8322C085E18A8346
:1019400082E090E09C838B831BC085E18A8382E0E8
:1019500090E09C838B8314C085E18A8382E090E0D1
:101960009C838B830DC085E18A8382E090E09C8319
:101970008B8306C085E18A8382E090E09C838B8321
:101980000E9443028EEF91E00E9410028CE092E0F0
:1019900040E050E0BA0101E010E020E030E00E94B9
:1019A00013021BA61CA61DA61EA687E08A8382E042
:1019B00090E09C838B83A4C41C830B8319861A86B6
:1019C0001B861C868A8273C48BA59CA5ADA5BEA56B
:1019D0000097A105B10509F085C08A818D30E9F134
:1019E0008E3070F48A3021F18B3020F4893009F088
:1019F0005DC017C08B3019F18C3009F057C026C07C
:101A0000803109F43FC0813130F48E3069F18F307C
:101A100009F04CC030C08131E1F1823109F046C09B
:101A20003FC085E18A8382E090E09C838B833EC047
:101A300085E18A8382E090E09C838B8337C085E1D7
:101A40008A8382E090E09C838B8330C085E18A8327
:101A500082E090E09C838B8329C085E18A8382E0C9
:101A600090E09C838B8322C085E18A8382E090E0B2
:101A70009C838B831BC085E18A8382E090E09C83FA
:101A80008B8314C085E18A8382E090E09C838B8302
:101A90000DC085E18A8382E090E09C838B8306C041
:101AA00085E18A8382E090E09C838B830E944302DD
:101AB0008EEF91E00E9410028CE092E040E050E056
:101AC000BA0101E010E020E030E00E9413021BA602
:101AD0001CA61DA61EA687E08A8382E090E09C8358
:101AE0008B830EC48EA19FA1A8A5B9A582309105B4
:101AF000A105B1050CF069C0C984DA84EB84FC84CB
:101B0000EAE0CE16D104E104F10461F42E8522232B
:101B100049F01C830B8319861A861B861C86FFE0FE
:101B2000FA83C5C32AE0C216D104E104F1040CF023
:101B30004CC01C141D041E041F040CF046C02E854E
:101B4000222309F442C025E12A8388249924689439
:101B500081F89C828B829C01AD01220F331F441FB0
:101B6000551FC701B601EE24FF248701E394AA2480
:101B7000BB246501A3940E9422028EA19FA1A8A567
:101B8000B9A50196A11DB11D8EA39FA3A8A7B9A7B2
:101B90006AA17BA18CA19DA12AE030E040E050E049
:101BA0000E94E713AB01BC0189859A85AB85BC8592
:101BB000840F951FA61FB71F8AA39BA3ACA3BDA329
:101BC00080E18A839C828B829BC389859A85AB85C1
:101BD000BC858C309105A105B10549F52E852223E0
:101BE00031F185E18A83EE24FF246894E1F8FC82D8
:101BF000EB820E9443028EE292E00E9410028DE38B
:101C000092E040E050E0BA0101E010E020E030E076
:101C10000E9413021EA21FA218A619A61AA21BA296
:101C20001CA21DA28DE08A83FC82EB8269C38B30EB
:101C30009105A105B10519F52E85222301F185E154
:101C40008A8388249924689481F89C828B826BA56E
:101C50007CA58DA59EA52FA538A949A95AA9EE8CCA
:101C6000FF8C08A119A1AAA0BBA0CCA0DDA00E9456
:101C70007E02888F81E18A839C828B8241C380317E
:101C80009105A105B10509F012C38E85882309F4D9
:101C90000EC31C830B831BA61CA61DA61EA632E129
:101CA0003A8305C38BA59CA5ADA5BEA50097A1054C
:101CB000B10509F085C08A818D30E9F18E3070F46C
:101CC0008A3021F18B3020F4893009F05DC017C0D3
:101CD0008B3019F18C3009F057C026C0803109F4DF
:101CE0003FC0813130F48E3069F18F3009F04CC043
:101CF00030C08131E1F1823109F046C03FC085E159
:101D00008A8382E090E09C838B833EC085E18A8356
:101D100082E090E09C838B8337C085E18A8382E0F8
:101D200090E09C838B8330C085E18A8382E090E0E1
:101D30009C838B8329C085E18A8382E090E09C8329
:101D40008B8322C085E18A8382E090E09C838B8331
:101D50001BC085E18A8382E090E09C838B8314C062
:101D600085E18A8382E090E09C838B830DC085E1CE
:101D70008A8382E090E09C838B8306C085E18A831E
:101D800082E090E09C838B830E9443028EEF91E07F
:101D90000E9410028CE092E040E050E0BA0101E0C5
:101DA00010E020E030E00E9413021BA61CA61DA636
:101DB0001EA687E08A8382E090E09C838B83A0C28A
:101DC00085E18A8388249924689481F89C828B8297
:101DD000C984DA84EB84FC848EA19FA1A8A5B9A54F
:101DE0009C01AD01220F331F441F551FC701B601CF
:101DF000EE24FF248701E394AA24BB246501A39465
:101E00000E9422028EA19FA1A8A5B9A50196A11D9D
:101E1000B11D8EA39FA3A8A7B9A76AA17BA18CA17E
:101E20009DA12AE030E040E050E00E94E713AB01C2
:101E3000BC0189859A85AB85BC85840F951FA61F3B
:101E4000B71F8AA39BA3ACA3BDA380E18A839C8216
:101E50008B8256C28BA59CA5ADA5BEA50097A105FA
:101E6000B10509F085C08A818D30E9F18E3070F4BA
:101E70008A3021F18B3020F4893009F05DC017C021
:101E80008B3019F18C3009F057C026C0803109F42D
:101E90003FC0813130F48E3069F18F3009F04CC091
:101EA00030C08131E1F1823109F046C03FC085E1A7
:101EB0008A8382E090E09C838B833EC085E18A83A5
:101EC00082E090E09C838B8337C085E18A8382E047
:101ED00090E09C838B8330C085E18A8382E090E030
:101EE0009C838B8329C085E18A8382E090E09C8378
:101EF0008B8322C085E18A8382E090E09C838B8380
:101F00001BC085E18A8382E090E09C838B8314C0B0
:101F100085E18A8382E090E09C838B830DC085E11C
:101F20008A8382E090E09C838B8306C085E18A836C
:101F300082E090E09C838B830E9443028EEF91E0CD
:101F40000E9410028CE092E040E050E0BA0101E013
:101F500010E020E030E00E9413021BA61CA61DA684
:101F60001EA687E08A8382E090E09C838B83C8C1B1
:101F70001C830B8319861A861B861C868A8297C14E
:101F80008BA59CA5ADA5BEA50097A105B10509F03F
:101F900085C08A818D30E9F18E3070F48A3021F16C
:101FA0008B3020F4893009F05DC017C08B3019F1F7
:101FB0008C3009F057C026C0803109F43FC0813110
:101FC00030F48E3069F18F3009F04CC030C081316F
:101FD000E1F1823109F046C03FC085E18A8382E0A9
:101FE00090E09C838B833EC085E18A8382E090E011
:101FF0009C838B8337C085E18A8382E090E09C8359
:102000008B8330C085E18A8382E090E09C838B8360
:1020100029C085E18A8382E090E09C838B8322C083
:1020200085E18A8382E090E09C838B831BC085E1FD
:102030008A8382E090E09C838B8314C085E18A834D
:1020400082E090E09C838B830DC085E18A8382E0EF
:1020500090E09C838B8306C085E18A8382E090E0D8
:102060009C838B830E9443028EEF91E00E941002BA
:102070008CE092E040E050E0BA0101E010E020E0A6
:1020800030E00E9413021BA61CA61DA61EA687E018
:102090008A8382E090E09C838B8332C1288D222347
:1020A00031F185E18A83EE24FF246894E1F8FC8213
:1020B000EB820E94430288E192E00E94100288E2D3
:1020C00092E040E050E0BA0101E010E020E030E0B2
:1020D0000E9413021EA21FA218A619A61E8E1F8EF2
:1020E00018A219A289E08A83FC82EB8209C12FA57C
:1020F00038A949A95AA9EE8CFF8C08A119A1AAA058
:10210000BBA0CCA0DDA0BC01CD010E947E02888FC7
:1021100081E18A8382E090E09C838B83F1C08BA570
:102120009CA5ADA5BEA50097A105B10509F0BFC04E
:102130008A818D30E9F18E3070F48A3021F18B3054
:1021400020F4893009F05DC017C08B3019F18C3054
:1021500009F057C026C0803109F43FC0813130F406
:102160008E3069F18F3009F04CC030C08131E1F11F
:10217000823109F046C03FC085E18A8382E090E069
:102180009C838B833EC085E18A8382E090E09C83C0
:102190008B8337C085E18A8382E090E09C838B83C8
:1021A00030C085E18A8382E090E09C838B8329C0E4
:1021B00085E18A8382E090E09C838B8322C085E165
:1021C0008A8382E090E09C838B831BC085E18A83B5
:1021D00082E090E09C838B8314C085E18A8382E057
:1021E00090E09C838B830DC085E18A8382E090E040
:1021F0009C838B8306C085E18A8382E090E09C8388
:102200008B830E9443028EEF91E00E9410028CE0CB
:1022100092E040E050E0BA0101E010E020E030E060
:102220000E9413021BA61CA61DA61EA687E08A8379
:1022300082E090E09C838B8363C085E18A83EE24F7
:10224000FF246894E1F8FC82EB820E94430288E15B
:1022500092E00E94100288E292E040E050E0BA0171
:1022600001E010E020E030E00E9413021EA21FA255
:1022700018A619A61E8E1F8E18A219A289E08A839D
:10228000FC82EB823DC089859A85AB85BC858D300B
:102290009105A105B10559F48E85882341F01C8371
:1022A0000B832BA63CA64DA65EA683E18A838B8179
:1022B0009C8101969C838B838330910510F40C9450
:1022C000F1071E861B8A1D8E1BAA1CAADF91CF91C7
:1022D0001F910F91FF90EF90DF90CF90BF90AF9044
:1022E0009F908F907F906F905F904F903F902F9036
:1022F00008958B819C8101969C838B830C94F107BC
:102300008B819C8101969C838B83DBCFC59668175C
:1023100079073CF001966817790718F481E0FB0112
:1023200080830895DC01E62FF0E0E531F10508F047
:10233000B5C0E65AFF4FEE0FFF1F0590F491E02D58
:10234000099481E09C91953108F4A9C080E008953A
:1023500081E09C91913009F4A2C080E008959C91A5
:10236000925081E0933108F49AC080E0089581E0B2
:102370009C91933009F493C080E0089581E09C9192
:10238000943009F48CC080E0089581E011969C910E
:102390001197953009F483C080E0089581E011968B
:1023A0009C911197963009F47AC080E0089581E0FD
:1023B00012969C911297973009F471C080E00895AD
:1023C00012969C911297985081E09B3008F467C058
:1023D00080E0089581E012969C911297993009F45B
:1023E0005EC080E0089581E012969C9112979A3029
:1023F00009F455C080E0089581E012969C911297EF
:102400009B3009F44CC080E0089581E012969C91C5
:1024100012979C3009F443C080E0089581E0129641
:102420009C9112979D30D9F180E0089581E0129639
:102430009C9112979E3099F180E0089581E0129668
:102440009C9112979F3059F180E0089581E0129697
:102450009C911297903119F180E0089581E01296D5
:102460009C9112979131D9F080E0089581E0129605
:102470009C911297923199F080E0089581E0129634
:102480009C911297933159F080E0089581E0129663
:102490009C911297943119F080E0089580E008959E
:1024A00021E0FC0126870895FC0165817681878102
:1024B00090850895FC01458356836783708708954E
:1024C000FC0161857285838594850895FC014187AF
:1024D0005287638774870895FC0185850895FC0100
:1024E0006587089521E0FC01238B0895FC01878511
:1024F00090890895FC01708B67870895FC0181899C
:1025000092890895FC01728B618B089521E0FC0192
:10251000258F0895FC01848995890895FC01758BA8
:10252000648B0895FC01868997890895FC01778B57
:10253000668B0895FC01808D0895FC01608F0895DD
:10254000FC01618D728D838D948D0895FC01418F06
:10255000528F638F748F0895FC01668D778D80A1F3
:1025600091A10895FC01468F578F60A371A3089530
:10257000FC0162A173A184A195A10895FC0142A36D
:1025800053A364A375A30895FC0166A177A180A558
:1025900091A50895FC0146A357A360A771A70895CC
:1025A00021E0FC0123AB089521E0FC0124AB089558
:1025B000FC0182A50895FC0162A70895FC0163A5B2
:1025C00074A585A596A50895FC0143A754A765A702
:1025D00076A70895FC0167A570A981A992A908951D
:1025E000FC0147A750AB61AB72AB089587B3807F06
:1025F00087BB87B3876087BB81E58DB981E08EB9E2
:1026000008958FB9779BFECF8FB1089583E083BF84
:1026100083E882BF81E087BF10924902109248028E
:1026200078940895CF92DF92EF92FF92CF93DF9349
:10263000EC016A017B014091480250914902141655
:102640001506E4F4ECE6F2E0DF01169620E030E057
:1026500070E061E0808191818C179D0731F41382D5
:102660001282D582C4826C93762F2F5F3F4F3796AC
:1026700017962417350774F37723C9F4FA01EE0F80
:10268000FF1FEE0FFF1FEE0FFF1FE41BF50BE459BA
:10269000FD4FD183C08313821282D582C48281E030
:1026A00086834F5F5F4F5093490240934802DF910A
:1026B000CF91FF90EF90DF90CF900895DC01609173
:1026C0004802709149021616170664F580916C0253
:1026D00090916D028A179B07E1F40AC0295F3F4F72
:1026E000F9013797808191818A179B07B1F402C065
:1026F00040E050E0FA01EE0FFF1FEE0FFF1FEE0F5C
:10270000FF1FE41BF50BE459FD4F13821282168262
:10271000089523E732E040E050E04F5F5F4F4617F7
:102720005707E1F60895CF92DF92EF92FF920F9351
:102730001F93CF93DF936C018091480290914902DF
:102740001816190694F5C2E7D2E08E010650104023
:10275000EE24FF2488818823D9F0D80112968D9128
:102760009C911397019613969C938E9312971496AF
:102770002D913C9115978217930751F413961C9253
:102780001E92129718826D917C91C6010E9486114B
:102790000894E11CF11C2796095F1F4F80914802A5
:1027A00090914902E816F906ACF2DF91CF911F91A2
:1027B0000F91FF90EF90DF90CF9008958CE692E01C
:1027C0000E94CF1410924902109248020895629F0D
:1027D000D001739FF001829FE00DF11D649FE00D19
:1027E000F11D929FF00D839FF00D749FF00D659F7A
:1027F000F00D9927729FB00DE11DF91F639FB00D79
:10280000E11DF91FBD01CF0111240895991B79E045
:1028100004C0991F961708F0961B881F7A95C9F770
:102820008095089597FB092E07260AD077FD04D0DE
:102830000CD006D000201AF4709561957F4F089552
:10284000F6F7909581959F4F0895AA1BBB1B51E108
:1028500007C0AA1FBB1FA617B70710F0A61BB70B10
:10286000881F991F5A95A9F780959095BC01CD01B5
:102870000895CF93DF93AC018230910510F442E0CC
:1028800050E0E091B402F091B50220E030E0A0E029
:10289000B0E024C08081918184179507D0F084171F
:1028A000950771F482819381109729F013969C9378
:1028B0008E9312972CC09093B5028093B40227C0D8
:1028C0002115310519F08217930718F49C01BD01F9
:1028D000EF0192818381DF01E92FF82F3097D1F644
:1028E00021153105F9F0C901841B950B8430910540
:1028F00080F48A819B816115710521F0FB0193832E
:10290000828304C09093B5028093B402FE01329694
:1029100042C0FE01E80FF91F41935193029799833A
:10292000888339C08091B2029091B302009741F43C
:1029300080914302909144029093B3028093B2023B
:1029400020914102309142022115310541F42DB709
:102950003EB78091450290914602281B390BE091C9
:10296000B202F091B302E217F30798F42E1B3F0B6B
:102970002417350770F0CA0102962817390748F066
:102980008E0F9F1F9093B3028093B2024193519395
:1029900002C0E0E0F0E0CF01DF91CF9108950F9306
:1029A0001F93CF93DF939C01009709F48CC0DC0147
:1029B000129713961C921E9212976091B402709116
:1029C000B5026115710589F48D919C911197820F63
:1029D000931F2091B2023091B3022817390769F58D
:1029E000B093B302A093B2026EC0FB0140E050E08E
:1029F00001C0FC01EA17FB0730F482819381AF012B
:102A00000097B9F71FC0E9012297FB83EA83088189
:102A10001981C901800F911F8E179F0759F480817A
:102A20009181800F911F029699838883828193817F
:102A30009B838A834115510529F4B093B502A09375
:102A4000B40241C0FA01B383A283C191D191EC0FCA
:102A5000FD1FAE17BF0781F4F901929182918C0F8F
:102A60009D1F0296DA0111969C938E938281938129
:102A700013969C938E931297E0E0F0E002C0FB0166
:102A8000BC01DB0112968D919C9113970097B9F7C9
:102A9000CB0102962D913C911197820F931F2091AB
:102AA000B2023091B3022817390769F4309729F43C
:102AB0001092B5021092B40202C013821282709377
:102AC000B3026093B202DF91CF911F910F910895ED
:102AD0000F931F93CF93DF93CDB7DEB72E970FB62B
:102AE000F894DEBF0FBECDBF0D891E8986E08C83B2
:102AF0001A8309838FEF9FE79E838D83AE01475E24
:102B00005F4FCE0101966F89788D0E949715EF81F6
:102B1000F885E00FF11F10822E960FB6F894DEBFF5
:102B20000FBECDBFDF91CF911F910F9108952F92CE
:102B30003F924F925F926F927F928F929F92AF924D
:102B4000BF92CF92DF92EF92FF920F931F93CF939A
:102B5000DF93CDB7DEB72D970FB6F894DEBF0FBE6B
:102B6000CDBF3C017D876C875A01FC01178216821C
:102B7000838181FFC8C12E010894411C511CF301BF
:102B80009381EC85FD8593FD859193FF8191FD8770
:102B9000EC87882309F4B3C1853241F493FD859114
:102BA00093FF8191FD87EC87853229F490E0B30192
:102BB0000E94B417E4CFFF24EE2410E01032B0F4EA
:102BC0008B3269F08C3228F4803251F0833271F408
:102BD0000BC08D3239F0803349F411602CC0126083
:102BE000146029C0186027C0106125C017FD2EC0D1
:102BF000282F20532A3098F416FF08C08F2D880FF5
:102C0000F82EFF0CFF0CF80EF20E15C08E2D880F5B
:102C1000E82EEE0CEE0CE80EE20E10620CC08E32C6
:102C200021F416FD6CC1106406C08C3611F41068D6
:102C300002C0883659F4EC85FD8593FD859193FF9C
:102C40008191FD87EC87882309F0B8CF982F9554A0
:102C5000933018F09052933038F424E030E0A20E14
:102C6000B31E3FE339830FC0833631F0833781F0E1
:102C7000833509F05AC022C0F5018081898322E0A2
:102C800030E0A20EB31E21E0C22ED12C420114C0AE
:102C900092E0292E312C2A0C3B1CF501808091807A
:102CA00016FF03C06F2D70E002C06FEF7FEFC4010D
:102CB0000E94A9176C0151011F7715C082E0282ED0
:102CC000312C2A0C3B1CF5018080918016FF03C03B
:102CD0006F2D70E002C06FEF7FEFC4010E949E175E
:102CE0006C011068510113FD1CC006C080E290E029
:102CF000B3010E94B417EA948E2D90E0C816D9064D
:102D0000A8F30FC0F40117FD859117FF81914F01C2
:102D100090E0B3010E94B417E110EA940894C1084E
:102D2000D108C114D10471F7E7C0843611F0893697
:102D300051F5F50117FF07C080819181A281B38110
:102D400024E030E008C080819181AA2797FDA095FA
:102D5000BA2F22E030E0A20EB31E012F0F76B7FF8C
:102D600008C0B095A095909581959F4FAF4FBF4FEC
:102D70000068BC01CD01A2012AE030E00E94E0170A
:102D8000D82ED4183FC0853721F41F7E2AE030E0CA
:102D900020C0197F8F36A9F0803720F4883509F0DC
:102DA000AEC00BC0803721F0883709F0A8C001C041
:102DB000106114FF09C0146007C014FF08C016603A
:102DC00006C028E030E005C020E130E002C020E18C
:102DD00032E0F50117FF07C0608171818281938124
:102DE00044E050E006C06081718180E090E042E004
:102DF00050E0A40EB51EA2010E94E017D82ED418F0
:102E0000012F0F7706FF09C00E7FDF1430F404FF97
:102E100006C002FD04C00F7E02C01D2D01C01F2D83
:102E2000802F90E004FF0CC0FE01ED0DF11D20810C
:102E3000203311F4097E09C002FF06C01E5F05C0E1
:102E400086789070009709F01F5F802E992403FD0B
:102E500012C000FF0DC0FD2C1E1550F4FE0CF11A1F
:102E60001E2D06C080E290E0B3010E94B4171F5FE0
:102E70001E15C0F304C01E1510F4E11A01C0EE24A3
:102E800084FE0FC080E390E0B3010E94B41782FE7D
:102E90001FC081FE03C088E590E010C088E790E085
:102EA0000DC0C40186789070009791F081FC02C03B
:102EB00080E201C08BE207FD8DE290E0B3010E9449
:102EC000B41706C080E390E0B3010E94B417FA94EF
:102ED000DF14C0F3DA94F201ED0DF11D808190E072
:102EE000B3010E94B417DD20A9F706C080E290E08C
:102EF000B3010E94B417EA94EE20C1F740CEF3016B
:102F00008681978102C08FEF9FEF2D960FB6F894C0
:102F1000DEBF0FBECDBFDF91CF911F910F91FF900C
:102F2000EF90DF90CF90BF90AF909F908F907F9069
:102F30006F905F904F903F902F900895FC01059007
:102F4000615070400110D8F7809590958E0F9F1FAB
:102F50000895FC016150704001900110D8F78095F0
:102F600090958E0F9F1F08950F931F93CF93DF931C
:102F70008C01EB018B8181FF1BC082FF0DC02E8174
:102F80003F818C819D812817390764F4E881F9819C
:102F90000193F983E88306C0E885F985802F0995B8
:102FA000009731F48E819F8101969F838E8302C0AA
:102FB0000FEF1FEFC801DF91CF911F910F9108957F
:102FC000FA01AA27283051F1203181F1E8946F935A
:102FD0006E7F6E5F7F4F8F4F9F4FAF4FB1E03ED000
:102FE000B4E03CD0670F781F891F9A1FA11D680F9E
:102FF000791F8A1F911DA11D6A0F711D811D911DD1
:10300000A11D20D009F468943F912AE0269F112445
:103010003019305D3193DEF6CF010895462F4770A9
:10302000405D4193B3E00FD0C9F7F6CF462F4F7004
:10303000405D4A3318F0495D31FD4052419302D062
:10304000A9F7EACFB4E0A695979587957795679508
:10305000BA95C9F700976105710508959B01AC0108
:103060000A2E06945795479537952795BA95C9F72F
:10307000620F731F841F951FA01D0895F894FFCF42
:10308000100F0E0D0C0906030A0805020B070401B8
:103090000E0D0B070C12120C000000000C1204089D
:1030A0001E0000000A15110A040000000305090BA8
:1030B0000B1818001F0E0E0404040404010105057A
:1030C000151515000E11111F1F1F1F000000000015
:1030D0000000000000696E666F0D0A0053544154F1
:1030E00055533A20253032580D0A00434F4E464979
:1030F000473A20253032580D0A0052465F43483A7D
:1031000020253032580D0A0052465F534554555021
:103110003A20253032580D0A00454E5F41413A2091
:10312000253032580D0A00454E5F525841444452F2
:103130003A20253032580D0A004F42534552564529
:103140005F54583A20253032580D0A000D0A00E825
:10315000E8F0F0E2C1C2C2C2C2C1C2C2C2C3C1C2AF
:10316000C2C2C4C1C2C2C2C5C1C2C2C2C6E8E8F0BE
:10317000F0E25761697474696E672E2E2E00412D3E
:1031800043414C4C2020422D44454C00432D50419E
:10319000592020442D5754004E686170206D6120E5
:1031A0006D6F6E20616E3A005F205F205F004E6899
:1031B000617020736F206C756F6E673A005F205FDF
:0831C000000000B6022000002F
:00000001FF
