:100000000C9471000C9490000C9490000C9490004F
:100010000C9490000C9490000C9490000C94900020
:100020000C9490000C9490000C9490000C94900010
:100030000C9490000C9490000C9490000C94900000
:100040000C947E030C9490000C9490000C949000FF
:100050000C9490000C9490000C9490000C949000E0
:100060000C9490000C9490000C9490000C949000D0
:100070000C9490000C9490000C9490000C949000C0
:100080000C9490000C9490000C9490008F08151123
:10009000C608F2081B09151123099D09170A6C0BE4
:1000A000270CA10C3F0EFA0E740FE60F0B10151162
:1000B00022107A10D7105F1166116D1175117C1125
:1000C00083118C1196119F11A811B111BA11C3118E
:1000D000CC11D511DD11E511ED11F511FE1106124E
:1000E0000E1211241FBECFEFD0E1DEBFCDBF12E054
:1000F000A0E0B1E0E8E2F0E300E00BBF02C007904F
:100100000D92A235B107D9F712E0A2E5B2E001C025
:100110001D92A23BB107E1F70E945E030C941218F6
:100120000C940000AF92BF92CF92DF92EF92FF92B9
:100130000F931F93CF93DF9320E030E041E050E036
:10014000E2E6F0E0A0E1B1E00F2EF1E1AF2EF1E048
:10015000BF2EF02D02E111E00F2EF3E1EF2EF1E0C2
:10016000FF2EF02DB901C90104966A0102C0CC0C22
:10017000DD1C8A95E2F7C6018095808383E08A952D
:10018000F1F7000080B18F708F3029F19C919817A2
:10019000A9F0E5019881981759F0E801988198171E
:1001A00051F0E70198819817B1F4E3E0F0E008C05E
:1001B000E1E0F0E005C0E2E0F0E002C0E0E0F0E005
:1001C000EE0FFF1FEE0FFF1F6E0F7F1FFB01E050B2
:1001D000FF4F808106C02F5F3F4F2430310511F65D
:1001E00080E0DF91CF911F910F91FF90EF90DF9012
:1001F000CF90BF90AF90089580EF809361008FE023
:100200008093620008958FEC97E00197F1F700C0AA
:1002100000000895282F22952F708F70662311F407
:10022000D89801C0D89AD99A9BB3220F220F937CF9
:10023000922B9BBBD998D99A9BB3880F880F937C3C
:10024000892B8BBBD9980E94030108950F931F93AC
:10025000CF93DF938C01FC018081882309F18532E3
:10026000A9F4E8012196F80181818053883020F4B7
:1002700061E00E940A010EC085E261E00E940A016D
:10028000F801818161E00E940A0104C061E00E94DE
:100290000A01E8018E010F5F1F4F89818823F9F65B
:1002A000DF91CF911F910F910895EF92FF920F93DD
:1002B0001F93CF93DF9300D000D00F92CDB7DEB75E
:1002C0007B01FE01319625E0DF011D922A95E9F7B9
:1002D000009761F0FE0136962AE030E0B9010E94F5
:1002E000E6138293862F972F0097C1F7BFEFEB1687
:1002F000BFEFFB0669F42981222379F4FE013296CF
:1003000000E010E00F5F1F4F21912223D9F307C0B7
:1003100005E010E00E191F0902C000E010E099236B
:1003200024F48DE261E00E940A0105301105BCF45D
:10033000E1E0F0E0EC0FFD1F0E0F1F1F0F2EF6E0A7
:10034000EF2EFF24F02DEC0EFD1ED8018D918D01B6
:10035000805D61E00E940A010E151F05B1F70F9044
:100360000F900F900F900F90DF91CF911F910F91F1
:10037000FF90EF900895843178F4623031F063306B
:1003800031F0613029F4806403C08C5E01C08C5A66
:10039000806860E00E940A0108950F931F93CF9335
:1003A000DF93C82F8BE49DE10197F1F700C00000B7
:1003B0008AB38C638ABBD19AD09A8BB3837C8BBB74
:1003C000D998D898D99ADB9AD9980E9403018C2F92
:1003D0008C6060E00E940A0188E260E00E940A01ED
:1003E00080E460E00E940A01C4E1D1E004E511E08C
:1003F000899161E00E940A01C017D107C9F780E026
:1004000060E00E94BB01DF91CF911F910F91089591
:100410000E949200682F70E080E090E008950E94B2
:10042000FC0008950E94260108950F93CF93DF9357
:10043000EC01842F602F0E94BB01CE010E94260197
:10044000DF91CF910F9108954F925F926F927F92BB
:10045000AF92BF92CF92DF92EF92FF922B013C01BD
:10046000822F6E2D760165010E94BB01C201B6018B
:100470000E945501FF90EF90DF90CF90BF90AF901A
:100480007F906F905F904F90089581E060E00E94B0
:100490000A0182E060E00E940A01089580E00E9463
:1004A000CD0108950F931F93CF93DF930F92CDB794
:1004B000DEB71982CE0101960E941E06882399F0AC
:1004C0008981882399F4E4E5F2E0CF01099611923D
:1004D000E817F907E1F704E512E080E0B8010E94AF
:1004E0003006C80105C084E591E002C084E591E0D2
:1004F0000F90DF91CF911F910F910895CF93DF93CC
:100500009C01CFE5D2E080E090E0A22FB32FFD0167
:1005100001900020E9F73197EA1BFB0B8E179F072C
:1005200030F4F901E80FF91F4081488301C01882B7
:10053000019621968930910541F785E591E00E9469
:100540008E048FE592E00E945606982FEFECF7E0BC
:100550003197F1F700C0000081E0913009F080E0B0
:10056000DF91CF910895EFE5F2E0CF01099621E008
:100570002193E817F907E1F78AE591E00E948E04DC
:100580008FE592E00E945606982FEFECF7E0319746
:10059000F1F700C0000081E0913009F080E008959B
:1005A0000F931F93CF93DF930F92CDB7DEB71982CE
:1005B000CE0101960E941E068823F1F089818530C4
:1005C000E9F4E4E5F2E08F01075F1F4F1192E017B5
:1005D000F107E1F785E064E572E00E943006809162
:1005E0005402813069F4E5E5F2E08191813051F403
:1005F000E017F107D1F707C080E005C080E003C035
:1006000080E001C080E00F90DF91CF911F910F91AA
:100610000895AF92EF92822FEFE5F2E0AF01475FCE
:100620005F4F1192E417F507E1F7605D60935F0299
:100630003AE0632F0E94DA13905D909361020E946A
:10064000DA13905D909360028E2D0E94DA13905D14
:10065000909364020E94DA13905D909363020E946B
:10066000DA13905D909362028A2D0E94DA13905DF6
:10067000909366020E94DA13905D9093650285E57F
:1006800091E00E948E048FE592E00E945606982F1A
:10069000EFECF7E03197F1F700C0000081E0913016
:1006A00009F080E0EF90AF9008950E94E61208955F
:1006B0000E94321308950E94AC0608958FE084BB17
:1006C00085BB82E090E00E940D1480935D029093C0
:1006D0005E020E94DA1280915D0290915E020E9499
:1006E0006B0780915D0290915E020E94720780917B
:1006F0005D0290915E020E944908F9CF1F920F920D
:100700000FB60F920BB60F9211242F933F934F9376
:100710005F936F937F938F939F93AF93BF93EF9369
:10072000FF9383E882BF80915D0290915E020E94F8
:100730006713FF91EF91BF91AF919F918F917F913F
:100740006F915F914F913F912F910F900BBE0F9042
:100750000FBE0F901F901895AE988F710E94D51202
:100760008FEF0E94D512AE9A0895FF920F931F93B8
:10077000CF93DF93062FF72E142FAE988F710E9420
:10078000D512112351F0C02FDF2D00E08FEF0E9412
:10079000D51289930F5F0117C9F7AE9ADF91CF91F8
:1007A0001F910F91FF900895CF93C62FAE988F7130
:1007B00080620E94D5128C2F0E94D512AE9ACF91E2
:1007C0000895FF920F931F93CF93DF93062FF72E79
:1007D000142FAE988F7180620E94D512112349F0B8
:1007E000C02FDF2D00E089910E94D5120F5F011705
:1007F000D1F7AE9ADF91CF911F910F91FF9008959D
:1008000020E030E00496DB01A20FB31FFC01E21BE5
:10081000F30B40814C932F5F3F4F2530310599F703
:100820000895CF93DF9300D000D00F92CDB7DEB7FD
:100830008823B1F4A9EDB1E0FB0185E001900D92B0
:100840008150E1F7CB01BE016F5F7F4F0E94000432
:100850008AE0BE016F5F7F4F45E00E94E10356C012
:100860008130B1F4AEEDB1E0FB0185E001900D9275
:100870008150E1F7CB01BE016F5F7F4F0E94000402
:100880008BE0BE016F5F7F4F45E00E94E1033EC0F9
:10089000823071F4A3EEB1E0FB0185E001900D928E
:1008A0008150E1F78CE0FB0164810E94D4032EC0EB
:1008B000833071F4A8EEB1E0FB0185E001900D9268
:1008C0008150E1F78DE0FB0164810E94D4031EC0DA
:1008D000843071F4ADEEB1E0FB0185E001900D9242
:1008E0008150E1F78EE0FB0164810E94D4030EC0C9
:1008F000853061F4A2EFB1E0FB0101900D928150CF
:10090000E1F78FE0FB0164810E94D4030F900F9008
:100910000F900F900F90DF91CF910895CF93DF93B9
:1009200000D000D00F92CDB7DEB7A7EFB1E0E82F2F
:10093000F92F25E001900D922150E1F7BE016F5F84
:100940007F4F0E9400048AE0BE016F5F7F4F45E049
:100950000E94E10380E1BE016F5F7F4F45E00E948E
:10096000E1030F900F900F900F900F90DF91CF91B8
:100970000895AE9882EE0E94D512AE9A0895AE9870
:1009800081EE0E94D512AE9A089580E069ED71E083
:100990000E94110480E00E94AC03682F616080E037
:1009A0000E94D40380E00E94AC03682F626080E064
:1009B0000E94D40387E060E70E94D4030E94B90438
:1009C0000E94BF04AF9A82E38A95F1F70895AF9829
:1009D00080E00E94AC03682F6E7F80E00E94D40309
:1009E00080E00E94AC03682F626080E00E94D40324
:1009F00087E060E70E94D4030E94BF0482E38A95E7
:100A0000F1F70895AE988FEF0E94D512AE9A08952F
:100A1000EF92FF920F931F93CF93DF93CDB7DEB783
:100A2000C456D0400FB6F894DEBF0FBECDBF7C01D8
:100A30008FE591E0F70109950E94020500D000D0F2
:100A400000D0EDB7FEB731968E010F5F1F4FADB7E7
:100A5000BEB712961C930E93119726E631E03383AE
:100A60002283848315820E943C158DB79EB706961B
:100A70000FB6F8949EBF0FBE8DBFC801F701099550
:100A800080E00E94AC0300D000D000D0EDB7FEB7EC
:100A90003196ADB7BEB712961C930E93119725E70A
:100AA00031E033832283848315820E943C158DB705
:100AB0009EB706960FB6F8949EBF0FBE8DBFC801B5
:100AC000F701099585E00E94AC0300D000D000D06A
:100AD000EDB7FEB73196ADB7BEB712961C930E9325
:100AE000119724E831E033832283848315820E94A6
:100AF0003C158DB79EB706960FB6F8949EBF0FBEF5
:100B00008DBFC801F701099586E00E94AC0300D0B3
:100B100000D000D0EDB7FEB73196ADB7BEB7129694
:100B20001C930E93119722E931E03383228384834F
:100B300015820E943C158DB79EB706960FB6F894A5
:100B40009EBF0FBE8DBFC801F701099581E00E94CD
:100B5000AC0300D000D000D0EDB7FEB73196ADB7F2
:100B6000BEB712961C930E93119723EA31E033839C
:100B70002283848315820E943C158DB79EB706960A
:100B80000FB6F8949EBF0FBE8DBFC801F70109953F
:100B900082E00E94AC0300D000D000D0EDB7FEB7D9
:100BA0003196ADB7BEB712961C930E93119721EBF9
:100BB00031E033832283848315820E943C158DB7F4
:100BC0009EB706960FB6F8949EBF0FBE8DBFC801A4
:100BD000F701099588E00E94AC0300D000D000D056
:100BE000EDB7FEB73196ADB7BEB712961C930E9314
:100BF000119723EC31E033832283848315820E9492
:100C00003C158DB79EB706960FB6F8949EBF0FBEE3
:100C10008DBFC801F701099586ED91E0F7010995AF
:100C2000CC59DF4F0FB6F894DEBF0FBECDBFDF91BA
:100C3000CF911F910F91FF90EF900895CF93DF9385
:100C4000EC010E940205982F907486FF05C0209742
:100C500019F0869587708883892FDF91CF91089549
:100C60000F931F93CF93DF93062F172FAE9881E634
:100C70000E94D512C02FD12F10E08FEF0E94D51205
:100C800089931F5F1930C9F7AE9A87E060E40E942C
:100C9000D4030E94020585FF04C087E060E20E9441
:100CA000D403DF91CF911F910F9108950F931F935C
:100CB000CF93DF93082F192F0E94E704AE9880EAA4
:100CC0000E94D512C02FD12F19E089910E94D51210
:100CD0001150D9F7AE9AAF9A85E08A95F1F7AF989F
:100CE00083E08A95F1F700000E9402058073C1F34A
:100CF0000E940205C82F85E06CE40E94D40380E0C6
:100D00000E94AC03682F6D7F80E00E94D4030E9494
:100D1000C50481E0C5FF80E0DF91CF911F910F9165
:100D2000089586E00E94AC03682F666086E00E940A
:100D3000D403089586E00E94AC03682F677D86E0A7
:100D40000E94D403089580E00E94AC03682F6C6079
:100D500080E00E94D4030895A69AA79A0E94CA121E
:100D6000AF98AE9A81EE94E00197F1F700C00000D1
:100D70000E9491060E949A060E94A30684E067E4FE
:100D80000E94D4038CE160E00E94D40385E06CE40F
:100D90000E94D40381E169E00E94D40382E169E00A
:100DA0000E94D40383E169E00E94D40384E169E0F6
:100DB0000E94D40385E169E00E94D40386E169E0E2
:100DC0000E94D40382E060E00E94D40382E00E948B
:100DD000AC03682F616082E00E94D40382E00E942D
:100DE000AC03682F626082E00E94D40382E00E941C
:100DF000AC03682F646082E00E94D40382E00E940A
:100E0000AC03682F686082E00E94D40382E00E94F5
:100E1000AC03682F606182E00E94D40382E00E94EC
:100E2000AC03682F606282E00E94D40381E00E94DC
:100E3000AC03682F616081E00E94D40381E00E94CE
:100E4000AC03682F626081E00E94D40381E00E94BD
:100E5000AC03682F646081E00E94D40381E00E94AB
:100E6000AC03682F686081E00E94D40381E00E9497
:100E7000AC03682F606181E00E94D40381E00E948E
:100E8000AC03682F606281E00E94D40380E069EDCA
:100E900071E00E94110481E06EED71E00E94110486
:100EA00082E063EE71E00E94110483E068EE71E07D
:100EB0000E94110484E06DEE71E00E94110485E04F
:100EC00062EF71E00E94110487EF91E00E948E04AE
:100ED0000E94C5040895FC0186E18083818313820A
:100EE000128208951F93CF93DF93EC0111E01DA7A9
:100EF000C89648EB5BE060E070E020E00E9455039C
:100F000081E090E0A0E0B0E08AAB9BABACABBDABC6
:100F10000E944E020E940F020E945B030E94450243
:100F20008CEF91E00E94120218831B821A82DF91DB
:100F3000CF911F910895CF93DF93EC018881833087
:100F400069F0843081F0813091F486E188831B82DE
:100F50001A82CE01C8960E94580309C086E1888390
:100F60001B821A8204C086E188831B821A828981CF
:100F70008C3009F454C08D3078F48830A1F1893078
:100F800030F4853011F1873009F080C025C08A30F7
:100F9000C1F18B30E8F52EC0813109F45CC082319B
:100FA00050F48F3009F449C0803108F04DC08E30C4
:100FB00009F06CC03BC0843109F45BC0853109F491
:100FC0005FC0833109F062C04DC086E1898381E052
:100FD00090E09B838A835AC086E1898381E090E018
:100FE0009B838A8353C086E1898381E090E09B8361
:100FF0008A834CC086E1898381E090E09B838A8369
:1010000045C086E1898381E090E09B838A833EC06E
:1010100086E1898381E090E09B838A8337C086E103
:10102000898381E090E09B838A8330C086E1898355
:1010300081E090E09B838A8329C086E1898381E0F7
:1010400090E09B838A8322C086E1898381E090E0DF
:101050009B838A831BC086E1898381E090E09B8328
:101060008A8314C086E1898381E090E09B838A8330
:101070000DC086E1898381E090E09B838A8306C06E
:1010800086E1898381E090E09B838A83DF91CF9121
:1010900008952F923F924F925F926F927F928F921C
:1010A0009F92AF92BF92CF92DF92EF92FF920F93F7
:1010B0001F93CF93DF93EC011B821A8280E090E0B4
:1010C00001E010E044245524320143940F2EFCE04B
:1010D000AF2EF02D0F2EF9E09F2EF02D0F2EF1E107
:1010E000BF2EF02D882483943324689432F80F2E79
:1010F000F3E02F2EF02D8C0F9D1FFC01808190E0DE
:1011000001978531910510F00C9415118A5B9F4F62
:10111000FC01EE0FFF1F0590F491E02D099488ADBE
:10112000882311F40C94151186E188831B821A829E
:10113000CE01C8960E9458030E940802DC01CB0130
:101140008C839D83AE83BF831C8683E088831B8250
:101150001A820E94450288E092E00E94120286E113
:1011600092E040E050E0BA0101E010E020E030E021
:101170000E9415021EA61FA618AA19AA85E0898337
:1011800081E090E09B838A830C9437118C819D8150
:10119000AE81BF810097A105B105B1F0F6E1F883FA
:1011A0001B821A8288879987AA87BB870E940802B8
:1011B000DC01CB018C839D83AE83BF838C86388218
:1011C0001B821A820C943D110E940802DC01CB01A3
:1011D0008C839D83AE83BF831C8628821B821A82E8
:1011E0000C943D118C819D81AE81BF810097A1053A
:1011F000B10599F426E128831B821A828D860E940C
:101200000802DC01CB018C839D83AE83BF831C86E7
:1012100028821B821A820C943D110E940802DC0174
:10122000CB018C839D83AE83BF838C8638821B82E7
:101230001A820C943D111B830A83188619861A861C
:101240001B86B982F2C78EA59FA5A8A9B9A9009748
:10125000A105B10509F069C089818A3041F18B305F
:1012600040F48830B1F08930D8F4873009F041C0BB
:1012700009C08C3051F18C3008F18E3069F18F301B
:10128000C1F531C086E1898381E090E09B838A8348
:1012900030C086E1898381E090E09B838A8329C006
:1012A00086E1898381E090E09B838A8322C086E186
:1012B000898381E090E09B838A831BC086E18983D8
:1012C00081E090E09B838A8314C086E1898381E07A
:1012D00090E09B838A830DC086E1898381E090E062
:1012E0009B838A8306C086E1898381E090E09B83AB
:1012F0008A830E94450288E092E00E94120286E101
:1013000092E040E050E0BA0101E010E020E030E07F
:101310000E9415021EA61FA618AA19AA85E0898395
:1013200081E090E09B838A83A2C71B830A8318868F
:1013300019861A861B86998278C78EA59FA5A8A9AB
:10134000B9A90097A105B10509F069C089818A3062
:1013500041F18B3040F48830B1F08930D8F48730D7
:1013600009F041C009C08C3051F18C3008F18E3049
:1013700069F18F30C1F531C086E1898381E090E069
:101380009B838A8330C086E1898381E090E09B83E0
:101390008A8329C086E1898381E090E09B838A83E8
:1013A00022C086E1898381E090E09B838A831BC011
:1013B00086E1898381E090E09B838A8314C086E183
:1013C000898381E090E09B838A830DC086E18983D5
:1013D00081E090E09B838A8306C086E1898381E077
:1013E00090E09B838A830E94450288E092E00E94FD
:1013F000120286E192E040E050E0BA0101E010E024
:1014000020E030E00E9415021EA61FA618AA19AA05
:1014100085E0898381E090E09B838A8328C71B83D2
:101420000A83188619861A861B869982FEC68EA59F
:101430009FA5A8A9B9A90097A105B10509F069C0A0
:1014400089818A3041F18B3040F48830B1F08930A5
:10145000D8F4873009F041C009C08C3051F18C308C
:1014600008F18E3069F18F30C1F531C086E1898392
:1014700081E090E09B838A8330C086E1898381E0AC
:1014800090E09B838A8329C086E1898381E090E094
:101490009B838A8322C086E1898381E090E09B83DD
:1014A0008A831BC086E1898381E090E09B838A83E5
:1014B00014C086E1898381E090E09B838A830DC01C
:1014C00086E1898381E090E09B838A8306C086E180
:1014D000898381E090E09B838A830E94450288E0B3
:1014E00092E00E94120286E192E040E050E0BA01F0
:1014F00001E010E020E030E00E9415021EA61FA6C9
:1015000018AA19AA85E0898381E090E09B838A83E9
:10151000AEC689A59AA5ABA5BCA583309105A1054A
:10152000B1050CF068C0C884D984EA84FB84EAE081
:10153000CE16D104E104F1040CF04BC01C141D04C0
:101540001E041F040CF045C02D85222309F441C060
:1015500026E129838824992483949B828A829C0192
:10156000AD01220F331F441F551FC701B601EE24E2
:10157000FF248701E394AA24BB246501A3940E945D
:10158000240289A59AA5ABA5BCA50196A11DB11DF4
:1015900089A79AA7ABA7BCA769A17AA18BA19CA197
:1015A0002AE030E040E050E00E94BB13AB01BC01F8
:1015B00088859985AA85BB85840F951FA61FB71FAF
:1015C00089A39AA3ABA3BCA388E089839B828A8268
:1015D0004EC6FAE0CF16D104E104F10461F48D8522
:1015E000882349F01B830A83188619861A861B866E
:1015F0002AE029831AC688859985AA85BB858C30FF
:101600009105A105B10541F52D85222329F186E13A
:101610008983EE24FF24E394FB82EA820E94450240
:1016200082E292E00E94120282E392E040E050E007
:10163000BA0101E010E020E030E00E94150219A696
:101640001AA61BA61CA619A21AA21BA21CA287E0FE
:101650008983FB82EA820BC68B309105A105B10517
:1016600041F52D85222329F186E18983EE24FF248B
:10167000E394FB82EA820E94450288E392E00E94A2
:10168000120287E492E040E050E0BA0101E010E08D
:1016900020E030E00E94150219A61AA61BA61CA67F
:1016A0001DA21EA21FA218A68BE08983FB82EA82DC
:1016B000DEC580319105A105B10509F0B6C58D855E
:1016C000882309F4B2C51B830A831EA61FA618AA85
:1016D00019AA8FE08983A9C58EA59FA5A8A9B9A934
:1016E0000097A105B10509F069C089818A3041F1EF
:1016F0008B3040F48830B1F08930D8F4873009F06D
:1017000041C009C08C3051F18C3008F18E3069F144
:101710008F30C1F531C086E1898381E090E09B8301
:101720008A8330C086E1898381E090E09B838A834D
:1017300029C086E1898381E090E09B838A8322C06F
:1017400086E1898381E090E09B838A831BC086E1E8
:10175000898381E090E09B838A8314C086E189833A
:1017600081E090E09B838A830DC086E1898381E0DC
:1017700090E09B838A8306C086E1898381E090E0C4
:101780009B838A830E94450288E092E00E941202B5
:1017900086E192E040E050E0BA0101E010E020E094
:1017A00030E00E9415021EA61FA618AA19AA85E0FD
:1017B000898381E090E09B838A8359C586E1898390
:1017C0008824992483949B828A82C884D984EA8459
:1017D000FB8489A59AA5ABA5BCA59C01AD01220FF0
:1017E000331F441F551FC701B601EE24FF24870194
:1017F000E394AA24BB246501A3940E94240289A532
:101800009AA5ABA5BCA50196A11DB11D89A79AA754
:10181000ABA7BCA769A17AA18BA19CA12AE030E06B
:1018200040E050E00E94BB13AB01BC018885998564
:10183000AA85BB85840F951FA61FB71F89A39AA3EE
:10184000ABA3BCA388E089839B828A8210C58EA546
:101850009FA5A8A9B9A90097A105B10509F069C07C
:1018600089818A3041F18B3040F48830B1F0893081
:10187000D8F4873009F041C009C08C3051F18C3068
:1018800008F18E3069F18F30C1F531C086E189836E
:1018900081E090E09B838A8330C086E1898381E088
:1018A00090E09B838A8329C086E1898381E090E070
:1018B0009B838A8322C086E1898381E090E09B83B9
:1018C0008A831BC086E1898381E090E09B838A83C1
:1018D00014C086E1898381E090E09B838A830DC0F8
:1018E00086E1898381E090E09B838A8306C086E15C
:1018F000898381E090E09B838A830E94450288E08F
:1019000092E00E94120286E192E040E050E0BA01CB
:1019100001E010E020E030E00E9415021EA61FA6A4
:1019200018AA19AA85E0898381E090E09B838A83C5
:101930009EC41B830A83188619861A861B86A98271
:1019400074C48EA59FA5A8A9B9A90097A105B10542
:1019500009F069C089818A3041F18B3040F48830C8
:10196000B1F08930D8F4873009F041C009C08C301B
:1019700051F18C3008F18E3069F18F30C1F531C0F2
:1019800086E1898381E090E09B838A8330C086E191
:10199000898381E090E09B838A8329C086E18983E3
:1019A00081E090E09B838A8322C086E1898381E085
:1019B00090E09B838A831BC086E1898381E090E06D
:1019C0009B838A8314C086E1898381E090E09B83B6
:1019D0008A830DC086E1898381E090E09B838A83BE
:1019E00006C086E1898381E090E09B838A830E9420
:1019F000450288E092E00E94120286E192E040E017
:101A000050E0BA0101E010E020E030E00E94150251
:101A10001EA61FA618AA19AA85E0898381E090E076
:101A20009B838A8324C489A59AA5ABA5BCA58230D3
:101A30009105A105B1050CF068C0C884D984EA8479
:101A4000FB84EAE0CE16D104E104F10461F42D85B3
:101A5000222349F01B830A83188619861A861B865F
:101A6000FDE0F983E2C32AE0C216D104E104F104E7
:101A70000CF04BC01C141D041E041F040CF045C0C8
:101A80002D85222309F441C026E129838824992445
:101A900083949B828A829C01AD01220F331F441FD5
:101AA000551FC701B601EE24FF248701E394AA2441
:101AB000BB246501A3940E94240289A59AA5ABA525
:101AC000BCA50196A11DB11D89A79AA7ABA7BCA76C
:101AD0006DA17EA18FA198A52AE030E040E050E002
:101AE0000E94BB13AB01BC0188859985AA85BB8583
:101AF000840F951FA61FB71F8DA39EA3AFA3B8A7E2
:101B00008EE089839B828A82B2C388859985AA8563
:101B1000BB858C309105A105B10541F52D852223AA
:101B200029F186E18983EE24FF24E394FB82EA8293
:101B30000E94450288E392E00E94120287E492E04C
:101B400040E050E0BA0101E010E020E030E00E9407
:101B5000150219A61AA61BA61CA61DA21EA21FA22C
:101B600018A68BE08983FB82EA8281C38B309105C2
:101B7000A105B10509F070C02D85222309F46CC0C0
:101B800089818A3041F18B3040F48830B1F089305E
:101B9000D8F4873009F041C009C08C3051F18C3045
:101BA00008F18E3069F18F30C1F531C086E189834B
:101BB00081E090E09B838A8330C086E1898381E065
:101BC00090E09B838A8329C086E1898381E090E04D
:101BD0009B838A8322C086E1898381E090E09B8396
:101BE0008A831BC086E1898381E090E09B838A839E
:101BF00014C086E1898381E090E09B838A830DC0D5
:101C000086E1898381E090E09B838A8306C086E138
:101C1000898381E090E09B838A831F8A188E198EC6
:101C20001A8E1B8E6EA57FA588A999A92AA93BA902
:101C30004CA95DA9E9A0FAA00BA11CA1ADA0BEA072
:101C4000CFA0D8A40E9409038F8B83E1898381E010
:101C500090E09B838A830BC380319105A105B10578
:101C600009F0E3C28D85882309F4DFC21B830A8350
:101C70001EA61FA618AA19AA8FE08983D6C28EA510
:101C80009FA5A8A9B9A90097A105B10509F069C048
:101C900089818A3041F18B3040F48830B1F089304D
:101CA000D8F4873009F041C009C08C3051F18C3034
:101CB00008F18E3069F18F30C1F531C086E189833A
:101CC00081E090E09B838A8330C086E1898381E054
:101CD00090E09B838A8329C086E1898381E090E03C
:101CE0009B838A8322C086E1898381E090E09B8385
:101CF0008A831BC086E1898381E090E09B838A838D
:101D000014C086E1898381E090E09B838A830DC0C3
:101D100086E1898381E090E09B838A8306C086E127
:101D2000898381E090E09B838A830E94450288E05A
:101D300092E00E94120286E192E040E050E0BA0197
:101D400001E010E020E030E00E9415021EA61FA670
:101D500018AA19AA85E0898381E090E09B838A8391
:101D600086C286E189838824992483949B828A820F
:101D7000C884D984EA84FB8489A59AA5ABA5BCA5AF
:101D80009C01AD01220F331F441F551FC701B6012F
:101D9000EE24FF248701E394AA24BB246501A394C5
:101DA0000E94240289A59AA5ABA5BCA50196A11DF8
:101DB000B11D89A79AA7ABA7BCA76DA17EA18FA1D2
:101DC00098A52AE030E040E050E00E94BB13AB0150
:101DD000BC0188859985AA85BB85840F951FA61FA0
:101DE000B71F8DA39EA3AFA3B8A78EE089839B8264
:101DF0008A823DC28EA59FA5A8A9B9A90097A10571
:101E0000B10509F069C089818A3041F18B3040F415
:101E10008830B1F08930D8F4873009F041C009C06A
:101E20008C3051F18C3008F18E3069F18F30C1F572
:101E300031C086E1898381E090E09B838A8330C052
:101E400086E1898381E090E09B838A8329C086E1D3
:101E5000898381E090E09B838A8322C086E1898325
:101E600081E090E09B838A831BC086E1898381E0C7
:101E700090E09B838A8314C086E1898381E090E0AF
:101E80009B838A830DC086E1898381E090E09B83F8
:101E90008A8306C086E1898381E090E09B838A8300
:101EA0000E94450288E092E00E94120286E192E0E0
:101EB00040E050E0BA0101E010E020E030E00E9494
:101EC00015021EA61FA618AA19AA85E0898381E01B
:101ED00090E09B838A83CBC11B830A831886198673
:101EE0001A861B86A982A1C18EA59FA5A8A9B9A9FA
:101EF0000097A105B10509F098C189818A3041F1A7
:101F00008B3040F48830B1F08930D8F4873009F054
:101F100041C009C08C3051F18C3008F18E3069F12C
:101F20008F30C1F531C086E1898381E090E09B83E9
:101F30008A8330C086E1898381E090E09B838A8335
:101F400029C086E1898381E090E09B838A8322C057
:101F500086E1898381E090E09B838A831BC086E1D0
:101F6000898381E090E09B838A8314C086E1898322
:101F700081E090E09B838A830DC086E1898381E0C4
:101F800090E09B838A8306C086E1898381E090E0AC
:101F90009B838A830E94450288E092E00E9412029D
:101FA00086E192E040E050E0BA0101E010E020E07C
:101FB00030E00E9415021EA61FA618AA19AA85E0E5
:101FC000898381E090E09B838A8351C186E1898384
:101FD000EE24FF24E394FB82EA820E94450282E21F
:101FE00092E00E94120282E392E040E050E0BA01E7
:101FF00001E010E020E030E00E94150219A61AA6C8
:102000001BA61CA619A21AA21BA21CA287E08983E8
:10201000FB82EA822CC188859985AA85BB858D3093
:102020009105A105B10509F000C18D85882309F44A
:10203000FCC01B830A834EA65FA668AA79AAE0E1CA
:10204000E983F3C08F898823D9F18981843159F0DC
:10205000853181F08331A1F486E1898381E090E0CC
:102060009B838A830DC086E1898381E090E09B8316
:102070008A8306C086E1898381E090E09B838A831E
:102080000E94450282E292E00E94120282E392E004
:1020900040E050E0BA0101E010E020E030E00E94B2
:1020A000150219A61AA61BA61CA619A21AA21BA2E3
:1020B0001CA287E0898381E090E09B838A83D7C05C
:1020C0006EA57FA588A999A92AA93BA94CA95DA9B4
:1020D000E9A0FAA00BA11CA1ADA0BEA0CFA0D8A4DE
:1020E0000E9409038F8B83E1898381E090E09B83C9
:1020F0008A83BDC08F898823D9F18981843159F0C1
:10210000853181F08331A1F486E1898381E090E01B
:102110009B838A830DC086E1898381E090E09B8365
:102120008A8306C086E1898381E090E09B838A836D
:102130000E94450282E292E00E94120282E392E053
:1021400040E050E0BA0101E010E020E030E00E9401
:10215000150219A61AA61BA61CA619A21AA21BA232
:102160001CA287E0898381E090E09B838A837FC003
:1021700086E189838824992483949B828A826EA530
:102180007FA588A999A92AA93BA94CA95DA9E9A07D
:10219000FAA00BA11CA1ADA0BEA0CFA0D8A40E9404
:1021A00009038F8B83E189839B828A8260C08F8938
:1021B0008823D9F18981843159F0853181F08331C7
:1021C000A1F486E1898381E090E09B838A830DC03E
:1021D00086E1898381E090E09B838A8306C086E163
:1021E000898381E090E09B838A830E94450282E29A
:1021F00092E00E94120282E392E040E050E0BA01D5
:1022000001E010E020E030E00E94150219A61AA6B5
:102210001BA61CA619A21AA21BA21CA287E08983D6
:1022200081E090E09B838A8322C08A819B81019612
:102230009B838A838230910510F40C947B081D8661
:102240001A8A18A21EAA1FAADF91CF911F910F917F
:10225000FF90EF90DF90CF90BF90AF909F908F90C6
:102260007F906F905F904F903F902F9008958A815C
:102270009B8101969B838A83E2CF8A819B81019611
:102280009B838A830C947B08C896681779073CF077
:1022900001966817790718F481E0FB01808308959F
:1022A000DC01E62FF0E0E631F10508F0BFC0E55AA9
:1022B000FF4FEE0FFF1F0590F491E02D099481E090
:1022C0009C91963108F4B3C080E0089581E09C9120
:1022D000913009F4ACC080E008959C91925081E067
:1022E000943108F4A4C080E0089581E09C9193307B
:1022F00009F49DC080E0089581E09C91943009F438
:1023000096C080E0089581E011969C9111979530D8
:1023100009F48DC080E0089511969C911197965014
:1023200081E09A3008F483C080E0089581E011963E
:102330009C911197973009F47AC080E0089581E06C
:1023400011969C911197983009F471C080E008951E
:1023500081E011969C911197993009F468C080E052
:10236000089581E011969C9111979A3009F45FC00D
:1023700080E0089581E011969C9111979B3009F4BB
:1023800056C080E0089581E011969C9111979C3091
:1023900009F44DC080E0089581E011969C91119759
:1023A0009D3009F444C080E0089581E011969C912D
:1023B00011979E30E1F180E0089581E011969C91A3
:1023C00011979F30A1F180E0089581E011969C91D2
:1023D0001197903161F180E0089581E011969C9110
:1023E0001197913121F180E0089511969C911197F8
:1023F000925181E09430D8F080E0089581E0119608
:102400009C911197933199F080E0089581E01196A5
:102410009C911197943159F080E0089581E01196D4
:102420009C911197953119F080E0089580E008950E
:1024300021E0FC0125870895FC0164817581868176
:1024400097810895FC0144835583668377830895BB
:10245000FC0160857185828593850895FC01408724
:102460005187628773870895FC0184850895FC0174
:102470006487089521E0FC01228B0895FC01868584
:1024800097850895FC01778766870895FC01808908
:1024900091890895FC01718B608B089521E0FC0106
:1024A00020A30895FC01838994890895FC01748B0D
:1024B000638B0895FC01858996890895FC01768BCC
:1024C000658B0895FC0187890895FC01678B089549
:1024D000FC01608D718D828D938D0895FC01408F7C
:1024E000518F628F738F0895FC01648D758D868D79
:1024F000978D0895FC01448F558F668F778F0895CF
:10250000FC0161A172A183A194A10895FC0141A3E2
:1025100052A363A374A30895FC0165A176A187A1CA
:1025200090A50895FC0145A356A367A370A708953D
:10253000FC0161A572A583A594A50895FC0141A79E
:1025400052A763A774A7089521E0FC0126AB089564
:1025500021E0FC0127AB0895FC0185A50895FC014D
:1025600065A70895FC0166A577A580A991A908959E
:10257000FC0146A757A760AB71AB0895FC0162A9A7
:1025800073A984A995A90895FC0142AB53AB64AB30
:1025900075AB089587B3807F87BB87B3876087BBA0
:1025A00081E58DB981E08EB908958FB9779BFECF13
:1025B0008FB1089583E083BF83E882BF81E087BF46
:1025C000109253021092520278940895CF92DF92A3
:1025D000EF92FF92CF93DF93EC016A017B01409170
:1025E00052025091530214161506E4F4E8E6F2E0A4
:1025F000DF01169620E030E070E061E0808191819B
:102600008C179D0731F413821282D582C4826C9399
:10261000762F2F5F3F4F379617962417350774F3A1
:102620007723C9F4FA01EE0FFF1FEE0FFF1FEE0F25
:10263000FF1FE41BF50BE859FD4FD183C0831382C4
:102640001282D582C48281E086834F5F5F4F5093B0
:10265000530240935202DF91CF91FF90EF90DF90B1
:10266000CF900895DC0160915202709153021616CA
:10267000170664F580916802909169028A179B079A
:10268000E1F40AC0295F3F4FF901379780819181BA
:102690008A179B07B1F402C040E050E0FA01EE0F48
:1026A000FF1FEE0FFF1FEE0FFF1FE41BF50BE85996
:1026B000FD4F13821282168208952FE632E040E029
:1026C00050E04F5F5F4F46175707E1F60895CF92EE
:1026D000DF92EF92FF920F931F93CF93DF936C01E2
:1026E00080915202909153021816190694F5CEE685
:1026F000D2E08E0106501040EE24FF24888188230A
:10270000D9F0D80112968D919C911397019613964A
:102710009C938E93129714962D913C911597821746
:10272000930751F413961C921E92129718826D9182
:102730007C91C6010E9444110894E11CF11C27966B
:10274000095F1F4F8091520290915302E816F906DB
:10275000ACF2DF91CF911F910F91FF90EF90DF903E
:10276000CF90089588E692E00E94A314109253023D
:10277000109252020895629FD001739FF001829FD0
:10278000E00DF11D649FE00DF11D929FF00D839F00
:10279000F00D749FF00D659FF00D9927729FB00D9D
:1027A000E11DF91F639FB00DE11DF91FBD01CF01B0
:1027B00011240895991B79E004C0991F961708F019
:1027C000961B881F7A95C9F78095089597FB092E67
:1027D00007260AD077FD04D00CD006D000201AF4CA
:1027E000709561957F4F0895F6F7909581959F4F6D
:1027F0000895AA1BBB1B51E107C0AA1FBB1FA61748
:10280000B70710F0A61BB70B881F991F5A95A9F799
:1028100080959095BC01CD010895CF93DF93AC01D5
:102820008230910510F442E050E0E091B002F09166
:10283000B10220E030E0A0E0B0E024C080819181CE
:1028400084179507D0F08417950771F482819381DE
:10285000109729F013969C938E9312972CC0909307
:10286000B1028093B00227C02115310519F08217FB
:10287000930718F49C01BD01EF0192818381DF0170
:10288000E92FF82F3097D1F621153105F9F0C9015C
:10289000841B950B8430910580F48A819B8161159E
:1028A000710521F0FB019383828304C09093B102F0
:1028B0008093B002FE01329642C0FE01E80FF91F7C
:1028C0004193519302979983888339C08091AE02D6
:1028D0009091AF02009741F480914D0290914E0289
:1028E0009093AF028093AE0220914B0230914C0244
:1028F0002115310541F42DB73EB780914F029091DB
:102900005002281B390BE091AE02F091AF02E217A2
:10291000F30798F42E1B3F0B2417350770F0CA01FC
:1029200002962817390748F08E0F9F1F9093AF0229
:102930008093AE024193519302C0E0E0F0E0CF01FA
:10294000DF91CF9108950F931F93CF93DF939C0155
:10295000009709F48CC0DC01129713961C921E920A
:1029600012976091B0027091B1026115710589F4FE
:102970008D919C911197820F931F2091AE023091FF
:10298000AF022817390769F5B093AF02A093AE02E2
:102990006EC0FB0140E050E001C0FC01EA17FB07FC
:1029A00030F482819381AF010097B9F71FC0E9012C
:1029B0002297FB83EA8308811981C901800F911F47
:1029C0008E179F0759F480819181800F911F029685
:1029D00099838883828193819B838A8341155105E2
:1029E00029F4B093B102A093B00241C0FA01B383BD
:1029F000A283C191D191EC0FFD1FAE17BF0781F4E7
:102A0000F901929182918C0F9D1F0296DA01119625
:102A10009C938E938281938113969C938E931297AD
:102A2000E0E0F0E002C0FB01BC01DB0112968D91F9
:102A30009C9113970097B9F7CB0102962D913C9189
:102A40001197820F931F2091AE023091AF02281789
:102A5000390769F4309729F41092B1021092B0024C
:102A600002C0138212827093AF026093AE02DF91B4
:102A7000CF911F910F9108950F931F93CF93DF93E1
:102A8000CDB7DEB72E970FB6F894DEBF0FBECDBF21
:102A90000D891E8986E08C831A8309838FEF9FE757
:102AA0009E838D83AE01475E5F4FCE0101966F8995
:102AB000788D0E946B15EF81F885E00FF11F108271
:102AC0002E960FB6F894DEBF0FBECDBFDF91CF912B
:102AD0001F910F9108952F923F924F925F926F92A4
:102AE0007F928F929F92AF92BF92CF92DF92EF929E
:102AF000FF920F931F93CF93DF93CDB7DEB72D9740
:102B00000FB6F894DEBF0FBECDBF3C017D876C874A
:102B10005A01FC0117821682838181FFC8C12E01F0
:102B20000894411C511CF3019381EC85FD8593FDB4
:102B3000859193FF8191FD87EC87882309F4B3C1C8
:102B4000853241F493FD859193FF8191FD87EC8758
:102B5000853229F490E0B3010E948817E4CFFF2466
:102B6000EE2410E01032B0F48B3269F08C3228F48D
:102B7000803251F0833271F40BC08D3239F08033E2
:102B800049F411602CC01260146029C0186027C07D
:102B9000106125C017FD2EC0282F20532A3098F42D
:102BA00016FF08C08F2D880FF82EFF0CFF0CF80EB3
:102BB000F20E15C08E2D880FE82EEE0CEE0CE80EEE
:102BC000E20E10620CC08E3221F416FD6CC110644E
:102BD00006C08C3611F4106802C0883659F4EC85B2
:102BE000FD8593FD859193FF8191FD87EC87882377
:102BF00009F0B8CF982F9554933018F09052933035
:102C000038F424E030E0A20EB31E3FE339830FC056
:102C1000833631F0833781F0833509F05AC022C002
:102C2000F5018081898322E030E0A20EB31E21E00D
:102C3000C22ED12C420114C092E0292E312C2A0C34
:102C40003B1CF5018080918016FF03C06F2D70E062
:102C500002C06FEF7FEFC4010E947D176C0151012C
:102C60001F7715C082E0282E312C2A0C3B1CF50161
:102C70008080918016FF03C06F2D70E002C06FEF5F
:102C80007FEFC4010E9472176C011068510113FD9F
:102C90001CC006C080E290E0B3010E948817EA944D
:102CA0008E2D90E0C816D906A8F30FC0F40117FDC9
:102CB000859117FF81914F0190E0B3010E94881721
:102CC000E110EA940894C108D108C114D10471F745
:102CD000E7C0843611F0893651F5F50117FF07C0BA
:102CE00080819181A281B38124E030E008C080819D
:102CF0009181AA2797FDA095BA2F22E030E0A20E7D
:102D0000B31E012F0F76B7FF08C0B095A095909520
:102D100081959F4FAF4FBF4F0068BC01CD01A2010D
:102D20002AE030E00E94B417D82ED4183FC085376F
:102D300021F41F7E2AE030E020C0197F8F36A9F0F1
:102D4000803720F4883509F0AEC00BC0803721F001
:102D5000883709F0A8C001C0106114FF09C01460D1
:102D600007C014FF08C0166006C028E030E005C0A8
:102D700020E130E002C020E132E0F50117FF07C09A
:102D8000608171818281938144E050E006C060815E
:102D9000718180E090E042E050E0A40EB51EA201F7
:102DA0000E94B417D82ED418012F0F7706FF09C040
:102DB0000E7FDF1430F404FF06C002FD04C00F7E56
:102DC00002C01D2D01C01F2D802F90E004FF0CC0FC
:102DD000FE01ED0DF11D2081203311F4097E09C0A3
:102DE00002FF06C01E5F05C086789070009709F04C
:102DF0001F5F802E992403FD12C000FF0DC0FD2C23
:102E00001E1550F4FE0CF11A1E2D06C080E290E053
:102E1000B3010E9488171F5F1E15C0F304C01E1562
:102E200010F4E11A01C0EE2484FE0FC080E390E0AC
:102E3000B3010E94881782FE1FC081FE03C088E58F
:102E400090E010C088E790E00DC0C40186789070D3
:102E5000009791F081FC02C080E201C08BE207FD87
:102E60008DE290E0B3010E94881706C080E390E0F5
:102E7000B3010E948817FA94DF14C0F3DA94F201C8
:102E8000ED0DF11D808190E0B3010E948817DD20D7
:102E9000A9F706C080E290E0B3010E948817EA9487
:102EA000EE20C1F740CEF3018681978102C08FEFFB
:102EB0009FEF2D960FB6F894DEBF0FBECDBFDF910A
:102EC000CF911F910F91FF90EF90DF90CF90BF9027
:102ED000AF909F908F907F906F905F904F903F90BA
:102EE0002F900895FC010590615070400110D8F7B3
:102EF000809590958E0F9F1F0895FC016150704042
:102F000001900110D8F7809590958E0F9F1F08951E
:102F10000F931F93CF93DF938C01EB018B8181FF84
:102F20001BC082FF0DC02E813F818C819D8128179F
:102F3000390764F4E881F9810193F983E88306C0D5
:102F4000E885F985802F0995009731F48E819F815E
:102F500001969F838E8302C00FEF1FEFC801DF91A0
:102F6000CF911F910F910895FA01AA27283051F1AE
:102F7000203181F1E8946F936E7F6E5F7F4F8F4FAA
:102F80009F4FAF4FB1E03ED0B4E03CD0670F781F09
:102F9000891F9A1FA11D680F791F8A1F911DA11DEE
:102FA0006A0F711D811D911DA11D20D009F4689427
:102FB0003F912AE0269F11243019305D3193DEF6CF
:102FC000CF010895462F4770405D4193B3E00FD085
:102FD000C9F7F6CF462F4F70405D4A3318F0495D70
:102FE00031FD4052419302D0A9F7EACFB4E0A69553
:102FF0009795879577956795BA95C9F70097610575
:10300000710508959B01AC010A2E069457954795CA
:1030100037952795BA95C9F7620F731F841F951FBF
:08302000A01D0895F894FFCFF4
:10302800100F0E0D0C0906030A0805020B07040110
:103038000E0D0B070C12120C000000000C120408F5
:103048001E0000000A15110A040000000305090B00
:103058000B1818001F0E0E040404040401010505D2
:10306800151515000E11111F1F1F1F00000000006D
:103078000000000000E8E8F0F0E2C1C2C2C2C66980
:103088006E666F0D0A005354415455533A2025304B
:1030980032580D0A00434F4E4649473A20253032F0
:1030A800580D0A0052465F43483A20253032580DE1
:1030B8000A0052465F53455455503A20253032583D
:1030C8000D0A00454E5F41413A20253032580D0A1D
:1030D80000454E5F5258414444523A2025303258F8
:1030E8000D0A004F4253455256455F54583A202521
:1030F8003032580D0A000D0A00E8E8F0F0E2C1C2CB
:10310800C2C2C2C1C2C2C2C3C1C2C2C2C4C1C2C297
:10311800C2C5C1C2C2C2C6E8E8F0F0E2576169742C
:1031280074696E672E2E2E00412D43414C4C202091
:10313800422D44454C00432D5041592020442D57E1
:1031480054004E686170206D61206D6F6E20616E55
:103158003A005F205F205F004E68617020736F2027
:103168006C756F6E673A005F205F000000B2022046
:02317800000055
:00000001FF
