:100000000C94BB000C94DA000C94DA000C94DA0027
:100010000C94DA000C94DA000C94DA000C94DA00F8
:100020000C94DA000C94DA000C94DA000C94DA00E8
:100030000C94DA000C94DA000C94DA000C94DA00D8
:100040000C94F5030C94DA000C94DA000C94DA00AA
:100050000C94DA000C94DA000C94DA000C94DA00B8
:100060000C94DA000C94DA000C94DA000C94DA00A8
:100070000C94DA000C94DA000C94DA000C94DA0098
:100080000C94DA000C94DA000C94DA003E08220991
:1000900045084C0853085A086108680822096F0887
:1000A00076087D0884088B08920899082209A00820
:1000B000A708AE08B508C008C708CE08D5082209A9
:1000C000DC08E308EE08F5082209FC0803090A0920
:1000D00011091C096F09BF19A609D509020ABF1920
:1000E0000C0AB00A540BEC0CD00D740E0410E8107E
:1000F0008C112612C8127813B614DB14BF192915F7
:100100004C156F159215B515D815FD151A16BF1992
:1001100037169016F8168217BF19D3173E18B01865
:1001200001196B19091A101A171A1F1A261A2D1AF3
:10013000361A401A491A521A5B1A641A6D1A761A3C
:100140007F1A881A911A9A1AA31AAC1AB51ABE1AEB
:10015000C81AD11ADA1AE31AEC1AF51AFE1A071B92
:10016000101B1A1B231B2C1B341B3C1B451B4D1B3C
:10017000551B5D1B651B11241FBECFEFD0E1DEBFF9
:10018000CDBF12E0A0E0B1E0E6EDF2E400E00BBF8D
:1001900002C007900D92A839B107D9F713E0A8E97A
:1001A000B2E001C01D92A630B107E1F70E94D5036D
:1001B0000C9469210C940000AF92BF92CF92DF9211
:1001C000EF92FF920F931F93CF93DF9320E030E0E5
:1001D00041E050E0E2E6F0E0A0E1B1E00F2EF1E115
:1001E000AF2EF1E0BF2EF02D02E111E00F2EF3E172
:1001F000EF2EF1E0FF2EF02DB901C90104966A013E
:1002000002C0CC0CDD1C8A95E2F7C6018095808384
:1002100083E08A95F1F7000080B18F708F3029F16B
:100220009C919817A9F0E5019881981759F0E80179
:100230009881981751F0E70198819817B1F4E3E09D
:10024000F0E008C0E1E0F0E005C0E2E0F0E002C06C
:10025000E0E0F0E0EE0FFF1FEE0FFF1F6E0F7F1FBD
:10026000FB01E050FF4F808106C02F5F3F4F2430DD
:10027000310511F680E0DF91CF911F910F91FF9032
:10028000EF90DF90CF90BF90AF90089580EF809374
:1002900061008FE08093620008958FEC97E00197F2
:1002A000F1F700C000000895282F22952F708F705D
:1002B000662311F4D89801C0D89AD99A9BB3220F1B
:1002C000220F937C922B9BBBD998D99A9BB3880F12
:1002D000880F937C892B8BBBD9980E944D01089580
:1002E0000F931F93CF93DF938C01FC0180818823B0
:1002F00009F18532A9F4E8012196F8018181805342
:10030000883020F461E00E9454010EC085E261E073
:100310000E945401F801818161E00E94540104C0EF
:1003200061E00E945401E8018E010F5F1F4F898137
:100330008823F9F6DF91CF911F910F910895EF92E5
:10034000FF920F931F93CF93DF9300D000D00F92B3
:10035000CDB7DEB77B01FE01319625E0DF011D92AE
:100360002A95E9F7009761F0FE0136962AE030E021
:10037000B9010E943D1D8293862F972F0097C1F7E8
:10038000BFEFEB16BFEFFB0669F42981222379F456
:10039000FE01329600E010E00F5F1F4F21912223F3
:1003A000D9F307C005E010E00E191F0902C000E0F4
:1003B00010E0992324F48DE261E00E94540105309D
:1003C0001105BCF4E1E0F0E0EC0FFD1F0E0F1F1F64
:1003D0000F2EF6E0EF2EFF24F02DEC0EFD1ED801BF
:1003E0008D918D01805D61E00E9454010E151F0505
:1003F000B1F70F900F900F900F900F90DF91CF916A
:100400001F910F91FF90EF900895843178F462303E
:1004100031F0633031F0613029F4806403C08C5EC8
:1004200001C08C5A806860E00E94540108950F93C7
:100430001F93CF93DF93C82F8BE49DE10197F1F7D2
:1004400000C000008AB38C638ABBD19AD09A8BB368
:10045000837C8BBBD998D898D99ADB9AD9980E947B
:100460004D018C2F8C6060E00E94540188E260E0B6
:100470000E94540180E460E00E945401C4E1D1E094
:1004800004E511E0899161E00E945401C017D10791
:10049000C9F780E060E00E940502DF91CF911F91D3
:1004A0000F9108950E94DC00682F70E080E090E0DA
:1004B00008950E94460108950E94700108950F93C7
:1004C000CF93DF93EC01842F602F0E940502CE01B1
:1004D0000E947001DF91CF910F9108954F925F922A
:1004E0006F927F92AF92BF92CF92DF92EF92FF9284
:1004F0002B013C01822F6E2D760165010E940502C1
:10050000C201B6010E949F01FF90EF90DF90CF9053
:10051000BF90AF907F906F905F904F90089581E073
:1005200060E00E94540182E060E00E94540108955E
:1005300080E00E94170208950F931F93CF93DF93DB
:100540000F92CDB7DEB71982CE0101960E949506B3
:10055000882399F08981882399F4EAE9F2E0CF01B0
:1005600040961192E817F907E1F70AE912E080E0F6
:10057000B8010E94A706C80105C084E591E002C049
:1005800084E591E00F90DF91CF911F910F91089535
:10059000CF93DF939C01CCEAD2E080E090E0A22FE1
:1005A000B32FFD0101900020E9F73197EA1BFB0B07
:1005B0008E179F0730F4F901E80FF91F4081488337
:1005C00001C01882019621968031910541F785E599
:1005D00091E00E9405058CEA92E00E94CD06982FDA
:1005E000EFECF7E03197F1F700C0000081E09130C7
:1005F00009F080E0DF91CF910895ECEAF2E0CF01BD
:10060000409621E02193E817F907E1F78AE591E0A8
:100610000E9405058CEA92E00E94CD06982FEFEC2F
:10062000F7E03197F1F700C0000081E0913009F068
:1006300080E008950F931F93CF93DF930F92CDB770
:10064000DEB71982CE0101960E9495068823F1F04B
:1006500089818530E9F4EAE9F2E08F01005F1F4FFC
:100660001192E017F107E1F785E06AE972E00E9474
:10067000A70680919A02813069F4EBE9F2E081915A
:10068000813051F4E017F107D1F707C080E005C0D1
:1006900080E003C080E001C080E00F90DF91CF9147
:1006A0001F910F910895AF92EF92822FECEAF2E042
:1006B000AF01405F5F4F1192E417F507E1F7605D0E
:1006C0006093AC023AE0632F0E94311D905D9093DD
:1006D000AE020E94311D905D9093AD028E2D0E945E
:1006E000311D905D9093B1020E94311D905D9093F9
:1006F000B0020E94311D905D9093AF028A2D0E943E
:10070000311D905D9093B3020E94311D905D9093D6
:10071000B20285E591E00E9405058CEA92E00E9414
:10072000CD06982FEFECF7E03197F1F700C000000D
:1007300081E0913009F080E0EF90AF900895822F32
:10074000ECEAF2E0AF01405F5F4F1192E417F5076A
:10075000E1F7605D6093AC023AE0632F0E94311DC7
:10076000905D9093AE020E94311D905D9093AD021A
:1007700085E591E00E9405058CEA92E00E94CD0695
:10078000982FEFECF7E03197F1F700C0000081E01F
:10079000913009F080E008950E943D1C08950E9468
:1007A000891C08950E94230708958FE084BB85BBB0
:1007B00082E090E00E94641D8093AA029093AB02B5
:1007C0000E94311C8091AA029091AB020E94E20724
:1007D0008091AA029091AB020E94E9078091AA023F
:1007E0009091AB020E942509F9CF1F920F920FB68C
:1007F0000F920BB60F9211242F933F934F935F9359
:100800006F937F938F939F93AF93BF93EF93FF93D8
:1008100083E882BF8091AA029091AB020E94BE1C25
:10082000FF91EF91BF91AF919F918F917F916F91C8
:100830005F914F913F912F910F900BBE0F900FBE84
:100840000F901F901895AE988F710E942C1C8FEFFF
:100850000E942C1CAE9A0895FF920F931F93CF9382
:10086000DF93062FF72E142FAE988F710E942C1C49
:10087000112351F0C02FDF2D00E08FEF0E942C1CC0
:1008800089930F5F0117C9F7AE9ADF91CF911F913E
:100890000F91FF900895CF93C62FAE988F7180620D
:1008A0000E942C1C8C2F0E942C1CAE9ACF91089574
:1008B000FF920F931F93CF93DF93062FF72E142FE2
:1008C000AE988F7180620E942C1C112349F0C02FBA
:1008D000DF2D00E089910E942C1C0F5F0117D1F7DA
:1008E000AE9ADF91CF911F910F91FF90089520E074
:1008F00030E00496DB01A20FB31FFC01E21BF30BF7
:1009000040814C932F5F3F4F2530310599F7089573
:10091000CF93DF9300D000D00F92CDB7DEB78823FE
:10092000B1F4A9EDB1E0FB0185E001900D92815099
:10093000E1F7CB01BE016F5F7F4F0E9477048AE031
:10094000BE016F5F7F4F45E00E94580456C0813062
:10095000B1F4AEEDB1E0FB0185E001900D92815064
:10096000E1F7CB01BE016F5F7F4F0E9477048BE000
:10097000BE016F5F7F4F45E00E9458043EC0823049
:1009800071F4A3EEB1E0FB0185E001900D9281507E
:10099000E1F78CE0FB0164810E944B042EC08330A0
:1009A00071F4A8EEB1E0FB0185E001900D92815059
:1009B000E1F78DE0FB0164810E944B041EC084308E
:1009C00071F4ADEEB1E0FB0185E001900D92815034
:1009D000E1F78EE0FB0164810E944B040EC085307C
:1009E00061F4A2EFB1E0FB0101900D928150E1F7BB
:1009F0008FE0FB0164810E944B040F900F900F90D9
:100A00000F900F90DF91CF910895CF93DF9300D097
:100A100000D00F92CDB7DEB7A7EFB1E0E82FF92FE6
:100A200025E001900D922150E1F7BE016F5F7F4FED
:100A30000E9477048AE0BE016F5F7F4F45E00E940D
:100A4000580480E1BE016F5F7F4F45E00E9458046B
:100A50000F900F900F900F900F90DF91CF9108950E
:100A6000AE9882EE0E942C1CAE9A0895AE9881EE4C
:100A70000E942C1CAE9A089580E069ED71E00E94FE
:100A8000880480E00E942304682F616080E00E9457
:100A90004B0480E00E942304682F626080E00E9483
:100AA0004B0487E060E70E944B040E9430050E94DF
:100AB0003605AF9A82E38A95F1F70895AF9880E002
:100AC0000E942304682F6E7F80E00E944B0480E028
:100AD0000E942304682F626080E00E944B0487E03C
:100AE00060E70E944B040E94360582E38A95F1F785
:100AF0000895AE988FEF0E942C1CAE9A0895EF9245
:100B0000FF920F931F93CF93DF93CDB7DEB7C456F9
:100B1000D0400FB6F894DEBF0FBECDBF7C018FE58D
:100B200091E0F70109950E94790500D000D000D02E
:100B3000EDB7FEB731968E010F5F1F4FADB7BEB751
:100B400012961C930E93119726E631E0338322838D
:100B5000848315820E94931E8DB79EB706960FB6AA
:100B6000F8949EBF0FBE8DBFC801F701099580E0C4
:100B70000E94230400D000D000D0EDB7FEB731961C
:100B8000ADB7BEB712961C930E93119725E731E0CF
:100B900033832283848315820E94931E8DB79EB770
:100BA00006960FB6F8949EBF0FBE8DBFC801F70121
:100BB000099585E00E94230400D000D000D0EDB755
:100BC000FEB73196ADB7BEB712961C930E93119730
:100BD00024E831E033832283848315820E94931EAC
:100BE0008DB79EB706960FB6F8949EBF0FBE8DBF09
:100BF000C801F701099586E00E94230400D000D0C7
:100C000000D0EDB7FEB73196ADB7BEB712961C93C4
:100C10000E93119722E931E0338322838483158276
:100C20000E94931E8DB79EB706960FB6F8949EBF8E
:100C30000FBE8DBFC801F701099581E00E94230412
:100C400000D000D000D0EDB7FEB73196ADB7BEB73B
:100C500012961C930E93119723EA31E0338322837B
:100C6000848315820E94931E8DB79EB706960FB699
:100C7000F8949EBF0FBE8DBFC801F701099582E0B1
:100C80000E94230400D000D000D0EDB7FEB731960B
:100C9000ADB7BEB712961C930E93119721EB31E0BE
:100CA00033832283848315820E94931E8DB79EB75F
:100CB00006960FB6F8949EBF0FBE8DBFC801F70110
:100CC000099588E00E94230400D000D000D0EDB741
:100CD000FEB73196ADB7BEB712961C930E9311971F
:100CE00023EC31E033832283848315820E94931E98
:100CF0008DB79EB706960FB6F8949EBF0FBE8DBFF8
:100D0000C801F701099586ED91E0F7010995CC59E5
:100D1000DF4F0FB6F894DEBF0FBECDBFDF91CF918E
:100D20001F910F91FF90EF900895CF93DF93EC0107
:100D30000E947905982F907486FF05C0209719F0BE
:100D4000869587708883892FDF91CF9108950F93BF
:100D50001F93CF93DF93062F172FAE9881E60E9443
:100D60002C1CC02FD12F10E08FEF0E942C1C8993D8
:100D70001F5F1031C9F7AE9A87E060E40E944B0410
:100D80000E94790585FF04C087E060E20E944B0461
:100D9000DF91CF911F910F9108950F931F93CF93E0
:100DA000DF93082F192F0E945E05AE9880EA0E94FB
:100DB0002C1CC02FD12F10E189910E942C1C1150A6
:100DC000D9F7AE9AAF9A85E08A95F1F7AF9883E0AC
:100DD0008A95F1F700000E9479058073C1F30E94A3
:100DE0007905C82F85E06CE40E944B0480E00E94E6
:100DF0002304682F6D7F80E00E944B040E943C0515
:100E000081E0C5FF80E0DF91CF911F910F910895A0
:100E100086E00E942304682F666086E00E944B04EF
:100E2000089586E00E942304682F677D86E00E9473
:100E30004B04089580E00E942304682F6C6080E0DA
:100E40000E944B040895A69AA79A0E94211CAF986D
:100E5000AE9A81EE94E00197F1F700C000000E9485
:100E600008070E9411070E941A0784E067E40E94A5
:100E70004B048CE160E00E944B0485E06CE40E942E
:100E80004B0481E160E10E944B0482E160E10E9439
:100E90004B0483E160E10E944B0484E160E10E9425
:100EA0004B0485E160E10E944B0486E160E10E9411
:100EB0004B0482E060E00E944B0482E00E94230425
:100EC000682F616082E00E944B0482E00E9423044C
:100ED000682F626082E00E944B0482E00E9423043B
:100EE000682F646082E00E944B0482E00E94230429
:100EF000682F686082E00E944B0482E00E94230415
:100F0000682F606182E00E944B0482E00E9423040B
:100F1000682F606282E00E944B0481E00E942304FB
:100F2000682F616081E00E944B0481E00E942304ED
:100F3000682F626081E00E944B0481E00E942304DC
:100F4000682F646081E00E944B0481E00E942304CA
:100F5000682F686081E00E944B0481E00E942304B6
:100F6000682F606181E00E944B0481E00E942304AD
:100F7000682F606281E00E944B0480E069ED71E0BF
:100F80000E94880481E06EED71E00E94880482E096
:100F900063EE71E00E94880483E068EE71E00E94D5
:100FA000880484E06DEE71E00E94880485E062EFC1
:100FB00071E00E94880487EF91E00E9405050E947D
:100FC0003C050895FC0189E28083818313821282AB
:100FD00008951F93CF93DF93EC0111E01DA7C896EE
:100FE00048EB5BE060E070E020E00E94CC0381E031
:100FF00090E0A0E0B0E08AAB9BABACABBDAB0E9495
:1010000098020E9459020E94D2030E948F028CEF24
:1010100091E00E945C0218831B821A82DF91CF91BB
:101020001F910895CF93DF93EC018881833069F09D
:10103000843081F0813091F489E288831B821A82A6
:10104000CE01C8960E94CF0309C089E288831B8223
:101050001A8204C089E288831B821A82898190E007
:1010600005978432910508F0EDC08A5B9F4FFC0123
:10107000EE0FFF1F0590F491E02D099489E289831A
:1010800081E090E09B838A83DDC089E2898381E0EF
:1010900090E09B838A83D6C089E2898381E090E0D7
:1010A0009B838A83CFC089E2898381E090E09B8320
:1010B0008A83C8C089E2898381E090E09B838A8328
:1010C000C1C089E2898381E090E09B838A83BAC0B2
:1010D00089E2898381E090E09B838A83B3C089E2BF
:1010E000898381E090E09B838A83ACC089E2898315
:1010F00081E090E09B838A83A5C089E2898381E0B7
:1011000090E09B838A839EC089E2898381E090E09E
:101110009B838A8397C089E2898381E090E09B83E7
:101120008A8390C089E2898381E090E09B838A83EF
:1011300089C089E2898381E090E09B838A8382C0B1
:1011400089E2898381E090E09B838A837BC089E286
:10115000898381E090E09B838A8374C089E28983DC
:1011600081E090E09B838A836DC089E2898381E07E
:1011700090E09B838A83CE01C9960E94CF0362C010
:1011800089E2898381E090E09B838A835BC089E266
:10119000898381E090E09B838A8354C089E28983BC
:1011A00081E090E09B838A834DC089E2898381E05E
:1011B00090E09B838A8346C089E2898381E090E046
:1011C0009B838A833FC089E2898381E090E09B838F
:1011D0008A83CE01CA960E94CF0334C089E28983F4
:1011E00081E090E09B838A832DC089E2898381E03E
:1011F00090E09B838A8326C089E2898381E090E026
:101200009B838A831FC089E2898381E090E09B836E
:101210008A8318C089E2898381E090E09B838A8376
:1012200011C089E2898381E090E09B838A83CE01AB
:10123000CB960E94CF0306C089E2898381E090E0CB
:101240009B838A83DF91CF9108952F923F924F9293
:101250005F926F927F928F929F92AF92BF92CF9246
:10126000DF92EF92FF920F931F93CF93DF93EC01E6
:101270001B821A8280E090E001E010E00F2EF6E27F
:101280003F2EF02D0F2EF1E22F2EF02DCC24DD2459
:1012900076016894C2F80F2EF3E08F2EF0E09F2EB7
:1012A000F0E0AF2EF0E0BF2EF02D442455243201A3
:1012B000689441F88C0F9D1FDC01EC918E2F90E01B
:1012C000FC013197E832F10510F00C94BF19E65992
:1012D000FF4FEE0FFF1F0590F491E02D099488ADAC
:1012E000882311F40C94BF1989E288831B821A8227
:1012F000CE01C8960E94CF030E945202DC01CB01AE
:101300008C839D83AE83BF831C8683E088831B828E
:101310001A820E948F0288E092E00E945C0287E1BC
:1013200092E040E050E0BA0101E010E020E030E05F
:101330000E945F021EA61FA618AA19AA85E089832B
:1013400081E090E09B838A830C94E1198C819D81DC
:10135000AE81BF810097A105B105C1F029E22883C4
:101360001B821A8288879987AA87BB870E945202AC
:10137000DC01CB018C839D83AE83BF8381E08C87AE
:1013800084E088831B821A820C94E7190E9452021F
:10139000DC01CB018C839D83AE83BF831C8683E0FD
:1013A00088831B821A820C94E7198C819D81AE81FF
:1013B000BF810097A105B105A9F489E288831B824A
:1013C0001A8281E08D870E945202DC01CB018C835E
:1013D0009D83AE83BF831C8683E088831B821A8231
:1013E0000C94E7190E945202DC01CB018C839D838F
:1013F000AE83BF8381E08C8784E088831B821A825E
:101400000C94E7191B830A83188619861A861B8693
:1014100084E189830C94BF198EA59FA5A8A9B9A9B9
:101420000097A105B10509F091C089818C3009F4BC
:1014300047C08D3080F4893071F18A3030F48730C4
:10144000E1F0883009F065C01FC08A3059F18B3057
:1014500009F05FC02EC0803109F447C0813130F4FB
:101460008E30A9F18F3009F054C038C0813109F4B1
:1014700043C0823109F04DC046C089E2898381E0D2
:1014800090E09B838A8345C089E2898381E090E074
:101490009B838A833EC089E2898381E090E09B83BD
:1014A0008A8337C089E2898381E090E09B838A83C5
:1014B00030C089E2898381E090E09B838A8329C0E0
:1014C00089E2898381E090E09B838A8322C089E25C
:1014D000898381E090E09B838A831BC089E28983B2
:1014E00081E090E09B838A8314C089E2898381E054
:1014F00090E09B838A830DC089E2898381E090E03C
:101500009B838A8306C089E2898381E090E09B8384
:101510008A830E948F0288E092E00E945C0287E149
:1015200092E040E050E0BA0101E010E020E030E05D
:101530000E945F021EA61FA618AA19AA85E0898329
:1015400081E090E09B838A830C94E1191B830A83DA
:10155000188619861A861B8689E089830C94BF1920
:101560008EA59FA5A8A9B9A90097A105B10509F065
:1015700091C089818C3009F447C08D3080F4893066
:1015800071F18A3030F48730E1F0883009F065C0BD
:101590001FC08A3059F18B3009F05FC02EC08031F6
:1015A00009F447C0813130F48E30A9F18F3009F051
:1015B00054C038C0813109F443C0823109F04DC0B4
:1015C00046C089E2898381E090E09B838A8345C09D
:1015D00089E2898381E090E09B838A833EC089E22F
:1015E000898381E090E09B838A8337C089E2898385
:1015F00081E090E09B838A8330C089E2898381E027
:1016000090E09B838A8329C089E2898381E090E00E
:101610009B838A8322C089E2898381E090E09B8357
:101620008A831BC089E2898381E090E09B838A835F
:1016300014C089E2898381E090E09B838A830DC096
:1016400089E2898381E090E09B838A8306C089E2F6
:10165000898381E090E09B838A830E948F0288E0E7
:1016600092E00E945C0287E192E040E050E0BA0123
:1016700001E010E020E030E00E945F021EA61FA6FD
:1016800018AA19AA85E0898381E090E09B838A8368
:101690000C94E1191B830A83188619861A861B8607
:1016A00089E089830C94BF198EA59FA5A8A9B9A923
:1016B0000097A105B10509F091C089818C3009F42A
:1016C00047C08D3080F4893071F18A3030F4873032
:1016D000E1F0883009F065C01FC08A3059F18B30C5
:1016E00009F05FC02EC0803109F447C0813130F469
:1016F0008E30A9F18F3009F054C038C0813109F41F
:1017000043C0823109F04DC046C089E2898381E03F
:1017100090E09B838A8345C089E2898381E090E0E1
:101720009B838A833EC089E2898381E090E09B832A
:101730008A8337C089E2898381E090E09B838A8332
:1017400030C089E2898381E090E09B838A8329C04D
:1017500089E2898381E090E09B838A8322C089E2C9
:10176000898381E090E09B838A831BC089E289831F
:1017700081E090E09B838A8314C089E2898381E0C1
:1017800090E09B838A830DC089E2898381E090E0A9
:101790009B838A8306C089E2898381E090E09B83F2
:1017A0008A830E948F0288E092E00E945C0287E1B7
:1017B00092E040E050E0BA0101E010E020E030E0CB
:1017C0000E945F021EA61FA618AA19AA85E0898397
:1017D00081E090E09B838A830C94E11949A55AA586
:1017E0006BA57CA543305105610571050CF06AC0FD
:1017F00088859985AA85BB858A309105A105B105A3
:101800000CF04EC0181619061A061B060CF048C03C
:101810002D85222309F444C06C017D0189E289836E
:101820008824992483949B828A829A01AB01220F97
:10183000331F441F551FC701B601EE24FF24870143
:10184000E394AA24BB246501A3940E946E0289A597
:101850009AA5ABA5BCA50196A11DB11D89A79AA704
:10186000ABA7BCA769A17AA18BA19CA12AE030E01B
:1018700040E050E00E94121DAB01BC0188859985B3
:10188000AA85BB85840F951FA61FB71F89A39AA39E
:10189000ABA3BCA388E089839B828A820C94E11964
:1018A0008A309105A105B10569F48D85882351F031
:1018B0001B830A83188619861A861B868AE0898309
:1018C0000C94BF1988859985AA85BB858B309105B5
:1018D000A105B10549F52D85222331F189E28983DE
:1018E000EE24FF24E394FB82EA820E948F0285E2C9
:1018F00092E00E945C0280E392E040E050E0BA0196
:1019000001E010E020E030E00E945F0219A61AA674
:101910001BA61CA619A21AA21BA21CA287E08983DF
:10192000FB82EA820C94E1198C309105A105B10586
:1019300049F52D85222331F189E28983EE24FF24A4
:10194000E394FB82EA820E948F0286E392E00E9487
:101950005C028EE392E040E050E0BA0101E010E06A
:1019600020E030E00E945F0219A61AA61BA61CA662
:101970001DA21EA21FA218A68BE08983FB82EA8209
:101980000C94E11980319105A105B10511F00C9479
:10199000BF198D85882311F40C94BF1989E28983BE
:1019A000EE24FF24E394FB82EA820E948F0282E409
:1019B00092E00E945C0283E592E040E050E0BA01D0
:1019C00001E010E020E030E00E945F0281E18983C5
:1019D000FB82EA820C94E1198EA59FA5A8A9B9A95A
:1019E0000097A105B10509F091C089818C3009F4F7
:1019F00047C08D3080F4893071F18A3030F48730FF
:101A0000E1F0883009F065C01FC08A3059F18B3091
:101A100009F05FC02EC0803109F447C0813130F435
:101A20008E30A9F18F3009F054C038C0813109F4EB
:101A300043C0823109F04DC046C089E2898381E00C
:101A400090E09B838A8345C089E2898381E090E0AE
:101A50009B838A833EC089E2898381E090E09B83F7
:101A60008A8337C089E2898381E090E09B838A83FF
:101A700030C089E2898381E090E09B838A8329C01A
:101A800089E2898381E090E09B838A8322C089E296
:101A9000898381E090E09B838A831BC089E28983EC
:101AA00081E090E09B838A8314C089E2898381E08E
:101AB00090E09B838A830DC089E2898381E090E076
:101AC0009B838A8306C089E2898381E090E09B83BF
:101AD0008A830E948F0288E092E00E945C0287E184
:101AE00092E040E050E0BA0101E010E020E030E098
:101AF0000E945F021EA61FA618AA19AA85E0898364
:101B000081E090E09B838A830C94E11989E28983C8
:101B10008824992483949B828A82E884F9840A85A4
:101B20001B8589A59AA5ABA5BCA59C01AD01220F7B
:101B3000331F441F551FC801B701EE24FF2487013E
:101B4000E394AA24BB246501A3940E946E0289A594
:101B50009AA5ABA5BCA50196A11DB11D89A79AA701
:101B6000ABA7BCA769A17AA18BA19CA12AE030E018
:101B700040E050E00E94121DAB01BC0188859985B0
:101B8000AA85BB85840F951FA61FB71F89A39AA39B
:101B9000ABA3BCA388E089839B828A820C94E11961
:101BA0008EA59FA5A8A9B9A90097A105B10509F01F
:101BB00091C089818C3009F447C08D3080F4893020
:101BC00071F18A3030F48730E1F0883009F065C077
:101BD0001FC08A3059F18B3009F05FC02EC08031B0
:101BE00009F447C0813130F48E30A9F18F3009F00B
:101BF00054C038C0813109F443C0823109F04DC06E
:101C000046C089E2898381E090E09B838A8345C056
:101C100089E2898381E090E09B838A833EC089E2E8
:101C2000898381E090E09B838A8337C089E289833E
:101C300081E090E09B838A8330C089E2898381E0E0
:101C400090E09B838A8329C089E2898381E090E0C8
:101C50009B838A8322C089E2898381E090E09B8311
:101C60008A831BC089E2898381E090E09B838A8319
:101C700014C089E2898381E090E09B838A830DC050
:101C800089E2898381E090E09B838A8306C089E2B0
:101C9000898381E090E09B838A830E948F0288E0A1
:101CA00092E00E945C0287E192E040E050E0BA01DD
:101CB00001E010E020E030E00E945F021EA61FA6B7
:101CC00018AA19AA85E0898381E090E09B838A8322
:101CD0000C94E1191B830A83188619861A861B86C1
:101CE0008CE089830C94BF198EA59FA5A8A9B9A9DA
:101CF0000097A105B10509F091C089818C3009F4E4
:101D000047C08D3080F4893071F18A3030F48730EB
:101D1000E1F0883009F065C01FC08A3059F18B307E
:101D200009F05FC02EC0803109F447C0813130F422
:101D30008E30A9F18F3009F054C038C0813109F4D8
:101D400043C0823109F04DC046C089E2898381E0F9
:101D500090E09B838A8345C089E2898381E090E09B
:101D60009B838A833EC089E2898381E090E09B83E4
:101D70008A8337C089E2898381E090E09B838A83EC
:101D800030C089E2898381E090E09B838A8329C007
:101D900089E2898381E090E09B838A8322C089E283
:101DA000898381E090E09B838A831BC089E28983D9
:101DB00081E090E09B838A8314C089E2898381E07B
:101DC00090E09B838A830DC089E2898381E090E063
:101DD0009B838A8306C089E2898381E090E09B83AC
:101DE0008A830E948F0288E092E00E945C0287E171
:101DF00092E040E050E0BA0101E010E020E030E085
:101E00000E945F021EA61FA618AA19AA85E0898350
:101E100081E090E09B838A830C94E11949A55AA53F
:101E20006BA57CA542305105610571050CF06AC0B7
:101E300088859985AA85BB858A309105A105B1055C
:101E400069F42D85222351F01B830A831886198695
:101E50001A861B868DE089830C94BF198A30910500
:101E6000A105B1050CF04EC0181619061A061B067E
:101E70000CF048C02D85222309F444C06C017D017B
:101E800089E289838824992483949B828A829A0197
:101E9000AB01220F331F441F551FC701B601EE24AB
:101EA000FF248701E394AA24BB246501A3940E9424
:101EB0006E0289A59AA5ABA5BCA50196A11DB11D71
:101EC00089A79AA7ABA7BCA76DA17EA18FA198A552
:101ED0002AE030E040E050E00E94121DAB01BC015E
:101EE00088859985AA85BB85840F951FA61FB71F76
:101EF0008DA39EA3AFA3B8A78EE089839B828A821D
:101F00000C94E11988859985AA85BB858B3091054C
:101F1000A105B10549F52D85222331F189E2898397
:101F2000EE24FF24E394FB82EA820E948F0286E380
:101F300092E00E945C028EE392E040E050E0BA0141
:101F400001E010E020E030E00E945F0219A61AA62E
:101F50001BA61CA61DA21EA21FA218A68BE0898389
:101F6000FB82EA820C94E11980319105A105B1054B
:101F700009F52D852223F1F089E28983EE24FF24DF
:101F8000E394FB82EA820E948F0282E492E00E9444
:101F90005C0283E592E040E050E0BA0101E010E02D
:101FA00020E030E00E945F0281E18983FB82EA82C7
:101FB0000C94E1198C309105A105B10511F00C9438
:101FC000BF198D85882311F40C94BF1989E2898388
:101FD000EE24FF24E394FB82EA820E948F028FE5C5
:101FE00092E00E945C0283E592E040E050E0BA019A
:101FF00001E010E020E030E00E945F0280E1898390
:10200000FB82EA820C94E1198EA59FA5A8A9B9A923
:102010000097A105B10509F091C089818C3009F4C0
:1020200047C08D3080F4893071F18A3030F48730C8
:10203000E1F0883009F065C01FC08A3059F18B305B
:1020400009F05FC02EC0803109F447C0813130F4FF
:102050008E30A9F18F3009F054C038C0813109F4B5
:1020600043C0823109F04DC046C089E2898381E0D6
:1020700090E09B838A8345C089E2898381E090E078
:102080009B838A833EC089E2898381E090E09B83C1
:102090008A8337C089E2898381E090E09B838A83C9
:1020A00030C089E2898381E090E09B838A8329C0E4
:1020B00089E2898381E090E09B838A8322C089E260
:1020C000898381E090E09B838A831BC089E28983B6
:1020D00081E090E09B838A8314C089E2898381E058
:1020E00090E09B838A830DC089E2898381E090E040
:1020F0009B838A8306C089E2898381E090E09B8389
:102100008A830E948F0288E092E00E945C0287E14D
:1021100092E040E050E0BA0101E010E020E030E061
:102120000E945F021EA61FA618AA19AA85E089832D
:1021300081E090E09B838A830C94E11989E2898392
:102140008824992483949B828A82E884F9840A856E
:102150001B8589A59AA5ABA5BCA59C01AD01220F45
:10216000331F441F551FC801B701EE24FF24870108
:10217000E394AA24BB246501A3940E946E0289A55E
:102180009AA5ABA5BCA50196A11DB11D89A79AA7CB
:10219000ABA7BCA76DA17EA18FA198A52AE030E0D6
:1021A00040E050E00E94121DAB01BC01888599857A
:1021B000AA85BB85840F951FA61FB71F8DA39EA35D
:1021C000AFA3B8A78EE089839B828A820C94E11921
:1021D0008EA59FA5A8A9B9A90097A105B10509F0E9
:1021E00091C089818C3009F447C08D3080F48930EA
:1021F00071F18A3030F48730E1F0883009F065C041
:102200001FC08A3059F18B3009F05FC02EC0803179
:1022100009F447C0813130F48E30A9F18F3009F0D4
:1022200054C038C0813109F443C0823109F04DC037
:1022300046C089E2898381E090E09B838A8345C020
:1022400089E2898381E090E09B838A833EC089E2B2
:10225000898381E090E09B838A8337C089E2898308
:1022600081E090E09B838A8330C089E2898381E0AA
:1022700090E09B838A8329C089E2898381E090E092
:102280009B838A8322C089E2898381E090E09B83DB
:102290008A831BC089E2898381E090E09B838A83E3
:1022A00014C089E2898381E090E09B838A830DC01A
:1022B00089E2898381E090E09B838A8306C089E27A
:1022C000898381E090E09B838A830E948F0288E06B
:1022D00092E00E945C0287E192E040E050E0BA01A7
:1022E00001E010E020E030E00E945F021EA61FA681
:1022F00018AA19AA85E0898381E090E09B838A83EC
:102300000C94E1191B830A83188619861A861B868A
:102310008CE089830C94BF198EA59FA5A8A9B9A9A3
:102320000097A105B10511F00C94BF1989818C307B
:1023300009F447C08D3080F4893071F18A3030F46F
:102340008730E1F0883009F065C01FC08A3059F14C
:102350008B3009F05FC02EC0803109F447C0813155
:1023600030F48E30A9F18F3009F054C038C081317B
:1023700009F443C0823109F04DC046C089E2898327
:1023800081E090E09B838A8345C089E2898381E074
:1023900090E09B838A833EC089E2898381E090E05C
:1023A0009B838A8337C089E2898381E090E09B83A5
:1023B0008A8330C089E2898381E090E09B838A83AD
:1023C00029C089E2898381E090E09B838A8322C0CF
:1023D00089E2898381E090E09B838A831BC089E244
:1023E000898381E090E09B838A8314C089E289839A
:1023F00081E090E09B838A830DC089E2898381E03C
:1024000090E09B838A8306C089E2898381E090E023
:102410009B838A830E948F0288E092E00E945C0284
:1024200087E192E040E050E0BA0101E010E020E0F6
:1024300030E00E945F021EA61FA618AA19AA85E016
:10244000898381E090E09B838A83BBC78EA59FA58B
:10245000A8A9B9A90097A105B10509F090C0898183
:102460008C3009F447C08D3080F4893071F18A30A6
:1024700030F48730E1F0883009F065C01FC08A3041
:1024800059F18B3009F05FC02EC0803109F447C08C
:10249000813130F48E30A9F18F3009F054C038C04A
:1024A000813109F443C0823109F04DC046C089E250
:1024B000898381E090E09B838A8345C089E2898398
:1024C00081E090E09B838A833EC089E2898381E03A
:1024D00090E09B838A8337C089E2898381E090E022
:1024E0009B838A8330C089E2898381E090E09B836B
:1024F0008A8329C089E2898381E090E09B838A8373
:1025000022C089E2898381E090E09B838A831BC09B
:1025100089E2898381E090E09B838A8314C089E209
:10252000898381E090E09B838A830DC089E289835F
:1025300081E090E09B838A8306C089E2898381E001
:1025400090E09B838A830E948F0288E092E00E9441
:102550005C0287E192E040E050E0BA0101E010E067
:1025600020E030E00E945F021EA61FA618AA19AA4A
:1025700085E0898381E090E09B838A8322C71B8367
:102580000A83188619861A861B8682E18983F7C614
:102590008EA59FA5A8A9B9A90097A105B10509F025
:1025A00090C089818C3009F447C08D3080F4893027
:1025B00071F18A3030F48730E1F0883009F065C07D
:1025C0001FC08A3059F18B3009F05FC02EC08031B6
:1025D00009F447C0813130F48E30A9F18F3009F011
:1025E00054C038C0813109F443C0823109F04DC074
:1025F00046C089E2898381E090E09B838A8345C05D
:1026000089E2898381E090E09B838A833EC089E2EE
:10261000898381E090E09B838A8337C089E2898344
:1026200081E090E09B838A8330C089E2898381E0E6
:1026300090E09B838A8329C089E2898381E090E0CE
:102640009B838A8322C089E2898381E090E09B8317
:102650008A831BC089E2898381E090E09B838A831F
:1026600014C089E2898381E090E09B838A830DC056
:1026700089E2898381E090E09B838A8306C089E2B6
:10268000898381E090E09B838A830E948F0288E0A7
:1026900092E00E945C0287E192E040E050E0BA01E3
:1026A00001E010E020E030E00E945F021EA61FA6BD
:1026B00018AA19AA85E0898381E090E09B838A8328
:1026C00080C688859985AA85BB858B309105A10533
:1026D000B10509F054C68D85882309F450C61B83C3
:1026E0000A831EA61FA618AA19AABFE0B98347C667
:1026F0008EA59FA5A8A9B9A90097A105B10509F0C4
:1027000090C089818C3009F447C08D3080F48930C5
:1027100071F18A3030F48730E1F0883009F065C01B
:102720001FC08A3059F18B3009F05FC02EC0803154
:1027300009F447C0813130F48E30A9F18F3009F0AF
:1027400054C038C0813109F443C0823109F04DC012
:1027500046C089E2898381E090E09B838A8345C0FB
:1027600089E2898381E090E09B838A833EC089E28D
:10277000898381E090E09B838A8337C089E28983E3
:1027800081E090E09B838A8330C089E2898381E085
:1027900090E09B838A8329C089E2898381E090E06D
:1027A0009B838A8322C089E2898381E090E09B83B6
:1027B0008A831BC089E2898381E090E09B838A83BE
:1027C00014C089E2898381E090E09B838A830DC0F5
:1027D00089E2898381E090E09B838A8306C089E255
:1027E000898381E090E09B838A830E948F0288E046
:1027F00092E00E945C0287E192E040E050E0BA0182
:1028000001E010E020E030E00E945F021EA61FA65B
:1028100018AA19AA85E0898381E090E09B838A83C6
:10282000D0C588859985AA85BB858C309105A10581
:10283000B10509F0A4C58D85882309F4A0C5898157
:102840008C3009F447C08D3080F4893071F18A30C2
:1028500030F48730E1F0883009F065C01FC08A305D
:1028600059F18B3009F05FC02EC0803109F447C0A8
:10287000813130F48E30A9F18F3009F054C038C066
:10288000813109F443C0823109F04DC046C089E26C
:10289000898381E090E09B838A8345C089E28983B4
:1028A00081E090E09B838A833EC089E2898381E056
:1028B00090E09B838A8337C089E2898381E090E03E
:1028C0009B838A8330C089E2898381E090E09B8387
:1028D0008A8329C089E2898381E090E09B838A838F
:1028E00022C089E2898381E090E09B838A831BC0B8
:1028F00089E2898381E090E09B838A8314C089E226
:10290000898381E090E09B838A830DC089E289837B
:1029100081E090E09B838A8306C089E2898381E01D
:1029200090E09B838A831F8A81E090E0A0E0B0E082
:10293000888F998FAA8FBB8F6EA57FA588A999A92B
:102940002AA93BA94CA95DA9E9A0FAA00BA11CA149
:10295000ADA0BEA0CFA0D8A40E9453038F8B86E168
:10296000898381E090E09B838A832BC589E28983F8
:10297000EE24FF24E394FB82EA820E948F0285E228
:1029800092E00E945C0280E392E040E050E0BA01F5
:1029900001E010E020E030E00E945F0219A61AA6D4
:1029A0001BA61CA619A21AA21BA21CA287E089833F
:1029B000FB82EA8206C588859985AA85BB858D300C
:1029C0009105A105B10581F42D85222369F01B83B2
:1029D0000A8381E090E0A0E0B0E08EA79FA7A8ABBB
:1029E000B9AB93E19983CBC48E309105A105B105B4
:1029F00061F42D85222349F01B830A834EA65FA62E
:102A000068AA79AAABE1A983BAC48F309105A10560
:102A1000B10561F42D85222349F01B830A838EA61C
:102A20009FA6A8AAB9AABCE1B983A9C4803191051F
:102A3000A105B10509F0A3C48D85882309F49FC4BD
:102A40001B830A83CEA6DFA6E8AAF9AA8DE18983B3
:102A500096C41F8A81E090E0A0E0B0E0888F998F53
:102A6000AA8FBB8F6EA57FA588A999A92AA93BA982
:102A70004CA95DA9E9A0FAA00BA11CA1ADA0BEA024
:102A8000CFA0D8A40E9453038F8B86E1898381E075
:102A900090E09B838A8395C41F8A81E090E0A0E048
:102AA000B0E0888F998FAA8FBB8F6EA57FA588A96C
:102AB00099A92AA93BA94CA95DA9E9A0FAA00BA153
:102AC0001CA1ADA0BEA0CFA0D8A40E9453038F8BA1
:102AD00086E1898381E090E09B838A8372C41F8AA8
:102AE00081E090E0A0E0B0E0888F998FAA8FBB8F43
:102AF0006EA57FA588A999A92AA93BA94CA95DA97A
:102B0000E9A0FAA00BA11CA1ADA0BEA0CFA0D8A4A3
:102B10000E9453038F8B86E1898381E090E09B8341
:102B20008A834FC41F8A81E090E0A0E0B0E0888FE4
:102B3000998FAA8FBB8F6EA57FA588A999A92AA96D
:102B40003BA94CA95DA9E9A0FAA00BA11CA1ADA0CD
:102B5000BEA0CFA0D8A40E9453038F8B86E18983A7
:102B600081E090E09B838A832CC41F8A81E090E0FF
:102B7000A0E0B0E0888F998FAA8FBB8F6EA57FA54C
:102B800088A999A92AA93BA94CA95DA9E9A0FAA0FD
:102B90000BA11CA1ADA0BEA0CFA0D8A40E9453033E
:102BA0008F8B86E1898381E090E09B838A8309C4CF
:102BB00089E28983EE24FF24E394FB82EA820E9467
:102BC0008F0285E292E00E945C0280E392E040E0A6
:102BD00050E0BA0101E010E020E030E00E945F0226
:102BE00019A61AA61BA61CA619A21AA21BA21CA2F1
:102BF00087E08983FB82EA82E4C389E28983EE2449
:102C0000FF24E394FB82EA820E948F028BE692E02B
:102C10000E945C0284E792E040E050E0BA0101E0EB
:102C200010E020E030E00E945F028FE18983FB82A8
:102C3000EA82C7C389E28983EE24FF24E394FB82FE
:102C4000EA820E948F028BE692E00E945C0284E797
:102C500092E040E050E0BA0101E010E020E030E016
:102C60000E945F028FE18983FB82EA82AAC38EA55C
:102C70009FA5A8A9B9A90097A105B10509F048C069
:102C80008981803289F0813218F48F3129F505C0AD
:102C90008132A9F0823201F519C089E2898381E08D
:102CA00090E09B838A8318C089E2898381E090E069
:102CB0009B838A83CE01CA960E94CF030DC089E20E
:102CC000898381E090E09B838A8306C089E28983BF
:102CD00081E090E09B838A830E948F0288E092E0EB
:102CE0000E945C0287E192E040E050E0BA0101E01E
:102CF00010E020E030E00E945F021EA61FA618AA86
:102D000019AA85E0898381E090E09B838A8359C377
:102D10001B830A83188619861A861B8629822FC36D
:102D20008EA59FA5A8A9B9A90097A105B10509F08D
:102D300048C08981803289F0813218F48F3129F5B9
:102D400005C08132A9F0823201F519C089E2898378
:102D500081E090E09B838A8318C089E2898381E0C7
:102D600090E09B838A83CE01CA960E94CF030DC058
:102D700089E2898381E090E09B838A8306C089E2AF
:102D8000898381E090E09B838A830E948F0288E0A0
:102D900092E00E945C0287E192E040E050E0BA01DC
:102DA00001E010E020E030E00E945F021EA61FA6B6
:102DB00018AA19AA85E0898381E090E09B838A8321
:102DC00000C38AAD882309F4DAC289E2898301E06D
:102DD00010E01B830A83CE01CA960E94CF03188697
:102DE00019861A861B8681E289831B830A83E9C2BE
:102DF0008EA59FA5A8A9B9A90097A105B10509F0BD
:102E000048C08981803289F0813218F48F3129F5E8
:102E100005C08132A9F0823201F519C089E28983A7
:102E200081E090E09B838A8318C089E2898381E0F6
:102E300090E09B838A83CE01CA960E94CF030DC087
:102E400089E2898381E090E09B838A8306C089E2DE
:102E5000898381E090E09B838A830E948F0288E0CF
:102E600092E00E945C0287E192E040E050E0BA010B
:102E700001E010E020E030E00E945F021EA61FA6E5
:102E800018AA19AA85E0898381E090E09B838A8350
:102E900098C288859985AA85BB858C309105A10546
:102EA000B105E9F48D85882321F189E2898301E068
:102EB00010E01B830A83CE01CA9648EB5BE060E01A
:102EC00070E020E00E94CC030E948F0280E892E034
:102ED0000E945C0280E289831B830A8372C28B306A
:102EE0009105A105B10509F04AC28D85882309F431
:102EF00046C21B830A831EA61FA618AA19AA92E21D
:102F000099833DC28EA59FA5A8A9B9A90097A1053F
:102F1000B10509F034C28981803289F0813218F418
:102F20008F3129F505C08132A9F0823201F519C02F
:102F300089E2898381E090E09B838A8318C089E2DB
:102F4000898381E090E09B838A83CE01CA960E94A8
:102F5000CF030DC089E2898381E090E09B838A835F
:102F600006C089E2898381E090E09B838A830E9486
:102F70008F0288E092E00E945C0287E192E040E0EC
:102F800050E0BA0101E010E020E030E00E945F0272
:102F90001EA61FA618AA19AA85E0898381E090E0E1
:102FA0009B838A830EC28F89882309F44DC089814F
:102FB0008632D1F0873228F4843241F0853261F5CF
:102FC0000CC08732C1F0883239F520C089E289838C
:102FD00081E090E09B838A831FC089E2898381E03E
:102FE00090E09B838A8318C089E2898381E090E026
:102FF0009B838A8311C089E2898381E090E09B836F
:103000008A83CE01CB960E94CF0306C089E28983D2
:1030100081E090E09B838A830E948F028BE692E09E
:103020000E945C0284E792E040E050E0BA0101E0D7
:1030300010E020E030E00E945F028FE1898381E0B0
:1030400090E09B838A83BDC189E2898301E010E01F
:103050001B830A83CE01CB9640ED57E060E070E021
:1030600020E00E94CC030E948F0288E892E00E9438
:103070005C0287E289831B830A83A3C18F8988232B
:1030800009F44DC089818632D1F0873228F4843228
:1030900041F0853261F50CC08732C1F0883239F5D4
:1030A00020C089E2898381E090E09B838A831FC0EE
:1030B00089E2898381E090E09B838A8318C089E25A
:1030C000898381E090E09B838A8311C089E28983B0
:1030D00081E090E09B838A83CE01CB960E94CF0350
:1030E00006C089E2898381E090E09B838A830E9405
:1030F0008F028BE692E00E945C0284E792E040E05F
:1031000050E0BA0101E010E020E030E00E945F02F0
:103110008FE1898381E090E09B838A8352C189E2B9
:10312000898301E010E01B830A83888D998DAA8D25
:10313000BB8D0196A11DB11D888F998FAA8FBB8F62
:103140006EA57FA588A999A92AA93BA94CA95DA923
:103150000E949F038F8B84E289831B830A8331C182
:103160008F89882309F40BC189818632D1F0873297
:1031700028F4843241F0853261F50CC08732C1F009
:10318000883239F520C089E2898381E090E09B8311
:103190008A831FC089E2898381E090E09B838A83D0
:1031A00018C089E2898381E090E09B838A8311C003
:1031B00089E2898381E090E09B838A83CE01CB966C
:1031C0000E94CF0306C089E2898381E090E09B835F
:1031D0008A830E948F028BE692E00E945C0284E761
:1031E00092E040E050E0BA0101E010E020E030E081
:1031F0000E945F028FE1898381E090E09B838A8354
:10320000E0C08F89882309F44DC089818632D1F0CE
:10321000873228F4843241F0853261F50CC0873260
:10322000C1F0883239F520C089E2898381E090E0DD
:103230009B838A831FC089E2898381E090E09B831E
:103240008A8318C089E2898381E090E09B838A8326
:1032500011C089E2898381E090E09B838A83CE015B
:10326000CB960E94CF0306C089E2898381E090E07B
:103270009B838A830E948F028BE692E00E945C020D
:1032800084E792E040E050E0BA0101E010E020E085
:1032900030E00E945F028FE1898381E090E09B83B0
:1032A0008A838FC08BAD882309F469C089E2898342
:1032B00001E010E01B830A83CE01CB960E94CF036E
:1032C00081E08F8B188E198E1A8E1B8E88E289836F
:1032D0001B830A8376C08F89882309F44DC08981B6
:1032E0008632D1F0873228F4843241F0853261F59C
:1032F0000CC08732C1F0883239F520C089E2898359
:1033000081E090E09B838A831FC089E2898381E00A
:1033100090E09B838A8318C089E2898381E090E0F2
:103320009B838A8311C089E2898381E090E09B833B
:103330008A83CE01CB960E94CF0306C089E289839F
:1033400081E090E09B838A830E948F028BE692E06B
:103350000E945C0284E792E040E050E0BA0101E0A4
:1033600010E020E030E00E945F028FE1898381E07D
:1033700090E09B838A8325C01B830A8339828A81DC
:103380009B8101969B838A838230910510F40C9473
:103390005A091D861A8A18A21EAA1FAADF91CF9168
:1033A0001F910F91FF90EF90DF90CF90BF90AF9063
:1033B0009F908F907F906F905F904F903F902F9055
:1033C00008958A819B8101969B838A83E2CF8A81BB
:1033D0009B8101969B838A830C945A09C89668172F
:1033E00079073CF004966817790718F481E0FB012F
:1033F00080830895DC01E62FF0E0E932F10508F062
:103400006CC1EE56FF4FEE0FFF1F0590F491E02DBB
:10341000099481E09C91993208F460C180E008959C
:1034200081E09C91913009F459C180E008959C910C
:10343000925081E0973208F451C180E0089581E014
:103440009C91933009F44AC180E0089581E09C91F9
:10345000943009F443C180E0089581E011969C9175
:103460001197953009F43AC180E0089511969C9126
:103470001197965081E09D3008F430C180E00895A6
:1034800081E011969C911197973009F427C180E053
:10349000089581E011969C911197983009F41EC10E
:1034A00080E0089581E011969C911197993009F47C
:1034B00015C180E0089581E011969C9111979A3092
:1034C00009F40CC180E0089581E011969C91119758
:1034D0009B3009F403C180E0089581E011969C912E
:1034E00011979C3009F4FAC080E0089581E01196AC
:1034F0009C9111979D3009F4F1C080E0089581E01E
:1035000011969C9111979E3009F4E8C080E00895CF
:1035100081E011969C9111979F3009F4DFC080E003
:10352000089581E011969C911197903109F4D6C0CD
:1035300080E0089581E011969C911197913109F4F2
:10354000CDC080E0089581E011969C911197923151
:1035500009F4C4C080E0089581E011969C91119710
:10356000933109F4BBC080E0089581E011969C91ED
:103570001197943109F4B2C080E0089511969C919E
:103580001197955181E0963008F4A8C080E0089525
:1035900081E011969C911197963109F49FC080E0CB
:1035A000089581E011969C911197973109F496C086
:1035B00080E0089581E011969C911197983109F46B
:1035C0008DC080E0089581E011969C91119799310A
:1035D00009F484C080E0089581E011969C911197D0
:1035E0009A3109F47BC080E0089581E011969C91A6
:1035F00011979B3109F472C080E0089581E0119623
:103600009C9111979C3109F469C080E0089581E094
:1036100011969C9111979D3109F460C080E0089546
:1036200011969C9111979E5181E0953008F456C0F7
:1036300080E0089581E011969C9111979F3109F4E3
:103640004DC080E0089581E011969C9111979032D1
:1036500009F444C080E0089581E011969C9111978F
:103660009132E1F180E0089581E011969C911197EB
:103670009232A1F180E0089511969C911197935296
:1036800081E0963058F180E0089581E011969C9198
:103690001197943219F180E0089581E011969C9180
:1036A00011979532D9F080E0089581E011969C91B0
:1036B0001197963299F080E0089581E011969C91DF
:1036C0001197973259F080E0089581E011969C910E
:1036D0001197983219F080E0089580E0089521E074
:1036E000FC0125870895FC0164817581868197819D
:1036F0000895FC0144835583668377830895FC0114
:1037000060857185828593850895FC014087518786
:10371000628773870895FC0184850895FC0164879E
:10372000089521E0FC01228B0895FC018685978590
:103730000895FC01778766870895FC018089918947
:103740000895FC01718B608B089521E0FC0120A39A
:103750000895FC01838994890895FC01748B638B1F
:103760000895FC01858996890895FC01768B658B07
:103770000895FC0187890895FC01678B0895FC0179
:10378000608D718D828D938D0895FC01408F518FD6
:10379000628F738F0895FC01648D758D868D978D72
:1037A0000895FC01448F558F668F778F0895FC0133
:1037B00061A172A183A194A10895FC0141A352A328
:1037C00063A374A30895FC0165A176A187A190A5C8
:1037D0000895FC0145A356A367A370A70895FC01B3
:1037E00061A572A583A594A50895FC0141A752A7E0
:1037F00063A774A7089521E0FC0126AB089521E09A
:10380000FC0127AB0895FC0185A50895FC0165A77F
:103810000895FC0166A577A580A991A90895FC01EA
:1038200046A757A760AB71AB0895FC0162A973A9C5
:1038300084A995A90895FC0142AB53AB64AB75AB69
:10384000089587B3807F87BB87B3876087BB81E597
:103850008DB981E08EB908958FB9779BFECF8FB176
:10386000089583E083BF83E882BF81E087BF109221
:1038700099021092980278940895CF92DF92EF9275
:10388000FF92CF93DF93EC016A017B014091980294
:103890005091990214161506E4F4ECEBF2E0DF0106
:1038A000169620E030E070E061E0808191818C1715
:1038B0009D0731F413821282D582C4826C93762FD5
:1038C0002F5F3F4F379617962417350774F37723EA
:1038D000C9F4FA01EE0FFF1FEE0FFF1FEE0FFF1FDF
:1038E000E41BF50BE454FD4FD183C0831382128295
:1038F000D582C48281E086834F5F5F4F50939902E7
:1039000040939802DF91CF91FF90EF90DF90CF909E
:103910000895DC01609198027091990216161706BD
:1039200064F58091BC029091BD028A179B07E1F477
:103930000AC0295F3F4FF9013797808191818A172B
:103940009B07B1F402C040E050E0FA01EE0FFF1F08
:10395000EE0FFF1FEE0FFF1FE41BF50BE454FD4FAE
:10396000138212821682089523EC32E040E050E088
:103970004F5F5F4F46175707E1F60895CF92DF92EA
:10398000EF92FF920F931F93CF93DF936C0180917F
:103990009802909199021816190694F5C2ECD2E09B
:1039A0008E0106501040EE24FF2488818823D9F030
:1039B000D80112968D919C911397019613969C9322
:1039C0008E93129714962D913C9115978217930719
:1039D00051F413961C921E92129718826D917C914D
:1039E000C6010E94EE190894E11CF11C2796095F9C
:1039F0001F4F8091980290919902E816F906ACF257
:103A0000DF91CF911F910F91FF90EF90DF90CF90BA
:103A100008958CEB92E00E94FA1D10929902109288
:103A200098020895629FD001739FF001829FE00D7C
:103A3000F11D649FE00DF11D929FF00D839FF00D2D
:103A4000749FF00D659FF00D9927729FB00DE11DD9
:103A5000F91F639FB00DE11DF91FBD01CF011124B6
:103A60000895991B79E004C0991F961708F0961BDA
:103A7000881F7A95C9F78095089597FB092E072628
:103A80000AD077FD04D00CD006D000201AF470952F
:103A900061957F4F0895F6F7909581959F4F089512
:103AA000AA1BBB1B51E107C0AA1FBB1FA617B70764
:103AB00010F0A61BB70B881F991F5A95A9F7809580
:103AC0009095BC01CD010895CF93DF93AC01823076
:103AD000910510F442E050E0E0910403F0910503F9
:103AE00020E030E0A0E0B0E024C080819181841724
:103AF0009507D0F08417950771F482819381109710
:103B000029F013969C938E9312972CC090930503E3
:103B10008093040327C02115310519F082179307FC
:103B200018F49C01BD01EF0192818381DF01E92F2F
:103B3000F82F3097D1F621153105F9F0C901841B12
:103B4000950B8430910580F48A819B816115710504
:103B500021F0FB019383828304C09093050380933B
:103B60000403FE01329642C0FE01E80FF91F4193A3
:103B7000519302979983888339C080910203909171
:103B80000303009741F480919402909195029093E1
:103B90000303809302032091920230919302211536
:103BA000310541F42DB73EB780919602909197026E
:103BB000281B390BE0910203F0910303E217F3078E
:103BC00098F42E1B3F0B2417350770F0CA0102969C
:103BD0002817390748F08E0F9F1F90930303809397
:103BE00002034193519302C0E0E0F0E0CF01DF9186
:103BF000CF9108950F931F93CF93DF939C0100976C
:103C000009F48CC0DC01129713961C921E92129735
:103C100060910403709105036115710589F48D911C
:103C20009C911197820F931F2091020330910303FF
:103C30002817390769F5B0930303A09302036EC0F8
:103C4000FB0140E050E001C0FC01EA17FB0730F443
:103C500082819381AF010097B9F71FC0E9012297D4
:103C6000FB83EA8308811981C901800F911F8E1798
:103C70009F0759F480819181800F911F029699834B
:103C80008883828193819B838A834115510529F41E
:103C9000B0930503A093040341C0FA01B383A28348
:103CA000C191D191EC0FFD1FAE17BF0781F4F9014F
:103CB000929182918C0F9D1F0296DA0111969C932E
:103CC0008E938281938113969C938E931297E0E05A
:103CD000F0E002C0FB01BC01DB0112968D919C91CA
:103CE00013970097B9F7CB0102962D913C9111974C
:103CF000820F931F20910203309103032817390785
:103D000069F4309729F4109205031092040302C05D
:103D1000138212827093030360930203DF91CF91A9
:103D20001F910F9108950F931F93CF93DF93CDB7FA
:103D3000DEB72E970FB6F894DEBF0FBECDBF0D894C
:103D40001E8986E08C831A8309838FEF9FE79E8309
:103D50008D83AE01475E5F4FCE0101966F89788DEE
:103D60000E94C21EEF81F885E00FF11F10822E968F
:103D70000FB6F894DEBF0FBECDBFDF91CF911F917C
:103D80000F9108952F923F924F925F926F927F9280
:103D90008F929F92AF92BF92CF92DF92EF92FF925B
:103DA0000F931F93CF93DF93CDB7DEB72D970FB649
:103DB000F894DEBF0FBECDBF3C017D876C875A01F2
:103DC000FC0117821682838181FFC8C12E010894ED
:103DD000411C511CF3019381EC85FD8593FD859178
:103DE00093FF8191FD87EC87882309F4B3C1853265
:103DF00041F493FD859193FF8191FD87EC87853296
:103E000029F490E0B3010E94DF20E4CFFF24EE24E8
:103E100010E01032B0F48B3269F08C3228F480322A
:103E200051F0833271F40BC08D3239F0803349F494
:103E300011602CC01260146029C0186027C0106186
:103E400025C017FD2EC0282F20532A3098F416FFC6
:103E500008C08F2D880FF82EFF0CFF0CF80EF20E05
:103E600015C08E2D880FE82EEE0CEE0CE80EE20E3B
:103E700010620CC08E3221F416FD6CC1106406C0B5
:103E80008C3611F4106802C0883659F4EC85FD8533
:103E900093FD859193FF8191FD87EC87882309F03D
:103EA000B8CF982F9554933018F09052933038F43F
:103EB00024E030E0A20EB31E3FE339830FC0833607
:103EC00031F0833781F0833509F05AC022C0F50103
:103ED0008081898322E030E0A20EB31E21E0C22E51
:103EE000D12C420114C092E0292E312C2A0C3B1C0B
:103EF000F5018080918016FF03C06F2D70E002C035
:103F00006FEF7FEFC4010E94D4206C0151011F7735
:103F100015C082E0282E312C2A0C3B1CF501808034
:103F2000918016FF03C06F2D70E002C06FEF7FEF2E
:103F3000C4010E94C9206C011068510113FD1CC00E
:103F400006C080E290E0B3010E94DF20EA948E2D4B
:103F500090E0C816D906A8F30FC0F40117FD8591AB
:103F600017FF81914F0190E0B3010E94DF20E11023
:103F7000EA940894C108D108C114D10471F7E7C0CC
:103F8000843611F0893651F5F50117FF07C080819D
:103F90009181A281B38124E030E008C080819181C9
:103FA000AA2797FDA095BA2F22E030E0A20EB31EFB
:103FB000012F0F76B7FF08C0B095A0959095819519
:103FC0009F4FAF4FBF4F0068BC01CD01A2012AE057
:103FD00030E00E940B21D82ED4183FC0853721F441
:103FE0001F7E2AE030E020C0197F8F36A9F080378D
:103FF00020F4883509F0AEC00BC0803721F0883737
:1040000009F0A8C001C0106114FF09C0146007C006
:1040100014FF08C0166006C028E030E005C020E1AB
:1040200030E002C020E132E0F50117FF07C06081F7
:1040300071818281938144E050E006C0608171818A
:1040400080E090E042E050E0A40EB51EA2010E9484
:104050000B21D82ED418012F0F7706FF09C00E7F31
:10406000DF1430F404FF06C002FD04C00F7E02C05E
:104070001D2D01C01F2D802F90E004FF0CC0FE01FC
:10408000ED0DF11D2081203311F4097E09C002FFDE
:1040900006C01E5F05C086789070009709F01F5F0C
:1040A000802E992403FD12C000FF0DC0FD2C1E15AB
:1040B00050F4FE0CF11A1E2D06C080E290E0B30110
:1040C0000E94DF201F5F1E15C0F304C01E1510F4F0
:1040D000E11A01C0EE2484FE0FC080E390E0B3013A
:1040E0000E94DF2082FE1FC081FE03C088E590E0B1
:1040F00010C088E790E00DC0C401867890700097EA
:1041000091F081FC02C080E201C08BE207FD8DE2EC
:1041100090E0B3010E94DF2006C080E390E0B3018D
:104120000E94DF20FA94DF14C0F3DA94F201ED0D5F
:10413000F11D808190E0B3010E94DF20DD20A9F70E
:1041400006C080E290E0B3010E94DF20EA94EE20F6
:10415000C1F740CEF3018681978102C08FEF9FEFB8
:104160002D960FB6F894DEBF0FBECDBFDF91CF9175
:104170001F910F91FF90EF90DF90CF90BF90AF9085
:104180009F908F907F906F905F904F903F902F9077
:104190000895FC010590615070400110D8F780959A
:1041A00090958E0F9F1F0895FC0161507040019003
:1041B0000110D8F7809590958E0F9F1F08950F934B
:1041C0001F93CF93DF938C01EB018B8181FF1BC089
:1041D00082FF0DC02E813F818C819D812817390778
:1041E00064F4E881F9810193F983E88306C0E885E6
:1041F000F985802F0995009731F48E819F81019672
:104200009F838E8302C00FEF1FEFC801DF91CF9114
:104210001F910F910895FA01AA27283051F12031FA
:1042200081F1E8946F936E7F6E5F7F4F8F4F9F4F4A
:10423000AF4FB1E03ED0B4E03CD0670F781F891F8C
:104240009A1FA11D680F791F8A1F911DA11D6A0F5A
:10425000711D811D911DA11D20D009F468943F910D
:104260002AE0269F11243019305D3193DEF6CF010C
:104270000895462F4770405D4193B3E00FD0C9F7D2
:10428000F6CF462F4F70405D4A3318F0495D31FD3F
:104290004052419302D0A9F7EACFB4E0A695979592
:1042A000879577956795BA95C9F700976105710568
:1042B00008959B01AC010A2E0694579547953795B2
:1042C0002795BA95C9F7620F731F841F951FA01D0C
:0642D0000895F894FFCFF1
:1042D600100F0E0D0C0906030A0805020B07040150
:1042E6000E0D0B070C12120C000000000C12040835
:1042F6001E0000000A15110A040000000305090B40
:104306000B1818001F0E0E04040404040101050511
:10431600151515000E11111F1F1F1F0000000000AC
:104326000000000000E8E8F0F0E2C1C2C2C2C669BF
:104336006E666F0D0A005354415455533A2025308A
:1043460032580D0A00434F4E4649473A202530322F
:10435600580D0A0052465F43483A20253032580D20
:104366000A0052465F53455455503A20253032587C
:104376000D0A00454E5F41413A20253032580D0A5C
:1043860000454E5F5258414444523A202530325837
:104396000D0A004F4253455256455F54583A202560
:1043A6003032580D0A000D0A00E8E8F0F0E2C1C20A
:1043B600C2C2C2C1C2C2C2C3C1C2C2C2C4C1C2C2D7
:1043C600C2C5C1C2C2C2C6E8E8F0F0E2576169746C
:1043D60074696E672E2E2E00412D4F726465722011
:1043E60020422D44656C00432D48656C70202044A6
:1043F6002D506179004469736820436F64653A0003
:104406005F205F205F00416D6F756E743A005F201C
:104416005F0046696E697368204F72646572696EE3
:10442600673F002A2E4E6F2020232E596573004FBA
:104436007264657220746869733F0050726F6365B9
:1044460065643F002A2D4E6F2020232D5965730089
:1044560053656E64696E670053656E6420666169B4
:084466006C00000006032000B9
:00000001FF
