:100000000C9475000C9494000C9494000C9494003F
:100010000C9494000C9494000C9494000C94940010
:100020000C9494000C9494000C9494000C94940000
:100030000C9494000C9494000C9494000C949400F0
:100040000C9482030C9494000C9494000C949400EF
:100050000C9494000C9494000C9494000C949400D0
:100060000C9494000C9494000C9494000C949400C0
:100070000C9494000C9494000C9494000C949400B0
:100080000C9494000C9494000C949400AF086D129E
:10009000E60813093D096D124609C2093E0A930B91
:1000A0004E0CC80C6D0E280FA20F141039106D12D3
:1000B0005010C31046119F111112B712BE12C51273
:1000C000CD12D412DB12E412EE12F7120013091350
:1000D00012131B1324132D1336133F1347134F13FF
:1000E0005813601368137013781311241FBECFEFD9
:1000F000D0E1DEBFCDBF12E0A0E0B1E0EEEFF2E371
:1001000000E00BBF02C007900D92AC35B107D9F7E4
:1001100012E0ACE5B2E001C01D92AC3BB107E1F7E3
:100120000E9462030C947D190C940000AF92BF9260
:10013000CF92DF92EF92FF920F931F93CF93DF93B3
:1001400020E030E041E050E0E2E6F0E0A0E1B1E0A4
:100150000F2EF1E1AF2EF1E0BF2EF02D02E111E004
:100160000F2EF3E1EF2EF1E0FF2EF02DB901C901C2
:1001700004966A0102C0CC0CDD1C8A95E2F7C60128
:100180008095808383E08A95F1F7000080B18F70BD
:100190008F3029F19C919817A9F0E5019881981763
:1001A00059F0E8019881981751F0E7019881981764
:1001B000B1F4E3E0F0E008C0E1E0F0E005C0E2E027
:1001C000F0E002C0E0E0F0E0EE0FFF1FEE0FFF1FD7
:1001D0006E0F7F1FFB01E050FF4F808106C02F5F35
:1001E0003F4F2430310511F680E0DF91CF911F9110
:1001F0000F91FF90EF90DF90CF90BF90AF90089558
:1002000080EF809361008FE08093620008958FEC0F
:1002100097E00197F1F700C000000895282F22957C
:100220002F708F70662311F4D89801C0D89AD99A8C
:100230009BB3220F220F937C922B9BBBD998D99A08
:100240009BB3880F880F937C892B8BBBD9980E9416
:10025000070108950F931F93CF93DF938C01FC0147
:100260008081882309F18532A9F4E8012196F801FB
:1002700081818053883020F461E00E940E010EC01D
:1002800085E261E00E940E01F801818161E00E9437
:100290000E0104C061E00E940E01E8018E010F5FB3
:1002A0001F4F89818823F9F6DF91CF911F910F911C
:1002B0000895EF92FF920F931F93CF93DF9300D097
:1002C00000D00F92CDB7DEB77B01FE01319625E05D
:1002D000DF011D922A95E9F7009761F0FE0136963D
:1002E0002AE030E0B9010E9451158293862F972FA2
:1002F0000097C1F7BFEFEB16BFEFFB0669F429814A
:10030000222379F4FE01329600E010E00F5F1F4FC8
:1003100021912223D9F307C005E010E00E191F092F
:1003200002C000E010E0992324F48DE261E00E9415
:100330000E0105301105BCF4E1E0F0E0EC0FFD1F0B
:100340000E0F1F1F0F2EF6E0EF2EFF24F02DEC0EE8
:10035000FD1ED8018D918D01805D61E00E940E012E
:100360000E151F05B1F70F900F900F900F900F9083
:10037000DF91CF911F910F91FF90EF9008958431FD
:1003800078F4623031F0633031F0613029F4806408
:1003900003C08C5E01C08C5A806860E00E940E0130
:1003A00008950F931F93CF93DF93C82F8BE49DE1A4
:1003B0000197F1F700C000008AB38C638ABBD19A21
:1003C000D09A8BB3837C8BBBD998D898D99ADB9A77
:1003D000D9980E9407018C2F8C6060E00E940E016A
:1003E00088E260E00E940E0180E460E00E940E015D
:1003F000C4E1D1E004E511E0899161E00E940E01C1
:10040000C017D107C9F780E060E00E94BF01DF910B
:10041000CF911F910F9108950E949600682F70E070
:1004200080E090E008950E94000108950E942A0152
:1004300008950F93CF93DF93EC01842F602F0E94D8
:10044000BF01CE010E942A01DF91CF910F91089543
:100450004F925F926F927F92AF92BF92CF92DF9254
:10046000EF92FF922B013C01822F6E2D76016501E8
:100470000E94BF01C201B6010E945901FF90EF9096
:10048000DF90CF90BF90AF907F906F905F904F9034
:10049000089581E060E00E940E0182E060E00E9429
:1004A0000E01089580E00E94D10108950F931F93DB
:1004B000CF93DF930F92CDB7DEB71982CE010196AD
:1004C0000E942206882399F08981882399F4EEE519
:1004D000F2E0CF0109961192E817F907E1F70EE56E
:1004E00012E080E0B8010E943406C80105C084E52E
:1004F00091E002C084E591E00F90DF91CF911F91D0
:100500000F910895CF93DF939C01C9E6D2E080E07C
:1005100090E0A22FB32FFD0101900020E9F7319761
:10052000EA1BFB0B8E179F0730F4F901E80FF91F48
:100530004081488301C01882019621968930910537
:1005400041F785E591E00E94920489E692E00E94DD
:100550005A06982FEFECF7E03197F1F700C0000052
:1005600081E0913009F080E0DF91CF910895E9E6D4
:10057000F2E0CF01099621E02193E817F907E1F7AE
:100580008AE591E00E94920489E692E00E945A0670
:10059000982FEFECF7E03197F1F700C0000081E011
:1005A000913009F080E008950F931F93CF93DF936C
:1005B0000F92CDB7DEB71982CE0101960E942206B6
:1005C0008823F1F089818530E9F4EEE5F2E08F01CE
:1005D000075F1F4F1192E017F107E1F785E06EE525
:1005E00072E00E94340680915E02813069F4EFE58A
:1005F000F2E08191813051F4E017F107D1F707C0A3
:1006000080E005C080E003C080E001C080E00F9082
:10061000DF91CF911F910F910895AF92EF92822FAA
:10062000E9E6F2E0AF01475F5F4F1192E417F5078B
:10063000E1F7605D609369023AE0632F0E9445151F
:10064000905D90936B020E944515905D90936A02B5
:100650008E2D0E944515905D90936E020E94451567
:10066000905D90936D020E944515905D90936C0291
:100670008A2D0E944515905D909370020E94451549
:10068000905D90936F0285E591E00E94920489E667
:1006900092E00E945A06982FEFECF7E03197F1F7BD
:1006A00000C0000081E0913009F080E0EF90AF9051
:1006B00008950E94501408950E949C1408950E9469
:1006C000B00608958FE084BB85BB82E090E00E9475
:1006D000781580936702909368020E944414809179
:1006E0006702909168020E946F0780916702909163
:1006F00068020E94760780916702909168020E94CA
:100700006908F9CF1F920F920FB60F920BB60F9296
:1007100011242F933F934F935F936F937F938F9306
:100720009F93AF93BF93EF93FF9383E882BF809132
:100730006702909168020E94D214FF91EF91BF91DD
:10074000AF919F918F917F916F915F914F913F9169
:100750002F910F900BBE0F900FBE0F901F9018950A
:10076000AE988F710E943F148FEF0E943F14AE9A93
:100770000895FF920F931F93CF93DF93062FF72EC9
:10078000142FAE988F710E943F14112351F0C02F87
:10079000DF2D00E08FEF0E943F1489930F5F011758
:1007A000C9F7AE9ADF91CF911F910F91FF900895F5
:1007B000CF93C62FAE988F7180620E943F148C2F0A
:1007C0000E943F14AE9ACF910895FF920F931F930A
:1007D000CF93DF93062FF72E142FAE988F71806280
:1007E0000E943F14112349F0C02FDF2D00E08991B2
:1007F0000E943F140F5F0117D1F7AE9ADF91CF919E
:100800001F910F91FF90089520E030E00496DB01E6
:10081000A20FB31FFC01E21BF30B40814C932F5F2F
:100820003F4F2530310599F70895CF93DF9300D0DE
:1008300000D00F92CDB7DEB78823B1F4A9EDB1E0B7
:10084000FB0185E001900D928150E1F7CB01BE01E3
:100850006F5F7F4F0E9404048AE0BE016F5F7F4F8D
:1008600045E00E94E50356C08130B1F4AEEDB1E041
:10087000FB0185E001900D928150E1F7CB01BE01B3
:100880006F5F7F4F0E9404048BE0BE016F5F7F4F5C
:1008900045E00E94E5033EC0823071F4A3EEB1E072
:1008A000FB0185E001900D928150E1F78CE0FB01A6
:1008B00064810E94D8032EC0833071F4A8EEB1E0A9
:1008C000FB0185E001900D928150E1F78DE0FB0185
:1008D00064810E94D8031EC0843071F4ADEEB1E093
:1008E000FB0185E001900D928150E1F78EE0FB0164
:1008F00064810E94D8030EC0853061F4A2EFB1E09C
:10090000FB0101900D928150E1F78FE0FB016481C2
:100910000E94D8030F900F900F900F900F90DF91CF
:10092000CF910895CF93DF9300D000D00F92CDB731
:10093000DEB7A7EFB1E0E82FF92F25E001900D9287
:100940002150E1F7BE016F5F7F4F0E9404048AE0EF
:10095000BE016F5F7F4F45E00E94E50380E1BE016D
:100960006F5F7F4F45E00E94E5030F900F900F905F
:100970000F900F90DF91CF910895AE9882EE0E9474
:100980003F14AE9A0895AE9881EE0E943F14AE9A3D
:10099000089580E069ED71E00E94150480E00E94F6
:1009A000B003682F616080E00E94D80380E00E945D
:1009B000B003682F626080E00E94D80387E060E7A0
:1009C0000E94D8030E94BD040E94C304AF9A82E330
:1009D0008A95F1F70895AF9880E00E94B003682FE0
:1009E0006E7F80E00E94D80380E00E94B003682FF1
:1009F000626080E00E94D80387E060E70E94D8032D
:100A00000E94C30482E38A95F1F70895AE988FEFB0
:100A10000E943F14AE9A0895EF92FF920F931F9396
:100A2000CF93DF93CDB7DEB7C456D0400FB6F8945E
:100A3000DEBF0FBECDBF7C018FE591E0F7010995C8
:100A40000E94060500D000D000D0EDB7FEB7319669
:100A50008E010F5F1F4FADB7BEB712961C930E935A
:100A6000119726E631E033832283848315820E9426
:100A7000A7168DB79EB706960FB6F8949EBF0FBE09
:100A80008DBFC801F701099580E00E94B00300D036
:100A900000D000D0EDB7FEB73196ADB7BEB7129615
:100AA0001C930E93119725E731E0338322838483CF
:100AB00015820E94A7168DB79EB706960FB6F894BA
:100AC0009EBF0FBE8DBFC801F701099585E00E944A
:100AD000B00300D000D000D0EDB7FEB73196ADB76F
:100AE000BEB712961C930E93119724E831E033831E
:100AF0002283848315820E94A7168DB79EB706961F
:100B00000FB6F8949EBF0FBE8DBFC801F7010995BF
:100B100086E00E94B00300D000D000D0EDB7FEB751
:100B20003196ADB7BEB712961C930E93119722E97A
:100B300031E033832283848315820E94A7168DB708
:100B40009EB706960FB6F8949EBF0FBE8DBFC80124
:100B5000F701099581E00E94B00300D000D000D0D9
:100B6000EDB7FEB73196ADB7BEB712961C930E9394
:100B7000119723EA31E033832283848315820E9414
:100B8000A7168DB79EB706960FB6F8949EBF0FBEF8
:100B90008DBFC801F701099582E00E94B00300D023
:100BA00000D000D0EDB7FEB73196ADB7BEB7129604
:100BB0001C930E93119721EB31E0338322838483BE
:100BC00015820E94A7168DB79EB706960FB6F894A9
:100BD0009EBF0FBE8DBFC801F701099588E00E9436
:100BE000B00300D000D000D0EDB7FEB73196ADB75E
:100BF000BEB712961C930E93119723EC31E033830A
:100C00002283848315820E94A7168DB79EB706960D
:100C10000FB6F8949EBF0FBE8DBFC801F7010995AE
:100C200086ED91E0F7010995CC59DF4F0FB6F894A6
:100C3000DEBF0FBECDBFDF91CF911F910F91FF900F
:100C4000EF900895CF93DF93EC010E940605982F53
:100C5000907486FF05C0209719F086958770888369
:100C6000892FDF91CF9108950F931F93CF93DF9337
:100C7000062F172FAE9881E60E943F14C02FD12F68
:100C800010E08FEF0E943F1489931F5F1930C9F75E
:100C9000AE9A87E060E40E94D8030E94060585FFB3
:100CA00004C087E060E20E94D803DF91CF911F91DA
:100CB0000F9108950F931F93CF93DF93082F192F50
:100CC0000E94EB04AE9880EA0E943F14C02FD12FFF
:100CD00019E089910E943F141150D9F7AE9AAF9A4A
:100CE00085E08A95F1F7AF9883E08A95F1F70000E7
:100CF0000E9406058073C1F30E940605C82F85E097
:100D00006CE40E94D80380E00E94B003682F6D7FDE
:100D100080E00E94D8030E94C90481E0C5FF80E002
:100D2000DF91CF911F910F91089586E00E94B0034B
:100D3000682F666086E00E94D803089586E00E94CE
:100D4000B003682F677D86E00E94D803089580E095
:100D50000E94B003682F6C6080E00E94D803089561
:100D6000A69AA79A0E943414AF98AE9A81EE94E0A6
:100D70000197F1F700C000000E9495060E949E06B0
:100D80000E94A70684E067E40E94D8038CE160E03B
:100D90000E94D80385E06CE40E94D80381E169E0F9
:100DA0000E94D80382E169E00E94D80383E169E0F0
:100DB0000E94D80384E169E00E94D80385E169E0DC
:100DC0000E94D80386E169E00E94D80382E060E0D7
:100DD0000E94D80382E00E94B003682F616082E025
:100DE0000E94D80382E00E94B003682F626082E014
:100DF0000E94D80382E00E94B003682F646082E002
:100E00000E94D80382E00E94B003682F686082E0ED
:100E10000E94D80382E00E94B003682F606182E0E4
:100E20000E94D80382E00E94B003682F606282E0D3
:100E30000E94D80381E00E94B003682F616081E0C6
:100E40000E94D80381E00E94B003682F626081E0B5
:100E50000E94D80381E00E94B003682F646081E0A3
:100E60000E94D80381E00E94B003682F686081E08F
:100E70000E94D80381E00E94B003682F606181E086
:100E80000E94D80381E00E94B003682F606281E075
:100E90000E94D80380E069ED71E00E94150481E0B2
:100EA0006EED71E00E94150482E063EE71E00E9435
:100EB000150483E068EE71E00E94150484E06DEE95
:100EC00071E00E94150485E062EF71E00E94150454
:100ED00087EF91E00E9492040E94C9040895FC01EA
:100EE00088E1808381831382128208951F93CF93B8
:100EF000DF93EC0111E01DA7C89648EB5BE060E0D2
:100F000070E020E00E94590381E090E0A0E0B0E0B2
:100F10008AAB9BABACABBDAB0E9452020E941302EA
:100F20000E945F030E9449028CEF91E00E9416022A
:100F300018831B821A82DF91CF911F910895CF935E
:100F4000DF93EC018881833069F0843081F0813057
:100F500091F488E188831B821A82CE01C8960E9490
:100F60005C0309C088E188831B821A8204C088E17F
:100F700088831B821A8289818E3009F465C08F3084
:100F8000B0F4893009F444C08A3040F4873091F1DC
:100F90008830B8F5853009F099C025C08B3009F448
:100FA00045C08B30E0F18C3009F090C046C08331F1
:100FB00009F466C0843150F4803109F453C08031A3
:100FC00008F449C0813109F081C053C0853109F46A
:100FD00065C0853108F45BC0863109F466C087318D
:100FE00009F074C06DC088E1898381E090E09B8343
:100FF0008A836CC088E1898381E090E09B838A8347
:1010000065C088E1898381E090E09B838A835EC02C
:1010100088E1898381E090E09B838A8357C088E1DF
:10102000898381E090E09B838A8350C088E1898333
:1010300081E090E09B838A8349C088E1898381E0D5
:1010400090E09B838A8342C088E1898381E090E0BD
:101050009B838A833BC088E1898381E090E09B8306
:101060008A8334C088E1898381E090E09B838A830E
:101070002DC088E1898381E090E09B838A8326C02C
:1010800088E1898381E090E09B838A831FC088E1A7
:10109000898381E090E09B838A8318C088E18983FB
:1010A00081E090E09B838A8311C088E1898381E09D
:1010B00090E09B838A83CE01C9960E945C0306C0A0
:1010C00088E1898381E090E09B838A83DF91CF91DF
:1010D00008952F923F924F925F926F927F928F92DC
:1010E0009F92AF92BF92CF92DF92EF92FF920F93B7
:1010F0001F93CF93DF93EC011B821A8280E090E074
:1011000001E010E00F2EF5E12F2EF02D44245524A0
:10111000320143940F2EFCE0AF2EF02D0F2EF9E09C
:101120009F2EF02D0F2EF1E1BF2EF02D88248394F9
:101130003324689432F88C0F9D1FFC01808190E06D
:1011400001978731910510F00C946D128A5B9F4FC7
:10115000FC01EE0FFF1F0590F491E02D099488AD7E
:10116000882311F40C946D1288E188831B821A8203
:10117000CE01C8960E945C030E940C02DC01CB01E8
:101180008C839D83AE83BF831C8683E088831B8210
:101190001A820E94490288E092E00E94160286E1CB
:1011A00092E040E050E0BA0101E010E020E030E0E1
:1011B0000E9419021EA61FA618AA19AA85E08983F3
:1011C00081E090E09B838A830C948F128C819D81B7
:1011D000AE81BF810097A105B105B1F0F8E1F883B8
:1011E0001B821A8288879987AA87BB870E940C0274
:1011F000DC01CB018C839D83AE83BF838C863882D8
:101200001B821A820C9495120E940C02DC01CB0105
:101210008C839D83AE83BF831C8683E088831B827F
:101220001A820C9495128C819D81AE81BF810097AA
:10123000A105B105A1F428E128831B821A828D86BD
:101240000E940C02DC01CB018C839D83AE83BF83A3
:101250001C8683E088831B821A820C9495120E945C
:101260000C02DC01CB018C839D83AE83BF838C8613
:1012700038821B821A820C9495121B830A8318866B
:1012800019861A861B86B9820C946D128EA59FA5AD
:10129000A8A9B9A90097A105B10509F06AC089817B
:1012A0008A3041F18B3040F48830B1F08930D8F485
:1012B000873009F041C009C08C3051F18C3008F101
:1012C0008E3069F18F30C1F531C088E1898381E0CA
:1012D00090E09B838A8330C088E1898381E090E03D
:1012E0009B838A8329C088E1898381E090E09B8386
:1012F0008A8322C088E1898381E090E09B838A838E
:101300001BC088E1898381E090E09B838A8314C0BD
:1013100088E1898381E090E09B838A830DC088E126
:10132000898381E090E09B838A8306C088E189837A
:1013300081E090E09B838A830E94490288E092E0EA
:101340000E94160286E192E040E050E0BA0101E01E
:1013500010E020E030E00E9419021EA61FA618AA85
:1013600019AA85E0898381E090E09B838A830C94AD
:101370008F121B830A83188619861A861B86998208
:101380000C946D128EA59FA5A8A9B9A90097A105D7
:10139000B10509F06AC089818A3041F18B3040F48F
:1013A0008830B1F08930D8F4873009F041C009C0E5
:1013B0008C3051F18C3008F18E3069F18F30C1F5ED
:1013C00031C088E1898381E090E09B838A8330C0CB
:1013D00088E1898381E090E09B838A8329C088E14A
:1013E000898381E090E09B838A8322C088E189839E
:1013F00081E090E09B838A831BC088E1898381E040
:1014000090E09B838A8314C088E1898381E090E027
:101410009B838A830DC088E1898381E090E09B8370
:101420008A8306C088E1898381E090E09B838A8378
:101430000E94490288E092E00E94160286E192E052
:1014400040E050E0BA0101E010E020E030E00E940E
:1014500019021EA61FA618AA19AA85E0898381E091
:1014600090E09B838A830C948F121B830A831886D7
:1014700019861A861B8699820C946D128EA59FA5DB
:10148000A8A9B9A90097A105B10509F069C089818A
:101490008A3041F18B3040F48830B1F08930D8F493
:1014A000873009F041C009C08C3051F18C3008F10F
:1014B0008E3069F18F30C1F531C088E1898381E0D8
:1014C00090E09B838A8330C088E1898381E090E04B
:1014D0009B838A8329C088E1898381E090E09B8394
:1014E0008A8322C088E1898381E090E09B838A839C
:1014F0001BC088E1898381E090E09B838A8314C0CC
:1015000088E1898381E090E09B838A830DC088E134
:10151000898381E090E09B838A8306C088E1898388
:1015200081E090E09B838A830E94490288E092E0F8
:101530000E94160286E192E040E050E0BA0101E02C
:1015400010E020E030E00E9419021EA61FA618AA93
:1015500019AA85E0898381E090E09B838A83DFC7B5
:1015600089A59AA5ABA5BCA583309105A105B105B8
:101570000CF068C0C884D984EA84FB84EAE0CE1603
:10158000D104E104F1040CF04BC01C141D041E0432
:101590001F040CF045C02D85222309F441C028E129
:1015A00029838824992483949B828A829C01AD019B
:1015B000220F331F441F551FC701B601EE24FF241D
:1015C0008701E394AA24BB246501A3940E94280206
:1015D00089A59AA5ABA5BCA50196A11DB11D89A79A
:1015E0009AA7ABA7BCA769A17AA18BA19CA12AE06D
:1015F00030E040E050E00E942615AB01BC01888538
:101600009985AA85BB85840F951FA61FB71F89A33F
:101610009AA3ABA3BCA388E089839B828A827FC7FD
:10162000FAE0CF16D104E104F10461F48D8588233A
:1016300049F01B830A83188619861A861B862AE0BE
:1016400029834BC788859985AA85BB858C309105F0
:10165000A105B10541F52D85222329F188E1898372
:10166000EE24FF24E394FB82EA820E94490282E294
:1016700092E00E94160282E392E040E050E0BA015C
:1016800001E010E020E030E00E94190219A61AA63D
:101690001BA61CA619A21AA21BA21CA287E0898362
:1016A000FB82EA823CC78B309105A105B10541F56B
:1016B0002D85222329F188E18983EE24FF24E394F8
:1016C000FB82EA820E94490288E392E00E941602AD
:1016D00087E492E040E050E0BA0101E010E020E051
:1016E00030E00E94190219A61AA61BA61CA61DA26C
:1016F0001EA21FA218A68BE08983FB82EA820FC775
:1017000080319105A105B10509F0E7C68D858823D3
:1017100009F4E3C61B830A831EA61FA618AA19AAEA
:101720008FE08983DAC68EA59FA5A8A9B9A90097DD
:10173000A105B10509F069C089818A3041F18B307A
:1017400040F48830B1F08930D8F4873009F041C0D6
:1017500009C08C3051F18C3008F18E3069F18F3036
:10176000C1F531C088E1898381E090E09B838A8361
:1017700030C088E1898381E090E09B838A8329C01F
:1017800088E1898381E090E09B838A8322C088E19D
:10179000898381E090E09B838A831BC088E18983F1
:1017A00081E090E09B838A8314C088E1898381E093
:1017B00090E09B838A830DC088E1898381E090E07B
:1017C0009B838A8306C088E1898381E090E09B83C4
:1017D0008A830E94490288E092E00E94160286E114
:1017E00092E040E050E0BA0101E010E020E030E09B
:1017F0000E9419021EA61FA618AA19AA85E08983AD
:1018000081E090E09B838A838AC688E1898388246B
:10181000992483949B828A82C884D984EA84FB8435
:1018200089A59AA5ABA5BCA59C01AD01220F331FCC
:10183000441F551FC701B601EE24FF248701E3941E
:10184000AA24BB246501A3940E94280289A59AA515
:10185000ABA5BCA50196A11DB11D89A79AA7ABA7F1
:10186000BCA769A17AA18BA19CA12AE030E040E04D
:1018700050E00E942615AB01BC0188859985AA8598
:10188000BB85840F951FA61FB71F89A39AA3ABA37F
:10189000BCA388E089839B828A8241C68EA59FA5CE
:1018A000A8A9B9A90097A105B10509F069C0898166
:1018B0008A3041F18B3040F48830B1F08930D8F46F
:1018C000873009F041C009C08C3051F18C3008F1EB
:1018D0008E3069F18F30C1F531C088E1898381E0B4
:1018E00090E09B838A8330C088E1898381E090E027
:1018F0009B838A8329C088E1898381E090E09B8370
:101900008A8322C088E1898381E090E09B838A8377
:101910001BC088E1898381E090E09B838A8314C0A7
:1019200088E1898381E090E09B838A830DC088E110
:10193000898381E090E09B838A8306C088E1898364
:1019400081E090E09B838A830E94490288E092E0D4
:101950000E94160286E192E040E050E0BA0101E008
:1019600010E020E030E00E9419021EA61FA618AA6F
:1019700019AA85E0898381E090E09B838A83CFC5A3
:101980001B830A83188619861A861B86A982A5C519
:101990008EA59FA5A8A9B9A90097A105B10509F031
:1019A00069C089818A3041F18B3040F48830B1F0D0
:1019B0008930D8F4873009F041C009C08C3051F12A
:1019C0008C3008F18E3069F18F30C1F531C088E17B
:1019D000898381E090E09B838A8330C088E189839A
:1019E00081E090E09B838A8329C088E1898381E03C
:1019F00090E09B838A8322C088E1898381E090E024
:101A00009B838A831BC088E1898381E090E09B836C
:101A10008A8314C088E1898381E090E09B838A8374
:101A20000DC088E1898381E090E09B838A8306C0B2
:101A300088E1898381E090E09B838A830E94490248
:101A400088E092E00E94160286E192E040E050E0D9
:101A5000BA0101E010E020E030E00E9419021EA669
:101A60001FA618AA19AA85E0898381E090E09B83CC
:101A70008A8355C589A59AA5ABA5BCA582309105D9
:101A8000A105B1050CF068C0C884D984EA84FB8440
:101A9000EAE0CE16D104E104F10461F42D8522239D
:101AA00049F01B830A83188619861A861B86FDE077
:101AB000F98313C52AE0C216D104E104F1040CF045
:101AC0004BC01C141D041E041F040CF045C02D85C2
:101AD000222309F441C028E129838824992483948E
:101AE0009B828A829C01AD01220F331F441F551F28
:101AF000C701B601EE24FF248701E394AA24BB2486
:101B00006501A3940E94280289A59AA5ABA5BCA54E
:101B10000196A11DB11D89A79AA7ABA7BCA76DA16E
:101B20007EA18FA198A52AE030E040E050E00E941D
:101B30002615AB01BC0188859985AA85BB85840FD4
:101B4000951FA61FB71F8DA39EA3AFA3B8A78EE0B6
:101B500089839B828A82E3C488859985AA85BB850F
:101B60008C309105A105B10541F52D85222329F180
:101B700088E18983EE24FF24E394FB82EA820E94B9
:101B8000490288E392E00E94160287E492E040E076
:101B900050E0BA0101E010E020E030E00E941902BC
:101BA00019A61AA61BA61CA61DA21EA21FA218A635
:101BB0008BE08983FB82EA82B2C48B309105A10558
:101BC000B10509F077C02D85222309F473C08981FE
:101BD0008A3041F18B3040F48830B1F08930D8F44C
:101BE000873009F041C009C08C3051F18C3008F1C8
:101BF0008E3069F18F30C1F531C088E1898381E091
:101C000090E09B838A8330C088E1898381E090E003
:101C10009B838A8329C088E1898381E090E09B834C
:101C20008A8322C088E1898381E090E09B838A8354
:101C30001BC088E1898381E090E09B838A8314C084
:101C400088E1898381E090E09B838A830DC088E1ED
:101C5000898381E090E09B838A8306C088E1898341
:101C600081E090E09B838A831F8A888D998DAA8D5D
:101C7000BB8D0196A11DB11D888F998FAA8FBB8F37
:101C80006EA57FA588A999A92AA93BA94CA95DA9F8
:101C9000E9A0FAA00BA11CA1ADA0BEA0CFA0D8A422
:101CA0000E940D038F8B83E1898381E090E09B8309
:101CB0008A8335C480319105A105B10509F00DC4B1
:101CC0008D85882309F409C41B830A831EA61FA6D9
:101CD00018AA19AA8FE0898300C48EA59FA5A8A978
:101CE000B9A90097A105B10509F069C089818A30B9
:101CF00041F18B3040F48830B1F08930D8F487302E
:101D000009F041C009C08C3051F18C3008F18E309F
:101D100069F18F30C1F531C088E1898381E090E0BD
:101D20009B838A8330C088E1898381E090E09B8334
:101D30008A8329C088E1898381E090E09B838A833C
:101D400022C088E1898381E090E09B838A831BC065
:101D500088E1898381E090E09B838A8314C088E1D5
:101D6000898381E090E09B838A830DC088E1898329
:101D700081E090E09B838A8306C088E1898381E0CB
:101D800090E09B838A830E94490288E092E00E944F
:101D9000160286E192E040E050E0BA0101E010E076
:101DA00020E030E00E9419021EA61FA618AA19AA58
:101DB00085E0898381E090E09B838A83B0C388E1DA
:101DC00089838824992483949B828A82C884D984B5
:101DD000EA84FB8489A59AA5ABA5BCA59C01AD01AD
:101DE000220F331F441F551FC701B601EE24FF24E5
:101DF0008701E394AA24BB246501A3940E942802CE
:101E000089A59AA5ABA5BCA50196A11DB11D89A761
:101E10009AA7ABA7BCA76DA17EA18FA198A52AE028
:101E200030E040E050E00E942615AB01BC018885FF
:101E30009985AA85BB85840F951FA61FB71F8DA303
:101E40009EA3AFA3B8A78EE089839B828A8267C3D3
:101E50008EA59FA5A8A9B9A90097A105B10509F06C
:101E600069C089818A3041F18B3040F48830B1F00B
:101E70008930D8F4873009F041C009C08C3051F165
:101E80008C3008F18E3069F18F30C1F531C088E1B6
:101E9000898381E090E09B838A8330C088E18983D5
:101EA00081E090E09B838A8329C088E1898381E077
:101EB00090E09B838A8322C088E1898381E090E05F
:101EC0009B838A831BC088E1898381E090E09B83A8
:101ED0008A8314C088E1898381E090E09B838A83B0
:101EE0000DC088E1898381E090E09B838A8306C0EE
:101EF00088E1898381E090E09B838A830E94490284
:101F000088E092E00E94160286E192E040E050E014
:101F1000BA0101E010E020E030E00E9419021EA6A4
:101F20001FA618AA19AA85E0898381E090E09B8307
:101F30008A83F5C21B830A83188619861A861B8634
:101F4000A982CBC28EA59FA5A8A9B9A90097A10572
:101F5000B10509F0C2C289818A3041F18B3040F469
:101F60008830B1F08930D8F4873009F041C009C019
:101F70008C3051F18C3008F18E3069F18F30C1F521
:101F800031C088E1898381E090E09B838A8330C0FF
:101F900088E1898381E090E09B838A8329C088E17E
:101FA000898381E090E09B838A8322C088E18983D2
:101FB00081E090E09B838A831BC088E1898381E074
:101FC00090E09B838A8314C088E1898381E090E05C
:101FD0009B838A830DC088E1898381E090E09B83A5
:101FE0008A8306C088E1898381E090E09B838A83AD
:101FF0000E94490288E092E00E94160286E192E087
:1020000040E050E0BA0101E010E020E030E00E9442
:1020100019021EA61FA618AA19AA85E0898381E0C5
:1020200090E09B838A837BC288E18983EE24FF242E
:10203000E394FB82EA820E94490282E292E00E94DB
:10204000160282E392E040E050E0BA0101E010E0C5
:1020500020E030E00E94190219A61AA61BA61CA6B1
:1020600019A21AA21BA21CA287E08983FB82EA8222
:1020700056C288859985AA85BB858D309105A105B5
:10208000B10509F02AC28D85882309F426C21B8375
:102090000A834EA65FA668AA79AAE0E1E9831DC279
:1020A0008F89882309F455C089818531D1F0863123
:1020B00028F4833141F0843161F50CC08631C1F0E0
:1020C000873139F520C088E1898381E090E09B83E6
:1020D0008A831FC088E1898381E090E09B838A83A3
:1020E00018C088E1898381E090E09B838A8311C0D6
:1020F00088E1898381E090E09B838A83CE01C99641
:102100000E945C0306C088E1898381E090E09B83A4
:102110008A830E94490282E292E00E94160282E3D0
:1021200092E040E050E0BA0101E010E020E030E051
:102130000E94190219A61AA61BA61CA619A21AA269
:102140001BA21CA287E0898381E090E09B838A83A5
:10215000E6C188E1898301E010E01B830A83CE0198
:10216000C99640ED57E060E070E020E00E9459031E
:102170000E9449028BE492E00E94160286E1898364
:102180001B830A83CCC18F89882309F455C08981B8
:102190008531D1F0863128F4833141F0843161F505
:1021A0000CC08631C1F0873139F520C088E18983C0
:1021B00081E090E09B838A831FC088E1898381E06E
:1021C00090E09B838A8318C088E1898381E090E056
:1021D0009B838A8311C088E1898381E090E09B839F
:1021E0008A83CE01C9960E945C0306C088E1898378
:1021F00081E090E09B838A830E94490282E292E020
:102200000E94160282E392E040E050E0BA0101E051
:1022100010E020E030E00E94190219A61AA61BA6C1
:102220001CA619A21AA21BA21CA287E0898381E026
:1022300090E09B838A8373C188E1898388249924F1
:1022400083949B828A82888D998DAA8DBB8D0196FD
:10225000A11DB11D888F998FAA8FBB8F6EA57FA5F9
:1022600088A999A92AA93BA94CA95DA9E9A0FAA026
:102270000BA11CA1ADA0BEA0CFA0D8A40E940D03AD
:102280008F8B83E189839B828A8249C18F898823CE
:1022900009F423C189818531D1F0863128F4833155
:1022A00041F0843161F50CC08631C1F0873139F5D8
:1022B00020C088E1898381E090E09B838A831FC0EE
:1022C00088E1898381E090E09B838A8318C088E15C
:1022D000898381E090E09B838A8311C088E18983B0
:1022E00081E090E09B838A83CE01C9960E945C03C3
:1022F00006C088E1898381E090E09B838A830E9405
:10230000490282E292E00E94160282E392E040E0FB
:1023100050E0BA0101E010E020E030E00E94190234
:1023200019A61AA61BA61CA619A21AA21BA21CA2B9
:1023300087E0898381E090E09B838A83F0C08F8966
:10234000882309F455C089818531D1F0863128F47C
:10235000833141F0843161F50CC08631C1F08731A1
:1023600039F520C088E1898381E090E09B838A83EE
:102370001FC088E1898381E090E09B838A8318C035
:1023800088E1898381E090E09B838A8311C088E1A2
:10239000898381E090E09B838A83CE01C9960E9465
:1023A0005C0306C088E1898381E090E09B838A8397
:1023B0000E94490282E292E00E94160282E392E0C9
:1023C00040E050E0BA0101E010E020E030E00E947F
:1023D000190219A61AA61BA61CA619A21AA21BA2AC
:1023E0001CA287E0898381E090E09B838A8397C069
:1023F00089AD882309F471C088E1898301E010E088
:102400001B830A83CE01C9960E945C0381E08F8BF7
:10241000188E198E1A8E1B8E87E189831B830A837F
:102420007EC08F89882309F455C089818531D1F018
:10243000863128F4833141F0843161F50CC0863156
:10244000C1F0873139F520C088E1898381E090E0CF
:102450009B838A831FC088E1898381E090E09B830E
:102460008A8318C088E1898381E090E09B838A8316
:1024700011C088E1898381E090E09B838A83CE014B
:10248000C9960E945C0306C088E1898381E090E0E0
:102490009B838A830E94490282E292E00E94160294
:1024A00082E392E040E050E0BA0101E010E020E079
:1024B00030E00E94190219A61AA61BA61CA619A292
:1024C0001AA21BA21CA287E0898381E090E09B8373
:1024D0008A8325C01B830A8329828A819B81019676
:1024E0009B838A838230910510F40C949B081D868F
:1024F0001A8A18A21EAA1FAADF91CF911F910F91CD
:10250000FF90EF90DF90CF90BF90AF909F908F9013
:102510007F906F905F904F903F902F9008958A81A9
:102520009B8101969B838A83E2CF8A819B8101965E
:102530009B838A830C949B08C896681779073CF0A4
:1025400002966817790718F481E0FB0180830895EB
:10255000DC01E62FF0E0E831F10508F0D1C0E35AE4
:10256000FF4FEE0FFF1F0590F491E02D099481E0DD
:102570009C91983108F4C5C080E0089581E09C9159
:10258000913009F4BEC080E008959C91925081E0A2
:10259000963108F4B6C080E0089581E09C919330B4
:1025A00009F4AFC080E0089581E09C91943009F473
:1025B000A8C080E0089581E011969C911197953014
:1025C00009F49FC080E0089511969C911197965050
:1025D00081E09A3008F495C080E0089581E011967A
:1025E0009C911197973009F48CC080E0089581E0A8
:1025F00011969C911197983009F483C080E008955A
:1026000081E011969C911197993009F47AC080E08D
:10261000089581E011969C9111979A3009F471C048
:1026200080E0089581E011969C9111979B3009F408
:1026300068C080E0089581E011969C9111979C30CC
:1026400009F45FC080E0089581E011969C91119794
:102650009D3009F456C080E0089581E011969C9168
:1026600011979E3009F44DC080E0089581E01196E5
:102670009C9111979F3009F444C080E0089581E057
:1026800011969C9111979031E1F180E0089581E0DD
:1026900011969C9111979131A1F180E008951196C6
:1026A0009C911197925181E0963058F180E0089505
:1026B00081E011969C911197933119F180E0089572
:1026C00081E011969C9111979431D9F080E00895A2
:1026D00081E011969C911197953199F080E00895D1
:1026E00081E011969C911197963159F080E0089500
:1026F00081E011969C911197973119F080E008952F
:1027000080E0089521E0FC0125870895FC016481A3
:102710007581868197810895FC0144835583668382
:1027200077830895FC01608571858285938508957E
:10273000FC0140875187628773870895FC01848577
:102740000895FC016487089521E0FC01228B08951F
:10275000FC01868597850895FC0177876687089533
:10276000FC01808991890895FC01718B608B08952B
:1027700021E0FC0120A30895FC0183899489089538
:10278000FC01748B638B0895FC01858996890895FB
:10279000FC01768B658B0895FC0187890895FC0107
:1027A000678B0895FC01608D718D828D938D0895E6
:1027B000FC01408F518F628F738F0895FC01648DEF
:1027C000758D868D978D0895FC01448F558F668F8A
:1027D000778F0895FC0161A172A183A194A108954E
:1027E000FC0141A352A363A374A30895FC0165A156
:1027F00076A187A190A50895FC0145A356A367A3E0
:1028000070A70895FC0161A572A583A594A50895FC
:10281000FC0141A752A763A774A7089521E0FC011A
:1028200026AB089521E0FC0127AB0895FC0185A5A6
:102830000895FC0165A70895FC0166A577A580A908
:1028400091A90895FC0146A757A760AB71AB089505
:10285000FC0162A973A984A995A90895FC0142AB62
:1028600053AB64AB75AB089587B3807F87BB87B3E9
:10287000876087BB81E58DB981E08EB908958FB9F6
:10288000779BFECF8FB1089583E083BF83E882BF3B
:1028900081E087BF10925D0210925C0278940895E7
:1028A000CF92DF92EF92FF92CF93DF93EC016A0118
:1028B0007B0140915C0250915D0214161506E4F410
:1028C000E2E7F2E0DF01169620E030E070E061E040
:1028D000808191818C179D0731F413821282D582F9
:1028E000C4826C93762F2F5F3F4F3796179624172D
:1028F000350774F37723C9F4FA01EE0FFF1FEE0FCB
:10290000FF1FEE0FFF1FE41BF50BEE58FD4FD183A9
:10291000C08313821282D582C48281E086834F5F96
:102920005F4F50935D0240935C02DF91CF91FF9027
:10293000EF90DF90CF900895DC0160915C02709180
:102940005D02161617066CF5809172029091730263
:102950008A179B07E9F40AC0295F3F4FF9013797AF
:10296000808191818A179B07B9F402C040E050E052
:10297000FA01EE0FFF1FEE0FFF1FEE0FFF1FE41B0C
:10298000F50BEE58FD4F1382128216821C920895A9
:1029900029E732E040E050E04F5F5F4F46175707AE
:1029A000D9F60895CF92DF92EF92FF920F931F9383
:1029B000CF93DF936C0180915C0290915D021816B9
:1029C000190694F5C8E7D2E08E0106501040EE24B7
:1029D000FF2488818823D9F0D80112968D919C918B
:1029E0001397019613969C938E93129714962D919C
:1029F0003C9115978217930751F413961C921E92DF
:102A0000129718826D917C91C6010E949C120894C5
:102A1000E11CF11C2796095F1F4F80915C02909189
:102A20005D02E816F906ACF2DF91CF911F910F918C
:102A3000FF90EF90DF90CF90089582E792E00E94A0
:102A40000E1610925D0210925C020895629FD001F2
:102A5000739FF001829FE00DF11D649FE00DF11D59
:102A6000929FF00D839FF00D749FF00D659FF00D08
:102A70009927729FB00DE11DF91F639FB00DE11DF5
:102A8000F91FBD01CF0111240895991B79E004C0FD
:102A9000991F961708F0961B881F7A95C9F780959D
:102AA000089597FB092E07260AD077FD04D00CD095
:102AB00006D000201AF4709561957F4F0895F6F7BF
:102AC000909581959F4F0895AA1BBB1B51E107C0AC
:102AD000AA1FBB1FA617B70710F0A61BB70B881FAE
:102AE000991F5A95A9F780959095BC01CD0108953D
:102AF000CF93DF93AC018230910510F442E050E0B7
:102B0000E091BA02F091BB0220E030E0A0E0B0E03A
:102B100024C08081918184179507D0F08417950790
:102B200071F482819381109729F013969C938E9370
:102B300012972CC09093BB028093BA0227C0211534
:102B4000310519F08217930718F49C01BD01EF01BC
:102B500092818381DF01E92FF82F3097D1F621157B
:102B60003105F9F0C901841B950B8430910580F47F
:102B70008A819B816115710521F0FB01938382831A
:102B800004C09093BB028093BA02FE01329642C009
:102B9000FE01E80FF91F41935193029799838883AF
:102BA00039C08091B8029091B902009741F48091A8
:102BB0005702909158029093B9028093B8022091E5
:102BC0005502309156022115310541F42DB73EB71B
:102BD0008091590290915A02281B390BE091B8025A
:102BE000F091B902E217F30798F42E1B3F0B24175C
:102BF000350770F0CA0102962817390748F08E0F82
:102C00009F1F9093B9028093B8024193519302C0E1
:102C1000E0E0F0E0CF01DF91CF9108950F931F9393
:102C2000CF93DF939C01009709F48CC0DC011297CD
:102C300013961C921E9212976091BA027091BB0279
:102C40006115710589F48D919C911197820F931FE5
:102C50002091B8023091B9022817390769F5B0936D
:102C6000B902A093B8026EC0FB0140E050E001C081
:102C7000FC01EA17FB0730F482819381AF010097D2
:102C8000B9F71FC0E9012297FB83EA830881198104
:102C9000C901800F911F8E179F0759F48081918180
:102CA000800F911F029699838883828193819B83F1
:102CB0008A834115510529F4B093BB02A093BA024F
:102CC00041C0FA01B383A283C191D191EC0FFD1FE2
:102CD000AE17BF0781F4F901929182918C0F9D1F6D
:102CE0000296DA0111969C938E93828193811396BA
:102CF0009C938E931297E0E0F0E002C0FB01BC01D0
:102D0000DB0112968D919C9113970097B9F7CB0137
:102D100002962D913C911197820F931F2091B8023A
:102D20003091B9022817390769F4309729F41092C5
:102D3000BB021092BA0202C0138212827093B902CF
:102D40006093B802DF91CF911F910F9108950F9377
:102D50001F93CF93DF93CDB7DEB72E970FB6F894BE
:102D6000DEBF0FBECDBF0D891E8986E08C831A831E
:102D700009838FEF9FE79E838D83AE01475E5F4F90
:102D8000CE0101966F89788D0E94D616EF81F88565
:102D9000E00FF11F10822E960FB6F894DEBF0FBE23
:102DA000CDBFDF91CF911F910F9108952F923F9248
:102DB0004F925F926F927F928F929F92AF92BF924B
:102DC000CF92DF92EF92FF920F931F93CF93DF93F7
:102DD000CDB7DEB72D970FB6F894DEBF0FBECDBFCF
:102DE0003C017D876C875A01FC0117821682838122
:102DF00081FFC8C12E010894411C511CF30193812D
:102E0000EC85FD8593FD859193FF8191FD87EC878E
:102E1000882309F4B3C1853241F493FD859193FF72
:102E20008191FD87EC87853229F490E0B3010E94FF
:102E3000F318E4CFFF24EE2410E01032B0F48B320C
:102E400069F08C3228F4803251F0833271F40BC077
:102E50008D3239F0803349F411602CC01260146057
:102E600029C0186027C0106125C017FD2EC0282F6B
:102E700020532A3098F416FF08C08F2D880FF82EA3
:102E8000FF0CFF0CF80EF20E15C08E2D880FE82EE9
:102E9000EE0CEE0CE80EE20E10620CC08E3221F445
:102EA00016FD6CC1106406C08C3611F4106802C0A7
:102EB000883659F4EC85FD8593FD859193FF8191CA
:102EC000FD87EC87882309F0B8CF982F955493306D
:102ED00018F09052933038F424E030E0A20EB31E84
:102EE0003FE339830FC0833631F0833781F0833578
:102EF00009F05AC022C0F5018081898322E030E0C8
:102F0000A20EB31E21E0C22ED12C420114C092E0C9
:102F1000292E312C2A0C3B1CF5018080918016FF54
:102F200003C06F2D70E002C06FEF7FEFC4010E94FD
:102F3000E8186C0151011F7715C082E0282E312C52
:102F40002A0C3B1CF5018080918016FF03C06F2D79
:102F500070E002C06FEF7FEFC4010E94DD186C01CA
:102F60001068510113FD1CC006C080E290E0B3015F
:102F70000E94F318EA948E2D90E0C816D906A8F3A3
:102F80000FC0F40117FD859117FF81914F0190E06B
:102F9000B3010E94F318E110EA940894C108D10823
:102FA000C114D10471F7E7C0843611F0893651F5A8
:102FB000F50117FF07C080819181A281B38124E0D0
:102FC00030E008C080819181AA2797FDA095BA2F93
:102FD00022E030E0A20EB31E012F0F76B7FF08C02B
:102FE000B095A095909581959F4FAF4FBF4F0068CA
:102FF000BC01CD01A2012AE030E00E941F19D82EA9
:10300000D4183FC0853721F41F7E2AE030E020C06D
:10301000197F8F36A9F0803720F4883509F0AEC0CB
:103020000BC0803721F0883709F0A8C001C01061BB
:1030300014FF09C0146007C014FF08C0166006C062
:1030400028E030E005C020E130E002C020E132E0BD
:10305000F50117FF07C0608171818281938144E08F
:1030600050E006C06081718180E090E042E050E075
:10307000A40EB51EA2010E941F19D82ED418012F2C
:103080000F7706FF09C00E7FDF1430F404FF06C07F
:1030900002FD04C00F7E02C01D2D01C01F2D802F18
:1030A00090E004FF0CC0FE01ED0DF11D20812033E6
:1030B00011F4097E09C002FF06C01E5F05C08678B4
:1030C0009070009709F01F5F802E992403FD12C0B5
:1030D00000FF0DC0FD2C1E1550F4FE0CF11A1E2D24
:1030E00006C080E290E0B3010E94F3181F5F1E1536
:1030F000C0F304C01E1510F4E11A01C0EE2484FED2
:103100000FC080E390E0B3010E94F31882FE1FC05D
:1031100081FE03C088E590E010C088E790E00DC014
:10312000C40186789070009791F081FC02C080E223
:1031300001C08BE207FD8DE290E0B3010E94F3181D
:1031400006C080E390E0B3010E94F318FA94DF1404
:10315000C0F3DA94F201ED0DF11D808190E0B3012E
:103160000E94F318DD20A9F706C080E290E0B301C9
:103170000E94F318EA94EE20C1F740CEF301868155
:10318000978102C08FEF9FEF2D960FB6F894DEBFA8
:103190000FBECDBFDF91CF911F910F91FF90EF90A8
:1031A000DF90CF90BF90AF909F908F907F906F9067
:1031B0005F904F903F902F900895FC0105906150D3
:1031C00070400110D8F7809590958E0F9F1F08953D
:1031D000FC016150704001900110D8F780959095E6
:1031E0008E0F9F1F08950F931F93CF93DF938C0132
:1031F000EB018B8181FF1BC082FF0DC02E813F81BF
:103200008C819D812817390764F4E881F981019345
:10321000F983E88306C0E885F985802F0995009732
:1032200031F48E819F8101969F838E8302C00FEFC0
:103230001FEFC801DF91CF911F910F910895FA01FF
:10324000AA27283051F1203181F1E8946F936E7FE5
:103250006E5F7F4F8F4F9F4FAF4FB1E03ED0B4E0D6
:103260003CD0670F781F891F9A1FA11D680F791F17
:103270008A1F911DA11D6A0F711D811D911DA11D28
:1032800020D009F468943F912AE0269F1124301938
:10329000305D3193DEF6CF010895462F4770405DD3
:1032A0004193B3E00FD0C9F7F6CF462F4F70405D82
:1032B0004A3318F0495D31FD4052419302D0A9F7DD
:1032C000EACFB4E0A6959795879577956795BA95D7
:1032D000C9F700976105710508959B01AC010A2E9D
:1032E00006945795479537952795BA95C9F7620F74
:0E32F000731F841F951FA01D0895F894FFCF33
:1032FE00100F0E0D0C0906030A0805020B07040138
:10330E000E0D0B070C12120C000000000C1204081C
:10331E001E0000000A15110A040000000305090B27
:10332E000B1818001F0E0E040404040401010505F9
:10333E00151515000E11111F1F1F1F000000000094
:10334E000000000000E8E8F0F0E2C1C2C2C2C669A7
:10335E006E666F0D0A005354415455533A20253072
:10336E0032580D0A00434F4E4649473A2025303217
:10337E00580D0A0052465F43483A20253032580D08
:10338E000A0052465F53455455503A202530325864
:10339E000D0A00454E5F41413A20253032580D0A44
:1033AE0000454E5F5258414444523A20253032581F
:1033BE000D0A004F4253455256455F54583A202548
:1033CE003032580D0A000D0A00E8E8F0F0E2C1C2F2
:1033DE00C2C2C2C1C2C2C2C3C1C2C2C2C4C1C2C2BF
:1033EE00C2C5C1C2C2C2C6E8E8F0F0E25761697454
:1033FE0074696E672E2E2E00412D43414C4C2020B9
:10340E00422D44454C00432D5041592020442D5708
:10341E0054004E686170206D61206D6F6E20616E7C
:10342E003A005F205F205F004E68617020736F204E
:10343E006C756F6E673A005F205F0053656E642097
:0C344E006661696C000000BC02200000F8
:00000001FF
