:100000000C9446000C9465000C9465000C946500FB
:100010000C9465000C9465000C9465000C946500CC
:100020000C9465000C9465000C9465000C946500BC
:100030000C9465000C9465000C9465000C946500AC
:100040000C94A8030C9465000C9465000C94650056
:100050000C9465000C9465000C9465000C9465008C
:100060000C9465000C9465000C9465000C9465007C
:100070000C9465000C9465000C94D6030C946500F8
:100080000C9465000C9465000C94650011241FBE4F
:10009000CFEFD0E1DEBFCDBF12E0A0E0B1E0E0E005
:1000A000F1E200E00BBF02C007900D92AE31B10744
:1000B000D9F712E0AEE1B2E001C01D92AB3AB10750
:1000C000E1F70E9465030C947E100C940000AF923F
:1000D000BF92CF92DF92EF92FF920F931F93CF9335
:1000E000DF9320E030E041E050E0E2E6F0E0A0E124
:1000F000B1E00F2EF1E1AF2EF1E0BF2EF02D02E1C5
:1001000011E00F2EF3E1EF2EF1E0FF2EF02DB901FB
:10011000C90104966A0102C0CC0CDD1C8A95E2F785
:10012000C6018095808383E08A95F1F7000080B155
:100130008F708F3029F19C919817A9F0E501988173
:10014000981759F0E8019881981751F0E7019881C4
:100150009817B1F4E3E0F0E008C0E1E0F0E005C09A
:10016000E2E0F0E002C0E0E0F0E0EE0FFF1FEE0F93
:10017000FF1F6E0F7F1FFB01E050FF4F808106C005
:100180002F5F3F4F2430310511F680E0DF91CF9192
:100190001F910F91FF90EF90DF90CF90BF90AF90A5
:1001A000089580EF809361008FE08093620008954E
:1001B0008FEC97E00197F1F700C000000895282F19
:1001C00022952F708F70662311F4D89801C0D89AA9
:1001D000D99A9BB3220F220F937C922B9BBBD99869
:1001E000D99A9BB3880F880F937C892B8BBBD998A6
:1001F0000E94D80008950F931F93CF93DF938C0133
:10020000FC018081882309F18532A9F4E801219657
:10021000F80181818053883020F461E00E94DF0082
:100220000EC085E261E00E94DF00F801818161E09B
:100230000E94DF0004C061E00E94DF00E8018E013F
:100240000F5F1F4F89818823F9F6DF91CF911F91AE
:100250000F910895EF92FF920F931F93CF93DF9327
:1002600000D000D00F92CDB7DEB77B01FE013196F2
:1002700025E0DF011D922A95E9F7009761F0FE0164
:1002800036962AE030E0B9010E94520C8293862F04
:10029000972F0097C1F7BFEFEB16BFEFFB0669F48E
:1002A0002981222379F4FE01329600E010E00F5FED
:1002B0001F4F21912223D9F307C005E010E00E194A
:1002C0001F0902C000E010E0992324F48DE261E0F0
:1002D0000E94DF0005301105BCF4E1E0F0E0EC0F16
:1002E000FD1F0E0F1F1F0F2EF6E0EF2EFF24F02D27
:1002F000EC0EFD1ED8018D918D01805D61E00E94A4
:10030000DF000E151F05B1F70F900F900F900F90A3
:100310000F90DF91CF911F910F91FF90EF90089573
:10032000843178F4623031F0633031F0613029F497
:10033000806403C08C5E01C08C5A806860E00E94BB
:10034000DF0008950F931F93CF93DF93C82F8BE4A3
:100350009DE10197F1F700C000008AB38C638ABB6E
:10036000D19AD09A8BB3837C8BBBD998D898D99AE1
:10037000DB9AD9980E94D8008C2F8C6060E00E9494
:10038000DF0088E260E00E94DF0080E460E00E941D
:10039000DF00C4E1D1E004E511E0899161E00E9451
:1003A000DF00C017D107C9F780E060E00E9490012C
:1003B000DF91CF911F910F9108950E946700682FE0
:1003C00070E080E090E008950E94D10008950E94BE
:1003D000FB0008950F93CF93DF93EC01842F602FE0
:1003E0000E949001CE010E94FB00DF91CF910F91FE
:1003F00008954F925F926F927F92AF92BF92CF9289
:10040000DF92EF92FF922B013C01822F6E2D76013D
:1004100065010E949001C201B6010E942A01FF906D
:10042000EF90DF90CF90BF90AF907F906F905F90F4
:100430004F90089581E060E00E94DF0082E060E07C
:100440000E94DF00089580E00E94A20108950F93AA
:100450001F93CF93DF930F92CDB7DEB71982CE01F2
:1004600001960E9476068823E9F080E061E00E9410
:100470009001898190E061E070E00E942A01898109
:10048000882399F4E2E2F2E0CF0109961192E8178D
:10049000F907E1F702E212E080E0B8010E94880665
:1004A000C80105C084E591E002C084E591E00F90A9
:1004B000DF91CF911F910F910895CF93DF939C010E
:1004C000C6E3D2E080E090E0A22FB32FFD010190BF
:1004D0000020E9F73197EA1BFB0B8E179F0730F4DA
:1004E000F901E80FF91F4081488301C01882019685
:1004F00021968930910541F785E591E00E94E60457
:1005000086E392E00E94AE06982FEFECF7E0319779
:10051000F1F700C0000081E0913009F080E0DF9148
:10052000CF910895E6E3F2E0CF01099621E021930F
:10053000E817F907E1F78AE591E00E94E60486E30F
:1005400092E00E94AE06982FEFECF7E03197F1F7BA
:1005500000C0000081E0913009F080E008950F9321
:100560001F93CF93DF930F92CDB7DEB71982CE01E1
:1005700001960E9476068823F1F089818530E9F49E
:10058000E2E2F2E08F01075F1F4F1192E017F107DF
:10059000E1F785E062E272E00E9488068091220223
:1005A000813069F4E3E2F2E08191813051F4E017A7
:1005B000F107D1F707C080E005C080E003C080E00C
:1005C00001C080E00F90DF91CF911F910F910895AE
:1005D000AF92EF92822FE6E3F2E0AF01475F5F4F09
:1005E0001192E417F507E1F7605D609336023AE097
:1005F000632F0E94460C905D909338020E94460C37
:10060000905D909337028E2D0E94460C905D9093E2
:100610003B020E94460C905D90933A020E94460C69
:10062000905D909339028A2D0E94460C905D9093C4
:100630003D020E94460C905D90933C0285E591E05E
:100640000E94E60486E392E00E94AE06982FEFEC4B
:10065000F7E03197F1F700C0000081E0913009F038
:1006600080E0EF90AF90089583E390E00E94000C4B
:100670000895FC0111820E94140C08950E942B0B16
:1006800008950E94770B08950E9404070895DA01E7
:10069000C9010197A109B109835D9D4F605DFC010E
:1006A00060830895CF93DF931092350280E061E07C
:1006B0000E949001CDE2D2E0CE010E94FB00CE016B
:1006C0000E94140CDF91CF9108958FE084BB85BB0D
:1006D00082E090E00E94790C80932B0290932C0290
:1006E0000E941F0B80912B0290912C020E94C30745
:1006F00080912B0290912C020E94CA0781E6809380
:10070000360282E68093370283E68093380284E6DD
:100710008093390285E680933A0286E680933B0215
:1007200087E680933C0288E680933D0289E68093C9
:100730003E02E2E2F2E0CF0109961192E817F907D2
:10074000E1F780912B0290912C020E943A08F9CF98
:100750001F920F920FB60F920BB60F9211242F9388
:100760003F934F935F936F937F938F939F93AF9339
:10077000BF93EF93FF9383E882BF80912B02909108
:100780002C020E94AC0BFF91EF91BF91AF919F9112
:100790008F917F916F915F914F913F912F910F902A
:1007A0000BBE0F900FBE0F901F9018951F920F92C7
:1007B0000FB60F920BB60F9211242F933F934F93C6
:1007C0005F936F937F938F939F93AF93BF93EF93B9
:1007D000FF9360919C0080912B0290912C020E94CB
:1007E000260CFF91EF91BF91AF919F918F917F91D7
:1007F0006F915F914F913F912F910F900BBE0F9092
:100800000FBE0F901F901895AE988F710E941A0B13
:100810008FEF0E941A0BAE9A0895FF920F931F93C9
:10082000CF93DF93062FF72E142FAE988F710E946F
:100830001A0B112351F0C02FDF2D00E08FEF0E9423
:100840001A0B89930F5F0117C9F7AE9ADF91CF9109
:100850001F910F91FF900895CF93C62FAE988F717F
:1008600080620E941A0B8C2F0E941A0BAE9ACF91B5
:100870000895FF920F931F93CF93DF93062FF72EC8
:10088000142FAE988F7180620E941A0B112349F0C9
:10089000C02FDF2D00E089910E941A0B0F5F011716
:1008A000D1F7AE9ADF91CF911F910F91FF900895EC
:1008B00020E030E00496DB01A20FB31FFC01E21B35
:1008C000F30B40814C932F5F3F4F2530310599F753
:1008D0000895CF93DF9300D000D00F92CDB7DEB74D
:1008E0008823B1F4A9EDB1E0FB0185E001900D9200
:1008F0008150E1F7CB01BE016F5F7F4F0E9458042A
:100900008AE0BE016F5F7F4F45E00E94390456C008
:100910008130B1F4AEEDB1E0FB0185E001900D92C4
:100920008150E1F7CB01BE016F5F7F4F0E945804F9
:100930008BE0BE016F5F7F4F45E00E9439043EC0EF
:10094000823071F4A3EEB1E0FB0185E001900D92DD
:100950008150E1F78CE0FB0164810E942C042EC0E1
:10096000833071F4A8EEB1E0FB0185E001900D92B7
:100970008150E1F78DE0FB0164810E942C041EC0D0
:10098000843071F4ADEEB1E0FB0185E001900D9291
:100990008150E1F78EE0FB0164810E942C040EC0BF
:1009A000853061F4A2EFB1E0FB0101900D9281501E
:1009B000E1F78FE0FB0164810E942C040F900F90FF
:1009C0000F900F900F90DF91CF910895CF93DF9309
:1009D00000D000D00F92CDB7DEB7A7EFB1E0E82F7F
:1009E000F92F25E001900D922150E1F7BE016F5FD4
:1009F0007F4F0E9458048AE0BE016F5F7F4F45E041
:100A00000E94390480E1BE016F5F7F4F45E00E9484
:100A100039040F900F900F900F900F90DF91CF91AE
:100A20000895AE9882EE0E941A0BAE9A0895AE9881
:100A300081EE0E941A0BAE9A089580E069ED71E094
:100A40000E94690480E00E940404682F616080E0D5
:100A50000E942C0480E00E940404682F626080E001
:100A60000E942C0487E060E70E942C040E9411057C
:100A70000E941705AF9A82E38A95F1F70895AF981F
:100A800080E00E940404682F6E7F80E00E942C04A6
:100A900080E00E940404682F626080E00E942C04C1
:100AA00087E060E70E942C040E94170582E38A9584
:100AB000F1F70895AE988FEF0E941A0BAE9A089541
:100AC000EF92FF920F931F93CF93DF93CDB7DEB7D3
:100AD000C456D0400FB6F894DEBF0FBECDBF7C0128
:100AE0008FE591E0F70109950E945A0500D000D0EA
:100AF00000D0EDB7FEB731968E010F5F1F4FADB737
:100B0000BEB712961C930E93119726E631E03383FD
:100B10002283848315820E94A80D8DB79EB7069606
:100B20000FB6F8949EBF0FBE8DBFC801F70109959F
:100B300080E00E94040400D000D000D0EDB7FEB7E2
:100B40003196ADB7BEB712961C930E93119725E759
:100B500031E033832283848315820E94A80D8DB7F0
:100B60009EB706960FB6F8949EBF0FBE8DBFC80104
:100B7000F701099585E00E94040400D000D000D060
:100B8000EDB7FEB73196ADB7BEB712961C930E9374
:100B9000119724E831E033832283848315820E94F5
:100BA000A80D8DB79EB706960FB6F8949EBF0FBEE0
:100BB0008DBFC801F701099586E00E94040400D0AA
:100BC00000D000D0EDB7FEB73196ADB7BEB71296E4
:100BD0001C930E93119722E931E03383228384839F
:100BE00015820E94A80D8DB79EB706960FB6F89491
:100BF0009EBF0FBE8DBFC801F701099581E00E941D
:100C0000040400D000D000D0EDB7FEB73196ADB7E8
:100C1000BEB712961C930E93119723EA31E03383EB
:100C20002283848315820E94A80D8DB79EB70696F5
:100C30000FB6F8949EBF0FBE8DBFC801F70109958E
:100C400082E00E94040400D000D000D0EDB7FEB7CF
:100C50003196ADB7BEB712961C930E93119721EB48
:100C600031E033832283848315820E94A80D8DB7DF
:100C70009EB706960FB6F8949EBF0FBE8DBFC801F3
:100C8000F701099588E00E94040400D000D000D04C
:100C9000EDB7FEB73196ADB7BEB712961C930E9363
:100CA000119723EC31E033832283848315820E94E1
:100CB000A80D8DB79EB706960FB6F8949EBF0FBECF
:100CC0008DBFC801F701099586ED91E0F7010995FF
:100CD000CC59DF4F0FB6F894DEBF0FBECDBFDF910A
:100CE000CF911F910F91FF90EF900895CF93DF93D5
:100CF000EC010E945A05982F907486FF05C020973A
:100D000019F0869587708883892FDF91CF91089598
:100D10000F931F93CF93DF93062F172FAE9881E683
:100D20000E941A0BC02FD12F10E08FEF0E941A0BD8
:100D300089931F5F1930C9F7AE9A87E060E40E947B
:100D40002C040E945A0585FF04C087E060E20E94DF
:100D50002C04DF91CF911F910F9108950F931F9352
:100D6000CF93DF93082F192F0E943F05AE9880EA9A
:100D70000E941A0BC02FD12F19E089910E941A0BE3
:100D80001150D9F7AE9AAF9A85E08A95F1F7AF98EE
:100D900083E08A95F1F700000E945A058073C1F341
:100DA0000E945A05C82F85E06CE40E942C0480E064
:100DB0000E940404682F6D7F80E00E942C040E9432
:100DC0001D0581E0C5FF80E0DF91CF911F910F915C
:100DD000089586E00E940404682F666086E00E9401
:100DE0002C04089586E00E940404682F677D86E045
:100DF0000E942C04089580E00E940404682F6C6017
:100E000080E00E942C040895A69AA79A0E940F0BD6
:100E1000AF98AE9A81EE94E00197F1F700C0000020
:100E20000E94E9060E94F2060E94FB0684E067E445
:100E30000E942C048CE160E00E942C0485E06CE4AC
:100E40000E942C0481E169E00E942C0482E169E0A7
:100E50000E942C0483E169E00E942C0484E169E093
:100E60000E942C0485E169E00E942C0486E169E07F
:100E70000E942C0482E060E00E942C0482E00E9428
:100E80000404682F616082E00E942C0482E00E94CA
:100E90000404682F626082E00E942C0482E00E94B9
:100EA0000404682F646082E00E942C0482E00E94A7
:100EB0000404682F686082E00E942C0482E00E9493
:100EC0000404682F606182E00E942C0482E00E948A
:100ED0000404682F606282E00E942C0481E00E947A
:100EE0000404682F616081E00E942C0481E00E946C
:100EF0000404682F626081E00E942C0481E00E945B
:100F00000404682F646081E00E942C0481E00E9448
:100F10000404682F686081E00E942C0481E00E9434
:100F20000404682F606181E00E942C0481E00E942B
:100F30000404682F606281E00E942C0480E069ED67
:100F400071E00E94690481E06EED71E00E94690425
:100F500082E063EE71E00E94690483E068EE71E074
:100F60000E94690484E06DEE71E00E94690485E0EE
:100F700062EF71E00E94690487EF91E00E94E6044D
:100F80000E941D050895FC0189E0808381831382FE
:100F9000128208951F93CF93DF93EC0111E01DA7F8
:100FA000C89648EB5BE060E070E020E00E943E0302
:100FB00081E090E0A0E0B0E08AAB9BABACABBDAB16
:100FC0000E9423020E94E4010E9434030E941A023C
:100FD0008CEF91E00E94E70118831B821A82DF9157
:100FE000CF911F910895CF93DF93EC0188818330D7
:100FF00069F0843081F0813091F489E088831B822C
:101000001A82CE01C8960E94410309C089E08883F4
:101010001B821A8204C089E088831B821A8289811C
:10102000863089F0873018F4853009F505C087309F
:1010300089F08830E1F415C089E0898381E090E08F
:101040009B838A8314C089E0898381E090E09B833D
:101050008A830DC089E0898381E090E09B838A8345
:1010600006C089E0898381E090E09B838A83DF91D9
:10107000CF9108957F928F929F92AF92BF92CF921D
:10108000DF92EF92FF920F931F93CF93DF93EC01C8
:101090001B821A8280E090E0AA24BB24A39408E07B
:1010A0000F2EF3E09F2EF02D0F2EF9E07F2EF02D66
:1010B00011E08824689482F88C0F9D1FFC018081C8
:1010C000853009F48EC0863048F48330D9F18430FD
:1010D00008F061C0813009F06BC10AC0873009F4A3
:1010E00090C0873008F485C0883009F061C19EC087
:1010F00088AD882309F45CC189E088831B821A8249
:10110000CE01C8960E9441030E94DD01DC01CB01A3
:101110008C839D83AE83BF831C8683E088831B8280
:101120001A820E941A0288E092E00E94E70119A642
:101130001AA61BA61CA685E0898381E090E09B830C
:101140008A8352C18C819D81AE81BF810097A105A8
:10115000B105A1F078821B821A8288879987AA87B5
:10116000BB870E94DD01DC01CB018C839D83AE83B4
:10117000BF831C8788821B821A823CC10E94DD01CA
:10118000DC01CB018C839D83AE83BF831C86988258
:101190001B821A822FC18C819D81AE81BF810097F5
:1011A000A105B10589F478821B821A821D870E94ED
:1011B000DD01DC01CB018C839D83AE83BF831C8664
:1011C00098821B821A8216C10E94DD01DC01CB01CC
:1011D0008C839D83AE83BF831C8788821B821A8287
:1011E00009C1BB82AA82188619861A861B860983C2
:1011F000DFC0BB82AA82188619861A861B860983DD
:10120000D7C089E0898301E010E01B830A830E9434
:101210001A0288E092E00E94E70119A61AA61BA60E
:101220001CA685E089831B830A83DEC089A59AA555
:10123000ABA5BCA588309105A105B1050CF082C015
:10124000C884D984EA84FB84FAE0CF16D104E1048F
:10125000F104C9F52D852223B1F129E029838824E1
:10126000992483949B828A82188619861A861B8603
:101270009C01AD01220F331F441F551F60E070E039
:10128000CB01EE24FF248701AA24BB246501A3948B
:101290000E94F90189A59AA5ABA5BCA59C01AD0149
:1012A0002F5F3F4F4F4F5F4F29A73AA74BA75CA730
:1012B000688579858A859B850E94470386E08983B6
:1012C0009B828A8291C02AE0C216D104E104F10413
:1012D000CCF51C141D041E041F04A4F52D85222327
:1012E00089F129E029838824992483949B828A8226
:1012F0009C01AD01220F331F441F551FC701B601CA
:10130000EE24FF248701AA24BB246501A3940E9434
:10131000F90189A59AA5ABA5BCA59C01AD012F5FDC
:101320003F4F4F4F5F4F29A73AA74BA75CA7688550
:1013300079858A859B850E94470386E089839B8205
:101340008A8252C088859985AA85BB858C30910593
:10135000A105B105C1F42D852223A9F089E0898377
:1013600001E010E01B830A830E941A0288E092E0E9
:101370000E94E70119A61AA61BA61CA685E0898370
:101380001B830A8331C08B309105A105B10581F41F
:101390008D85882369F089E0898301E010E01B8353
:1013A0000A830E94520387E089831B830A831CC03F
:1013B0008A819B8101969B838A838230910508F400
:1013C0007BCE1D861A8A18A21EAA1FAADF91CF9172
:1013D0001F910F91FF90EF90DF90CF90BF90AF9053
:1013E0009F908F907F9008958A819B8101969B8327
:1013F0008A83E7CF8A819B8101969B838A835CCE17
:10140000C896681779073CF001966817790718F4B1
:1014100081E0FB0180830895FC01643071F1653047
:1014200050F46130B9F0613078F06230C9F0633067
:1014300009F041C01CC0663061F1663020F16730B0
:1014400071F16830C1F531C081E090819930A0F12F
:1014500080E0089581E09081913071F180E00895FD
:101460009081925081E0973038F180E0089581E0DA
:101470009081933009F180E0089581E0908194306B
:10148000D9F080E0089581E091819530A9F080E065
:10149000089581E09181963079F080E0089581E0AF
:1014A0009181973049F080E0089581E091819830F2
:1014B00019F080E0089580E0089521E0FC0125877F
:1014C0000895FC0164817581868197810895FC01EE
:1014D00044835583668377830895FC016085718515
:1014E000828593850895FC014087518762877387C1
:1014F0000895FC0184850895FC016487089521E026
:10150000FC01228B0895FC01868597850895FC01D6
:10151000778766870895FC01808991890895FC0189
:10152000718B608B089521E0FC0120A30895FC01DC
:10153000838994890895FC01748B638B0895FC0161
:10154000858996890895FC01768B658B0895FC0149
:1015500087890895FC01678B0895FC01608D718D6A
:10156000828D938D0895FC01408F518F628F738F10
:101570000895FC01648D758D868D978D0895FC010D
:10158000448F558F668F778F0895FC0161A172A1FA
:1015900083A194A10895FC0141A352A363A374A362
:1015A0000895FC0165A176A187A190A50895FC018D
:1015B00045A356A367A370A70895FC0161A572A572
:1015C00083A594A50895FC0141A752A763A774A71A
:1015D000089521E0FC0126AB089521E0FC0127AB32
:1015E0000895FC0185A50895FC0165A70895FC01F7
:1015F00066A577A580A991A90895FC0146A757A7DC
:1016000060AB71AB0895FC0162A973A984A995A987
:101610000895FC0142AB53AB64AB75AB089587B33F
:10162000807F87BB87B3876087BB81E58DB981E009
:101630008EB908958FB9779BFECF8FB1089583E05F
:1016400083BF83E882BF81E087BF10921F021092A0
:101650001E0278940895CF92DF92EF92FF92CF937B
:10166000DF93EC016A017B0140911E0250911F0241
:1016700014161506E4F4EFE3F2E0DF01169620E01D
:1016800030E070E061E0808191818C179D0731F43A
:1016900013821282D582C4826C93762F2F5F3F4FC4
:1016A000379617962417350774F37723C9F4FA0190
:1016B000EE0FFF1FEE0FFF1FEE0FFF1FE41BF50BDA
:1016C000E15CFD4FD183C08313821282D582C48234
:1016D00081E086834F5F5F4F50931F0240931E024D
:1016E000DF91CF91FF90EF90DF90CF900895DC01D4
:1016F00060911E0270911F021616170664F5809104
:101700003F02909140028A179B07E1F40AC0295FCB
:101710003F4FF9013797808191818A179B07B1F478
:1017200002C040E050E0FA01EE0FFF1FEE0FFF1F76
:10173000EE0FFF1FE41BF50BE15CFD4F13821282DD
:101740001682089526E432E040E050E04F5F5F4F9C
:1017500046175707E1F60895CF92DF92EF92FF9276
:101760000F931F93CF93DF936C0180911E02909192
:101770001F021816190694F5C5E4D2E08E01065032
:101780001040EE24FF2488818823D9F0D8011296D6
:101790008D919C911397019613969C938E9312971B
:1017A00014962D913C9115978217930751F4139637
:1017B0001C921E92129718826D917C91C6010E9414
:1017C000000A0894E11CF11C2796095F1F4F8091C5
:1017D0001E0290911F02E816F906ACF2DF91CF913C
:1017E0001F910F91FF90EF90DF90CF9008958FE3BE
:1017F00092E00E940F0D10921F0210921E02089597
:10180000909398008093990088E980939A0086E0ED
:1018100080939D0078940895EBE9F0E0908195FF26
:10182000FDCF80939C000895CF93DF93EC018881D6
:10183000882331F021960E940C0C89918823D9F7D6
:1018400080E00E940C0CDF91CF910895662371F027
:101850008091200290912102FC01EB57FD4F6083A3
:1018600001969093210280932002089565E872E02A
:10187000E0912002F0912102E60FF71F10820E94F2
:101880009B0A10922102109220020895991B79E080
:1018900004C0991F961708F0961B881F7A95C9F700
:1018A0008095089597FB092E07260AD077FD04D06E
:1018B0000CD006D000201AF4709561957F4F0895E2
:1018C000F6F7909581959F4F0895AA1BBB1B51E198
:1018D00007C0AA1FBB1FA617B70710F0A61BB70BA0
:1018E000881F991F5A95A9F780959095BC01CD0145
:1018F0000895CF93DF93AC018230910510F442E05C
:1019000050E0E091A902F091AA0220E030E0A0E0CE
:10191000B0E024C08081918184179507D0F08417AE
:10192000950771F482819381109729F013969C9307
:101930008E9312972CC09093AA028093A90227C07D
:101940002115310519F08217930718F49C01BD0188
:10195000EF0192818381DF01E92FF82F3097D1F6D3
:1019600021153105F9F0C901841B950B84309105CF
:1019700080F48A819B816115710521F0FB019383BD
:10198000828304C09093AA028093A902FE0132963A
:1019900042C0FE01E80FF91F4193519302979983CA
:1019A000888339C08091A7029091A802009741F4E2
:1019B00080911A0290911B029093A8028093A70233
:1019C00020911802309119022115310541F42DB7EB
:1019D0003EB780911C0290911D02281B390BE091AB
:1019E000A702F091A802E217F30798F42E1B3F0B11
:1019F0002417350770F0CA0102962817390748F0F6
:101A00008E0F9F1F9093A8028093A702419351933A
:101A100002C0E0E0F0E0CF01DF91CF9108950F9395
:101A20001F93CF93DF939C01009709F48CC0DC01D6
:101A3000129713961C921E9212976091A9027091B0
:101A4000AA026115710589F48D919C911197820FFD
:101A5000931F2091A7023091A8022817390769F532
:101A6000B093A802A093A7026EC0FB0140E050E033
:101A700001C0FC01EA17FB0730F482819381AF01BA
:101A80000097B9F71FC0E9012297FB83EA83088119
:101A90001981C901800F911F8E179F0759F480810A
:101AA0009181800F911F029699838883828193810F
:101AB0009B838A834115510529F4B093AA02A09310
:101AC000A90241C0FA01B383A283C191D191EC0F65
:101AD000FD1FAE17BF0781F4F901929182918C0F1F
:101AE0009D1F0296DA0111969C938E9382819381B9
:101AF00013969C938E931297E0E0F0E002C0FB01F6
:101B0000BC01DB0112968D919C9113970097B9F758
:101B1000CB0102962D913C911197820F931F20913A
:101B2000A7023091A8022817390769F4309729F4E1
:101B30001092AA021092A90202C01382128270931C
:101B4000A8026093A702DF91CF911F910F91089592
:101B50000F931F93CF93DF93CDB7DEB72E970FB6BA
:101B6000F894DEBF0FBECDBF0D891E8986E08C8341
:101B70001A8309838FEF9FE79E838D83AE01475EB3
:101B80005F4FCE0101966F89788D0E94D70DEF814E
:101B9000F885E00FF11F10822E960FB6F894DEBF85
:101BA0000FBECDBFDF91CF911F910F9108952F925E
:101BB0003F924F925F926F927F928F929F92AF92DD
:101BC000BF92CF92DF92EF92FF920F931F93CF932A
:101BD000DF93CDB7DEB72D970FB6F894DEBF0FBEFB
:101BE000CDBF3C017D876C875A01FC0117821682AC
:101BF000838181FFC8C12E010894411C511CF3014F
:101C00009381EC85FD8593FD859193FF8191FD87FF
:101C1000EC87882309F4B3C1853241F493FD8591A3
:101C200093FF8191FD87EC87853229F490E0B30121
:101C30000E94F40FE4CFFF24EE2410E01032B0F441
:101C40008B3269F08C3228F4803251F0833271F497
:101C50000BC08D3239F0803349F411602CC0126012
:101C6000146029C0186027C0106125C017FD2EC060
:101C7000282F20532A3098F416FF08C08F2D880F84
:101C8000F82EFF0CFF0CF80EF20E15C08E2D880FEB
:101C9000E82EEE0CEE0CE80EE20E10620CC08E3256
:101CA00021F416FD6CC1106406C08C3611F4106866
:101CB00002C0883659F4EC85FD8593FD859193FF2C
:101CC0008191FD87EC87882309F0B8CF982F955430
:101CD000933018F09052933038F424E030E0A20EA4
:101CE000B31E3FE339830FC0833631F0833781F071
:101CF000833509F05AC022C0F5018081898322E032
:101D000030E0A20EB31E21E0C22ED12C420114C03D
:101D100092E0292E312C2A0C3B1CF5018080918009
:101D200016FF03C06F2D70E002C06FEF7FEFC4019C
:101D30000E94E90F6C0151011F7715C082E0282E27
:101D4000312C2A0C3B1CF5018080918016FF03C0CA
:101D50006F2D70E002C06FEF7FEFC4010E94DE0FB5
:101D60006C011068510113FD1CC006C080E290E0B8
:101D7000B3010E94F40FEA948E2D90E0C816D906A4
:101D8000A8F30FC0F40117FD859117FF81914F0152
:101D900090E0B3010E94F40FE110EA940894C108A6
:101DA000D108C114D10471F7E7C0843611F0893627
:101DB00051F5F50117FF07C080819181A281B381A0
:101DC00024E030E008C080819181AA2797FDA0958A
:101DD000BA2F22E030E0A20EB31E012F0F76B7FF1C
:101DE00008C0B095A095909581959F4FAF4FBF4F7C
:101DF0000068BC01CD01A2012AE030E00E94201061
:101E0000D82ED4183FC0853721F41F7E2AE030E059
:101E100020C0197F8F36A9F0803720F4883509F06B
:101E2000AEC00BC0803721F0883709F0A8C001C0D0
:101E3000106114FF09C0146007C014FF08C01660C9
:101E400006C028E030E005C020E130E002C020E11B
:101E500032E0F50117FF07C06081718182819381B3
:101E600044E050E006C06081718180E090E042E093
:101E700050E0A40EB51EA2010E942010D82ED41846
:101E8000012F0F7706FF09C00E7FDF1430F404FF27
:101E900006C002FD04C00F7E02C01D2D01C01F2D13
:101EA000802F90E004FF0CC0FE01ED0DF11D20819C
:101EB000203311F4097E09C002FF06C01E5F05C071
:101EC00086789070009709F01F5F802E992403FD9B
:101ED00012C000FF0DC0FD2C1E1550F4FE0CF11AAF
:101EE0001E2D06C080E290E0B3010E94F40F1F5F38
:101EF0001E15C0F304C01E1510F4E11A01C0EE2433
:101F000084FE0FC080E390E0B3010E94F40F82FED4
:101F10001FC081FE03C088E590E010C088E790E014
:101F20000DC0C40186789070009791F081FC02C0CA
:101F300080E201C08BE207FD8DE290E0B3010E94D8
:101F4000F40F06C080E390E0B3010E94F40FFA940E
:101F5000DF14C0F3DA94F201ED0DF11D808190E001
:101F6000B3010E94F40FDD20A9F706C080E290E0E3
:101F7000B3010E94F40FEA94EE20C1F740CEF301C2
:101F80008681978102C08FEF9FEF2D960FB6F89450
:101F9000DEBF0FBECDBFDF91CF911F910F91FF909C
:101FA000EF90DF90CF90BF90AF909F908F907F90F9
:101FB0006F905F904F903F902F900895FC01059097
:101FC000615070400110D8F7809590958E0F9F1F3B
:101FD0000895FC016150704001900110D8F7809580
:101FE00090958E0F9F1F08950F931F93CF93DF93AC
:101FF0008C01EB018B8181FF1BC082FF0DC02E8104
:102000003F818C819D812817390764F4E881F9812B
:102010000193F983E88306C0E885F985802F099547
:10202000009731F48E819F8101969F838E8302C039
:102030000FEF1FEFC801DF91CF911F910F9108950E
:10204000FA01AA27283051F1203181F1E8946F93E9
:102050006E7F6E5F7F4F8F4F9F4FAF4FB1E03ED08F
:10206000B4E03CD0670F781F891F9A1FA11D680F2D
:10207000791F8A1F911DA11D6A0F711D811D911D60
:10208000A11D20D009F468943F912AE0269F1124D5
:102090003019305D3193DEF6CF010895462F477039
:1020A000405D4193B3E00FD0C9F7F6CF462F4F7094
:1020B000405D4A3318F0495D31FD4052419302D0F2
:1020C000A9F7EACFB4E0A695979587957795679598
:1020D000BA95C9F700976105710508959B01AC0198
:1020E0000A2E06945795479537952795BA95C9F7BF
:1020F000620F731F841F951FA01D0895F894FFCFD2
:102100000708090D0405060E0102030F0B0A0C1047
:102110000E0D0B070C12120C000000000C1204082C
:102120001E0000000A15110A040000000305090B37
:102130000B1818001F0E0E04040404040101050509
:10214000151515000E11111F1F1F1F0000000000A4
:102150000000000000E8E8F0F0E2C1C2C2C2C669B7
:102160006E666F0D0A005354415455533A20253082
:1021700032580D0A00434F4E4649473A2025303227
:10218000580D0A0052465F43483A20253032580D18
:102190000A0052465F53455455503A202530325874
:1021A0000D0A00454E5F41413A20253032580D0A54
:1021B00000454E5F5258414444523A20253032582F
:1021C0000D0A004F4253455256455F54583A202558
:1021D0003032580D0A000D0A00E8E8F0F0E2C1C202
:1021E000C2C2C2C1C2C2C2C3C1C2C2C2C4C1C2C2CF
:1021F000C2C5C1C2C2C2C6E8E8F0F0E25761697464
:1022000074696E672E2E2E005F205F205F205F2096
:0E2210005F205F205F205F000000AB02200017
:00000001FF
