:100000000C9446000C9465000C9465000C946500FB
:100010000C9465000C9465000C9465000C946500CC
:100020000C9465000C9465000C9465000C946500BC
:100030000C9465000C9465000C9465000C946500AC
:100040000C9454020C9465000C9465000C946500AB
:100050000C9465000C9465000C9465000C9465008C
:100060000C9465000C9465000C9465000C9465007C
:100070000C9465000C9465000C9465000C9465006C
:100080000C9465000C9465000C94650011241FBE4F
:10009000CFEFD0E1DEBFCDBF12E0A0E0B1E0E6E4FB
:1000A000FAE100E00BBF02C007900D92A230B10749
:1000B000D9F712E0A2E0B2E001C01D92A037B1076B
:1000C000E1F70E9425020C94210D0C9400008FECA6
:1000D00097E00197F1F700C000000895282F2295BE
:1000E0002F708F70662311F4D89801C0D89AD99ACE
:1000F0009BB3220F220F937C922B9BBBD998D99A4A
:100100009BB3880F880F937C892B8BBBD9980E9457
:10011000670008950F931F93CF93DF938C01FC0129
:100120008081882309F18532A9F4E8012196F8013C
:1001300081818053883020F461E00E946E000EC0FF
:1001400085E261E00E946E00F801818161E00E9419
:100150006E0004C061E00E946E00E8018E010F5F36
:100160001F4F89818823F9F6DF91CF911F910F915D
:100170000895EF92FF920F931F93CF93DF9300D0D8
:1001800000D00F92CDB7DEB77B01FE01319625E09E
:10019000DF011D922A95E9F7009761F0FE0136967E
:1001A0002AE030E0B9010E94F5088293862F972F4C
:1001B0000097C1F7BFEFEB16BFEFFB0669F429818B
:1001C000222379F4FE01329600E010E00F5F1F4F0A
:1001D00021912223D9F307C005E010E00E191F0971
:1001E00002C000E010E0992324F48DE261E00E9457
:1001F0006E0005301105BCF4E1E0F0E0EC0FFD1FEE
:100200000E0F1F1F0F2EF6E0EF2EFF24F02DEC0E29
:10021000FD1ED8018D918D01805D61E00E946E0010
:100220000E151F05B1F70F900F900F900F900F90C4
:10023000DF91CF911F910F91FF90EF90089584313E
:1002400078F4623031F0633031F0613029F4806449
:1002500003C08C5E01C08C5A806860E00E946E0012
:1002600008950F931F93CF93DF93C82F8BE49DE1E5
:100270000197F1F700C000008AB38C638ABBD19A62
:10028000D09A8BB3837C8BBBD998D898D99ADB9AB8
:10029000D9980E9467008C2F8C6060E00E946E00ED
:1002A00088E260E00E946E0080E460E00E946E00E0
:1002B000C0E0D1E000E411E0899161E00E946E00AD
:1002C000C017D107C9F780E060E00E941F01DF91ED
:1002D000CF911F910F9108950E948A0008950F9366
:1002E000CF93DF93EC01842F602F0E941F01CE017A
:1002F0000E948A00DF91CF910F9108954F925F92F3
:100300006F927F92AF92BF92CF92DF92EF92FF9265
:100310002B013C01822F6E2D760165010E941F0189
:10032000C201B6010E94B900FF90EF90DF90CF901C
:10033000BF90AF907F906F905F904F90089581E055
:1003400060E00E946E0082E060E00E946E0008950E
:1003500080E00E94310108950F931F93CF93DF93A4
:100360000F92CDB7DEB71982CE0101960E94F40438
:10037000882381F0E4E0F2E0CF0140961192E81783
:10038000F907E1F704E012E08981B8010E9406054F
:10039000C80102C080E491E00F90DF91CF911F91DE
:1003A0000F9108950E942C0591E0813009F090E0B2
:1003B000892F0895AF92EF92822FE6E1F2E0AF012C
:1003C000405F5F4F1192E417F507E1F7605D6093BE
:1003D00016023AE0632F0E94E908905D909318029C
:1003E0000E94E908905D909317028E2D0E94E90803
:1003F000905D90931B020E94E908905D90931A0211
:100400000E94E908905D909319028A2D0E94E908E4
:10041000905D90931D020E94E908905D90931C02EC
:1004200086E192E00E942C0591E0813009F090E095
:10043000892FEF90AF9008950E94140808950E94AC
:10044000600808950E94820508958FE084BB85BBF3
:1004500082E090E00E941C098093140290931502A0
:100460000E94080880911402909115020E94410692
:1004700080911402909115020E944706E6E1F2E095
:1004800081E681938F5F8137E1F7E4E0F2E0CF010D
:1004900040961192E817F907E1F7809114029091C4
:1004A00015020E949406F9CF1F920F920FB60F9279
:1004B0000BB60F9211242F933F934F935F936F933B
:1004C0007F938F939F93AF93BF93EF93FF9383E8B3
:1004D00082BF80911402909115020E949508FF91AD
:1004E000EF91BF91AF919F918F917F916F915F91AC
:1004F0004F913F912F910F900BBE0F900FBE0F9019
:100500001F901895AE988F710E9403088FEF0E947C
:100510000308AE9A0895FF920F931F93CF93DF9332
:10052000062FF72E142FAE988F710E940308112307
:1005300051F0C02FDF2D00E08FEF0E940308899358
:100540000F5F0117C9F7AE9ADF91CF911F910F91FD
:10055000FF900895CF93C62FAE988F7180620E944E
:1005600003088C2F0E940308AE9ACF910895FF9242
:100570000F931F93CF93DF93062FF72E142FAE9870
:100580008F7180620E940308112349F0C02FDF2D74
:1005900000E089910E9403080F5F0117D1F7AE9A1E
:1005A000DF91CF911F910F91FF90089520E030E0EF
:1005B0000496DB01A20FB31FFC01E21BF30B408189
:1005C0004C932F5F3F4F2530310599F70895CF9316
:1005D000DF9300D000D00F92CDB7DEB78823B1F4FF
:1005E000ABEBB1E0FB0185E001900D928150E1F7AA
:1005F000CB01BE016F5F7F4F0E94D6028AE0BE0131
:100600006F5F7F4F45E00E94B70256C08130B1F462
:10061000A0ECB1E0FB0185E001900D928150E1F783
:10062000CB01BE016F5F7F4F0E94D6028BE0BE01FF
:100630006F5F7F4F45E00E94B7023EC0823071F489
:10064000A5ECB1E0FB0185E001900D928150E1F74E
:100650008CE0FB0164810E94AA022EC0833071F4F9
:10066000AAECB1E0FB0185E001900D928150E1F729
:100670008DE0FB0164810E94AA021EC0843071F4E7
:10068000AFECB1E0FB0185E001900D928150E1F704
:100690008EE0FB0164810E94AA020EC0853061F4E5
:1006A000A4EDB1E0FB0101900D928150E1F78FE0E4
:1006B000FB0164810E94AA020F900F900F900F908F
:1006C0000F90DF91CF910895CF93DF9300D000D0AA
:1006D0000F92CDB7DEB7A9EDB1E0E82FF92F25E0F5
:1006E00001900D922150E1F7BE016F5F7F4F0E9494
:1006F000D6028AE0BE016F5F7F4F45E00E94B702DD
:1007000080E1BE016F5F7F4F45E00E94B7020F900E
:100710000F900F900F900F90DF91CF910895AE98AA
:1007200082EE0E940308AE9A0895AE9881EE0E9470
:100730000308AE9A089580E06BEB71E00E94E70237
:1007400080E00E948202682F616080E00E94AA021D
:1007500080E00E948202682F626080E00E94AA020C
:1007600087E060E70E94AA020E948F030E9495031F
:10077000AF9A82E38A95F1F70895AF9880E00E94DE
:100780008202682F6E7F80E00E94AA0280E00E94B1
:100790008202682F626080E00E94AA0287E060E720
:1007A0000E94AA020E94950382E38A95F1F70895B8
:1007B000AE988FEF0E940308AE9A0895EF92FF92D1
:1007C0000F931F93CF93DF93CDB7DEB7C456D040BE
:1007D0000FB6F894DEBF0FBECDBF7C0181E491E07F
:1007E000F70109950E94D80300D000D000D0EDB7E2
:1007F000FEB731968E010F5F1F4FADB7BEB7129691
:100800001C930E93119728E431E033832283848371
:1008100015820E944B0A8DB79EB706960FB6F894C4
:100820009EBF0FBE8DBFC801F701099580E00E94F1
:10083000820200D000D000D0EDB7FEB73196ADB740
:10084000BEB712961C930E93119727E531E03383C0
:100850002283848315820E944B0A8DB79EB7069629
:100860000FB6F8949EBF0FBE8DBFC801F701099562
:1008700085E00E94820200D000D000D0EDB7FEB724
:100880003196ADB7BEB712961C930E93119726E61C
:1008900031E033832283848315820E944B0A8DB713
:1008A0009EB706960FB6F8949EBF0FBE8DBFC801C7
:1008B000F701099586E00E94820200D000D000D0A6
:1008C000EDB7FEB73196ADB7BEB712961C930E9337
:1008D000119724E731E033832283848315820E94B9
:1008E0004B0A8DB79EB706960FB6F8949EBF0FBE03
:1008F0008DBFC801F701099581E00E94820200D0F6
:1009000000D000D0EDB7FEB73196ADB7BEB71296A6
:100910001C930E93119725E831E03383228384835F
:1009200015820E944B0A8DB79EB706960FB6F894B3
:100930009EBF0FBE8DBFC801F701099582E00E94DE
:10094000820200D000D000D0EDB7FEB73196ADB72F
:10095000BEB712961C930E93119723E931E03383AF
:100960002283848315820E944B0A8DB79EB7069618
:100970000FB6F8949EBF0FBE8DBFC801F701099551
:1009800088E00E94820200D000D000D0EDB7FEB710
:100990003196ADB7BEB712961C930E93119725EA08
:1009A00031E033832283848315820E944B0A8DB702
:1009B0009EB706960FB6F8949EBF0FBE8DBFC801B6
:1009C000F701099588EB91E0F7010995CC59DF4FC4
:1009D0000FB6F894DEBF0FBECDBFDF91CF911F9150
:1009E0000F91FF90EF900895CF93DF93EC010E9459
:1009F000D803982F907486FF05C0209719F086952C
:100A000087708883892FDF91CF9108950F931F936B
:100A1000CF93DF93062F172FAE9881E60E9403082D
:100A2000C02FD12F10E08FEF0E94030889931F5F22
:100A30001031C9F7AE9A87E060E40E94AA020E94D2
:100A4000D80385FF04C087E060E20E94AA02DF911C
:100A5000CF911F910F9108950F931F93CF93DF9321
:100A6000082F192F0E94BD03AE9880EA0E94030848
:100A7000C02FD12F10E189910E9403081150D9F79E
:100A8000AE9AAF9A85E08A95F1F7AF9883E08A95A0
:100A9000F1F700000E94D8038073C1F30E94D803CD
:100AA000C82F85E06CE40E94AA0280E00E948202C6
:100AB000682F6D7F80E00E94AA020E949B0381E064
:100AC000C5FF80E0DF91CF911F910F91089586E0DF
:100AD0000E948202682F666086E00E94AA02089542
:100AE00086E00E948202682F677D86E00E94AA024B
:100AF000089580E00E948202682F6C6080E00E946E
:100B0000AA020895A69AA79A0E94F807AF98AE9AEB
:100B100081EE94E00197F1F700C000000E946705A4
:100B20000E9470050E94790584E067E40E94AA0291
:100B30008CE160E00E94AA0285E06CE40E94AA02B7
:100B400081E160E10E94AA0282E160E10E94AA02C2
:100B500083E160E10E94AA0284E160E10E94AA02AE
:100B600085E160E10E94AA0286E160E10E94AA029A
:100B700082E060E00E94AA0282E00E948202682F66
:100B8000616082E00E94AA0282E00E948202682FD5
:100B9000626082E00E94AA0282E00E948202682FC4
:100BA000646082E00E94AA0282E00E948202682FB2
:100BB000686082E00E94AA0282E00E948202682F9E
:100BC000606182E00E94AA0282E00E948202682F95
:100BD000606282E00E94AA0281E00E948202682F85
:100BE000616081E00E94AA0281E00E948202682F77
:100BF000626081E00E94AA0281E00E948202682F66
:100C0000646081E00E94AA0281E00E948202682F53
:100C1000686081E00E94AA0281E00E948202682F3F
:100C2000606181E00E94AA0281E00E948202682F36
:100C3000606281E00E94AA0280E06BEB71E00E949A
:100C4000E70281E060EC71E00E94E70282E065EC7F
:100C500071E00E94E70283E06AEC71E00E94E70223
:100C600084E06FEC71E00E94E70285E064ED71E0E2
:100C70000E94E70289ED91E00E9464030E949B03B9
:100C80000895FC0186E080831282118208951F93EB
:100C9000CF93DF93EC0111E018A7C39648EB5BE01C
:100CA00060E070E020E00E941C0281E090E0A0E0A3
:100CB000B0E08DA79EA7AFA7B8AB0E94A8010E9485
:100CC00022020E949F018EED91E00E946C01188328
:100CD0001A821982DF91CF911F910895FC018081C2
:100CE000833099F0843018F48130E9F405C0843001
:100CF00089F08530C1F413C086E0808312821182AE
:100D0000CF01C3960E941F02089586E0808312825D
:100D10001182089586E0808312821182089586E010
:100D20008083128211820895CF93DF93EC011A829F
:100D300019828881833019F1843020F4813009F0E0
:100D400057C006C0843041F1853009F051C043C01E
:100D50008BA9882309F44CC086E088831A82198203
:100D6000CE01C3960E941F020E949F018AEE91E06D
:100D70000E946C0183E088831A82198249C086E050
:100D800088831A8219820E94AC019B8B8A8B84E033
:100D900088831A8219823CC0EA89FB898081882372
:100DA00089F086E088831A821982FD8BEC8B0E9481
:100DB0009F018C899D890E946C0185E088831A823D
:100DC000198226C00E94AC019B8B8A8B84E08883A9
:100DD0001A8219821DC086E088831A8219820E94B5
:100DE000AC019B8B8A8B84E088831A82198210C0A5
:100DF00089819A8101969A838983009709F499CF12
:100E00001C86198A1B8E19AA1AAADF91CF91089500
:100E100089819A8101969A838983F2CFC396681754
:100E200079073CF001966817790718F481E0FB0117
:100E300080830895FC016230D1F0633028F466238A
:100E400051F0613069F50DC06430F1F06430B0F0FC
:100E5000653031F51FC081E09081963010F180E05F
:100E6000089581E090819130E1F080E008959081D3
:100E7000925081E09430A8F080E0089581E0908164
:100E8000933079F080E0089581E09081943049F0CA
:100E900080E0089581E09081953019F080E0089518
:100EA00080E0089521E0FC0124870895FC0163811E
:100EB0007481858196810895FC0143835483658301
:100EC00076830895FC0167817085818592850895F8
:100ED000FC0147835087618772870895FC018385F1
:100EE0000895FC016387089521E0FC01218B08959A
:100EF000FC01858596850895FC01768765870895B0
:100F0000FC01878590890895FC01708B678708959F
:100F100021E0FC01238F0895FC01828993890895C3
:100F2000FC01738B628B0895FC0184899589089577
:100F3000FC01758B648B0895FC0186890895FC0182
:100F4000668B0895FC016789708D818D928D08955F
:100F5000FC01478B508F618F728F0895FC01648D67
:100F6000758D868D978D0895FC01448F558F668F02
:100F7000778F0895FC0160A171A182A193A10895CA
:100F8000FC0140A351A362A373A30895FC0164A1D3
:100F900075A186A197A10895FC0144A355A366A35A
:100FA00077A3089521E0FC0121AB089521E0FC0125
:100FB00022AB0895FC0180A50895FC0160A7089567
:100FC000FC0161A572A583A594A50895FC0141A724
:100FD00052A763A774A70895FC0165A576A587A508
:100FE00090A90895FC0145A756A767A770AB08957F
:100FF00087B3807F87BB87B3876087BB81E58DB967
:1010000081E08EB908958FB9779BFECF8FB1089597
:1010100083E083BF83E882BF81E087BF1092030231
:101020001092020278940895CF92DF92EF92FF928D
:10103000CF93DF93EC016A017B0140910202509152
:10104000030214161506E4F4E6E2F2E0DF01169658
:1010500020E030E070E061E0808191818C179D0795
:1010600031F413821282D582C4826C93762F2F5F63
:101070003F4F379617962417350774F37723C9F433
:10108000FA01EE0FFF1FEE0FFF1FEE0FFF1FE41B15
:10109000F50BEA5DFD4FD183C08313821282D582A6
:1010A000C48281E086834F5F5F4F50930302409379
:1010B0000202DF91CF91FF90EF90DF90CF900895E3
:1010C000DC0160910202709103021616170664F5A6
:1010D00080912602909127028A179B07E1F40AC0AB
:1010E000295F3F4FF9013797808191818A179B07CC
:1010F000B1F402C040E050E0FA01EE0FFF1FEE0F26
:10110000FF1FEE0FFF1FE41BF50BEA5DFD4F13827F
:101110001282168208952DE232E040E050E04F5FE7
:101120005F4F46175707E1F60895CF92DF92EF928F
:10113000FF920F931F93CF93DF936C018091020274
:10114000909103021816190694F5CCE2D2E08E01B4
:1011500006501040EE24FF2488818823D9F0D8015E
:1011600012968D919C911397019613969C938E9352
:10117000129714962D913C9115978217930751F46D
:1011800013961C921E92129718826D917C91C60143
:101190000E940E070894E11CF11C2796095F1F4F5F
:1011A0008091020290910302E816F906ACF2DF91F9
:1011B000CF911F910F91FF90EF90DF90CF90089506
:1011C00086E292E00E94B20910920302109202029B
:1011D0000895991B79E004C0991F961708F0961B93
:1011E000881F7A95C9F78095089597FB092E0726E1
:1011F0000AD077FD04D00CD006D000201AF47095E8
:1012000061957F4F0895F6F7909581959F4F0895CA
:10121000AA1BBB1B51E107C0AA1FBB1FA617B7071C
:1012200010F0A61BB70B881F991F5A95A9F7809538
:101230009095BC01CD010895CF93DF93AC0182302E
:10124000910510F442E050E0E0916E02F0916F02DF
:1012500020E030E0A0E0B0E024C0808191818417DC
:101260009507D0F08417950771F4828193811097C8
:1012700029F013969C938E9312972CC090936F0233
:1012800080936E0227C02115310519F0821793074C
:1012900018F49C01BD01EF0192818381DF01E92FE8
:1012A000F82F3097D1F621153105F9F0C901841BCB
:1012B000950B8430910580F48A819B8161157105BD
:1012C00021F0FB019383828304C090936F0280938B
:1012D0006E02FE01329642C0FE01E80FF91F4193F3
:1012E000519302979983888339C080916C029091C1
:1012F0006D02009741F48091FD019091FE01909361
:101300006D0280936C022091FB013091FC0121154C
:10131000310541F42DB73EB78091FF019091000255
:10132000281B390BE0916C02F0916D02E217F30774
:1013300098F42E1B3F0B2417350770F0CA01029654
:101340002817390748F08E0F9F1F90936D028093E6
:101350006C024193519302C0E0E0F0E0CF01DF91D5
:10136000CF9108950F931F93CF93DF939C01009724
:1013700009F48CC0DC01129713961C921E921297EE
:1013800060916E0270916F026115710589F48D9103
:101390009C911197820F931F20916C0230916D02E6
:1013A0002817390769F5B0936D02A0936C026EC0DF
:1013B000FB0140E050E001C0FC01EA17FB0730F4FC
:1013C00082819381AF010097B9F71FC0E90122978D
:1013D000FB83EA8308811981C901800F911F8E1751
:1013E0009F0759F480819181800F911F0296998304
:1013F0008883828193819B838A834115510529F4D7
:10140000B0936F02A0936E0241C0FA01B383A2832E
:10141000C191D191EC0FFD1FAE17BF0781F4F90107
:10142000929182918C0F9D1F0296DA0111969C93E6
:101430008E938281938113969C938E931297E0E012
:10144000F0E002C0FB01BC01DB0112968D919C9182
:1014500013970097B9F7CB0102962D913C91119704
:10146000820F931F20916C0230916D02281739076B
:1014700069F4309729F410926F0210926E0202C044
:101480001382128270936D0260936C02DF91CF9190
:101490001F910F9108950F931F93CF93DF93CDB7B3
:1014A000DEB72E970FB6F894DEBF0FBECDBF0D8905
:1014B0001E8986E08C831A8309838FEF9FE79E83C2
:1014C0008D83AE01475E5F4FCE0101966F89788DA7
:1014D0000E947A0AEF81F885E00FF11F10822E96A4
:1014E0000FB6F894DEBF0FBECDBFDF91CF911F9135
:1014F0000F9108952F923F924F925F926F927F9239
:101500008F929F92AF92BF92CF92DF92EF92FF9213
:101510000F931F93CF93DF93CDB7DEB72D970FB601
:10152000F894DEBF0FBECDBF3C017D876C875A01AA
:10153000FC0117821682838181FFC8C12E010894A5
:10154000411C511CF3019381EC85FD8593FD859130
:1015500093FF8191FD87EC87882309F4B3C185321D
:1015600041F493FD859193FF8191FD87EC8785324E
:1015700029F490E0B3010E94970CE4CFFF24EE24FD
:1015800010E01032B0F48B3269F08C3228F48032E3
:1015900051F0833271F40BC08D3239F0803349F44D
:1015A00011602CC01260146029C0186027C010613F
:1015B00025C017FD2EC0282F20532A3098F416FF7F
:1015C00008C08F2D880FF82EFF0CFF0CF80EF20EBE
:1015D00015C08E2D880FE82EEE0CEE0CE80EE20EF4
:1015E00010620CC08E3221F416FD6CC1106406C06E
:1015F0008C3611F4106802C0883659F4EC85FD85EC
:1016000093FD859193FF8191FD87EC87882309F0F5
:10161000B8CF982F9554933018F09052933038F4F7
:1016200024E030E0A20EB31E3FE339830FC08336BF
:1016300031F0833781F0833509F05AC022C0F501BB
:101640008081898322E030E0A20EB31E21E0C22E09
:10165000D12C420114C092E0292E312C2A0C3B1CC3
:10166000F5018080918016FF03C06F2D70E002C0ED
:101670006FEF7FEFC4010E948C0C6C0151011F774A
:1016800015C082E0282E312C2A0C3B1CF5018080ED
:10169000918016FF03C06F2D70E002C06FEF7FEFE7
:1016A000C4010E94810C6C011068510113FD1CC023
:1016B00006C080E290E0B3010E94970CEA948E2D60
:1016C00090E0C816D906A8F30FC0F40117FD859164
:1016D00017FF81914F0190E0B3010E94970CE11038
:1016E000EA940894C108D108C114D10471F7E7C085
:1016F000843611F0893651F5F50117FF07C0808156
:101700009181A281B38124E030E008C08081918181
:10171000AA2797FDA095BA2F22E030E0A20EB31EB3
:10172000012F0F76B7FF08C0B095A09590958195D1
:101730009F4FAF4FBF4F0068BC01CD01A2012AE00F
:1017400030E00E94C30CD82ED4183FC0853721F456
:101750001F7E2AE030E020C0197F8F36A9F0803745
:1017600020F4883509F0AEC00BC0803721F08837EF
:1017700009F0A8C001C0106114FF09C0146007C0BF
:1017800014FF08C0166006C028E030E005C020E164
:1017900030E002C020E132E0F50117FF07C06081B0
:1017A00071818281938144E050E006C06081718143
:1017B00080E090E042E050E0A40EB51EA2010E943D
:1017C000C30CD82ED418012F0F7706FF09C00E7F47
:1017D000DF1430F404FF06C002FD04C00F7E02C017
:1017E0001D2D01C01F2D802F90E004FF0CC0FE01B5
:1017F000ED0DF11D2081203311F4097E09C002FF97
:1018000006C01E5F05C086789070009709F01F5FC4
:10181000802E992403FD12C000FF0DC0FD2C1E1563
:1018200050F4FE0CF11A1E2D06C080E290E0B301C8
:101830000E94970C1F5F1E15C0F304C01E1510F404
:10184000E11A01C0EE2484FE0FC080E390E0B301F2
:101850000E94970C82FE1FC081FE03C088E590E0C5
:1018600010C088E790E00DC0C401867890700097A2
:1018700091F081FC02C080E201C08BE207FD8DE2A5
:1018800090E0B3010E94970C06C080E390E0B301A2
:101890000E94970CFA94DF14C0F3DA94F201ED0D74
:1018A000F11D808190E0B3010E94970CDD20A9F723
:1018B00006C080E290E0B3010E94970CEA94EE200B
:1018C000C1F740CEF3018681978102C08FEF9FEF71
:1018D0002D960FB6F894DEBF0FBECDBFDF91CF912E
:1018E0001F910F91FF90EF90DF90CF90BF90AF903E
:1018F0009F908F907F906F905F904F903F902F9030
:101900000895FC010590615070400110D8F7809552
:1019100090958E0F9F1F0895FC01615070400190BB
:101920000110D8F7809590958E0F9F1F08950F9303
:101930001F93CF93DF938C01EB018B8181FF1BC041
:1019400082FF0DC02E813F818C819D812817390730
:1019500064F4E881F9810193F983E88306C0E8859E
:10196000F985802F0995009731F48E819F8101962A
:101970009F838E8302C00FEF1FEFC801DF91CF91CD
:101980001F910F910895FA01AA27283051F12031B3
:1019900081F1E8946F936E7F6E5F7F4F8F4F9F4F03
:1019A000AF4FB1E03ED0B4E03CD0670F781F891F45
:1019B0009A1FA11D680F791F8A1F911DA11D6A0F13
:1019C000711D811D911DA11D20D009F468943F91C6
:1019D0002AE0269F11243019305D3193DEF6CF01C5
:1019E0000895462F4770405D4193B3E00FD0C9F78B
:1019F000F6CF462F4F70405D4A3318F0495D31FDF8
:101A00004052419302D0A9F7EACFB4E0A69597954A
:101A1000879577956795BA95C9F700976105710520
:101A200008959B01AC010A2E06945795479537956A
:101A30002795BA95C9F7620F731F841F951FA01DC4
:061A40000895F894FFCFA9
:101A46000C12120C000000000C1204081E0000000C
:101A56000A15110A040000000305090B0B181800EB
:101A66001F0E0E04040404040101050515151500D6
:101A76000E11111F1F1F1F000000000000000000B4
:101A860000696E666F0D0A005354415455533A204F
:101A9600253032580D0A00434F4E4649473A202515
:101AA6003032580D0A0052465F43483A20253032FC
:101AB600580D0A0052465F53455455503A2025307A
:101AC60032580D0A00454E5F41413A2025303258C2
:101AD6000D0A00454E5F5258414444523A20253083
:101AE60032580D0A004F4253455256455F54583AF4
:101AF60020253032580D0A000D0A00E8E8F0F0E221
:101B0600C1C2C2C2C2C1C2C2C2C3C1C2C2C2C4C1B0
:101B1600C2C2C2C5C1C2C2C2C6E8E8F0F0E257619D
:101B2600697474696E672E2E2E0057616974696E2A
:101B36006720666F72206461746100000070022085
:021B460000009D
:00000001FF
