:100000000C9446000C9465000C9465000C946500FB
:100010000C9465000C9465000C9465000C946500CC
:100020000C9465000C9465000C9465000C946500BC
:100030000C9465000C9465000C9465000C946500AC
:100040000C94A8030C9465000C9465000C94650056
:100050000C9465000C9465000C9465000C9465008C
:100060000C9465000C9465000C9465000C9465007C
:100070000C9465000C9465000C94D6030C946500F8
:100080000C9465000C9465000C94650011241FBE4F
:10009000CFEFD0E1DEBFCDBF12E0A0E0B1E0ECECED
:1000A000F2E200E00BBF02C007900D92A033B1074F
:1000B000D9F712E0A0E3B2E001C01D92AD3BB10759
:1000C000E1F70E9465030C9464110C940000AF9258
:1000D000BF92CF92DF92EF92FF920F931F93CF9335
:1000E000DF9320E030E041E050E0E2E6F0E0A0E124
:1000F000B1E00F2EF1E1AF2EF1E0BF2EF02D02E1C5
:1001000011E00F2EF3E1EF2EF1E0FF2EF02DB901FB
:10011000C90104966A0102C0CC0CDD1C8A95E2F785
:10012000C6018095808383E08A95F1F7000080B155
:100130008F708F3029F19C919817A9F0E501988173
:10014000981759F0E8019881981751F0E7019881C4
:100150009817B1F4E3E0F0E008C0E1E0F0E005C09A
:10016000E2E0F0E002C0E0E0F0E0EE0FFF1FEE0F93
:10017000FF1F6E0F7F1FFB01E050FF4F808106C005
:100180002F5F3F4F2430310511F680E0DF91CF9192
:100190001F910F91FF90EF90DF90CF90BF90AF90A5
:1001A000089580EF809361008FE08093620008954E
:1001B0008FEC97E00197F1F700C000000895282F19
:1001C00022952F708F70662311F4D89801C0D89AA9
:1001D000D99A9BB3220F220F937C922B9BBBD99869
:1001E000D99A9BB3880F880F937C892B8BBBD998A6
:1001F0000E94D80008950F931F93CF93DF938C0133
:10020000FC018081882309F18532A9F4E801219657
:10021000F80181818053883020F461E00E94DF0082
:100220000EC085E261E00E94DF00F801818161E09B
:100230000E94DF0004C061E00E94DF00E8018E013F
:100240000F5F1F4F89818823F9F6DF91CF911F91AE
:100250000F910895EF92FF920F931F93CF93DF9327
:1002600000D000D00F92CDB7DEB77B01FE013196F2
:1002700025E0DF011D922A95E9F7009761F0FE0164
:1002800036962AE030E0B9010E94380D8293862F1D
:10029000972F0097C1F7BFEFEB16BFEFFB0669F48E
:1002A0002981222379F4FE01329600E010E00F5FED
:1002B0001F4F21912223D9F307C005E010E00E194A
:1002C0001F0902C000E010E0992324F48DE261E0F0
:1002D0000E94DF0005301105BCF4E1E0F0E0EC0F16
:1002E000FD1F0E0F1F1F0F2EF6E0EF2EFF24F02D27
:1002F000EC0EFD1ED8018D918D01805D61E00E94A4
:10030000DF000E151F05B1F70F900F900F900F90A3
:100310000F90DF91CF911F910F91FF90EF90089573
:10032000843178F4623031F0633031F0613029F497
:10033000806403C08C5E01C08C5A806860E00E94BB
:10034000DF0008950F931F93CF93DF93C82F8BE4A3
:100350009DE10197F1F700C000008AB38C638ABB6E
:10036000D19AD09A8BB3837C8BBBD998D898D99AE1
:10037000DB9AD9980E94D8008C2F8C6060E00E9494
:10038000DF0088E260E00E94DF0080E460E00E941D
:10039000DF00C4E1D1E004E511E0899161E00E9451
:1003A000DF00C017D107C9F780E060E00E9490012C
:1003B000DF91CF911F910F9108950E946700682FE0
:1003C00070E080E090E008950E94D10008950E94BE
:1003D000FB0008950F93CF93DF93EC01842F602FE0
:1003E0000E949001CE010E94FB00DF91CF910F91FE
:1003F00008954F925F926F927F92AF92BF92CF9289
:10040000DF92EF92FF922B013C01822F6E2D76013D
:1004100065010E949001C201B6010E942A01FF906D
:10042000EF90DF90CF90BF90AF907F906F905F90F4
:100430004F90089581E060E00E94DF0082E060E07C
:100440000E94DF00089580E00E94A20108950F93AA
:100450001F93CF93DF930F92CDB7DEB71982CE01F2
:1004600001960E9476068823E9F080E061E00E9410
:100470009001898190E061E070E00E942A01898109
:10048000882399F4E4E3F2E0CF0109961192E8178A
:10049000F907E1F704E312E080E0B8010E94880662
:1004A000C80105C084E591E002C084E591E00F90A9
:1004B000DF91CF911F910F910895CF93DF939C010E
:1004C000C8E4D2E080E090E0A22FB32FFD010190BC
:1004D0000020E9F73197EA1BFB0B8E179F0730F4DA
:1004E000F901E80FF91F4081488301C01882019685
:1004F00021968930910541F785E591E00E94E60457
:1005000088E492E00E94AE06982FEFECF7E0319776
:10051000F1F700C0000081E0913009F080E0DF9148
:10052000CF910895E8E4F2E0CF01099621E021930C
:10053000E817F907E1F78AE591E00E94E60488E40C
:1005400092E00E94AE06982FEFECF7E03197F1F7BA
:1005500000C0000081E0913009F080E008950F9321
:100560001F93CF93DF930F92CDB7DEB71982CE01E1
:1005700001960E9476068823F1F089818530E9F49E
:10058000E4E3F2E08F01075F1F4F1192E017F107DC
:10059000E1F785E064E372E00E948806809134020E
:1005A000813069F4E5E3F2E08191813051F4E017A4
:1005B000F107D1F707C080E005C080E003C080E00C
:1005C00001C080E00F90DF91CF911F910F910895AE
:1005D000AF92EF92822FE8E4F2E0AF01475F5F4F06
:1005E0001192E417F507E1F7605D609348023AE085
:1005F000632F0E942C0D905D90934A020E942C0D57
:10060000905D909349028E2D0E942C0D905D9093E9
:100610004D020E942C0D905D90934C020E942C0D77
:10062000905D90934B028A2D0E942C0D905D9093CB
:100630004F020E942C0D905D90934E0285E591E053
:100640000E94E60488E492E00E94AE06982FEFEC48
:10065000F7E03197F1F700C0000081E0913009F038
:1006600080E0EF90AF90089583E390E00E94E60C65
:100670000895FC0111820E94FA0C08950E94110C49
:1006800008950E945D0C08950E9404070895DA0100
:10069000C9010197A109B109815C9D4F605DFC0111
:1006A00060830895CF93DF931092470280E061E06A
:1006B0000E949001CFE3D2E0CE010E94FB00CE0168
:1006C0000E94FA0CDF91CF9108958FE084BB85BB27
:1006D00082E090E00E945F0D80933D0290933E0285
:1006E0000E94050C80913D0290913E020E94C3073A
:1006F00080913D0290913E020E94CB0781E680935B
:10070000480282E68093490283E680934A0284E6A7
:1007100080934B0285E680934C0286E680934D02DF
:1007200087E680934E0288E680934F0289E68093A5
:100730005002E4E3F2E0CF0109961192E817F907BD
:10074000E1F780913D0290913E020E946908F9CF45
:100750001F920F920FB60F920BB60F9211242F9388
:100760003F934F935F936F937F938F939F93AF9339
:10077000BF93EF93FF9383E882BF80913D029091F6
:100780003E020E94920CFF91EF91BF91AF919F9119
:100790008F917F916F915F914F913F912F910F902A
:1007A0000BBE0F900FBE0F901F9018951F920F92C7
:1007B0000FB60F920BB60F9211242F933F934F93C6
:1007C0005F936F937F938F939F93AF93BF93EF93B9
:1007D000FF9360919C0080913D0290913E020E94A7
:1007E0000C0DFF91EF91BF91AF919F918F917F91F0
:1007F0006F915F914F913F912F910F900BBE0F9092
:100800000FBE0F901F901895AE988F710E94000C2C
:100810008FEF0E94000CAE9A0895FF920F931F93E2
:10082000CF93DF93062FF72E142FAE988F710E946F
:10083000000C112351F0C02FDF2D00E08FEF0E943C
:10084000000C89930F5F0117C9F7AE9ADF91CF9122
:100850001F910F91FF900895CF93C62FAE988F717F
:1008600080620E94000C8C2F0E94000CAE9ACF91E7
:100870000895FF920F931F93CF93DF93062FF72EC8
:10088000142FAE988F7180620E94000C112349F0E2
:10089000C02FDF2D00E089910E94000C0F5F01172F
:1008A000D1F7AE9ADF91CF911F910F91FF900895EC
:1008B00020E030E00496DB01A20FB31FFC01E21B35
:1008C000F30B40814C932F5F3F4F2530310599F753
:1008D0000895CF93DF9300D000D00F92CDB7DEB74D
:1008E0008823B1F4A9EDB1E0FB0185E001900D9200
:1008F0008150E1F7CB01BE016F5F7F4F0E9458042A
:100900008AE0BE016F5F7F4F45E00E94390456C008
:100910008130B1F4AEEDB1E0FB0185E001900D92C4
:100920008150E1F7CB01BE016F5F7F4F0E945804F9
:100930008BE0BE016F5F7F4F45E00E9439043EC0EF
:10094000823071F4A3EEB1E0FB0185E001900D92DD
:100950008150E1F78CE0FB0164810E942C042EC0E1
:10096000833071F4A8EEB1E0FB0185E001900D92B7
:100970008150E1F78DE0FB0164810E942C041EC0D0
:10098000843071F4ADEEB1E0FB0185E001900D9291
:100990008150E1F78EE0FB0164810E942C040EC0BF
:1009A000853061F4A2EFB1E0FB0101900D9281501E
:1009B000E1F78FE0FB0164810E942C040F900F90FF
:1009C0000F900F900F90DF91CF910895CF93DF9309
:1009D00000D000D00F92CDB7DEB7A7EFB1E0E82F7F
:1009E000F92F25E001900D922150E1F7BE016F5FD4
:1009F0007F4F0E9458048AE0BE016F5F7F4F45E041
:100A00000E94390480E1BE016F5F7F4F45E00E9484
:100A100039040F900F900F900F900F90DF91CF91AE
:100A20000895AE9882EE0E94000CAE9A0895AE989A
:100A300081EE0E94000CAE9A089580E069ED71E0AD
:100A40000E94690480E00E940404682F616080E0D5
:100A50000E942C0480E00E940404682F626080E001
:100A60000E942C0487E060E70E942C040E9411057C
:100A70000E941705AF9A82E38A95F1F70895AF981F
:100A800080E00E940404682F6E7F80E00E942C04A6
:100A900080E00E940404682F626080E00E942C04C1
:100AA00087E060E70E942C040E94170582E38A9584
:100AB000F1F70895AE988FEF0E94000CAE9A08955A
:100AC000EF92FF920F931F93CF93DF93CDB7DEB7D3
:100AD000C456D0400FB6F894DEBF0FBECDBF7C0128
:100AE0008FE591E0F70109950E945A0500D000D0EA
:100AF00000D0EDB7FEB731968E010F5F1F4FADB737
:100B0000BEB712961C930E93119726E631E03383FD
:100B10002283848315820E948E0E8DB79EB706961F
:100B20000FB6F8949EBF0FBE8DBFC801F70109959F
:100B300080E00E94040400D000D000D0EDB7FEB7E2
:100B40003196ADB7BEB712961C930E93119725E759
:100B500031E033832283848315820E948E0E8DB709
:100B60009EB706960FB6F8949EBF0FBE8DBFC80104
:100B7000F701099585E00E94040400D000D000D060
:100B8000EDB7FEB73196ADB7BEB712961C930E9374
:100B9000119724E831E033832283848315820E94F5
:100BA0008E0E8DB79EB706960FB6F8949EBF0FBEF9
:100BB0008DBFC801F701099586E00E94040400D0AA
:100BC00000D000D0EDB7FEB73196ADB7BEB71296E4
:100BD0001C930E93119722E931E03383228384839F
:100BE00015820E948E0E8DB79EB706960FB6F894AA
:100BF0009EBF0FBE8DBFC801F701099581E00E941D
:100C0000040400D000D000D0EDB7FEB73196ADB7E8
:100C1000BEB712961C930E93119723EA31E03383EB
:100C20002283848315820E948E0E8DB79EB706960E
:100C30000FB6F8949EBF0FBE8DBFC801F70109958E
:100C400082E00E94040400D000D000D0EDB7FEB7CF
:100C50003196ADB7BEB712961C930E93119721EB48
:100C600031E033832283848315820E948E0E8DB7F8
:100C70009EB706960FB6F8949EBF0FBE8DBFC801F3
:100C8000F701099588E00E94040400D000D000D04C
:100C9000EDB7FEB73196ADB7BEB712961C930E9363
:100CA000119723EC31E033832283848315820E94E1
:100CB0008E0E8DB79EB706960FB6F8949EBF0FBEE8
:100CC0008DBFC801F701099586ED91E0F7010995FF
:100CD000CC59DF4F0FB6F894DEBF0FBECDBFDF910A
:100CE000CF911F910F91FF90EF900895CF93DF93D5
:100CF000EC010E945A05982F907486FF05C020973A
:100D000019F0869587708883892FDF91CF91089598
:100D10000F931F93CF93DF93062F172FAE9881E683
:100D20000E94000CC02FD12F10E08FEF0E94000C0A
:100D300089931F5F1930C9F7AE9A87E060E40E947B
:100D40002C040E945A0585FF04C087E060E20E94DF
:100D50002C04DF91CF911F910F9108950F931F9352
:100D6000CF93DF93082F192F0E943F05AE9880EA9A
:100D70000E94000CC02FD12F19E089910E94000C15
:100D80001150D9F7AE9AAF9A85E08A95F1F7AF98EE
:100D900083E08A95F1F700000E945A058073C1F341
:100DA0000E945A05C82F85E06CE40E942C0480E064
:100DB0000E940404682F6D7F80E00E942C040E9432
:100DC0001D0581E0C5FF80E0DF91CF911F910F915C
:100DD000089586E00E940404682F666086E00E9401
:100DE0002C04089586E00E940404682F677D86E045
:100DF0000E942C04089580E00E940404682F6C6017
:100E000080E00E942C040895A69AA79A0E94F50BF0
:100E1000AF98AE9A81EE94E00197F1F700C0000020
:100E20000E94E9060E94F2060E94FB0684E067E445
:100E30000E942C048CE160E00E942C0485E06CE4AC
:100E40000E942C0481E169E00E942C0482E169E0A7
:100E50000E942C0483E169E00E942C0484E169E093
:100E60000E942C0485E169E00E942C0486E169E07F
:100E70000E942C0482E060E00E942C0482E00E9428
:100E80000404682F616082E00E942C0482E00E94CA
:100E90000404682F626082E00E942C0482E00E94B9
:100EA0000404682F646082E00E942C0482E00E94A7
:100EB0000404682F686082E00E942C0482E00E9493
:100EC0000404682F606182E00E942C0482E00E948A
:100ED0000404682F606282E00E942C0481E00E947A
:100EE0000404682F616081E00E942C0481E00E946C
:100EF0000404682F626081E00E942C0481E00E945B
:100F00000404682F646081E00E942C0481E00E9448
:100F10000404682F686081E00E942C0481E00E9434
:100F20000404682F606181E00E942C0481E00E942B
:100F30000404682F606281E00E942C0480E069ED67
:100F400071E00E94690481E06EED71E00E94690425
:100F500082E063EE71E00E94690483E068EE71E074
:100F60000E94690484E06DEE71E00E94690485E0EE
:100F700062EF71E00E94690487EF91E00E94E6044D
:100F80000E941D050895FC018EE080838183828389
:100F90001482138208951F93CF93DF93EC0111E025
:100FA0001EA7C99648EB5BE060E070E020E00E947D
:100FB0003E0381E090E0A0E0B0E08BAB9CABADAB3A
:100FC000BEAB0E9423020E94E4010E9444030E94DF
:100FD00034030E941A028CEF91E00E94E70118830B
:100FE0001C821B82DF91CF911F910895CF93DF93D5
:100FF000EC0188818430E1F0853028F4813051F0B3
:10100000833049F510C08630E9F08630B0F0873083
:1010100011F51DC08EE088831C821B82CE01C9960B
:101020000E94410318C08EE088831C821B8213C07B
:101030008EE088831C821B820EC08EE088831C8217
:101040001B8209C08EE088831C821B8204C08EE054
:1010500088831C821B828981883019F0893071F461
:1010600007C08EE0898381E090E09C838B8306C07B
:101070008EE0898381E090E09C838B838A818B3032
:1010800089F08C3018F48A3009F505C08C3089F06D
:101090008D30E1F415C08EE08A8382E090E09C837D
:1010A0008B8314C08EE08A8382E090E09C838B83E4
:1010B0000DC08EE08A8382E090E09C838B8306C023
:1010C0008EE08A8382E090E09C838B83DF91CF91D6
:1010D00008952F923F924F925F926F927F928F92DC
:1010E0009F92AF92BF92CF92DF92EF92FF920F93B7
:1010F0001F93CF93DF93EC011C821B8280E090E072
:1011000088249924689481F81DE0662463940F2E46
:10111000F9E03F2EF02D4424552443940EE0222480
:10112000689423F80F2EF7E07F2EF02DBB246894EF
:10113000B2F80F2EF5E0AF2EF02D8C0F9D1FFC01A5
:101140008081883009F4A8C0893090F4843009F493
:1011500063C0853030F48130F1F0833009F0D4C1C0
:1011600050C0863009F478C0873009F0CDC190C0F6
:101170008B3009F4E8C08C3038F4893009F4B5C0FC
:101180008A3009F0C1C1D7C08C3009F4E4C08D3079
:1011900009F0BAC1F5C089AD882309F4B5C18EE064
:1011A00088831C821B82CE01C9960E9441030E9443
:1011B0001A0288E092E00E94E70183E088831C82A3
:1011C0001B820E94DD01DC01CB018D839E83AF83F6
:1011D000B8871D8688E0898381E090E09C838B83BB
:1011E0000E941A0289E192E00E94E7011AA61BA65A
:1011F0001CA61DA68AE08A8382E090E09C838B83F4
:10120000A4C108831C821B820E9427029D8B8C8BA9
:10121000B8821C821B829FC1EC89FD898081882352
:1012200041F40E9427029D8B8C8BB8821C821B820A
:1012300092C108831C821B82FF8BEE8B0E941A02D4
:101240008E899F890E94E7018E899F890E943903B8
:1012500078821C821B827FC1888D882341F40E9482
:101260009202888FF6E0F8831C821B8274C1088387
:101270001C821B820E941A028E899F890E94E701AC
:101280008E899F890E94390378821C821B8263C1E8
:101290001C821B82A88238C18D819E81AF81B88556
:1012A0000097A105B105A1F009835C824B82898773
:1012B0009A87AB87BC870E94DD01DC01CB018D835F
:1012C0009E83AF83B8876D8639825C824B8243C12F
:1012D0000E94DD01DC01CB018D839E83AF83B88743
:1012E0001D8629825C824B8236C18D819E81AF81B1
:1012F000B8850097A105B10589F409835C824B820A
:101300006E860E94DD01DC01CB018D839E83AF835D
:10131000B8871D8629825C824B821DC10E94DD0137
:10132000DC01CB018D839E83AF83B8876D863982C4
:101330005C824B8210C19C828B8219861A861B8626
:101340001C861A83E1C09C828B8219861A861B86B2
:101350001C861A83D9C08EE08A8302E010E01C83C9
:101360000B830E941A0289E192E00E94E7011AA60B
:101370001BA61CA61DA68AE08A831C830B83E5C0DE
:101380008AA59BA5ACA5BDA588309105A105B10591
:101390000CF084C0C984DA84EB84FC842AE0C21691
:1013A000D104E104F104D1F52E852223B9F12EE018
:1013B0002A8388249924689481F89C828B821986D8
:1013C0001A861B861C869C01AD01220F331F441F09
:1013D000551F60E070E0CB01EE24FF248701AA24B2
:1013E000BB246501A3940E94F9018AA59BA5ACA525
:1013F000BDA59C01AD012F5F3F4F4F4F5F4F2AA707
:101400003BA74CA75DA769857A858B859C850E9443
:1014100047038BE08A839C828B8297C0EAE0CE16DA
:10142000D104E104F104D4F51C141D041E041F04AE
:10143000ACF52E85222391F12EE02A83882499246D
:10144000689481F89C828B829C01AD01220F331F2E
:10145000441F551FC701B601EE24FF248701AA24AB
:10146000BB246501A3940E94F9018AA59BA5ACA5A4
:10147000BDA59C01AD012F5F3F4F4F4F5F4F2AA786
:101480003BA74CA75DA769857A858B859C850E94C3
:1014900047038BE08A839C828B8257C089859A851B
:1014A000AB85BC858C309105A105B105C1F42E85B5
:1014B0002223A9F08EE08A8302E010E01C830B83D4
:1014C0000E941A0289E192E00E94E7011AA61BA677
:1014D0001CA61DA68AE08A831C830B8336C08B3032
:1014E0009105A105B10581F48E85882369F08EE010
:1014F0008A8302E010E01C830B830E9452038CE07D
:101500008A831C830B8321C08B819C8101969C83E1
:101510008B838330910508F410CE1E861B8A19A296
:101520001FAA18AEDF91CF911F910F91FF90EF90FE
:10153000DF90CF90BF90AF909F908F907F906F90F3
:101540005F904F903F902F9008958B819C810196E2
:101550009C838B83E2CF8B819C8101969C838B83C0
:10156000ECCDC996681779073CF0019668177907A2
:1015700018F481E0FB0180830895FC01663009F4D2
:1015800050C0673078F4623089F1633030F46623FC
:10159000F9F0613009F075C022C06430B1F16530F6
:1015A000D0F52CC06A3009F454C06B3038F4683080
:1015B00009F443C0693008F046C039C06C3009F402
:1015C00054C06C3008F44BC06D3009F05AC053C0A1
:1015D00081E090819E3008F455C080E0089581E05C
:1015E0009081913009F44EC080E00895908192502E
:1015F00081E09C3008F446C080E0089581E090814D
:10160000933009F43FC080E0089581E090819430E8
:10161000C9F180E0089581E09081953099F180E0F2
:10162000089581E09081963069F180E0089581E02D
:101630009081973039F180E0089581E09181983070
:1016400009F180E0089581E091819930D9F080E03E
:10165000089581E092819A30A9F080E0089581E0B8
:1016600092819B3079F080E0089581E092819C30F6
:1016700049F080E0089581E092819D3019F080E08A
:10168000089580E0089521E0FC0126870895FC017B
:1016900065817681878190850895FC014583568315
:1016A000678370870895FC016185728583859485C1
:1016B0000895FC0141875287638774870895FC0170
:1016C00085850895FC016587089521E0FC01238B41
:1016D0000895FC01878590890895FC01708B6787C8
:1016E0000895FC01818992890895FC01728B618BB8
:1016F000089521E0FC0121A30895FC0184899589C6
:101700000895FC01758B648B0895FC018689978987
:101710000895FC01778B668B0895FC01808D0895F8
:10172000FC01608F0895FC01618D728D838D948D15
:101730000895FC01418F528F638F748F0895FC01CF
:10174000658D768D878D90A10895FC01458F568F0C
:10175000678F70A30895FC0162A173A184A195A174
:101760000895FC0142A353A364A375A30895FC014B
:1017700066A177A180A591A50895FC0146A357A372
:1017800060A771A70895FC0162A573A584A595A51E
:101790000895FC0142A753A764A775A7089521E007
:1017A000FC0127AB089521E0FC0120AF0895FC0166
:1017B00086A50895FC0166A70895FC0167A570A998
:1017C00081A992A90895FC0147A750AB61AB72AB08
:1017D0000895FC0163A974A985A996A90895FC013F
:1017E00043AB54AB65AB76AB089587B3807F87BBC3
:1017F00087B3876087BB81E58DB981E08EB9089595
:101800008FB9779BFECF8FB1089583E083BF83E8C4
:1018100082BF81E087BF109231021092300278942B
:101820000895CF92DF92EF92FF92CF93DF93EC0176
:101830006A017B0140913002509131021416150665
:10184000E4F4E1E5F2E0DF01169620E030E070E03C
:1018500061E0808191818C179D0731F4138212829F
:10186000D582C4826C93762F2F5F3F4F37961796A1
:101870002417350774F37723C9F4FA01EE0FFF1F1D
:10188000EE0FFF1FEE0FFF1FE41BF50BEF5AFD4F8E
:10189000D183C08313821282D582C48281E0868381
:1018A0004F5F5F4F5093310240933002DF91CF91F1
:1018B000FF90EF90DF90CF900895DC0160913002AF
:1018C000709131021616170664F5809151029091BD
:1018D00052028A179B07E1F40AC0295F3F4FF901C2
:1018E0003797808191818A179B07B1F402C040E04D
:1018F00050E0FA01EE0FFF1FEE0FFF1FEE0FFF1F6C
:10190000E41BF50BEF5AFD4F1382128216820895E5
:1019100028E532E040E050E04F5F5F4F4617570741
:10192000E1F60895CF92DF92EF92FF920F931F930B
:10193000CF93DF936C0180913002909131021816A1
:10194000190694F5C7E5D2E08E0106501040EE244A
:10195000FF2488818823D9F0D80112968D919C911B
:101960001397019613969C938E93129714962D912C
:101970003C9115978217930751F413961C921E926F
:10198000129718826D917C91C6010E94B10A089449
:10199000E11CF11C2796095F1F4F80913002909146
:1019A0003102E816F906ACF2DF91CF911F910F9149
:1019B000FF90EF90DF90CF90089581E592E00E9434
:1019C000F50D109231021092300208959093980014
:1019D0008093990088E980939A0086E080939D0027
:1019E00078940895EBE9F0E0908195FFFDCF809326
:1019F0009C000895CF93DF93EC018881882331F018
:101A000021960E94F20C89918823D9F780E00E94E8
:101A1000F20CDF91CF910895662371F0809132022C
:101A200090913302FC01E956FD4F6083019690933B
:101A3000330280933202089567E972E0E091320246
:101A4000F0913302E60FF71F10820E94810B109273
:101A50003302109232020895991B79E004C0991F55
:101A6000961708F0961B881F7A95C9F780950895F8
:101A700097FB092E07260AD077FD04D00CD006D09C
:101A800000201AF4709561957F4F0895F6F79095B0
:101A900081959F4F0895AA1BBB1B51E107C0AA1F48
:101AA000BB1FA617B70710F0A61BB70B881F991FFF
:101AB0005A95A9F780959095BC01CD010895CF93D3
:101AC000DF93AC018230910510F442E050E0E091E8
:101AD000BB02F091BC0220E030E0A0E0B0E024C006
:101AE0008081918184179507D0F08417950771F450
:101AF00082819381109729F013969C938E9312976D
:101B00002CC09093BC028093BB0227C021153105E5
:101B100019F08217930718F49C01BD01EF0192811F
:101B20008381DF01E92FF82F3097D1F62115310598
:101B3000F9F0C901841B950B8430910580F48A81EA
:101B40009B816115710521F0FB019383828304C0A1
:101B50009093BC028093BB02FE01329642C0FE010C
:101B6000E80FF91F4193519302979983888339C0F5
:101B70008091B9029091BA02009741F480912B02B2
:101B800090912C029093BA028093B902209129027D
:101B900030912A022115310541F42DB73EB78091CD
:101BA0002D0290912E02281B390BE091B902F09181
:101BB000BA02E217F30798F42E1B3F0B24173507E0
:101BC00070F0CA0102962817390748F08E0F9F1F40
:101BD0009093BA028093B9024193519302C0E0E01E
:101BE000F0E0CF01DF91CF9108950F931F93CF9332
:101BF000DF939C01009709F48CC0DC0112971396C7
:101C00001C921E9212976091BB027091BC026115EA
:101C1000710589F48D919C911197820F931F2091EA
:101C2000B9023091BA022817390769F5B093BA02A0
:101C3000A093B9026EC0FB0140E050E001C0FC017E
:101C4000EA17FB0730F482819381AF010097B9F75F
:101C50001FC0E9012297FB83EA8308811981C9012A
:101C6000800F911F8E179F0759F480819181800FFB
:101C7000911F029699838883828193819B838A83B3
:101C80004115510529F4B093BC02A093BB0241C099
:101C9000FA01B383A283C191D191EC0FFD1FAE175E
:101CA000BF0781F4F901929182918C0F9D1F0296DA
:101CB000DA0111969C938E938281938113969C9363
:101CC0008E931297E0E0F0E002C0FB01BC01DB0163
:101CD00012968D919C9113970097B9F7CB010296BC
:101CE0002D913C911197820F931F2091B902309151
:101CF000BA022817390769F4309729F41092BC0208
:101D00001092BB0202C0138212827093BA026093D7
:101D1000B902DF91CF911F910F9108950F931F93F7
:101D2000CF93DF93CDB7DEB72E970FB6F894DEBF13
:101D30000FBECDBF0D891E8986E08C831A8309836F
:101D40008FEF9FE79E838D83AE01475E5F4FCE018D
:101D500001966F89788D0E94BD0EEF81F885E00FA6
:101D6000F11F10822E960FB6F894DEBF0FBECDBFC6
:101D7000DF91CF911F910F9108952F923F924F9233
:101D80005F926F927F928F929F92AF92BF92CF920B
:101D9000DF92EF92FF920F931F93CF93DF93CDB714
:101DA000DEB72D970FB6F894DEBF0FBECDBF3C0156
:101DB0007D876C875A01FC0117821682838181FF1F
:101DC000C8C12E010894411C511CF3019381EC857C
:101DD000FD8593FD859193FF8191FD87EC87882395
:101DE00009F4B3C1853241F493FD859193FF81914C
:101DF000FD87EC87853229F490E0B3010E94DA1068
:101E0000E4CFFF24EE2410E01032B0F48B3269F0FE
:101E10008C3228F4803251F0833271F40BC08D3251
:101E200039F0803349F411602CC01260146029C06D
:101E3000186027C0106125C017FD2EC0282F205321
:101E40002A3098F416FF08C08F2D880FF82EFF0C4B
:101E5000FF0CF80EF20E15C08E2D880FE82EEE0C3A
:101E6000EE0CE80EE20E10620CC08E3221F416FD6C
:101E70006CC1106406C08C3611F4106802C088363C
:101E800059F4EC85FD8593FD859193FF8191FD8744
:101E9000EC87882309F0B8CF982F9554933018F029
:101EA0009052933038F424E030E0A20EB31E3FE3AA
:101EB00039830FC0833631F0833781F0833509F0E1
:101EC0005AC022C0F5018081898322E030E0A20E51
:101ED000B31E21E0C22ED12C420114C092E0292E63
:101EE000312C2A0C3B1CF5018080918016FF03C029
:101EF0006F2D70E002C06FEF7FEFC4010E94CF1022
:101F00006C0151011F7715C082E0282E312C2A0C5C
:101F10003B1CF5018080918016FF03C06F2D70E09F
:101F200002C06FEF7FEFC4010E94C4106C01106803
:101F3000510113FD1CC006C080E290E0B3010E9475
:101F4000DA10EA948E2D90E0C816D906A8F30FC0D7
:101F5000F40117FD859117FF81914F0190E0B301C6
:101F60000E94DA10E110EA940894C108D108C11463
:101F7000D10471F7E7C0843611F0893651F5F501C7
:101F800017FF07C080819181A281B38124E030E0F6
:101F900008C080819181AA2797FDA095BA2F22E0E1
:101FA00030E0A20EB31E012F0F76B7FF08C0B09528
:101FB000A095909581959F4FAF4FBF4F0068BC0192
:101FC000CD01A2012AE030E00E940611D82ED418DB
:101FD0003FC0853721F41F7E2AE030E020C0197F02
:101FE0008F36A9F0803720F4883509F0AEC00BC0D9
:101FF000803721F0883709F0A8C001C0106114FFB4
:1020000009C0146007C014FF08C0166006C028E0AD
:1020100030E005C020E130E002C020E132E0F5010F
:1020200017FF07C0608171818281938144E050E095
:1020300006C06081718180E090E042E050E0A40E33
:10204000B51EA2010E940611D82ED418012F0F77B9
:1020500006FF09C00E7FDF1430F404FF06C002FD46
:1020600004C00F7E02C01D2D01C01F2D802F90E0E7
:1020700004FF0CC0FE01ED0DF11D2081203311F491
:10208000097E09C002FF06C01E5F05C086789070F9
:10209000009709F01F5F802E992403FD12C000FFF6
:1020A0000DC0FD2C1E1550F4FE0CF11A1E2D06C09D
:1020B00080E290E0B3010E94DA101F5F1E15C0F3AA
:1020C00004C01E1510F4E11A01C0EE2484FE0FC0F6
:1020D00080E390E0B3010E94DA1082FE1FC081FE0F
:1020E00003C088E590E010C088E790E00DC0C4010F
:1020F00086789070009791F081FC02C080E201C068
:102100008BE207FD8DE290E0B3010E94DA1006C079
:1021100080E390E0B3010E94DA10FA94DF14C0F378
:10212000DA94F201ED0DF11D808190E0B3010E947F
:10213000DA10DD20A9F706C080E290E0B3010E942A
:10214000DA10EA94EE20C1F740CEF3018681978140
:1021500002C08FEF9FEF2D960FB6F894DEBF0FBE33
:10216000CDBFDF91CF911F910F91FF90EF90DF9046
:10217000CF90BF90AF909F908F907F906F905F9027
:102180004F903F902F900895FC0105906150704052
:102190000110D8F7809590958E0F9F1F0895FC0130
:1021A0006150704001900110D8F7809590958E0F86
:1021B0009F1F08950F931F93CF93DF938C01EB0123
:1021C0008B8181FF1BC082FF0DC02E813F818C81DE
:1021D0009D812817390764F4E881F9810193F98317
:1021E000E88306C0E885F985802F0995009731F4CA
:1021F0008E819F8101969F838E8302C00FEF1FEF18
:10220000C801DF91CF911F910F910895FA01AA277C
:10221000283051F1203181F1E8946F936E7F6E5F29
:102220007F4F8F4F9F4FAF4FB1E03ED0B4E03CD0D7
:10223000670F781F891F9A1FA11D680F791F8A1FBA
:10224000911DA11D6A0F711D811D911DA11D20D021
:1022500009F468943F912AE0269F11243019305DDB
:102260003193DEF6CF010895462F4770405D4193CC
:10227000B3E00FD0C9F7F6CF462F4F70405D4A3319
:1022800018F0495D31FD4052419302D0A9F7EACFE1
:10229000B4E0A6959795879577956795BA95C9F710
:1022A00000976105710508959B01AC010A2E069403
:1022B0005795479537952795BA95C9F7620F731FBC
:0C22C000841F951FA01D0895F894FFCF07
:1022CC000708090D0405060E0102030F0B0A0C107A
:1022DC000E0D0B070C12120C000000000C1204085F
:1022EC001E0000000A15110A040000000305090B6A
:1022FC000B1818001F0E0E0404040404010105053C
:10230C00151515000E11111F1F1F1F0000000000D6
:10231C000000000000E8E8F0F0E2C1C2C2C2C669E9
:10232C006E666F0D0A005354415455533A202530B4
:10233C0032580D0A00434F4E4649473A2025303259
:10234C00580D0A0052465F43483A20253032580D4A
:10235C000A0052465F53455455503A2025303258A6
:10236C000D0A00454E5F41413A20253032580D0A86
:10237C0000454E5F5258414444523A202530325861
:10238C000D0A004F4253455256455F54583A20258A
:10239C003032580D0A000D0A00E8E8F0F0E2C1C234
:1023AC00C2C2C2C1C2C2C2C3C1C2C2C2C4C1C2C201
:1023BC00C2C5C1C2C2C2C6E8E8F0F0E25761697496
:1023CC0074696E672E2E2E0057616974696E6720D2
:1023DC00666F722064617461005F205F205F205F14
:1023EC00205F205F205F205F000000BD0220000006
:00000001FF
