:100000000C9446000C9465000C9465000C946500FB
:100010000C9465000C9465000C9465000C946500CC
:100020000C9465000C9465000C9465000C946500BC
:100030000C9465000C9465000C9465000C946500AC
:100040000C94FD020C9465000C9465000C94650002
:100050000C9465000C9465000C9465000C9465008C
:100060000C9465000C9465000C9465000C9465007C
:100070000C9465000C9465000C942B030C946500A3
:100080000C9465000C9465000C94650011241FBE4F
:10009000CFEFD0E1DEBFCDBF12E0A0E0B1E0E2EFF4
:1000A000FCE100E00BBF02C007900D92AC30B1073D
:1000B000D9F712E0ACE0B2E001C01D92A039B1075F
:1000C000E1F70E94BA020C94770E0C9400008FECBA
:1000D00097E00197F1F700C000000895282F2295BE
:1000E0002F708F70662311F4D89801C0D89AD99ACE
:1000F0009BB3220F220F937C922B9BBBD998D99A4A
:100100009BB3880F880F937C892B8BBBD9980E9457
:10011000670008950F931F93CF93DF938C01FC0129
:100120008081882309F18532A9F4E8012196F8013C
:1001300081818053883020F461E00E946E000EC0FF
:1001400085E261E00E946E00F801818161E00E9419
:100150006E0004C061E00E946E00E8018E010F5F36
:100160001F4F89818823F9F6DF91CF911F910F915D
:100170000895EF92FF920F931F93CF93DF9300D0D8
:1001800000D00F92CDB7DEB77B01FE01319625E09E
:10019000DF011D922A95E9F7009761F0FE0136967E
:1001A0002AE030E0B9010E944B0A8293862F972FF4
:1001B0000097C1F7BFEFEB16BFEFFB0669F429818B
:1001C000222379F4FE01329600E010E00F5F1F4F0A
:1001D00021912223D9F307C005E010E00E191F0971
:1001E00002C000E010E0992324F48DE261E00E9457
:1001F0006E0005301105BCF4E1E0F0E0EC0FFD1FEE
:100200000E0F1F1F0F2EF6E0EF2EFF24F02DEC0E29
:10021000FD1ED8018D918D01805D61E00E946E0010
:100220000E151F05B1F70F900F900F900F900F90C4
:10023000DF91CF911F910F91FF90EF90089584313E
:1002400078F4623031F0633031F0613029F4806449
:1002500003C08C5E01C08C5A806860E00E946E0012
:1002600008950F931F93CF93DF93C82F8BE49DE1E5
:100270000197F1F700C000008AB38C638ABBD19A62
:10028000D09A8BB3837C8BBBD998D898D99ADB9AB8
:10029000D9980E9467008C2F8C6060E00E946E00ED
:1002A00088E260E00E946E0080E460E00E946E00E0
:1002B000C0E0D1E000E411E0899161E00E946E00AD
:1002C000C017D107C9F780E060E00E941F01DF91ED
:1002D000CF911F910F9108950E948A0008950F9366
:1002E000CF93DF93EC01842F602F0E941F01CE017A
:1002F0000E948A00DF91CF910F9108954F925F92F3
:100300006F927F92AF92BF92CF92DF92EF92FF9265
:100310002B013C01822F6E2D760165010E941F0189
:10032000C201B6010E94B900FF90EF90DF90CF901C
:10033000BF90AF907F906F905F904F90089581E055
:1003400060E00E946E0082E060E00E946E0008950E
:1003500080E00E94310108950F931F93CF93DF93A4
:100360000F92CDB7DEB71982CE0101960E94CB0560
:100370008823E9F080E061E00E941F01898190E01C
:1003800061E070E00E94B9008981882399F4E0E17E
:10039000F2E0CF0109961192E817F907E1F700E1C1
:1003A00012E080E0B8010E94DD05C80105C080E4CC
:1003B00091E002C080E491E00F90DF91CF911F9116
:1003C0000F910895CF93DF939C01CBE1D2E080E0C1
:1003D00090E0A22FB32FFD0101900020E9F73197A3
:1003E000EA1BFB0B8E179F0730F4F901E80FF91F8A
:1003F0004081488301C01882019621968930910579
:1004000041F781E491E00E943B048BE192E00E947D
:10041000030691E0813009F090E0892FDF91CF91C0
:100420000895EBE1F2E0CF01099621E02193E8176E
:10043000F907E1F786E491E00E943B048BE192E04A
:100440000E94030691E0813009F090E0892F089521
:100450000F931F93CF93DF930F92CDB7DEB719821F
:10046000CE0101960E94CB058823F1F08981853069
:10047000E9F4E0E1F2E08F01075F1F4F1192E0170E
:10048000F107E1F785E060E172E00E94DD0580910F
:100490001002813069F4E1E1F2E08191813051F4A0
:1004A000E017F107D1F707C080E005C080E003C086
:1004B00080E001C080E00F90DF91CF911F910F91FC
:1004C0000895AF92EF92822FEBE1F2E0AF01475F28
:1004D0005F4F1192E417F507E1F7605D60931B022F
:1004E0003AE0632F0E943F0A905D90931D020E94A4
:1004F0003F0A905D90931C028E2D0E943F0A905DF2
:10050000909320020E943F0A905D90931F020E94E8
:100510003F0A905D90931E028A2D0E943F0A905DD3
:10052000909322020E943F0A905D9093210281E401
:1005300091E00E943B048BE192E00E94030691E06F
:10054000813009F090E0892FEF90AF90089583E318
:1005500090E00E94F9090895FC0111820E940D0AA1
:1005600008950E94240908950E94700908950E9428
:10057000590608958FE084BB85BB82E090E00E941D
:10058000720A8093190290931A020E9418098091AE
:10059000190290911A020E941807809119029091F5
:1005A0001A020E941E0781E680931B0282E6809356
:1005B0001C0283E680931D0284E680931E0285E67A
:1005C00080931F0286E68093200287E680932102B3
:1005D00088E68093220289E680932302E0E1F2E03C
:1005E000CF0109961192E817F907E1F780911902F6
:1005F00090911A020E947407F9CF1F920F920FB6C2
:100600000F920BB60F9211242F933F934F935F934A
:100610006F937F938F939F93AF93BF93EF93FF93CA
:1006200083E882BF8091190290911A020E94A50965
:10063000FF91EF91BF91AF919F918F917F916F91BA
:100640005F914F913F912F910F900BBE0F900FBE76
:100650000F901F9018951F920F920FB60F920BB626
:100660000F9211242F933F934F935F936F937F9338
:100670008F939F93AF93BF93EF93FF9360919C00F1
:100680008091190290911A020E941F0AFF91EF9126
:10069000BF91AF919F918F917F916F915F914F919A
:1006A0003F912F910F900BBE0F900FBE0F901F9098
:1006B0001895AE988F710E9413098FEF0E9413094D
:1006C000AE9A0895FF920F931F93CF93DF93062F57
:1006D000F72E142FAE988F710E941309112351F039
:1006E000C02FDF2D00E08FEF0E94130989930F5F69
:1006F0000117C9F7AE9ADF91CF911F910F91FF902B
:100700000895CF93C62FAE988F7180620E9413090F
:100710008C2F0E941309AE9ACF910895FF920F93E8
:100720001F93CF93DF93062FF72E142FAE988F7160
:1007300080620E941309112349F0C02FDF2D00E0D1
:1007400089910E9413090F5F0117D1F7AE9ADF91CB
:10075000CF911F910F91FF90089520E030E0049613
:10076000DB01A20FB31FFC01E21BF30B40814C9392
:100770002F5F3F4F2530310599F70895CF93DF93D1
:1007800000D000D00F92CDB7DEB78823B1F4A5EC2E
:10079000B1E0FB0185E001900D928150E1F7CB01C2
:1007A000BE016F5F7F4F0E94AD038AE0BE016F5FA5
:1007B0007F4F45E00E948E0356C08130B1F4AAEC11
:1007C000B1E0FB0185E001900D928150E1F7CB0192
:1007D000BE016F5F7F4F0E94AD038BE0BE016F5F74
:1007E0007F4F45E00E948E033EC0823071F4AFEC33
:1007F000B1E0FB0185E001900D928150E1F78CE0C2
:10080000FB0164810E9481032EC0833071F4A4ED4A
:10081000B1E0FB0185E001900D928150E1F78DE0A0
:10082000FB0164810E9481031EC0843071F4A9ED34
:10083000B1E0FB0185E001900D928150E1F78EE07F
:10084000FB0164810E9481030EC0853061F4AEED2E
:10085000B1E0FB0101900D928150E1F78FE0FB01C7
:1008600064810E9481030F900F900F900F900F9062
:10087000DF91CF910895CF93DF9300D000D00F92F6
:10088000CDB7DEB7A3EEB1E0E82FF92F25E0019058
:100890000D922150E1F7BE016F5F7F4F0E94AD03C3
:1008A0008AE0BE016F5F7F4F45E00E948E0380E1CA
:1008B000BE016F5F7F4F45E00E948E030F900F9047
:1008C0000F900F900F90DF91CF910895AE9882EE28
:1008D0000E941309AE9A0895AE9881EE0E94130902
:1008E000AE9A089580E065EC71E00E94BE0380E05E
:1008F0000E945903682F616080E00E94810380E0BC
:100900000E945903682F626080E00E94810387E0A3
:1009100060E70E9481030E9466040E946C04AF9A03
:1009200082E38A95F1F70895AF9880E00E94590319
:10093000682F6E7F80E00E94810380E00E9459034F
:10094000682F626080E00E94810387E060E70E9478
:1009500081030E946C0482E38A95F1F70895AE98B2
:100960008FEF0E941309AE9A0895EF92FF920F93B2
:100970001F93CF93DF93CDB7DEB7C456D0400FB6E9
:10098000F894DEBF0FBECDBF7C018BE491E0F70190
:1009900009950E94AF0400D000D000D0EDB7FEB79B
:1009A00031968E010F5F1F4FADB7BEB712961C93E5
:1009B0000E93119722E531E03383228384831582DD
:1009C0000E94A10B8DB79EB706960FB6F8949EBFF6
:1009D0000FBE8DBFC801F701099580E00E94590341
:1009E00000D000D000D0EDB7FEB73196ADB7BEB79E
:1009F00012961C930E93119721E631E033832283E4
:100A0000848315820E94A10B8DB79EB706960FB600
:100A1000F8949EBF0FBE8DBFC801F701099585E010
:100A20000E94590300D000D000D0EDB7FEB7319638
:100A3000ADB7BEB712961C930E93119720E731E025
:100A400033832283848315820E94A10B8DB79EB7C6
:100A500006960FB6F8949EBF0FBE8DBFC801F70172
:100A6000099586E00E94590300D000D000D0EDB770
:100A7000FEB73196ADB7BEB712961C930E93119781
:100A80002EE731E033832283848315820E94A10BF9
:100A90008DB79EB706960FB6F8949EBF0FBE8DBF5A
:100AA000C801F701099581E00E94590300D000D0E8
:100AB00000D0EDB7FEB73196ADB7BEB712961C9316
:100AC0000E9311972FE831E03383228384831582BC
:100AD0000E94A10B8DB79EB706960FB6F8949EBFE5
:100AE0000FBE8DBFC801F701099582E00E9459032E
:100AF00000D000D000D0EDB7FEB73196ADB7BEB78D
:100B000012961C930E9311972DE931E033832283C3
:100B1000848315820E94A10B8DB79EB706960FB6EF
:100B2000F8949EBF0FBE8DBFC801F701099588E0FC
:100B30000E94590300D000D000D0EDB7FEB7319627
:100B4000ADB7BEB712961C930E9311972FEA31E002
:100B500033832283848315820E94A10B8DB79EB7B5
:100B600006960FB6F8949EBF0FBE8DBFC801F70161
:100B7000099582EC91E0F7010995CC59DF4F0FB64A
:100B8000F894DEBF0FBECDBFDF91CF911F910F91C3
:100B9000FF90EF900895CF93DF93EC010E94AF0494
:100BA000982F907486FF05C0209719F0869587705E
:100BB0008883892FDF91CF9108950F931F93CF934F
:100BC000DF93062F172FAE9881E60E941309C02FDE
:100BD000D12F10E08FEF0E94130989931F5F193006
:100BE000C9F7AE9A87E060E40E9481030E94AF04D7
:100BF00085FF04C087E060E20E948103DF91CF910E
:100C00001F910F9108950F931F93CF93DF93082F98
:100C1000192F0E949404AE9880EA0E941309C02FF5
:100C2000D12F19E089910E9413091150D9F7AE9A7A
:100C3000AF9A85E08A95F1F7AF9883E08A95F1F74E
:100C400000000E94AF048073C1F30E94AF04C82F5C
:100C500085E06CE40E94810380E00E945903682FC4
:100C60006D7F80E00E9481030E94720481E0C5FFD5
:100C700080E0DF91CF911F910F91089586E00E944F
:100C80005903682F666086E00E948103089586E01C
:100C90000E945903682F677D86E00E9481030895B2
:100CA00080E00E945903682F6C6080E00E948103FD
:100CB0000895A69AA79A0E940809AF98AE9A81EE65
:100CC00094E00197F1F700C000000E943E060E94E8
:100CD00047060E94500684E067E40E9481038CE18D
:100CE00060E00E94810385E06CE40E94810381E161
:100CF00069E00E94810382E169E00E94810383E14F
:100D000069E00E94810384E169E00E94810385E13A
:100D100069E00E94810386E169E00E94810382E02C
:100D200060E00E94810382E00E945903682F6160A5
:100D300082E00E94810382E00E945903682F626072
:100D400082E00E94810382E00E945903682F646060
:100D500082E00E94810382E00E945903682F68604C
:100D600082E00E94810382E00E945903682F606143
:100D700082E00E94810382E00E945903682F606232
:100D800082E00E94810381E00E945903682F616024
:100D900081E00E94810381E00E945903682F626014
:100DA00081E00E94810381E00E945903682F646002
:100DB00081E00E94810381E00E945903682F6860EE
:100DC00081E00E94810381E00E945903682F6061E5
:100DD00081E00E94810381E00E945903682F6062D4
:100DE00081E00E94810380E065EC71E00E94BE0317
:100DF00081E06AEC71E00E94BE0382E06FEC71E07A
:100E00000E94BE0383E064ED71E00E94BE0384E0B3
:100E100069ED71E00E94BE0385E06EED71E00E9415
:100E2000BE0383EE91E00E943B040E947204089589
:100E3000FC0187E080831282118208951F93CF9373
:100E4000DF93EC0111E01CA7C79648EB5BE060E084
:100E500070E020E00E94B10281E090E0A0E0B0E00C
:100E600089AB9AABABABBCAB0E94A8010E94B702A6
:100E70000E94A7020E949F0188EE91E00E946C01EF
:100E800018831A821982DF91CF911F910895FC0176
:100E900080818430D1F0853028F4813041F0833076
:100EA00011F50EC08530B1F08630E9F418C087E046
:100EB000808312821182CF01C7960E94B4020895E6
:100EC00087E0808312821182089587E080831282F6
:100ED0001182089587E0808312821182089587E04D
:100EE0008083128211820895CF93DF93EC011A82DE
:100EF00019828881843099F1853030F4813059F03D
:100F0000833009F073C01EC0853009F44BC08630B1
:100F100009F06CC053C08FA9882309F467C087E02B
:100F200088831A821982CE01C7960E94B4020E9459
:100F30009F0184EF91E00E946C0183E088831A8214
:100F4000198264C087E088831A8219820E94AC01EA
:100F50009B8B8A8B84E088831A82198257C0EA8926
:100F6000FB8980818823A9F087E088831A8219820F
:100F7000FD8BEC8B0E949F018C899D890E946C01E6
:100F80008C899D890E94AC0285E088831A8219822F
:100F90003DC00E94AC019B8B8A8B84E088831A82BF
:100FA000198234C087E088831A8219820E94110254
:100FB0008E8B86E088831A82198228C08E898823C6
:100FC00069F087E088831A8219820E94AC019B8BAA
:100FD0008A8B84E088831A82198218C00E941102C9
:100FE0008E8B86E088831A82198210C089819A814B
:100FF00001969A838983009709F47BCF1C86198A0E
:101000001F8E1DAA1EAADF91CF91089589819A8112
:1010100001969A838983F2CFC796681779073CF0C7
:1010200001966817790718F481E0FB018083089521
:10103000FC01633009F1643028F4613081F06230E2
:10104000A0F407C0653021F16530E0F0663061F54D
:1010500025C081E09081973040F180E0089581E0E3
:101060009081913011F180E008959081925081E05B
:101070009530D8F080E0089581E090819330A9F018
:1010800080E0089581E09081943079F080E00895C7
:1010900081E09081953049F080E0089581E0908171
:1010A000963019F080E0089580E0089521E0FC0179
:1010B00024870895FC016381748185819681089558
:1010C000FC0143835483658376830895FC01678123
:1010D0007085818592850895FC01478350876187DB
:1010E00072870895FC0183850895FC016387089544
:1010F00021E0FC01218B0895FC01858596850895EA
:10110000FC01768765870895FC018785908908959D
:10111000FC01708B6787089521E0FC01278F0895FB
:10112000FC01828993890895FC01738B628B089579
:10113000FC01848995890895FC01758B648B089561
:10114000FC0186890895FC01668B0895FC0167897E
:10115000708D818D928D0895FC01478B508F618F2A
:10116000728F0895FC01638D748D858D968D089521
:10117000FC01438F548F658F768F0895FC0160A129
:1011800071A182A193A10895FC0140A351A362A380
:1011900073A30895FC0164A175A186A197A1089588
:1011A000FC0144A355A366A377A30895FC0160A5A1
:1011B00071A582A593A50895FC0140A751A762A738
:1011C00073A7089521E0FC0125AB089521E0FC01FF
:1011D00026AB0895FC0184A50895FC0164A7089539
:1011E000FC0165A576A587A590A90895FC0145A7F2
:1011F00056A767A770AB0895FC0161A972A983A9DE
:1012000094A90895FC0141AB52AB63AB74AB089554
:1012100087B3807F87BB87B3876087BB81E58DB944
:1012200081E08EB908958FB9779BFECF8FB1089575
:1012300083E083BF83E882BF81E087BF10920D0205
:1012400010920C0278940895CF92DF92EF92FF9261
:10125000CF93DF93EC016A017B0140910C02509126
:101260000D0214161506E4F4E4E2F2E0DF0116962E
:1012700020E030E070E061E0808191818C179D0773
:1012800031F413821282D582C4826C93762F2F5F41
:101290003F4F379617962417350774F37723C9F411
:1012A000FA01EE0FFF1FEE0FFF1FEE0FFF1FE41BF3
:1012B000F50BEC5DFD4FD183C08313821282D58282
:1012C000C48281E086834F5F5F4F50930D0240934D
:1012D0000C02DF91CF91FF90EF90DF90CF900895B7
:1012E000DC0160910C0270910D021616170664F570
:1012F00080912402909125028A179B07E1F40AC08D
:10130000295F3F4FF9013797808191818A179B07A9
:10131000B1F402C040E050E0FA01EE0FFF1FEE0F03
:10132000FF1FEE0FFF1FE41BF50BEC5DFD4F13825B
:101330001282168208952BE232E040E050E04F5FC7
:101340005F4F46175707E1F60895CF92DF92EF926D
:10135000FF920F931F93CF93DF936C0180910C0248
:1013600090910D021816190694F5CAE2D2E08E018A
:1013700006501040EE24FF2488818823D9F0D8013C
:1013800012968D919C911397019613969C938E9330
:10139000129714962D913C9115978217930751F44B
:1013A00013961C921E92129718826D917C91C60121
:1013B0000E940C080894E11CF11C2796095F1F4F3E
:1013C00080910C0290910D02E816F906ACF2DF91C3
:1013D000CF911F910F91FF90EF90DF90CF900895E4
:1013E00084E292E00E94080B10920D0210920C020F
:1013F0000895909398008093990088E980939A00CB
:1014000086E080939D0078940895EBE9F0E0908168
:1014100095FFFDCF80939C000895CF93DF93EC015F
:101420008881882331F021960E94050A89918823BA
:10143000D9F780E00E94050ADF91CF9108956623D5
:1014400071F080910E0290910F02FC01E659FD4F60
:101450006083019690930F0280930E0208956AE6CE
:1014600072E0E0910E02F0910F02E60FF71F10827A
:101470000E94940810920F0210920E020895991B78
:1014800079E004C0991F961708F0961B881F7A957B
:10149000C9F78095089597FB092E07260AD077FD96
:1014A00004D00CD006D000201AF4709561957F4FBF
:1014B0000895F6F7909581959F4F0895AA1BBB1B41
:1014C00051E107C0AA1FBB1FA617B70710F0A61B44
:1014D000B70B881F991F5A95A9F780959095BC0165
:1014E000CD010895CF93DF93AC018230910510F4C4
:1014F00042E050E0E0918E02F0918F0220E030E077
:10150000A0E0B0E024C08081918184179507D0F0DD
:101510008417950771F482819381109729F01396AF
:101520009C938E9312972CC090938F0280938E027F
:1015300027C02115310519F08217930718F49C0173
:10154000BD01EF0192818381DF01E92FF82F3097F0
:10155000D1F621153105F9F0C901841B950B8430B2
:10156000910580F48A819B816115710521F0FB0151
:101570009383828304C090938F0280938E02FE0136
:10158000329642C0FE01E80FF91F41935193029732
:101590009983888339C080918C0290918D02009745
:1015A00041F4809107029091080290938D028093FC
:1015B0008C0220910502309106022115310541F47B
:1015C0002DB73EB78091090290910A02281B390B72
:1015D000E0918C02F0918D02E217F30798F42E1B34
:1015E0003F0B2417350770F0CA01029628173907F8
:1015F00048F08E0F9F1F90938D0280938C02419331
:10160000519302C0E0E0F0E0CF01DF91CF91089567
:101610000F931F93CF93DF939C01009709F48CC025
:10162000DC01129713961C921E92129760918E0203
:1016300070918F026115710589F48D919C911197BC
:10164000820F931F20918C0230918D022817390749
:1016500069F5B0938D02A0938C026EC0FB0140E04F
:1016600050E001C0FC01EA17FB0730F4828193814E
:10167000AF010097B9F71FC0E9012297FB83EA8306
:1016800008811981C901800F911F8E179F0759F496
:1016900080819181800F911F029699838883828136
:1016A00093819B838A834115510529F4B0938F025E
:1016B000A0938E0241C0FA01B383A283C191D1915C
:1016C000EC0FFD1FAE17BF0781F4F90192918291D3
:1016D0008C0F9D1F0296DA0111969C938E93828146
:1016E000938113969C938E931297E0E0F0E002C0F2
:1016F000FB01BC01DB0112968D919C911397009721
:10170000B9F7CB0102962D913C911197820F931F4F
:1017100020918C0230918D022817390769F4309797
:1017200029F410928F0210928E0202C0138212824C
:1017300070938D0260938C02DF91CF911F910F9176
:1017400008950F931F93CF93DF93CDB7DEB72E97F6
:101750000FB6F894DEBF0FBECDBF0D891E8986E09F
:101760008C831A8309838FEF9FE79E838D83AE015D
:10177000475E5F4FCE0101966F89788D0E94D00B36
:10178000EF81F885E00FF11F10822E960FB6F894C6
:10179000DEBF0FBECDBFDF91CF911F910F91089596
:1017A0002F923F924F925F926F927F928F929F9271
:1017B000AF92BF92CF92DF92EF92FF920F931F935F
:1017C000CF93DF93CDB7DEB72D970FB6F894DEBF7A
:1017D0000FBECDBF3C017D876C875A01FC0117828B
:1017E0001682838181FFC8C12E010894411C511CBF
:1017F000F3019381EC85FD8593FD859193FF8191A4
:10180000FD87EC87882309F4B3C1853241F493FD49
:10181000859193FF8191FD87EC87853229F490E0D3
:10182000B3010E94ED0DE4CFFF24EE2410E010324E
:10183000B0F48B3269F08C3228F4803251F083326C
:1018400071F40BC08D3239F0803349F411602CC033
:101850001260146029C0186027C0106125C017FDF0
:101860002EC0282F20532A3098F416FF08C08F2D41
:10187000880FF82EFF0CFF0CF80EF20E15C08E2DFF
:10188000880FE82EEE0CEE0CE80EE20E10620CC093
:101890008E3221F416FD6CC1106406C08C3611F432
:1018A000106802C0883659F4EC85FD8593FD85915A
:1018B00093FF8191FD87EC87882309F0B8CF982F9B
:1018C0009554933018F09052933038F424E030E07F
:1018D000A20EB31E3FE339830FC0833631F0833746
:1018E00081F0833509F05AC022C0F50180818983D7
:1018F00022E030E0A20EB31E21E0C22ED12C420124
:1019000014C092E0292E312C2A0C3B1CF50180805A
:10191000918016FF03C06F2D70E002C06FEF7FEF64
:10192000C4010E94E20D6C0151011F7715C082E0D5
:10193000282E312C2A0C3B1CF5018080918016FF4B
:1019400003C06F2D70E002C06FEF7FEFC4010E94F3
:10195000D70D6C011068510113FD1CC006C080E258
:1019600090E0B3010E94ED0DEA948E2D90E0C81630
:10197000D906A8F30FC0F40117FD859117FF8191D7
:101980004F0190E0B3010E94ED0DE110EA9408943C
:10199000C108D108C114D10471F7E7C0843611F031
:1019A000893651F5F50117FF07C080819181A28129
:1019B000B38124E030E008C080819181AA2797FD9F
:1019C000A095BA2F22E030E0A20EB31E012F0F76B1
:1019D000B7FF08C0B095A095909581959F4FAF4FE8
:1019E000BF4F0068BC01CD01A2012AE030E00E9497
:1019F000190ED82ED4183FC0853721F41F7E2AE057
:101A000030E020C0197F8F36A9F0803720F4883568
:101A100009F0AEC00BC0803721F0883709F0A8C0AC
:101A200001C0106114FF09C0146007C014FF08C092
:101A3000166006C028E030E005C020E130E002C0BA
:101A400020E132E0F50117FF07C0608171818281DA
:101A5000938144E050E006C06081718180E090E0B5
:101A600042E050E0A40EB51EA2010E94190ED82E2D
:101A7000D418012F0F7706FF09C00E7FDF1430F452
:101A800004FF06C002FD04C00F7E02C01D2D01C070
:101A90001F2D802F90E004FF0CC0FE01ED0DF11D05
:101AA0002081203311F4097E09C002FF06C01E5FA9
:101AB00005C086789070009709F01F5F802E9924EA
:101AC00003FD12C000FF0DC0FD2C1E1550F4FE0CCE
:101AD000F11A1E2D06C080E290E0B3010E94ED0DC8
:101AE0001F5F1E15C0F304C01E1510F4E11A01C0DB
:101AF000EE2484FE0FC080E390E0B3010E94ED0D60
:101B000082FE1FC081FE03C088E590E010C088E718
:101B100090E00DC0C40186789070009791F081FC30
:101B200002C080E201C08BE207FD8DE290E0B301CC
:101B30000E94ED0D06C080E390E0B3010E94ED0D20
:101B4000FA94DF14C0F3DA94F201ED0DF11D8081F7
:101B500090E0B3010E94ED0DDD20A9F706C080E200
:101B600090E0B3010E94ED0DEA94EE20C1F740CE63
:101B7000F3018681978102C08FEF9FEF2D960FB6FC
:101B8000F894DEBF0FBECDBFDF91CF911F910F91B3
:101B9000FF90EF90DF90CF90BF90AF909F908F908D
:101BA0007F906F905F904F903F902F900895FC0131
:101BB0000590615070400110D8F7809590958E0F78
:101BC0009F1F0895FC016150704001900110D8F7EB
:101BD000809590958E0F9F1F08950F931F93CF931D
:101BE000DF938C01EB018B8181FF1BC082FF0DC055
:101BF0002E813F818C819D812817390764F4E8810B
:101C0000F9810193F983E88306C0E885F985802F7F
:101C10000995009731F48E819F8101969F838E8371
:101C200002C00FEF1FEFC801DF91CF911F910F91FD
:101C30000895FA01AA27283051F1203181F1E89462
:101C40006F936E7F6E5F7F4F8F4F9F4FAF4FB1E0AF
:101C50003ED0B4E03CD0670F781F891F9A1FA11DAA
:101C6000680F791F8A1F911DA11D6A0F711D811DAB
:101C7000911DA11D20D009F468943F912AE0269F70
:101C800011243019305D3193DEF6CF010895462FCF
:101C90004770405D4193B3E00FD0C9F7F6CF462FB0
:101CA0004F70405D4A3318F0495D31FD4052419319
:101CB00002D0A9F7EACFB4E0A695979587957795D6
:101CC0006795BA95C9F700976105710508959B015D
:101CD000AC010A2E06945795479537952795BA95E6
:101CE000C9F7620F731F841F951FA01D0895F894F4
:021CF000FFCF24
:101CF2000C12120C000000000C1204081E0000005E
:101D02000A15110A040000000305090B0B1818003C
:101D12001F0E0E0404040404010105051515150027
:101D22000E11111F1F1F1F00000000000000000005
:101D320000E8E8F0F0E2C1C2C2C2C6696E666F0D89
:101D42000A005354415455533A20253032580D0A53
:101D520000434F4E4649473A20253032580D0A007B
:101D620052465F43483A20253032580D0A00524607
:101D72005F53455455503A20253032580D0A0045DC
:101D82004E5F41413A20253032580D0A00454E5FE0
:101D92005258414444523A20253032580D0A004FDD
:101DA2004253455256455F54583A20253032580D19
:101DB2000A000D0A00E8E8F0F0E2C1C2C2C2C2C1E4
:101DC200C2C2C2C3C1C2C2C2C4C1C2C2C2C5C1C2EE
:101DD200C2C2C6E8E8F0F0E25761697474696E67DE
:101DE2002E2E2E0057616974696E6720666F72200D
:0C1DF20064617461000000900220000099
:00000001FF
