:100000000C9446000C9465000C9465000C946500FB
:100010000C9465000C9465000C9465000C946500CC
:100020000C9465000C9465000C9465000C946500BC
:100030000C9465000C9465000C9465000C946500AC
:100040000C949D030C9465000C9465000C94650061
:100050000C9465000C9465000C9465000C9465008C
:100060000C9465000C9465000C9465000C9465007C
:100070000C9465000C9465000C9465000C9465006C
:100080000C9465000C9465000C94650011241FBE4F
:10009000CFEFD0E1DEBFCDBF12E0A0E0B1E0ECE8F1
:1000A000FEE100E00BBF02C007900D92A032B10745
:1000B000D9F712E0A0E2B2E001C01D92AD3AB1075B
:1000C000E1F70E945A030C94440F0C940000AF9285
:1000D000BF92CF92DF92EF92FF920F931F93CF9335
:1000E000DF9320E030E041E050E0E2E6F0E0A0E124
:1000F000B1E00F2EF1E1AF2EF1E0BF2EF02D02E1C5
:1001000011E00F2EF3E1EF2EF1E0FF2EF02DB901FB
:10011000C90104966A0102C0CC0CDD1C8A95E2F785
:10012000C6018095808383E08A95F1F7000080B155
:100130008F708F3029F19C919817A9F0E501988173
:10014000981759F0E8019881981751F0E7019881C4
:100150009817B1F4E3E0F0E008C0E1E0F0E005C09A
:10016000E2E0F0E002C0E0E0F0E0EE0FFF1FEE0F93
:10017000FF1F6E0F7F1FFB01E050FF4F808106C005
:100180002F5F3F4F2430310511F680E0DF91CF9192
:100190001F910F91FF90EF90DF90CF90BF90AF90A5
:1001A000089580EF809361008FE08093620008954E
:1001B0008FEC97E00197F1F700C000000895282F19
:1001C00022952F708F70662311F4D89801C0D89AA9
:1001D000D99A9BB3220F220F937C922B9BBBD99869
:1001E000D99A9BB3880F880F937C892B8BBBD998A6
:1001F0000E94D80008950F931F93CF93DF938C0133
:10020000FC018081882309F18532A9F4E801219657
:10021000F80181818053883020F461E00E94DF0082
:100220000EC085E261E00E94DF00F801818161E09B
:100230000E94DF0004C061E00E94DF00E8018E013F
:100240000F5F1F4F89818823F9F6DF91CF911F91AE
:100250000F910895EF92FF920F931F93CF93DF9327
:1002600000D000D00F92CDB7DEB77B01FE013196F2
:1002700025E0DF011D922A95E9F7009761F0FE0164
:1002800036962AE030E0B9010E94E70A8293862F71
:10029000972F0097C1F7BFEFEB16BFEFFB0669F48E
:1002A0002981222379F4FE01329600E010E00F5FED
:1002B0001F4F21912223D9F307C005E010E00E194A
:1002C0001F0902C000E010E0992324F48DE261E0F0
:1002D0000E94DF0005301105BCF4E1E0F0E0EC0F16
:1002E000FD1F0E0F1F1F0F2EF6E0EF2EFF24F02D27
:1002F000EC0EFD1ED8018D918D01805D61E00E94A4
:10030000DF000E151F05B1F70F900F900F900F90A3
:100310000F90DF91CF911F910F91FF90EF90089573
:10032000843178F4623031F0633031F0613029F497
:10033000806403C08C5E01C08C5A806860E00E94BB
:10034000DF0008950F931F93CF93DF93C82F8BE4A3
:100350009DE10197F1F700C000008AB38C638ABB6E
:10036000D19AD09A8BB3837C8BBBD998D898D99AE1
:10037000DB9AD9980E94D8008C2F8C6060E00E9494
:10038000DF0088E260E00E94DF0080E460E00E941D
:10039000DF00C4E1D1E004E511E0899161E00E9451
:1003A000DF00C017D107C9F780E060E00E9490012C
:1003B000DF91CF911F910F9108950E946700682FE0
:1003C00070E080E090E008950E94D10008950E94BE
:1003D000FB0008950F93CF93DF93EC01842F602FE0
:1003E0000E949001CE010E94FB00DF91CF910F91FE
:1003F00008954F925F926F927F92AF92BF92CF9289
:10040000DF92EF92FF922B013C01822F6E2D76013D
:1004100065010E949001C201B6010E942A01FF906D
:10042000EF90DF90CF90BF90AF907F906F905F90F4
:100430004F90089581E060E00E94DF0082E060E07C
:100440000E94DF00089580E00E94A20108950F93AA
:100450001F93CF93DF930F92CDB7DEB71982CE01F2
:1004600001960E943D068823E9F080E061E00E9449
:100470009001898190E061E070E00E942A01898109
:10048000882399F4E4E2F2E0CF0109961192E8178B
:10049000F907E1F704E212E080E0B8010E944F069C
:1004A000C80105C084E591E002C084E591E00F90A9
:1004B000DF91CF911F910F910895CF93DF939C010E
:1004C000C8E3D2E080E090E0A22FB32FFD010190BD
:1004D0000020E9F73197EA1BFB0B8E179F0730F4DA
:1004E000F901E80FF91F4081488301C01882019685
:1004F00021968930910541F785E591E00E94AD0490
:1005000088E392E00E947506982FEFECF7E03197B0
:10051000F1F700C0000081E0913009F080E0DF9148
:10052000CF910895E8E3F2E0CF01099621E021930D
:10053000E817F907E1F78AE591E00E94AD0488E346
:1005400092E00E947506982FEFECF7E03197F1F7F3
:1005500000C0000081E0913009F080E008950F9321
:100560001F93CF93DF930F92CDB7DEB71982CE01E1
:1005700001960E943D068823F1F089818530E9F4D7
:10058000E4E2F2E08F01075F1F4F1192E017F107DD
:10059000E1F785E064E272E00E944F068091240258
:1005A000813069F4E5E2F2E08191813051F4E017A5
:1005B000F107D1F707C080E005C080E003C080E00C
:1005C00001C080E00F90DF91CF911F910F910895AE
:1005D000AF92EF92822FE8E3F2E0AF01475F5F4F07
:1005E0001192E417F507E1F7605D609338023AE095
:1005F000632F0E94DB0A905D90933A020E94DB0A0F
:10060000905D909339028E2D0E94DB0A905D90934D
:100610003D020E94DB0A905D90933C020E94DB0A3F
:10062000905D90933B028A2D0E94DB0A905D90932F
:100630003F020E94DB0A905D90933E0285E591E0C7
:100640000E94AD0488E392E00E947506982FEFECBB
:10065000F7E03197F1F700C0000081E0913009F038
:1006600080E0EF90AF90089583E390E00E949B0AB2
:1006700008950E94A80A08950E94A60908950E945C
:10068000F20908950E94CB060895DA01C901019785
:10069000A109B109815D9D4F605DFC0160830895F2
:1006A000109237028FE292E00E94A80A08950E94F9
:1006B000BA0A08958FE084BB85BB82E090E00E9477
:1006C0000E0B80932D0290932E020E949A09809126
:1006D0002D0290912E020E948A0780912D02909106
:1006E0002E020E94900781E68093380282E6809372
:1006F000390283E680933A0284E680933B0285E6E2
:1007000080933C0286E680933D0287E680933E021A
:1007100088E680933F0289E680934002E4E2F2E0BB
:10072000CF0109961192E817F907E1F780912D02A0
:1007300090912E020E94E607F9CF1F920F920FB6FA
:100740000F920BB60F9211242F933F934F935F9309
:100750006F937F938F939F93AF93BF93EF93FF9389
:1007600083E882BF80912D0290912E020E94280A78
:10077000FF91EF91BF91AF919F918F917F916F9179
:100780005F914F913F912F910F900BBE0F900FBE35
:100790000F901F901895AE988F710E9495098FEF5A
:1007A0000E949509AE9A0895FF920F931F93CF93DD
:1007B000DF93062FF72E142FAE988F710E949509A4
:1007C000112351F0C02FDF2D00E08FEF0E9495091B
:1007D00089930F5F0117C9F7AE9ADF91CF911F91EF
:1007E0000F91FF900895CF93C62FAE988F718062BE
:1007F0000E9495098C2F0E949509AE9ACF91089579
:10080000FF920F931F93CF93DF93062FF72E142F92
:10081000AE988F7180620E949509112349F0C02F14
:10082000DF2D00E089910E9495090F5F0117D1F734
:10083000AE9ADF91CF911F910F91FF90089520E024
:1008400030E00496DB01A20FB31FFC01E21BF30BA7
:1008500040814C932F5F3F4F2530310599F7089524
:10086000CF93DF9300D000D00F92CDB7DEB78823AF
:10087000B1F4A9EDB1E0FB0185E001900D9281504A
:10088000E1F7CB01BE016F5F7F4F0E941F048AE03A
:10089000BE016F5F7F4F45E00E94000456C081306B
:1008A000B1F4AEEDB1E0FB0185E001900D92815015
:1008B000E1F7CB01BE016F5F7F4F0E941F048BE009
:1008C000BE016F5F7F4F45E00E9400043EC0823052
:1008D00071F4A3EEB1E0FB0185E001900D9281502F
:1008E000E1F78CE0FB0164810E94F3032EC08330AA
:1008F00071F4A8EEB1E0FB0185E001900D9281500A
:10090000E1F78DE0FB0164810E94F3031EC0843097
:1009100071F4ADEEB1E0FB0185E001900D928150E4
:10092000E1F78EE0FB0164810E94F3030EC0853085
:1009300061F4A2EFB1E0FB0101900D928150E1F76B
:100940008FE0FB0164810E94F3030F900F900F90E2
:100950000F900F90DF91CF910895CF93DF9300D048
:1009600000D00F92CDB7DEB7A7EFB1E0E82FF92F97
:1009700025E001900D922150E1F7BE016F5F7F4F9E
:100980000E941F048AE0BE016F5F7F4F45E00E9416
:10099000000480E1BE016F5F7F4F45E00E940004CC
:1009A0000F900F900F900F900F90DF91CF910895BF
:1009B000AE9882EE0E949509AE9A0895AE9881EEA7
:1009C0000E949509AE9A089580E069ED71E00E9459
:1009D000300480E00E94CB03682F616080E00E94B9
:1009E000F30380E00E94CB03682F626080E00E94E6
:1009F000F30387E060E70E94F3030E94D8040E949B
:100A0000DE04AF9A82E38A95F1F70895AF9880E00B
:100A10000E94CB03682F6E7F80E00E94F30380E08A
:100A20000E94CB03682F626080E00E94F30387E09E
:100A300060E70E94F3030E94DE0482E38A95F1F7E7
:100A40000895AE988FEF0E949509AE9A0895EF929F
:100A5000FF920F931F93CF93DF93CDB7DEB7C456AA
:100A6000D0400FB6F894DEBF0FBECDBF7C018FE53E
:100A700091E0F70109950E94210500D000D000D037
:100A8000EDB7FEB731968E010F5F1F4FADB7BEB702
:100A900012961C930E93119726E631E0338322833E
:100AA000848315820E945E0C8DB79EB706960FB6A2
:100AB000F8949EBF0FBE8DBFC801F701099580E075
:100AC0000E94CB0300D000D000D0EDB7FEB7319626
:100AD000ADB7BEB712961C930E93119725E731E080
:100AE00033832283848315820E945E0C8DB79EB768
:100AF00006960FB6F8949EBF0FBE8DBFC801F701D2
:100B0000099585E00E94CB0300D000D000D0EDB75E
:100B1000FEB73196ADB7BEB712961C930E931197E0
:100B200024E831E033832283848315820E945E0CA3
:100B30008DB79EB706960FB6F8949EBF0FBE8DBFB9
:100B4000C801F701099586E00E94CB0300D000D0D0
:100B500000D0EDB7FEB73196ADB7BEB712961C9375
:100B60000E93119722E931E0338322838483158227
:100B70000E945E0C8DB79EB706960FB6F8949EBF86
:100B80000FBE8DBFC801F701099581E00E94CB031C
:100B900000D000D000D0EDB7FEB73196ADB7BEB7EC
:100BA00012961C930E93119723EA31E0338322832C
:100BB000848315820E945E0C8DB79EB706960FB691
:100BC000F8949EBF0FBE8DBFC801F701099582E062
:100BD0000E94CB0300D000D000D0EDB7FEB7319615
:100BE000ADB7BEB712961C930E93119721EB31E06F
:100BF00033832283848315820E945E0C8DB79EB757
:100C000006960FB6F8949EBF0FBE8DBFC801F701C0
:100C1000099588E00E94CB0300D000D000D0EDB74A
:100C2000FEB73196ADB7BEB712961C930E931197CF
:100C300023EC31E033832283848315820E945E0C8F
:100C40008DB79EB706960FB6F8949EBF0FBE8DBFA8
:100C5000C801F701099586ED91E0F7010995CC5996
:100C6000DF4F0FB6F894DEBF0FBECDBFDF91CF913F
:100C70001F910F91FF90EF900895CF93DF93EC01B8
:100C80000E942105982F907486FF05C0209719F0C7
:100C9000869587708883892FDF91CF9108950F9370
:100CA0001F93CF93DF93062F172FAE9881E60E94F4
:100CB0009509C02FD12F10E08FEF0E9495098993DD
:100CC0001F5F1930C9F7AE9A87E060E40E94F30312
:100CD0000E94210585FF04C087E060E20E94F303C3
:100CE000DF91CF911F910F9108950F931F93CF9391
:100CF000DF93082F192F0E940605AE9880EA0E9404
:100D00009509C02FD12F19E089910E9495091150A2
:100D1000D9F7AE9AAF9A85E08A95F1F7AF9883E05C
:100D20008A95F1F700000E9421058073C1F30E94AB
:100D30002105C82F85E06CE40E94F30380E00E9447
:100D4000CB03682F6D7F80E00E94F3030E94E404D0
:100D500081E0C5FF80E0DF91CF911F910F91089551
:100D600086E00E94CB03682F666086E00E94F30352
:100D7000089586E00E94CB03682F677D86E00E947D
:100D8000F303089580E00E94CB03682F6C6080E03D
:100D90000E94F3030895A69AA79A0E948A09AF9821
:100DA000AE9A81EE94E00197F1F700C000000E9436
:100DB000B0060E94B9060E94C20684E067E40E9461
:100DC000F3038CE160E00E94F30385E06CE40E9491
:100DD000F30381E169E00E94F30382E169E00E948C
:100DE000F30383E169E00E94F30384E169E00E9478
:100DF000F30385E169E00E94F30386E169E00E9464
:100E0000F30382E060E00E94F30382E00E94CB03E0
:100E1000682F616082E00E94F30382E00E94CB03AE
:100E2000682F626082E00E94F30382E00E94CB039D
:100E3000682F646082E00E94F30382E00E94CB038B
:100E4000682F686082E00E94F30382E00E94CB0377
:100E5000682F606182E00E94F30382E00E94CB036E
:100E6000682F606282E00E94F30381E00E94CB035E
:100E7000682F616081E00E94F30381E00E94CB0350
:100E8000682F626081E00E94F30381E00E94CB033F
:100E9000682F646081E00E94F30381E00E94CB032D
:100EA000682F686081E00E94F30381E00E94CB0319
:100EB000682F606181E00E94F30381E00E94CB0310
:100EC000682F606281E00E94F30380E069ED71E0C9
:100ED0000E94300481E06EED71E00E94300482E0F7
:100EE00063EE71E00E94300483E068EE71E00E94DE
:100EF000300484E06DEE71E00E94300485E062EF22
:100F000071E00E94300487EF91E00E94AD040E94DE
:100F1000E4040895FC0187E0808312821182089521
:100F20001F93CF93DF93EC0111E01CA7C79648EE07
:100F300053E060E070E020E00E943C0381E090E03C
:100F4000A0E0B0E089AB9AABABABBCAB0E94230294
:100F50000E9442030E9434030E941A028CEF91E027
:100F60000E94E70118831A821982DF91CF911F91A5
:100F70000895FC0180818430D1F0853028F48130DF
:100F800041F0833011F50EC08530B1F08630E9F4C0
:100F900018C087E0808312821182CF01C7960E9419
:100FA0003F03089587E0808312821182089587E0CD
:100FB000808312821182089587E0808312821182D9
:100FC000089587E080831282118208950F931F9302
:100FD000CF93DF93EC011A82198288818430B9F1B2
:100FE000853030F4813059F0833009F07FC022C061
:100FF000853009F451C0863009F078C059C08FA9F6
:10100000882309F473C087E088831A821982CE018D
:10101000C7960E943F0388E092E040E050E0BA01AA
:1010200000E010E098010E94EA0183E088831A82C0
:1010300019826EC087E088831A8219820E94270273
:101040009B8B8A8B84E088831A82198261C0EA892B
:10105000FB8980818823B9F087E088831A8219820E
:10106000CF0140E050E0BA0101E010E020E030E0C4
:101070000E94EA018A899B890E94390385E088835E
:101080001A82198245C00E9427029B8B8A8B84E0BA
:1010900088831A8219823CC087E088831A82198269
:1010A0000E9492028E8B86E088831A82198230C059
:1010B0008E89882341F40E9492028E8B86E0888379
:1010C0001A82198225C087E088831A82198288E0F3
:1010D00092E040E050E0BA0100E010E098010E9488
:1010E000EA0183E088831A82198212C089819A8179
:1010F00001969A838983009709F46FCF1C86198A19
:101100001F8E1DAA1EAADF91CF911F910F910895E6
:1011100089819A8101969A838983F0CFC79668174F
:1011200079073CF001966817790718F481E0FB0114
:1011300080830895FC01633009F1643028F4613044
:1011400081F06230A0F407C0653021F16530E0F035
:10115000663061F525C081E09081973040F180E0F4
:10116000089581E09081913011F180E0089590819F
:10117000925081E09530D8F080E0089581E0908130
:101180009330A9F080E0089581E09081943079F067
:1011900080E0089581E09081953049F080E00895E5
:1011A00081E09081963019F080E0089580E0089504
:1011B00021E0FC0124870895FC016381748185810D
:1011C00096810895FC014383548365837683089553
:1011D000FC0167817085818592850895FC014783B4
:1011E0005087618772870895FC0183850895FC010B
:1011F0006387089521E0FC01218B0895FC0185851A
:1012000096850895FC01768765870895FC0187859A
:1012100090890895FC01708B6787089521E0FC0197
:10122000278F0895FC01828993890895FC01738BAF
:10123000628B0895FC01848995890895FC01758B62
:10124000648B0895FC0186890895FC01668B0895DE
:10125000FC016789708D818D928D0895FC01478B0B
:10126000508F618F728F0895FC01638D748D858D11
:10127000968D0895FC01438F548F658F768F089566
:10128000FC0160A171A182A193A10895FC0140A37A
:1012900051A362A373A30895FC0164A175A186A163
:1012A00097A10895FC0144A355A366A377A30895CD
:1012B000FC0160A571A582A593A50895FC0140A736
:1012C00051A762A773A7089521E0FC0125AB0895FB
:1012D00021E0FC0126AB0895FC0184A50895FC01E2
:1012E00064A70895FC0165A576A587A590A9089532
:1012F000FC0145A756A767A770AB0895FC0161A93B
:1013000072A983A994A90895FC0141AB52AB63ABC8
:1013100074AB089587B3807F87BB87B3876087BB33
:1013200081E58DB981E08EB908958FB9779BFECFA5
:101330008FB1089583E083BF83E882BF81E087BFD8
:10134000109221021092200278940895CF92DF9299
:10135000EF92FF92CF93DF93EC016A017B01409102
:1013600020025091210214161506E4F4E1E4F2E0A3
:10137000DF01169620E030E070E061E0808191812D
:101380008C179D0731F413821282D582C4826C932C
:10139000762F2F5F3F4F379617962417350774F334
:1013A0007723C9F4FA01EE0FFF1FEE0FFF1FEE0FB8
:1013B000FF1FE41BF50BEF5BFD4FD183C08313824E
:1013C0001282D582C48281E086834F5F5F4F509343
:1013D000210240932002DF91CF91FF90EF90DF90A8
:1013E000CF900895DC0160912002709121021616C1
:1013F00017066CF580914102909142028A179B0773
:10140000E9F40AC0295F3F4FF90137978081918144
:101410008A179B07B9F402C040E050E0FA01EE0FD2
:10142000FF1FEE0FFF1FEE0FFF1FE41BF50BEF5B1F
:10143000FD4F1382128216821C92089528E432E036
:1014400040E050E04F5F5F4F46175707D9F60895C9
:10145000CF92DF92EF92FF920F931F93CF93DF9380
:101460006C0180912002909121021816190694F5C2
:10147000C7E4D2E08E0106501040EE24FF2488819C
:101480008823D9F0D80112968D919C9113970196DB
:1014900013969C938E93129714962D913C911597C9
:1014A0008217930751F413961C921E92129718827A
:1014B0006D917C91C6010E948E080894E11CF11C7C
:1014C0002796095F1F4F8091200290912102E81614
:1014D000F906ACF2DF91CF911F910F91FF90EF9041
:1014E000DF90CF90089581E492E00E94A40B1092C7
:1014F0002102109220020895CF93DF9300D000D0F4
:101500000F92CDB7DEB719821A821B821C821D8210
:10151000BE016F5F7F4F4AE050E00E943D0CCE015C
:1015200001960E94A80A0F900F900F900F900F90B5
:10153000DF91CF9108959093900089B988E18AB99D
:1015400086E08093950008955D9BFECF8CB9089549
:10155000CF93DF93EC018881882331F021960E949C
:10156000A40A89918823D9F780E00E94A40ADF9118
:10157000CF910895109223021092220247E852E080
:1015800002C02CB130E05F9BFCCF80912202909191
:101590002302FA01E80FF91F20830196909323029A
:1015A000809322022115310519F0803291055CF3F8
:1015B00087E892E00895991B79E004C0991F961777
:1015C00008F0961B881F7A95C9F78095089597FBB8
:1015D000092E07260AD077FD04D00CD006D00020B3
:1015E0001AF4709561957F4F0895F6F7909581955F
:1015F0009F4F0895AA1BBB1B51E107C0AA1FBB1F29
:10160000A617B70710F0A61BB70B881F991F5A958E
:10161000A9F780959095BC01CD010895CF93DF93F4
:10162000AC018230910510F442E050E0E091AB0251
:10163000F091AC0220E030E0A0E0B0E024C0808176
:10164000918184179507D0F08417950771F48281F2
:101650009381109729F013969C938E9312972CC028
:101660009093AC028093AB0227C02115310519F08D
:101670008217930718F49C01BD01EF0192818381C9
:10168000DF01E92FF82F3097D1F621153105F9F058
:10169000C901841B950B8430910580F48A819B815C
:1016A0006115710521F0FB019383828304C090933F
:1016B000AC028093AB02FE01329642C0FE01E80FFD
:1016C000F91F4193519302979983888339C0809180
:1016D000A9029091AA02009741F480911B02909177
:1016E0001C029093AA028093A902209119023091C2
:1016F0001A022115310541F42DB73EB780911D0224
:1017000090911E02281B390BE091A902F091AA02C8
:10171000E217F30798F42E1B3F0B2417350770F0E0
:10172000CA0102962817390748F08E0F9F1F909321
:10173000AA028093A9024193519302C0E0E0F0E035
:10174000CF01DF91CF9108950F931F93CF93DF9334
:101750009C01009709F48CC0DC01129713961C922F
:101760001E9212976091AB027091AC0261157105E7
:1017700089F48D919C911197820F931F2091A9025A
:101780003091AA022817390769F5B093AA02A093ED
:10179000A9026EC0FB0140E050E001C0FC01EA1765
:1017A000FB0730F482819381AF010097B9F71FC026
:1017B000E9012297FB83EA8308811981C901800F1F
:1017C000911F8E179F0759F480819181800F911F7F
:1017D000029699838883828193819B838A834115B2
:1017E000510529F4B093AC02A093AB0241C0FA01B9
:1017F000B383A283C191D191EC0FFD1FAE17BF0738
:1018000081F4F901929182918C0F9D1F0296DA0169
:1018100011969C938E938281938113969C938E93C1
:101820001297E0E0F0E002C0FB01BC01DB01129680
:101830008D919C9113970097B9F7CB0102962D914A
:101840003C911197820F931F2091A9023091AA0217
:101850002817390769F4309729F41092AC021092D6
:10186000AB0202C0138212827093AA026093A90293
:10187000DF91CF911F910F910895FB019F01E89493
:101880004230C4F04532B4F44A3029F497FB1EF4D8
:10189000909581959F4F642F77270E94FA0A805D6B
:1018A0008A330CF0895D8193CB010097A1F716F480
:1018B0005DE251931082C9010C94AA0E0F931F93FD
:1018C000CF93DF93CDB7DEB72E970FB6F894DEBF78
:1018D0000FBECDBF0D891E8986E08C831A830983D4
:1018E0008FEF9FE79E838D83AE01475E5F4FCE01F2
:1018F00001966F89788D0E948D0CEF81F885E00F3D
:10190000F11F10822E960FB6F894DEBF0FBECDBF2A
:10191000DF91CF911F910F9108952F923F924F9297
:101920005F926F927F928F929F92AF92BF92CF926F
:10193000DF92EF92FF920F931F93CF93DF93CDB778
:10194000DEB72D970FB6F894DEBF0FBECDBF3C01BA
:101950007D876C875A01FC0117821682838181FF83
:10196000C8C12E010894411C511CF3019381EC85E0
:10197000FD8593FD859193FF8191FD87EC878823F9
:1019800009F4B3C1853241F493FD859193FF8191B0
:10199000FD87EC87853229F490E0B3010E94BA0EEE
:1019A000E4CFFF24EE2410E01032B0F48B3269F063
:1019B0008C3228F4803251F0833271F40BC08D32B6
:1019C00039F0803349F411602CC01260146029C0D2
:1019D000186027C0106125C017FD2EC0282F205386
:1019E0002A3098F416FF08C08F2D880FF82EFF0CB0
:1019F000FF0CF80EF20E15C08E2D880FE82EEE0C9F
:101A0000EE0CE80EE20E10620CC08E3221F416FDD0
:101A10006CC1106406C08C3611F4106802C08836A0
:101A200059F4EC85FD8593FD859193FF8191FD87A8
:101A3000EC87882309F0B8CF982F9554933018F08D
:101A40009052933038F424E030E0A20EB31E3FE30E
:101A500039830FC0833631F0833781F0833509F045
:101A60005AC022C0F5018081898322E030E0A20EB5
:101A7000B31E21E0C22ED12C420114C092E0292EC7
:101A8000312C2A0C3B1CF5018080918016FF03C08D
:101A90006F2D70E002C06FEF7FEFC4010E949F0EB8
:101AA0006C0151011F7715C082E0282E312C2A0CC1
:101AB0003B1CF5018080918016FF03C06F2D70E004
:101AC00002C06FEF7FEFC4010E94940E6C0110689A
:101AD000510113FD1CC006C080E290E0B3010E94DA
:101AE000BA0EEA948E2D90E0C816D906A8F30FC05E
:101AF000F40117FD859117FF81914F0190E0B3012B
:101B00000E94BA0EE110EA940894C108D108C114E9
:101B1000D10471F7E7C0843611F0893651F5F5012B
:101B200017FF07C080819181A281B38124E030E05A
:101B300008C080819181AA2797FDA095BA2F22E045
:101B400030E0A20EB31E012F0F76B7FF08C0B0958C
:101B5000A095909581959F4FAF4FBF4F0068BC01F6
:101B6000CD01A2012AE030E00E94E60ED82ED41862
:101B70003FC0853721F41F7E2AE030E020C0197F66
:101B80008F36A9F0803720F4883509F0AEC00BC03D
:101B9000803721F0883709F0A8C001C0106114FF18
:101BA00009C0146007C014FF08C0166006C028E012
:101BB00030E005C020E130E002C020E132E0F50174
:101BC00017FF07C0608171818281938144E050E0FA
:101BD00006C06081718180E090E042E050E0A40E98
:101BE000B51EA2010E94E60ED82ED418012F0F7741
:101BF00006FF09C00E7FDF1430F404FF06C002FDAB
:101C000004C00F7E02C01D2D01C01F2D802F90E04B
:101C100004FF0CC0FE01ED0DF11D2081203311F4F5
:101C2000097E09C002FF06C01E5F05C0867890705D
:101C3000009709F01F5F802E992403FD12C000FF5A
:101C40000DC0FD2C1E1550F4FE0CF11A1E2D06C001
:101C500080E290E0B3010E94BA0E1F5F1E15C0F330
:101C600004C01E1510F4E11A01C0EE2484FE0FC05A
:101C700080E390E0B3010E94BA0E82FE1FC081FE95
:101C800003C088E590E010C088E790E00DC0C40173
:101C900086789070009791F081FC02C080E201C0CC
:101CA0008BE207FD8DE290E0B3010E94BA0E06C000
:101CB00080E390E0B3010E94BA0EFA94DF14C0F3FF
:101CC000DA94F201ED0DF11D808190E0B3010E94E4
:101CD000BA0EDD20A9F706C080E290E0B3010E94B1
:101CE000BA0EEA94EE20C1F740CEF30186819781C7
:101CF00002C08FEF9FEF2D960FB6F894DEBF0FBE98
:101D0000CDBFDF91CF911F910F91FF90EF90DF90AA
:101D1000CF90BF90AF909F908F907F906F905F908B
:101D20004F903F902F900895FC01059061507040B6
:101D30000110D8F7809590958E0F9F1F0895FC0194
:101D40006150704001900110D8F7809590958E0FEA
:101D50009F1F0895DC01FC01672F71917723E1F744
:101D6000329704C07C916D9370836291AE17BF0768
:101D7000C8F308950F931F93CF93DF938C01EB016A
:101D80008B8181FF1BC082FF0DC02E813F818C8122
:101D90009D812817390764F4E881F9810193F9835B
:101DA000E88306C0E885F985802F0995009731F40E
:101DB0008E819F8101969F838E8302C00FEF1FEF5C
:101DC000C801DF91CF911F910F910895FA01AA27C1
:101DD000283051F1203181F1E8946F936E7F6E5F6E
:101DE0007F4F8F4F9F4FAF4FB1E03ED0B4E03CD01C
:101DF000670F781F891F9A1FA11D680F791F8A1FFF
:101E0000911DA11D6A0F711D811D911DA11D20D065
:101E100009F468943F912AE0269F11243019305D1F
:101E20003193DEF6CF010895462F4770405D419310
:101E3000B3E00FD0C9F7F6CF462F4F70405D4A335D
:101E400018F0495D31FD4052419302D0A9F7EACF25
:101E5000B4E0A6959795879577956795BA95C9F754
:101E600000976105710508959B01AC010A2E069447
:101E70005795479537952795BA95C9F7620F731F00
:0C1E8000841F951FA01D0895F894FFCF4B
:101E8C000708090D0405060E0102030F0B0A0C10BE
:101E9C000E0D0B070C12120C000000000C120408A3
:101EAC001E0000000A15110A040000000305090BAE
:101EBC000B1818001F0E0E04040404040101050580
:101ECC00151515000E11111F1F1F1F00000000001B
:101EDC000000000000E8E8F0F0E2C1C2C2C2C6692E
:101EEC006E666F0D0A005354415455533A202530F9
:101EFC0032580D0A00434F4E4649473A202530329E
:101F0C00580D0A0052465F43483A20253032580D8E
:101F1C000A0052465F53455455503A2025303258EA
:101F2C000D0A00454E5F41413A20253032580D0ACA
:101F3C0000454E5F5258414444523A2025303258A5
:101F4C000D0A004F4253455256455F54583A2025CE
:101F5C003032580D0A000D0A00E8E8F0F0E2C1C278
:101F6C00C2C2C2C1C2C2C2C3C1C2C2C2C4C1C2C245
:101F7C00C2C5C1C2C2C2C6E8E8F0F0E257616974DA
:101F8C0074696E672E2E2E0057616974696E672016
:101F9C00666F722064617461000000AD0220000065
:00000001FF
